{
	"blockchain_app/multisig_wallet/contracts/Wallet.sol": {
		"Wallet": {
			"abi": [
				{
					"inputs": [
						{
							"internalType": "address[]",
							"name": "_approvers",
							"type": "address[]"
						},
						{
							"internalType": "uint256",
							"name": "_quorum",
							"type": "uint256"
						}
					],
					"stateMutability": "nonpayable",
					"type": "constructor"
				},
				{
					"inputs": [
						{
							"internalType": "address",
							"name": "",
							"type": "address"
						},
						{
							"internalType": "uint256",
							"name": "",
							"type": "uint256"
						}
					],
					"name": "approvals",
					"outputs": [
						{
							"internalType": "bool",
							"name": "",
							"type": "bool"
						}
					],
					"stateMutability": "view",
					"type": "function"
				},
				{
					"inputs": [
						{
							"internalType": "uint256",
							"name": "_id",
							"type": "uint256"
						}
					],
					"name": "approveTransfer",
					"outputs": [],
					"stateMutability": "nonpayable",
					"type": "function"
				},
				{
					"inputs": [
						{
							"internalType": "uint256",
							"name": "",
							"type": "uint256"
						}
					],
					"name": "approvers",
					"outputs": [
						{
							"internalType": "address",
							"name": "",
							"type": "address"
						}
					],
					"stateMutability": "view",
					"type": "function"
				},
				{
					"inputs": [
						{
							"internalType": "uint256",
							"name": "amount",
							"type": "uint256"
						},
						{
							"internalType": "address payable",
							"name": "to",
							"type": "address"
						}
					],
					"name": "createTransfer",
					"outputs": [],
					"stateMutability": "nonpayable",
					"type": "function"
				},
				{
					"inputs": [],
					"name": "getApprovers",
					"outputs": [
						{
							"internalType": "address[]",
							"name": "",
							"type": "address[]"
						}
					],
					"stateMutability": "view",
					"type": "function"
				},
				{
					"inputs": [],
					"name": "getTransfers",
					"outputs": [
						{
							"components": [
								{
									"internalType": "uint256",
									"name": "id",
									"type": "uint256"
								},
								{
									"internalType": "uint256",
									"name": "amount",
									"type": "uint256"
								},
								{
									"internalType": "address payable",
									"name": "to",
									"type": "address"
								},
								{
									"internalType": "uint256",
									"name": "approvals",
									"type": "uint256"
								},
								{
									"internalType": "bool",
									"name": "sent",
									"type": "bool"
								}
							],
							"internalType": "struct Wallet.Transfer[]",
							"name": "",
							"type": "tuple[]"
						}
					],
					"stateMutability": "view",
					"type": "function"
				},
				{
					"inputs": [],
					"name": "quorum",
					"outputs": [
						{
							"internalType": "uint256",
							"name": "",
							"type": "uint256"
						}
					],
					"stateMutability": "view",
					"type": "function"
				},
				{
					"inputs": [
						{
							"internalType": "uint256",
							"name": "",
							"type": "uint256"
						}
					],
					"name": "transfers",
					"outputs": [
						{
							"internalType": "uint256",
							"name": "id",
							"type": "uint256"
						},
						{
							"internalType": "uint256",
							"name": "amount",
							"type": "uint256"
						},
						{
							"internalType": "address payable",
							"name": "to",
							"type": "address"
						},
						{
							"internalType": "uint256",
							"name": "approvals",
							"type": "uint256"
						},
						{
							"internalType": "bool",
							"name": "sent",
							"type": "bool"
						}
					],
					"stateMutability": "view",
					"type": "function"
				}
			],
			"devdoc": {
				"author": "phuquyng",
				"details": "todo",
				"methods": {},
				"title": "Manage the multi signature wallet"
			},
			"evm": {
				"assembly": "    /* \"blockchain_app/multisig_wallet/contracts/Wallet.sol\":144:1975  contract Wallet {\r... */\n  mstore(0x40, 0x80)\n    /* \"blockchain_app/multisig_wallet/contracts/Wallet.sol\":692:822  constructor(address[] memory _approvers, uint _quorum) public {\r... */\n  callvalue\n    /* \"--CODEGEN--\":8:17   */\n  dup1\n    /* \"--CODEGEN--\":5:7   */\n  iszero\n  tag_1\n  jumpi\n    /* \"--CODEGEN--\":30:31   */\n  0x00\n    /* \"--CODEGEN--\":27:28   */\n  dup1\n    /* \"--CODEGEN--\":20:32   */\n  revert\n    /* \"--CODEGEN--\":5:7   */\ntag_1:\n    /* \"blockchain_app/multisig_wallet/contracts/Wallet.sol\":692:822  constructor(address[] memory _approvers, uint _quorum) public {\r... */\n  pop\n  mload(0x40)\n  sub(codesize, bytecodeSize)\n  dup1\n  bytecodeSize\n  dup4\n  codecopy\n  dup2\n  dup2\n  add\n  0x40\n  mstore\n  tag_2\n  swap2\n  swap1\n  dup2\n  add\n  swap1\n  jump(tag_3)\ntag_2:\n    /* \"blockchain_app/multisig_wallet/contracts/Wallet.sol\":777:787  _approvers */\n  dup2\n    /* \"blockchain_app/multisig_wallet/contracts/Wallet.sol\":765:774  approvers */\n  0x00\n    /* \"blockchain_app/multisig_wallet/contracts/Wallet.sol\":765:787  approvers = _approvers */\n  swap1\n  dup1\n  mload\n  swap1\n  0x20\n  add\n  swap1\n  tag_6\n  swap3\n  swap2\n  swap1\n  tag_7\n  jump\t// in\ntag_6:\n  pop\n    /* \"blockchain_app/multisig_wallet/contracts/Wallet.sol\":807:814  _quorum */\n  dup1\n    /* \"blockchain_app/multisig_wallet/contracts/Wallet.sol\":798:804  quorum */\n  0x01\n    /* \"blockchain_app/multisig_wallet/contracts/Wallet.sol\":798:814  quorum = _quorum */\n  dup2\n  swap1\n  sstore\n  pop\n    /* \"blockchain_app/multisig_wallet/contracts/Wallet.sol\":692:822  constructor(address[] memory _approvers, uint _quorum) public {\r... */\n  pop\n  pop\n    /* \"blockchain_app/multisig_wallet/contracts/Wallet.sol\":144:1975  contract Wallet {\r... */\n  jump(tag_8)\ntag_7:\n  dup3\n  dup1\n  sload\n  dup3\n  dup3\n  sstore\n  swap1\n  0x00\n  mstore\n  keccak256(0x00, 0x20)\n  swap1\n  dup2\n  add\n  swap3\n  dup3\n  iszero\n  tag_9\n  jumpi\n  swap2\n  0x20\n  mul\n  dup3\n  add\ntag_10:\n  dup3\n  dup2\n  gt\n  iszero\n  tag_11\n  jumpi\n  dup3\n  mload\n  dup3\n  exp(0x0100, 0x00)\n  dup2\n  sload\n  dup2\n  0xffffffffffffffffffffffffffffffffffffffff\n  mul\n  not\n  and\n  swap1\n  dup4\n  0xffffffffffffffffffffffffffffffffffffffff\n  and\n  mul\n  or\n  swap1\n  sstore\n  pop\n  swap2\n  0x20\n  add\n  swap2\n  swap1\n  0x01\n  add\n  swap1\n  jump(tag_10)\ntag_11:\ntag_9:\n  pop\n  swap1\n  pop\n  tag_12\n  swap2\n  swap1\n  tag_13\n  jump\t// in\ntag_12:\n  pop\n  swap1\n  jump\t// out\ntag_13:\n  tag_14\n  swap2\n  swap1\ntag_15:\n  dup1\n  dup3\n  gt\n  iszero\n  tag_16\n  jumpi\n  0x00\n  dup2\n  dup2\n  0x0100\n  exp\n  dup2\n  sload\n  swap1\n  0xffffffffffffffffffffffffffffffffffffffff\n  mul\n  not\n  and\n  swap1\n  sstore\n  pop\n  0x01\n  add\n  jump(tag_15)\ntag_16:\n  pop\n  swap1\n  jump\ntag_14:\n  swap1\n  jump\t// out\n    /* \"--CODEGEN--\":5:139   */\ntag_18:\n  0x00\n    /* \"--CODEGEN--\":89:95   */\n  dup2\n    /* \"--CODEGEN--\":83:96   */\n  mload\n    /* \"--CODEGEN--\":74:96   */\n  swap1\n  pop\n    /* \"--CODEGEN--\":101:134   */\n  tag_20\n    /* \"--CODEGEN--\":128:133   */\n  dup2\n    /* \"--CODEGEN--\":101:134   */\n  jump(tag_21)\ntag_20:\n    /* \"--CODEGEN--\":68:139   */\n  swap3\n  swap2\n  pop\n  pop\n  jump\n    /* \"--CODEGEN--\":164:886   */\ntag_22:\n  0x00\n    /* \"--CODEGEN--\":292:295   */\n  dup3\n    /* \"--CODEGEN--\":285:289   */\n  0x1f\n    /* \"--CODEGEN--\":277:283   */\n  dup4\n    /* \"--CODEGEN--\":273:290   */\n  add\n    /* \"--CODEGEN--\":269:296   */\n  slt\n    /* \"--CODEGEN--\":259:261   */\n  tag_24\n  jumpi\n    /* \"--CODEGEN--\":310:311   */\n  0x00\n    /* \"--CODEGEN--\":307:308   */\n  dup1\n    /* \"--CODEGEN--\":300:312   */\n  revert\n    /* \"--CODEGEN--\":259:261   */\ntag_24:\n    /* \"--CODEGEN--\":340:346   */\n  dup2\n    /* \"--CODEGEN--\":334:347   */\n  mload\n    /* \"--CODEGEN--\":362:442   */\n  tag_25\n    /* \"--CODEGEN--\":377:441   */\n  tag_26\n    /* \"--CODEGEN--\":434:440   */\n  dup3\n    /* \"--CODEGEN--\":377:441   */\n  jump(tag_27)\ntag_26:\n    /* \"--CODEGEN--\":362:442   */\n  jump(tag_28)\ntag_25:\n    /* \"--CODEGEN--\":353:442   */\n  swap2\n  pop\n    /* \"--CODEGEN--\":459:464   */\n  dup2\n    /* \"--CODEGEN--\":484:490   */\n  dup2\n    /* \"--CODEGEN--\":477:482   */\n  dup4\n    /* \"--CODEGEN--\":470:491   */\n  mstore\n    /* \"--CODEGEN--\":514:518   */\n  0x20\n    /* \"--CODEGEN--\":506:512   */\n  dup5\n    /* \"--CODEGEN--\":502:519   */\n  add\n    /* \"--CODEGEN--\":492:519   */\n  swap4\n  pop\n    /* \"--CODEGEN--\":536:540   */\n  0x20\n    /* \"--CODEGEN--\":531:534   */\n  dup2\n    /* \"--CODEGEN--\":527:541   */\n  add\n    /* \"--CODEGEN--\":520:541   */\n  swap1\n  pop\n    /* \"--CODEGEN--\":589:595   */\n  dup4\n    /* \"--CODEGEN--\":636:639   */\n  dup6\n    /* \"--CODEGEN--\":628:632   */\n  0x20\n    /* \"--CODEGEN--\":620:626   */\n  dup5\n    /* \"--CODEGEN--\":616:633   */\n  mul\n    /* \"--CODEGEN--\":611:614   */\n  dup3\n    /* \"--CODEGEN--\":607:634   */\n  add\n    /* \"--CODEGEN--\":604:640   */\n  gt\n    /* \"--CODEGEN--\":601:603   */\n  iszero\n  tag_29\n  jumpi\n    /* \"--CODEGEN--\":653:654   */\n  0x00\n    /* \"--CODEGEN--\":650:651   */\n  dup1\n    /* \"--CODEGEN--\":643:655   */\n  revert\n    /* \"--CODEGEN--\":601:603   */\ntag_29:\n    /* \"--CODEGEN--\":678:679   */\n  0x00\n    /* \"--CODEGEN--\":663:880   */\ntag_30:\n    /* \"--CODEGEN--\":688:694   */\n  dup4\n    /* \"--CODEGEN--\":685:686   */\n  dup2\n    /* \"--CODEGEN--\":682:695   */\n  lt\n    /* \"--CODEGEN--\":663:880   */\n  iszero\n  tag_32\n  jumpi\n    /* \"--CODEGEN--\":746:749   */\n  dup2\n    /* \"--CODEGEN--\":768:816   */\n  tag_33\n    /* \"--CODEGEN--\":812:815   */\n  dup9\n    /* \"--CODEGEN--\":800:810   */\n  dup3\n    /* \"--CODEGEN--\":768:816   */\n  jump(tag_18)\ntag_33:\n    /* \"--CODEGEN--\":763:766   */\n  dup5\n    /* \"--CODEGEN--\":756:817   */\n  mstore\n    /* \"--CODEGEN--\":840:844   */\n  0x20\n    /* \"--CODEGEN--\":835:838   */\n  dup5\n    /* \"--CODEGEN--\":831:845   */\n  add\n    /* \"--CODEGEN--\":824:845   */\n  swap4\n  pop\n    /* \"--CODEGEN--\":868:872   */\n  0x20\n    /* \"--CODEGEN--\":863:866   */\n  dup4\n    /* \"--CODEGEN--\":859:873   */\n  add\n    /* \"--CODEGEN--\":852:873   */\n  swap3\n  pop\n    /* \"--CODEGEN--\":720:880   */\n  pop\n    /* \"--CODEGEN--\":710:711   */\n  0x01\n    /* \"--CODEGEN--\":707:708   */\n  dup2\n    /* \"--CODEGEN--\":703:712   */\n  add\n    /* \"--CODEGEN--\":698:712   */\n  swap1\n  pop\n    /* \"--CODEGEN--\":663:880   */\n  jump(tag_30)\ntag_32:\n    /* \"--CODEGEN--\":667:681   */\n  pop\n    /* \"--CODEGEN--\":252:886   */\n  pop\n  pop\n  pop\n  swap3\n  swap2\n  pop\n  pop\n  jump\n    /* \"--CODEGEN--\":894:1028   */\ntag_34:\n  0x00\n    /* \"--CODEGEN--\":978:984   */\n  dup2\n    /* \"--CODEGEN--\":972:985   */\n  mload\n    /* \"--CODEGEN--\":963:985   */\n  swap1\n  pop\n    /* \"--CODEGEN--\":990:1023   */\n  tag_36\n    /* \"--CODEGEN--\":1017:1022   */\n  dup2\n    /* \"--CODEGEN--\":990:1023   */\n  jump(tag_37)\ntag_36:\n    /* \"--CODEGEN--\":957:1028   */\n  swap3\n  swap2\n  pop\n  pop\n  jump\n    /* \"--CODEGEN--\":1035:1563   */\ntag_3:\n  0x00\n  dup1\n    /* \"--CODEGEN--\":1192:1194   */\n  0x40\n    /* \"--CODEGEN--\":1180:1189   */\n  dup4\n    /* \"--CODEGEN--\":1171:1178   */\n  dup6\n    /* \"--CODEGEN--\":1167:1190   */\n  sub\n    /* \"--CODEGEN--\":1163:1195   */\n  slt\n    /* \"--CODEGEN--\":1160:1162   */\n  iszero\n  tag_39\n  jumpi\n    /* \"--CODEGEN--\":1208:1209   */\n  0x00\n    /* \"--CODEGEN--\":1205:1206   */\n  dup1\n    /* \"--CODEGEN--\":1198:1210   */\n  revert\n    /* \"--CODEGEN--\":1160:1162   */\ntag_39:\n    /* \"--CODEGEN--\":1264:1265   */\n  0x00\n    /* \"--CODEGEN--\":1253:1262   */\n  dup4\n    /* \"--CODEGEN--\":1249:1266   */\n  add\n    /* \"--CODEGEN--\":1243:1267   */\n  mload\n    /* \"--CODEGEN--\":1287:1305   */\n  0xffffffffffffffff\n    /* \"--CODEGEN--\":1279:1285   */\n  dup2\n    /* \"--CODEGEN--\":1276:1306   */\n  gt\n    /* \"--CODEGEN--\":1273:1275   */\n  iszero\n  tag_40\n  jumpi\n    /* \"--CODEGEN--\":1319:1320   */\n  0x00\n    /* \"--CODEGEN--\":1316:1317   */\n  dup1\n    /* \"--CODEGEN--\":1309:1321   */\n  revert\n    /* \"--CODEGEN--\":1273:1275   */\ntag_40:\n    /* \"--CODEGEN--\":1339:1428   */\n  tag_41\n    /* \"--CODEGEN--\":1420:1427   */\n  dup6\n    /* \"--CODEGEN--\":1411:1417   */\n  dup3\n    /* \"--CODEGEN--\":1400:1409   */\n  dup7\n    /* \"--CODEGEN--\":1396:1418   */\n  add\n    /* \"--CODEGEN--\":1339:1428   */\n  jump(tag_22)\ntag_41:\n    /* \"--CODEGEN--\":1329:1428   */\n  swap3\n  pop\n    /* \"--CODEGEN--\":1222:1434   */\n  pop\n    /* \"--CODEGEN--\":1465:1467   */\n  0x20\n    /* \"--CODEGEN--\":1483:1547   */\n  tag_42\n    /* \"--CODEGEN--\":1539:1546   */\n  dup6\n    /* \"--CODEGEN--\":1530:1536   */\n  dup3\n    /* \"--CODEGEN--\":1519:1528   */\n  dup7\n    /* \"--CODEGEN--\":1515:1537   */\n  add\n    /* \"--CODEGEN--\":1483:1547   */\n  jump(tag_34)\ntag_42:\n    /* \"--CODEGEN--\":1473:1547   */\n  swap2\n  pop\n    /* \"--CODEGEN--\":1444:1553   */\n  pop\n    /* \"--CODEGEN--\":1154:1563   */\n  swap3\n  pop\n  swap3\n  swap1\n  pop\n  jump\n    /* \"--CODEGEN--\":1570:1826   */\ntag_28:\n  0x00\n    /* \"--CODEGEN--\":1632:1634   */\n  0x40\n    /* \"--CODEGEN--\":1626:1635   */\n  mload\n    /* \"--CODEGEN--\":1616:1635   */\n  swap1\n  pop\n    /* \"--CODEGEN--\":1670:1674   */\n  dup2\n    /* \"--CODEGEN--\":1662:1668   */\n  dup2\n    /* \"--CODEGEN--\":1658:1675   */\n  add\n    /* \"--CODEGEN--\":1769:1775   */\n  dup2\n    /* \"--CODEGEN--\":1757:1767   */\n  dup2\n    /* \"--CODEGEN--\":1754:1776   */\n  lt\n    /* \"--CODEGEN--\":1733:1751   */\n  0xffffffffffffffff\n    /* \"--CODEGEN--\":1721:1731   */\n  dup3\n    /* \"--CODEGEN--\":1718:1752   */\n  gt\n    /* \"--CODEGEN--\":1715:1777   */\n  or\n    /* \"--CODEGEN--\":1712:1714   */\n  iszero\n  tag_44\n  jumpi\n    /* \"--CODEGEN--\":1790:1791   */\n  0x00\n    /* \"--CODEGEN--\":1787:1788   */\n  dup1\n    /* \"--CODEGEN--\":1780:1792   */\n  revert\n    /* \"--CODEGEN--\":1712:1714   */\ntag_44:\n    /* \"--CODEGEN--\":1810:1820   */\n  dup1\n    /* \"--CODEGEN--\":1806:1808   */\n  0x40\n    /* \"--CODEGEN--\":1799:1821   */\n  mstore\n    /* \"--CODEGEN--\":1610:1826   */\n  pop\n  swap2\n  swap1\n  pop\n  jump\n    /* \"--CODEGEN--\":1833:2137   */\ntag_27:\n  0x00\n    /* \"--CODEGEN--\":1992:2010   */\n  0xffffffffffffffff\n    /* \"--CODEGEN--\":1984:1990   */\n  dup3\n    /* \"--CODEGEN--\":1981:2011   */\n  gt\n    /* \"--CODEGEN--\":1978:1980   */\n  iszero\n  tag_46\n  jumpi\n    /* \"--CODEGEN--\":2024:2025   */\n  0x00\n    /* \"--CODEGEN--\":2021:2022   */\n  dup1\n    /* \"--CODEGEN--\":2014:2026   */\n  revert\n    /* \"--CODEGEN--\":1978:1980   */\ntag_46:\n    /* \"--CODEGEN--\":2059:2063   */\n  0x20\n    /* \"--CODEGEN--\":2051:2057   */\n  dup3\n    /* \"--CODEGEN--\":2047:2064   */\n  mul\n    /* \"--CODEGEN--\":2039:2064   */\n  swap1\n  pop\n    /* \"--CODEGEN--\":2122:2126   */\n  0x20\n    /* \"--CODEGEN--\":2116:2120   */\n  dup2\n    /* \"--CODEGEN--\":2112:2127   */\n  add\n    /* \"--CODEGEN--\":2104:2127   */\n  swap1\n  pop\n    /* \"--CODEGEN--\":1915:2137   */\n  swap2\n  swap1\n  pop\n  jump\n    /* \"--CODEGEN--\":2144:2235   */\ntag_47:\n  0x00\n    /* \"--CODEGEN--\":2206:2230   */\n  tag_49\n    /* \"--CODEGEN--\":2224:2229   */\n  dup3\n    /* \"--CODEGEN--\":2206:2230   */\n  jump(tag_50)\ntag_49:\n    /* \"--CODEGEN--\":2195:2230   */\n  swap1\n  pop\n    /* \"--CODEGEN--\":2189:2235   */\n  swap2\n  swap1\n  pop\n  jump\n    /* \"--CODEGEN--\":2242:2363   */\ntag_50:\n  0x00\n    /* \"--CODEGEN--\":2315:2357   */\n  0xffffffffffffffffffffffffffffffffffffffff\n    /* \"--CODEGEN--\":2308:2313   */\n  dup3\n    /* \"--CODEGEN--\":2304:2358   */\n  and\n    /* \"--CODEGEN--\":2293:2358   */\n  swap1\n  pop\n    /* \"--CODEGEN--\":2287:2363   */\n  swap2\n  swap1\n  pop\n  jump\n    /* \"--CODEGEN--\":2370:2442   */\ntag_52:\n  0x00\n    /* \"--CODEGEN--\":2432:2437   */\n  dup2\n    /* \"--CODEGEN--\":2421:2437   */\n  swap1\n  pop\n    /* \"--CODEGEN--\":2415:2442   */\n  swap2\n  swap1\n  pop\n  jump\n    /* \"--CODEGEN--\":2449:2566   */\ntag_21:\n    /* \"--CODEGEN--\":2518:2542   */\n  tag_55\n    /* \"--CODEGEN--\":2536:2541   */\n  dup2\n    /* \"--CODEGEN--\":2518:2542   */\n  jump(tag_47)\ntag_55:\n    /* \"--CODEGEN--\":2511:2516   */\n  dup2\n    /* \"--CODEGEN--\":2508:2543   */\n  eq\n    /* \"--CODEGEN--\":2498:2500   */\n  tag_56\n  jumpi\n    /* \"--CODEGEN--\":2557:2558   */\n  0x00\n    /* \"--CODEGEN--\":2554:2555   */\n  dup1\n    /* \"--CODEGEN--\":2547:2559   */\n  revert\n    /* \"--CODEGEN--\":2498:2500   */\ntag_56:\n    /* \"--CODEGEN--\":2492:2566   */\n  pop\n  jump\n    /* \"--CODEGEN--\":2573:2690   */\ntag_37:\n    /* \"--CODEGEN--\":2642:2666   */\n  tag_58\n    /* \"--CODEGEN--\":2660:2665   */\n  dup2\n    /* \"--CODEGEN--\":2642:2666   */\n  jump(tag_52)\ntag_58:\n    /* \"--CODEGEN--\":2635:2640   */\n  dup2\n    /* \"--CODEGEN--\":2632:2667   */\n  eq\n    /* \"--CODEGEN--\":2622:2624   */\n  tag_59\n  jumpi\n    /* \"--CODEGEN--\":2681:2682   */\n  0x00\n    /* \"--CODEGEN--\":2678:2679   */\n  dup1\n    /* \"--CODEGEN--\":2671:2683   */\n  revert\n    /* \"--CODEGEN--\":2622:2624   */\ntag_59:\n    /* \"--CODEGEN--\":2616:2690   */\n  pop\n  jump\n    /* \"blockchain_app/multisig_wallet/contracts/Wallet.sol\":144:1975  contract Wallet {\r... */\ntag_8:\n  dataSize(sub_0)\n  dup1\n  dataOffset(sub_0)\n  0x00\n  codecopy\n  0x00\n  return\nstop\n\nsub_0: assembly {\n        /* \"blockchain_app/multisig_wallet/contracts/Wallet.sol\":144:1975  contract Wallet {\r... */\n      mstore(0x40, 0x80)\n      callvalue\n        /* \"--CODEGEN--\":8:17   */\n      dup1\n        /* \"--CODEGEN--\":5:7   */\n      iszero\n      tag_1\n      jumpi\n        /* \"--CODEGEN--\":30:31   */\n      0x00\n        /* \"--CODEGEN--\":27:28   */\n      dup1\n        /* \"--CODEGEN--\":20:32   */\n      revert\n        /* \"--CODEGEN--\":5:7   */\n    tag_1:\n        /* \"blockchain_app/multisig_wallet/contracts/Wallet.sol\":144:1975  contract Wallet {\r... */\n      pop\n      jumpi(tag_2, lt(calldatasize, 0x04))\n      shr(0xe0, calldataload(0x00))\n      dup1\n      0x9377d711\n      gt\n      tag_11\n      jumpi\n      dup1\n      0x9377d711\n      eq\n      tag_7\n      jumpi\n      dup1\n      0xcacca4a0\n      eq\n      tag_8\n      jumpi\n      dup1\n      0xd3650fb8\n      eq\n      tag_9\n      jumpi\n      dup1\n      0xffabc673\n      eq\n      tag_10\n      jumpi\n      jump(tag_2)\n    tag_11:\n      dup1\n      0x1703a018\n      eq\n      tag_3\n      jumpi\n      dup1\n      0x2f65142c\n      eq\n      tag_4\n      jumpi\n      dup1\n      0x4c12fa47\n      eq\n      tag_5\n      jumpi\n      dup1\n      0x6cb3e8ef\n      eq\n      tag_6\n      jumpi\n    tag_2:\n      0x00\n      dup1\n      revert\n        /* \"blockchain_app/multisig_wallet/contracts/Wallet.sol\":300:318  uint public quorum */\n    tag_3:\n      tag_12\n      tag_13\n      jump\t// in\n    tag_12:\n      mload(0x40)\n      tag_14\n      swap2\n      swap1\n      jump(tag_15)\n    tag_14:\n      mload(0x40)\n      dup1\n      swap2\n      sub\n      swap1\n      return\n        /* \"blockchain_app/multisig_wallet/contracts/Wallet.sol\":937:1037  function getTransfers() external view returns(Transfer[] memory) {\r... */\n    tag_4:\n      tag_16\n      tag_17\n      jump\t// in\n    tag_16:\n      mload(0x40)\n      tag_18\n      swap2\n      swap1\n      jump(tag_19)\n    tag_18:\n      mload(0x40)\n      dup1\n      swap2\n      sub\n      swap1\n      return\n        /* \"blockchain_app/multisig_wallet/contracts/Wallet.sol\":1087:1312  function createTransfer(uint amount, address payable to) external {\r... */\n    tag_5:\n      tag_20\n      0x04\n      dup1\n      calldatasize\n      sub\n      tag_21\n      swap2\n      swap1\n      dup2\n      add\n      swap1\n      jump(tag_22)\n    tag_21:\n      tag_23\n      jump\t// in\n    tag_20:\n      stop\n        /* \"blockchain_app/multisig_wallet/contracts/Wallet.sol\":830:929  function getApprovers() external view returns(address[] memory) {\r... */\n    tag_6:\n      tag_24\n      tag_25\n      jump\t// in\n    tag_24:\n      mload(0x40)\n      tag_26\n      swap2\n      swap1\n      jump(tag_27)\n    tag_26:\n      mload(0x40)\n      dup1\n      swap2\n      sub\n      swap1\n      return\n        /* \"blockchain_app/multisig_wallet/contracts/Wallet.sol\":519:546  Transfer[] public transfers */\n    tag_7:\n      tag_28\n      0x04\n      dup1\n      calldatasize\n      sub\n      tag_29\n      swap2\n      swap1\n      dup2\n      add\n      swap1\n      jump(tag_30)\n    tag_29:\n      tag_31\n      jump\t// in\n    tag_28:\n      mload(0x40)\n      tag_32\n      swap6\n      swap5\n      swap4\n      swap3\n      swap2\n      swap1\n      jump(tag_33)\n    tag_32:\n      mload(0x40)\n      dup1\n      swap2\n      sub\n      swap1\n      return\n        /* \"blockchain_app/multisig_wallet/contracts/Wallet.sol\":1360:1950  function approveTransfer(uint _id) external {\r... */\n    tag_8:\n      tag_34\n      0x04\n      dup1\n      calldatasize\n      sub\n      tag_35\n      swap2\n      swap1\n      dup2\n      add\n      swap1\n      jump(tag_30)\n    tag_35:\n      tag_36\n      jump\t// in\n    tag_34:\n      stop\n        /* \"blockchain_app/multisig_wallet/contracts/Wallet.sol\":204:230  address[] public approvers */\n    tag_9:\n      tag_37\n      0x04\n      dup1\n      calldatasize\n      sub\n      tag_38\n      swap2\n      swap1\n      dup2\n      add\n      swap1\n      jump(tag_30)\n    tag_38:\n      tag_39\n      jump\t// in\n    tag_37:\n      mload(0x40)\n      tag_40\n      swap2\n      swap1\n      jump(tag_41)\n    tag_40:\n      mload(0x40)\n      dup1\n      swap2\n      sub\n      swap1\n      return\n        /* \"blockchain_app/multisig_wallet/contracts/Wallet.sol\":596:654  mapping(address => mapping(uint => bool)) public approvals */\n    tag_10:\n      tag_42\n      0x04\n      dup1\n      calldatasize\n      sub\n      tag_43\n      swap2\n      swap1\n      dup2\n      add\n      swap1\n      jump(tag_44)\n    tag_43:\n      tag_45\n      jump\t// in\n    tag_42:\n      mload(0x40)\n      tag_46\n      swap2\n      swap1\n      jump(tag_47)\n    tag_46:\n      mload(0x40)\n      dup1\n      swap2\n      sub\n      swap1\n      return\n        /* \"blockchain_app/multisig_wallet/contracts/Wallet.sol\":300:318  uint public quorum */\n    tag_13:\n      sload(0x01)\n      dup2\n      jump\t// out\n        /* \"blockchain_app/multisig_wallet/contracts/Wallet.sol\":937:1037  function getTransfers() external view returns(Transfer[] memory) {\r... */\n    tag_17:\n        /* \"blockchain_app/multisig_wallet/contracts/Wallet.sol\":983:1000  Transfer[] memory */\n      0x60\n        /* \"blockchain_app/multisig_wallet/contracts/Wallet.sol\":1020:1029  transfers */\n      0x02\n        /* \"blockchain_app/multisig_wallet/contracts/Wallet.sol\":1013:1029  return transfers */\n      dup1\n      sload\n      dup1\n      0x20\n      mul\n      0x20\n      add\n      mload(0x40)\n      swap1\n      dup2\n      add\n      0x40\n      mstore\n      dup1\n      swap3\n      swap2\n      swap1\n      dup2\n      dup2\n      mstore\n      0x20\n      add\n      0x00\n      swap1\n    tag_49:\n      dup3\n      dup3\n      lt\n      iszero\n      tag_50\n      jumpi\n      dup4\n      dup3\n      swap1\n      0x00\n      mstore\n      keccak256(0x00, 0x20)\n      swap1\n      0x05\n      mul\n      add\n      mload(0x40)\n      dup1\n      0xa0\n      add\n      0x40\n      mstore\n      swap1\n      dup2\n      0x00\n      dup3\n      add\n      sload\n      dup2\n      mstore\n      0x20\n      add\n      0x01\n      dup3\n      add\n      sload\n      dup2\n      mstore\n      0x20\n      add\n      0x02\n      dup3\n      add\n      0x00\n      swap1\n      sload\n      swap1\n      0x0100\n      exp\n      swap1\n      div\n      0xffffffffffffffffffffffffffffffffffffffff\n      and\n      0xffffffffffffffffffffffffffffffffffffffff\n      and\n      0xffffffffffffffffffffffffffffffffffffffff\n      and\n      dup2\n      mstore\n      0x20\n      add\n      0x03\n      dup3\n      add\n      sload\n      dup2\n      mstore\n      0x20\n      add\n      0x04\n      dup3\n      add\n      0x00\n      swap1\n      sload\n      swap1\n      0x0100\n      exp\n      swap1\n      div\n      0xff\n      and\n      iszero\n      iszero\n      iszero\n      iszero\n      dup2\n      mstore\n      pop\n      pop\n      dup2\n      mstore\n      0x20\n      add\n      swap1\n      0x01\n      add\n      swap1\n      jump(tag_49)\n    tag_50:\n      pop\n      pop\n      pop\n      pop\n      swap1\n      pop\n        /* \"blockchain_app/multisig_wallet/contracts/Wallet.sol\":937:1037  function getTransfers() external view returns(Transfer[] memory) {\r... */\n      swap1\n      jump\t// out\n        /* \"blockchain_app/multisig_wallet/contracts/Wallet.sol\":1087:1312  function createTransfer(uint amount, address payable to) external {\r... */\n    tag_23:\n        /* \"blockchain_app/multisig_wallet/contracts/Wallet.sol\":1164:1173  transfers */\n      0x02\n        /* \"blockchain_app/multisig_wallet/contracts/Wallet.sol\":1179:1303  Transfer(\r... */\n      mload(0x40)\n      dup1\n      0xa0\n      add\n      0x40\n      mstore\n      dup1\n        /* \"blockchain_app/multisig_wallet/contracts/Wallet.sol\":1202:1211  transfers */\n      0x02\n        /* \"blockchain_app/multisig_wallet/contracts/Wallet.sol\":1202:1218  transfers.length */\n      dup1\n      sload\n      swap1\n      pop\n        /* \"blockchain_app/multisig_wallet/contracts/Wallet.sol\":1179:1303  Transfer(\r... */\n      dup2\n      mstore\n      0x20\n      add\n        /* \"blockchain_app/multisig_wallet/contracts/Wallet.sol\":1233:1239  amount */\n      dup5\n        /* \"blockchain_app/multisig_wallet/contracts/Wallet.sol\":1179:1303  Transfer(\r... */\n      dup2\n      mstore\n      0x20\n      add\n        /* \"blockchain_app/multisig_wallet/contracts/Wallet.sol\":1254:1256  to */\n      dup4\n        /* \"blockchain_app/multisig_wallet/contracts/Wallet.sol\":1179:1303  Transfer(\r... */\n      0xffffffffffffffffffffffffffffffffffffffff\n      and\n      dup2\n      mstore\n      0x20\n      add\n        /* \"blockchain_app/multisig_wallet/contracts/Wallet.sol\":1271:1272  0 */\n      0x00\n        /* \"blockchain_app/multisig_wallet/contracts/Wallet.sol\":1179:1303  Transfer(\r... */\n      dup2\n      mstore\n      0x20\n      add\n        /* \"blockchain_app/multisig_wallet/contracts/Wallet.sol\":1287:1292  false */\n      0x00\n        /* \"blockchain_app/multisig_wallet/contracts/Wallet.sol\":1179:1303  Transfer(\r... */\n      iszero\n      iszero\n      dup2\n      mstore\n      pop\n        /* \"blockchain_app/multisig_wallet/contracts/Wallet.sol\":1164:1304  transfers.push(Transfer(\r... */\n      swap1\n      dup1\n        /* \"--CODEGEN--\":39:40   */\n      0x01\n        /* \"--CODEGEN--\":33:36   */\n      dup2\n        /* \"--CODEGEN--\":27:37   */\n      sload\n        /* \"--CODEGEN--\":23:41   */\n      add\n        /* \"--CODEGEN--\":57:67   */\n      dup1\n        /* \"--CODEGEN--\":52:55   */\n      dup3\n        /* \"--CODEGEN--\":45:68   */\n      sstore\n        /* \"--CODEGEN--\":79:89   */\n      dup1\n        /* \"--CODEGEN--\":72:89   */\n      swap2\n      pop\n        /* \"--CODEGEN--\":0:93   */\n      pop\n        /* \"blockchain_app/multisig_wallet/contracts/Wallet.sol\":1164:1304  transfers.push(Transfer(\r... */\n      0x01\n      swap1\n      sub\n      swap1\n      0x00\n      mstore\n      keccak256(0x00, 0x20)\n      swap1\n      0x05\n      mul\n      add\n      0x00\n      swap1\n      swap2\n      swap1\n      swap2\n      swap1\n      swap2\n      pop\n      0x00\n      dup3\n      add\n      mload\n      dup2\n      0x00\n      add\n      sstore\n      0x20\n      dup3\n      add\n      mload\n      dup2\n      0x01\n      add\n      sstore\n      0x40\n      dup3\n      add\n      mload\n      dup2\n      0x02\n      add\n      exp(0x0100, 0x00)\n      dup2\n      sload\n      dup2\n      0xffffffffffffffffffffffffffffffffffffffff\n      mul\n      not\n      and\n      swap1\n      dup4\n      0xffffffffffffffffffffffffffffffffffffffff\n      and\n      mul\n      or\n      swap1\n      sstore\n      pop\n      0x60\n      dup3\n      add\n      mload\n      dup2\n      0x03\n      add\n      sstore\n      0x80\n      dup3\n      add\n      mload\n      dup2\n      0x04\n      add\n      exp(0x0100, 0x00)\n      dup2\n      sload\n      dup2\n      0xff\n      mul\n      not\n      and\n      swap1\n      dup4\n      iszero\n      iszero\n      mul\n      or\n      swap1\n      sstore\n      pop\n      pop\n      pop\n        /* \"blockchain_app/multisig_wallet/contracts/Wallet.sol\":1087:1312  function createTransfer(uint amount, address payable to) external {\r... */\n      pop\n      pop\n      jump\t// out\n        /* \"blockchain_app/multisig_wallet/contracts/Wallet.sol\":830:929  function getApprovers() external view returns(address[] memory) {\r... */\n    tag_25:\n        /* \"blockchain_app/multisig_wallet/contracts/Wallet.sol\":876:892  address[] memory */\n      0x60\n        /* \"blockchain_app/multisig_wallet/contracts/Wallet.sol\":912:921  approvers */\n      0x00\n        /* \"blockchain_app/multisig_wallet/contracts/Wallet.sol\":905:921  return approvers */\n      dup1\n      sload\n      dup1\n      0x20\n      mul\n      0x20\n      add\n      mload(0x40)\n      swap1\n      dup2\n      add\n      0x40\n      mstore\n      dup1\n      swap3\n      swap2\n      swap1\n      dup2\n      dup2\n      mstore\n      0x20\n      add\n      dup3\n      dup1\n      sload\n      dup1\n      iszero\n      tag_55\n      jumpi\n      0x20\n      mul\n      dup3\n      add\n      swap2\n      swap1\n      0x00\n      mstore\n      keccak256(0x00, 0x20)\n      swap1\n    tag_56:\n      dup2\n      0x00\n      swap1\n      sload\n      swap1\n      0x0100\n      exp\n      swap1\n      div\n      0xffffffffffffffffffffffffffffffffffffffff\n      and\n      0xffffffffffffffffffffffffffffffffffffffff\n      and\n      dup2\n      mstore\n      0x20\n      add\n      swap1\n      0x01\n      add\n      swap1\n      dup1\n      dup4\n      gt\n      tag_56\n      jumpi\n    tag_55:\n      pop\n      pop\n      pop\n      pop\n      pop\n      swap1\n      pop\n        /* \"blockchain_app/multisig_wallet/contracts/Wallet.sol\":830:929  function getApprovers() external view returns(address[] memory) {\r... */\n      swap1\n      jump\t// out\n        /* \"blockchain_app/multisig_wallet/contracts/Wallet.sol\":519:546  Transfer[] public transfers */\n    tag_31:\n      0x02\n      dup2\n      dup2\n      sload\n      dup2\n      lt\n      tag_57\n      jumpi\n      invalid\n    tag_57:\n      swap1\n      0x00\n      mstore\n      keccak256(0x00, 0x20)\n      swap1\n      0x05\n      mul\n      add\n      0x00\n      swap2\n      pop\n      swap1\n      pop\n      dup1\n      0x00\n      add\n      sload\n      swap1\n      dup1\n      0x01\n      add\n      sload\n      swap1\n      dup1\n      0x02\n      add\n      0x00\n      swap1\n      sload\n      swap1\n      0x0100\n      exp\n      swap1\n      div\n      0xffffffffffffffffffffffffffffffffffffffff\n      and\n      swap1\n      dup1\n      0x03\n      add\n      sload\n      swap1\n      dup1\n      0x04\n      add\n      0x00\n      swap1\n      sload\n      swap1\n      0x0100\n      exp\n      swap1\n      div\n      0xff\n      and\n      swap1\n      pop\n      dup6\n      jump\t// out\n        /* \"blockchain_app/multisig_wallet/contracts/Wallet.sol\":1360:1950  function approveTransfer(uint _id) external {\r... */\n    tag_36:\n        /* \"blockchain_app/multisig_wallet/contracts/Wallet.sol\":1487:1492  false */\n      0x00\n        /* \"blockchain_app/multisig_wallet/contracts/Wallet.sol\":1464:1492  transfers[_id].sent == false */\n      iszero\n      iszero\n        /* \"blockchain_app/multisig_wallet/contracts/Wallet.sol\":1464:1473  transfers */\n      0x02\n        /* \"blockchain_app/multisig_wallet/contracts/Wallet.sol\":1474:1477  _id */\n      dup3\n        /* \"blockchain_app/multisig_wallet/contracts/Wallet.sol\":1464:1478  transfers[_id] */\n      dup2\n      sload\n      dup2\n      lt\n      tag_60\n      jumpi\n      invalid\n    tag_60:\n      swap1\n      0x00\n      mstore\n      keccak256(0x00, 0x20)\n      swap1\n      0x05\n      mul\n      add\n        /* \"blockchain_app/multisig_wallet/contracts/Wallet.sol\":1464:1483  transfers[_id].sent */\n      0x04\n      add\n      0x00\n      swap1\n      sload\n      swap1\n      0x0100\n      exp\n      swap1\n      div\n      0xff\n      and\n        /* \"blockchain_app/multisig_wallet/contracts/Wallet.sol\":1464:1492  transfers[_id].sent == false */\n      iszero\n      iszero\n      eq\n        /* \"blockchain_app/multisig_wallet/contracts/Wallet.sol\":1456:1528  require(transfers[_id].sent == false, \"Transfer has already been sent.\") */\n      tag_62\n      jumpi\n      mload(0x40)\n      0x08c379a000000000000000000000000000000000000000000000000000000000\n      dup2\n      mstore\n      0x04\n      add\n      tag_63\n      swap1\n      jump(tag_64)\n    tag_63:\n      mload(0x40)\n      dup1\n      swap2\n      sub\n      swap1\n      revert\n    tag_62:\n        /* \"blockchain_app/multisig_wallet/contracts/Wallet.sol\":1577:1582  false */\n      0x00\n        /* \"blockchain_app/multisig_wallet/contracts/Wallet.sol\":1547:1582  approvals[msg.sender][_id] == false */\n      iszero\n      iszero\n        /* \"blockchain_app/multisig_wallet/contracts/Wallet.sol\":1547:1556  approvals */\n      0x03\n        /* \"blockchain_app/multisig_wallet/contracts/Wallet.sol\":1547:1568  approvals[msg.sender] */\n      0x00\n        /* \"blockchain_app/multisig_wallet/contracts/Wallet.sol\":1557:1567  msg.sender */\n      caller\n        /* \"blockchain_app/multisig_wallet/contracts/Wallet.sol\":1547:1568  approvals[msg.sender] */\n      0xffffffffffffffffffffffffffffffffffffffff\n      and\n      0xffffffffffffffffffffffffffffffffffffffff\n      and\n      dup2\n      mstore\n      0x20\n      add\n      swap1\n      dup2\n      mstore\n      0x20\n      add\n      0x00\n      keccak256\n        /* \"blockchain_app/multisig_wallet/contracts/Wallet.sol\":1547:1573  approvals[msg.sender][_id] */\n      0x00\n        /* \"blockchain_app/multisig_wallet/contracts/Wallet.sol\":1569:1572  _id */\n      dup4\n        /* \"blockchain_app/multisig_wallet/contracts/Wallet.sol\":1547:1573  approvals[msg.sender][_id] */\n      dup2\n      mstore\n      0x20\n      add\n      swap1\n      dup2\n      mstore\n      0x20\n      add\n      0x00\n      keccak256\n      0x00\n      swap1\n      sload\n      swap1\n      0x0100\n      exp\n      swap1\n      div\n      0xff\n      and\n        /* \"blockchain_app/multisig_wallet/contracts/Wallet.sol\":1547:1582  approvals[msg.sender][_id] == false */\n      iszero\n      iszero\n      eq\n        /* \"blockchain_app/multisig_wallet/contracts/Wallet.sol\":1539:1617  require(approvals[msg.sender][_id] == false, \"Cannot approve transfer again.\") */\n      tag_65\n      jumpi\n      mload(0x40)\n      0x08c379a000000000000000000000000000000000000000000000000000000000\n      dup2\n      mstore\n      0x04\n      add\n      tag_66\n      swap1\n      jump(tag_67)\n    tag_66:\n      mload(0x40)\n      dup1\n      swap2\n      sub\n      swap1\n      revert\n    tag_65:\n        /* \"blockchain_app/multisig_wallet/contracts/Wallet.sol\":1659:1663  true */\n      0x01\n        /* \"blockchain_app/multisig_wallet/contracts/Wallet.sol\":1630:1639  approvals */\n      0x03\n        /* \"blockchain_app/multisig_wallet/contracts/Wallet.sol\":1630:1651  approvals[msg.sender] */\n      0x00\n        /* \"blockchain_app/multisig_wallet/contracts/Wallet.sol\":1640:1650  msg.sender */\n      caller\n        /* \"blockchain_app/multisig_wallet/contracts/Wallet.sol\":1630:1651  approvals[msg.sender] */\n      0xffffffffffffffffffffffffffffffffffffffff\n      and\n      0xffffffffffffffffffffffffffffffffffffffff\n      and\n      dup2\n      mstore\n      0x20\n      add\n      swap1\n      dup2\n      mstore\n      0x20\n      add\n      0x00\n      keccak256\n        /* \"blockchain_app/multisig_wallet/contracts/Wallet.sol\":1630:1656  approvals[msg.sender][_id] */\n      0x00\n        /* \"blockchain_app/multisig_wallet/contracts/Wallet.sol\":1652:1655  _id */\n      dup4\n        /* \"blockchain_app/multisig_wallet/contracts/Wallet.sol\":1630:1656  approvals[msg.sender][_id] */\n      dup2\n      mstore\n      0x20\n      add\n      swap1\n      dup2\n      mstore\n      0x20\n      add\n      0x00\n      keccak256\n      0x00\n        /* \"blockchain_app/multisig_wallet/contracts/Wallet.sol\":1630:1663  approvals[msg.sender][_id] = true */\n      0x0100\n      exp\n      dup2\n      sload\n      dup2\n      0xff\n      mul\n      not\n      and\n      swap1\n      dup4\n      iszero\n      iszero\n      mul\n      or\n      swap1\n      sstore\n      pop\n        /* \"blockchain_app/multisig_wallet/contracts/Wallet.sol\":1674:1683  transfers */\n      0x02\n        /* \"blockchain_app/multisig_wallet/contracts/Wallet.sol\":1684:1687  _id */\n      dup2\n        /* \"blockchain_app/multisig_wallet/contracts/Wallet.sol\":1674:1688  transfers[_id] */\n      dup2\n      sload\n      dup2\n      lt\n      tag_68\n      jumpi\n      invalid\n    tag_68:\n      swap1\n      0x00\n      mstore\n      keccak256(0x00, 0x20)\n      swap1\n      0x05\n      mul\n      add\n        /* \"blockchain_app/multisig_wallet/contracts/Wallet.sol\":1674:1698  transfers[_id].approvals */\n      0x03\n      add\n      0x00\n        /* \"blockchain_app/multisig_wallet/contracts/Wallet.sol\":1674:1700  transfers[_id].approvals++ */\n      dup2\n      sload\n      dup1\n      swap3\n      swap2\n      swap1\n      0x01\n      add\n      swap2\n      swap1\n      pop\n      sstore\n      pop\n        /* \"blockchain_app/multisig_wallet/contracts/Wallet.sol\":1745:1751  quorum */\n      sload(0x01)\n        /* \"blockchain_app/multisig_wallet/contracts/Wallet.sol\":1717:1726  transfers */\n      0x02\n        /* \"blockchain_app/multisig_wallet/contracts/Wallet.sol\":1727:1730  _id */\n      dup3\n        /* \"blockchain_app/multisig_wallet/contracts/Wallet.sol\":1717:1731  transfers[_id] */\n      dup2\n      sload\n      dup2\n      lt\n      tag_70\n      jumpi\n      invalid\n    tag_70:\n      swap1\n      0x00\n      mstore\n      keccak256(0x00, 0x20)\n      swap1\n      0x05\n      mul\n      add\n        /* \"blockchain_app/multisig_wallet/contracts/Wallet.sol\":1717:1741  transfers[_id].approvals */\n      0x03\n      add\n      sload\n        /* \"blockchain_app/multisig_wallet/contracts/Wallet.sol\":1717:1751  transfers[_id].approvals >= quorum */\n      lt\n        /* \"blockchain_app/multisig_wallet/contracts/Wallet.sol\":1713:1943  if (transfers[_id].approvals >= quorum) {\r... */\n      tag_72\n      jumpi\n        /* \"blockchain_app/multisig_wallet/contracts/Wallet.sol\":1790:1794  true */\n      0x01\n        /* \"blockchain_app/multisig_wallet/contracts/Wallet.sol\":1768:1777  transfers */\n      0x02\n        /* \"blockchain_app/multisig_wallet/contracts/Wallet.sol\":1778:1781  _id */\n      dup3\n        /* \"blockchain_app/multisig_wallet/contracts/Wallet.sol\":1768:1782  transfers[_id] */\n      dup2\n      sload\n      dup2\n      lt\n      tag_73\n      jumpi\n      invalid\n    tag_73:\n      swap1\n      0x00\n      mstore\n      keccak256(0x00, 0x20)\n      swap1\n      0x05\n      mul\n      add\n        /* \"blockchain_app/multisig_wallet/contracts/Wallet.sol\":1768:1787  transfers[_id].sent */\n      0x04\n      add\n      0x00\n        /* \"blockchain_app/multisig_wallet/contracts/Wallet.sol\":1768:1794  transfers[_id].sent = true */\n      0x0100\n      exp\n      dup2\n      sload\n      dup2\n      0xff\n      mul\n      not\n      and\n      swap1\n      dup4\n      iszero\n      iszero\n      mul\n      or\n      swap1\n      sstore\n      pop\n        /* \"blockchain_app/multisig_wallet/contracts/Wallet.sol\":1809:1827  address payable to */\n      0x00\n        /* \"blockchain_app/multisig_wallet/contracts/Wallet.sol\":1830:1839  transfers */\n      0x02\n        /* \"blockchain_app/multisig_wallet/contracts/Wallet.sol\":1840:1843  _id */\n      dup3\n        /* \"blockchain_app/multisig_wallet/contracts/Wallet.sol\":1830:1844  transfers[_id] */\n      dup2\n      sload\n      dup2\n      lt\n      tag_75\n      jumpi\n      invalid\n    tag_75:\n      swap1\n      0x00\n      mstore\n      keccak256(0x00, 0x20)\n      swap1\n      0x05\n      mul\n      add\n        /* \"blockchain_app/multisig_wallet/contracts/Wallet.sol\":1830:1847  transfers[_id].to */\n      0x02\n      add\n      0x00\n      swap1\n      sload\n      swap1\n      0x0100\n      exp\n      swap1\n      div\n      0xffffffffffffffffffffffffffffffffffffffff\n      and\n        /* \"blockchain_app/multisig_wallet/contracts/Wallet.sol\":1809:1847  address payable to = transfers[_id].to */\n      swap1\n      pop\n        /* \"blockchain_app/multisig_wallet/contracts/Wallet.sol\":1862:1873  uint amount */\n      0x00\n        /* \"blockchain_app/multisig_wallet/contracts/Wallet.sol\":1876:1885  transfers */\n      0x02\n        /* \"blockchain_app/multisig_wallet/contracts/Wallet.sol\":1886:1889  _id */\n      dup4\n        /* \"blockchain_app/multisig_wallet/contracts/Wallet.sol\":1876:1890  transfers[_id] */\n      dup2\n      sload\n      dup2\n      lt\n      tag_77\n      jumpi\n      invalid\n    tag_77:\n      swap1\n      0x00\n      mstore\n      keccak256(0x00, 0x20)\n      swap1\n      0x05\n      mul\n      add\n        /* \"blockchain_app/multisig_wallet/contracts/Wallet.sol\":1876:1897  transfers[_id].amount */\n      0x01\n      add\n      sload\n        /* \"blockchain_app/multisig_wallet/contracts/Wallet.sol\":1862:1897  uint amount = transfers[_id].amount */\n      swap1\n      pop\n        /* \"blockchain_app/multisig_wallet/contracts/Wallet.sol\":1912:1914  to */\n      dup2\n        /* \"blockchain_app/multisig_wallet/contracts/Wallet.sol\":1912:1923  to.transfer */\n      0xffffffffffffffffffffffffffffffffffffffff\n      and\n        /* \"blockchain_app/multisig_wallet/contracts/Wallet.sol\":1912:1931  to.transfer(amount) */\n      0x08fc\n        /* \"blockchain_app/multisig_wallet/contracts/Wallet.sol\":1924:1930  amount */\n      dup3\n        /* \"blockchain_app/multisig_wallet/contracts/Wallet.sol\":1912:1931  to.transfer(amount) */\n      swap1\n      dup2\n      iszero\n      mul\n      swap1\n      mload(0x40)\n      0x00\n      mload(0x40)\n      dup1\n      dup4\n      sub\n      dup2\n      dup6\n      dup9\n      dup9\n      call\n      swap4\n      pop\n      pop\n      pop\n      pop\n      iszero\n        /* \"--CODEGEN--\":8:17   */\n      dup1\n        /* \"--CODEGEN--\":5:7   */\n      iszero\n      tag_80\n      jumpi\n        /* \"--CODEGEN--\":45:61   */\n      returndatasize\n        /* \"--CODEGEN--\":42:43   */\n      0x00\n        /* \"--CODEGEN--\":39:40   */\n      dup1\n        /* \"--CODEGEN--\":24:62   */\n      returndatacopy\n        /* \"--CODEGEN--\":77:93   */\n      returndatasize\n        /* \"--CODEGEN--\":74:75   */\n      0x00\n        /* \"--CODEGEN--\":67:94   */\n      revert\n        /* \"--CODEGEN--\":5:7   */\n    tag_80:\n        /* \"blockchain_app/multisig_wallet/contracts/Wallet.sol\":1912:1931  to.transfer(amount) */\n      pop\n        /* \"blockchain_app/multisig_wallet/contracts/Wallet.sol\":1713:1943  if (transfers[_id].approvals >= quorum) {\r... */\n      pop\n      pop\n    tag_72:\n        /* \"blockchain_app/multisig_wallet/contracts/Wallet.sol\":1360:1950  function approveTransfer(uint _id) external {\r... */\n      pop\n      jump\t// out\n        /* \"blockchain_app/multisig_wallet/contracts/Wallet.sol\":204:230  address[] public approvers */\n    tag_39:\n      0x00\n      dup2\n      dup2\n      sload\n      dup2\n      lt\n      tag_81\n      jumpi\n      invalid\n    tag_81:\n      swap1\n      0x00\n      mstore\n      keccak256(0x00, 0x20)\n      add\n      0x00\n      swap2\n      pop\n      sload\n      swap1\n      0x0100\n      exp\n      swap1\n      div\n      0xffffffffffffffffffffffffffffffffffffffff\n      and\n      dup2\n      jump\t// out\n        /* \"blockchain_app/multisig_wallet/contracts/Wallet.sol\":596:654  mapping(address => mapping(uint => bool)) public approvals */\n    tag_45:\n      mstore(0x20, 0x03)\n      dup2\n      0x00\n      mstore\n      mstore(0x20, keccak256(0x00, 0x40))\n      dup1\n      0x00\n      mstore\n      keccak256(0x00, 0x40)\n      0x00\n      swap2\n      pop\n      swap2\n      pop\n      swap1\n      sload\n      swap1\n      0x0100\n      exp\n      swap1\n      div\n      0xff\n      and\n      dup2\n      jump\t// out\n        /* \"--CODEGEN--\":5:135   */\n    tag_84:\n      0x00\n        /* \"--CODEGEN--\":85:91   */\n      dup2\n        /* \"--CODEGEN--\":72:92   */\n      calldataload\n        /* \"--CODEGEN--\":63:92   */\n      swap1\n      pop\n        /* \"--CODEGEN--\":97:130   */\n      tag_86\n        /* \"--CODEGEN--\":124:129   */\n      dup2\n        /* \"--CODEGEN--\":97:130   */\n      jump(tag_87)\n    tag_86:\n        /* \"--CODEGEN--\":57:135   */\n      swap3\n      swap2\n      pop\n      pop\n      jump\n        /* \"--CODEGEN--\":142:288   */\n    tag_88:\n      0x00\n        /* \"--CODEGEN--\":230:236   */\n      dup2\n        /* \"--CODEGEN--\":217:237   */\n      calldataload\n        /* \"--CODEGEN--\":208:237   */\n      swap1\n      pop\n        /* \"--CODEGEN--\":242:283   */\n      tag_90\n        /* \"--CODEGEN--\":277:282   */\n      dup2\n        /* \"--CODEGEN--\":242:283   */\n      jump(tag_91)\n    tag_90:\n        /* \"--CODEGEN--\":202:288   */\n      swap3\n      swap2\n      pop\n      pop\n      jump\n        /* \"--CODEGEN--\":295:425   */\n    tag_92:\n      0x00\n        /* \"--CODEGEN--\":375:381   */\n      dup2\n        /* \"--CODEGEN--\":362:382   */\n      calldataload\n        /* \"--CODEGEN--\":353:382   */\n      swap1\n      pop\n        /* \"--CODEGEN--\":387:420   */\n      tag_94\n        /* \"--CODEGEN--\":414:419   */\n      dup2\n        /* \"--CODEGEN--\":387:420   */\n      jump(tag_95)\n    tag_94:\n        /* \"--CODEGEN--\":347:425   */\n      swap3\n      swap2\n      pop\n      pop\n      jump\n        /* \"--CODEGEN--\":432:798   */\n    tag_44:\n      0x00\n      dup1\n        /* \"--CODEGEN--\":553:555   */\n      0x40\n        /* \"--CODEGEN--\":541:550   */\n      dup4\n        /* \"--CODEGEN--\":532:539   */\n      dup6\n        /* \"--CODEGEN--\":528:551   */\n      sub\n        /* \"--CODEGEN--\":524:556   */\n      slt\n        /* \"--CODEGEN--\":521:523   */\n      iszero\n      tag_97\n      jumpi\n        /* \"--CODEGEN--\":569:570   */\n      0x00\n        /* \"--CODEGEN--\":566:567   */\n      dup1\n        /* \"--CODEGEN--\":559:571   */\n      revert\n        /* \"--CODEGEN--\":521:523   */\n    tag_97:\n        /* \"--CODEGEN--\":604:605   */\n      0x00\n        /* \"--CODEGEN--\":621:674   */\n      tag_98\n        /* \"--CODEGEN--\":666:673   */\n      dup6\n        /* \"--CODEGEN--\":657:663   */\n      dup3\n        /* \"--CODEGEN--\":646:655   */\n      dup7\n        /* \"--CODEGEN--\":642:664   */\n      add\n        /* \"--CODEGEN--\":621:674   */\n      jump(tag_84)\n    tag_98:\n        /* \"--CODEGEN--\":611:674   */\n      swap3\n      pop\n        /* \"--CODEGEN--\":583:680   */\n      pop\n        /* \"--CODEGEN--\":711:713   */\n      0x20\n        /* \"--CODEGEN--\":729:782   */\n      tag_99\n        /* \"--CODEGEN--\":774:781   */\n      dup6\n        /* \"--CODEGEN--\":765:771   */\n      dup3\n        /* \"--CODEGEN--\":754:763   */\n      dup7\n        /* \"--CODEGEN--\":750:772   */\n      add\n        /* \"--CODEGEN--\":729:782   */\n      jump(tag_92)\n    tag_99:\n        /* \"--CODEGEN--\":719:782   */\n      swap2\n      pop\n        /* \"--CODEGEN--\":690:788   */\n      pop\n        /* \"--CODEGEN--\":515:798   */\n      swap3\n      pop\n      swap3\n      swap1\n      pop\n      jump\n        /* \"--CODEGEN--\":805:1046   */\n    tag_30:\n      0x00\n        /* \"--CODEGEN--\":909:911   */\n      0x20\n        /* \"--CODEGEN--\":897:906   */\n      dup3\n        /* \"--CODEGEN--\":888:895   */\n      dup5\n        /* \"--CODEGEN--\":884:907   */\n      sub\n        /* \"--CODEGEN--\":880:912   */\n      slt\n        /* \"--CODEGEN--\":877:879   */\n      iszero\n      tag_101\n      jumpi\n        /* \"--CODEGEN--\":925:926   */\n      0x00\n        /* \"--CODEGEN--\":922:923   */\n      dup1\n        /* \"--CODEGEN--\":915:927   */\n      revert\n        /* \"--CODEGEN--\":877:879   */\n    tag_101:\n        /* \"--CODEGEN--\":960:961   */\n      0x00\n        /* \"--CODEGEN--\":977:1030   */\n      tag_102\n        /* \"--CODEGEN--\":1022:1029   */\n      dup5\n        /* \"--CODEGEN--\":1013:1019   */\n      dup3\n        /* \"--CODEGEN--\":1002:1011   */\n      dup6\n        /* \"--CODEGEN--\":998:1020   */\n      add\n        /* \"--CODEGEN--\":977:1030   */\n      jump(tag_92)\n    tag_102:\n        /* \"--CODEGEN--\":967:1030   */\n      swap2\n      pop\n        /* \"--CODEGEN--\":939:1036   */\n      pop\n        /* \"--CODEGEN--\":871:1046   */\n      swap3\n      swap2\n      pop\n      pop\n      jump\n        /* \"--CODEGEN--\":1053:1435   */\n    tag_22:\n      0x00\n      dup1\n        /* \"--CODEGEN--\":1182:1184   */\n      0x40\n        /* \"--CODEGEN--\":1170:1179   */\n      dup4\n        /* \"--CODEGEN--\":1161:1168   */\n      dup6\n        /* \"--CODEGEN--\":1157:1180   */\n      sub\n        /* \"--CODEGEN--\":1153:1185   */\n      slt\n        /* \"--CODEGEN--\":1150:1152   */\n      iszero\n      tag_104\n      jumpi\n        /* \"--CODEGEN--\":1198:1199   */\n      0x00\n        /* \"--CODEGEN--\":1195:1196   */\n      dup1\n        /* \"--CODEGEN--\":1188:1200   */\n      revert\n        /* \"--CODEGEN--\":1150:1152   */\n    tag_104:\n        /* \"--CODEGEN--\":1233:1234   */\n      0x00\n        /* \"--CODEGEN--\":1250:1303   */\n      tag_105\n        /* \"--CODEGEN--\":1295:1302   */\n      dup6\n        /* \"--CODEGEN--\":1286:1292   */\n      dup3\n        /* \"--CODEGEN--\":1275:1284   */\n      dup7\n        /* \"--CODEGEN--\":1271:1293   */\n      add\n        /* \"--CODEGEN--\":1250:1303   */\n      jump(tag_92)\n    tag_105:\n        /* \"--CODEGEN--\":1240:1303   */\n      swap3\n      pop\n        /* \"--CODEGEN--\":1212:1309   */\n      pop\n        /* \"--CODEGEN--\":1340:1342   */\n      0x20\n        /* \"--CODEGEN--\":1358:1419   */\n      tag_106\n        /* \"--CODEGEN--\":1411:1418   */\n      dup6\n        /* \"--CODEGEN--\":1402:1408   */\n      dup3\n        /* \"--CODEGEN--\":1391:1400   */\n      dup7\n        /* \"--CODEGEN--\":1387:1409   */\n      add\n        /* \"--CODEGEN--\":1358:1419   */\n      jump(tag_88)\n    tag_106:\n        /* \"--CODEGEN--\":1348:1419   */\n      swap2\n      pop\n        /* \"--CODEGEN--\":1319:1425   */\n      pop\n        /* \"--CODEGEN--\":1144:1435   */\n      swap3\n      pop\n      swap3\n      swap1\n      pop\n      jump\n        /* \"--CODEGEN--\":1443:1616   */\n    tag_107:\n      0x00\n        /* \"--CODEGEN--\":1530:1576   */\n      tag_109\n        /* \"--CODEGEN--\":1572:1575   */\n      dup4\n        /* \"--CODEGEN--\":1564:1570   */\n      dup4\n        /* \"--CODEGEN--\":1530:1576   */\n      jump(tag_110)\n    tag_109:\n        /* \"--CODEGEN--\":1605:1609   */\n      0x20\n        /* \"--CODEGEN--\":1600:1603   */\n      dup4\n        /* \"--CODEGEN--\":1596:1610   */\n      add\n        /* \"--CODEGEN--\":1582:1610   */\n      swap1\n      pop\n        /* \"--CODEGEN--\":1523:1616   */\n      swap3\n      swap2\n      pop\n      pop\n      jump\n        /* \"--CODEGEN--\":1625:1882   */\n    tag_111:\n      0x00\n        /* \"--CODEGEN--\":1752:1842   */\n      tag_113\n        /* \"--CODEGEN--\":1838:1841   */\n      dup4\n        /* \"--CODEGEN--\":1830:1836   */\n      dup4\n        /* \"--CODEGEN--\":1752:1842   */\n      jump(tag_114)\n    tag_113:\n        /* \"--CODEGEN--\":1871:1875   */\n      0xa0\n        /* \"--CODEGEN--\":1866:1869   */\n      dup4\n        /* \"--CODEGEN--\":1862:1876   */\n      add\n        /* \"--CODEGEN--\":1848:1876   */\n      swap1\n      pop\n        /* \"--CODEGEN--\":1745:1882   */\n      swap3\n      swap2\n      pop\n      pop\n      jump\n        /* \"--CODEGEN--\":1890:2017   */\n    tag_115:\n        /* \"--CODEGEN--\":1979:2011   */\n      tag_117\n        /* \"--CODEGEN--\":2005:2010   */\n      dup2\n        /* \"--CODEGEN--\":1979:2011   */\n      jump(tag_118)\n    tag_117:\n        /* \"--CODEGEN--\":1974:1977   */\n      dup3\n        /* \"--CODEGEN--\":1967:2012   */\n      mstore\n        /* \"--CODEGEN--\":1961:2017   */\n      pop\n      pop\n      jump\n        /* \"--CODEGEN--\":2024:2161   */\n    tag_119:\n        /* \"--CODEGEN--\":2123:2155   */\n      tag_121\n        /* \"--CODEGEN--\":2149:2154   */\n      dup2\n        /* \"--CODEGEN--\":2123:2155   */\n      jump(tag_118)\n    tag_121:\n        /* \"--CODEGEN--\":2118:2121   */\n      dup3\n        /* \"--CODEGEN--\":2111:2156   */\n      mstore\n        /* \"--CODEGEN--\":2105:2161   */\n      pop\n      pop\n      jump\n        /* \"--CODEGEN--\":2168:2271   */\n    tag_110:\n        /* \"--CODEGEN--\":2241:2265   */\n      tag_123\n        /* \"--CODEGEN--\":2259:2264   */\n      dup2\n        /* \"--CODEGEN--\":2241:2265   */\n      jump(tag_124)\n    tag_123:\n        /* \"--CODEGEN--\":2236:2239   */\n      dup3\n        /* \"--CODEGEN--\":2229:2266   */\n      mstore\n        /* \"--CODEGEN--\":2223:2271   */\n      pop\n      pop\n      jump\n        /* \"--CODEGEN--\":2278:2391   */\n    tag_125:\n        /* \"--CODEGEN--\":2361:2385   */\n      tag_127\n        /* \"--CODEGEN--\":2379:2384   */\n      dup2\n        /* \"--CODEGEN--\":2361:2385   */\n      jump(tag_124)\n    tag_127:\n        /* \"--CODEGEN--\":2356:2359   */\n      dup3\n        /* \"--CODEGEN--\":2349:2386   */\n      mstore\n        /* \"--CODEGEN--\":2343:2391   */\n      pop\n      pop\n      jump\n        /* \"--CODEGEN--\":2429:3119   */\n    tag_128:\n      0x00\n        /* \"--CODEGEN--\":2574:2628   */\n      tag_130\n        /* \"--CODEGEN--\":2622:2627   */\n      dup3\n        /* \"--CODEGEN--\":2574:2628   */\n      jump(tag_131)\n    tag_130:\n        /* \"--CODEGEN--\":2641:2727   */\n      tag_132\n        /* \"--CODEGEN--\":2720:2726   */\n      dup2\n        /* \"--CODEGEN--\":2715:2718   */\n      dup6\n        /* \"--CODEGEN--\":2641:2727   */\n      jump(tag_133)\n    tag_132:\n        /* \"--CODEGEN--\":2634:2727   */\n      swap4\n      pop\n        /* \"--CODEGEN--\":2748:2804   */\n      tag_134\n        /* \"--CODEGEN--\":2798:2803   */\n      dup4\n        /* \"--CODEGEN--\":2748:2804   */\n      jump(tag_135)\n    tag_134:\n        /* \"--CODEGEN--\":2824:2831   */\n      dup1\n        /* \"--CODEGEN--\":2852:2853   */\n      0x00\n        /* \"--CODEGEN--\":2837:3097   */\n    tag_136:\n        /* \"--CODEGEN--\":2862:2868   */\n      dup4\n        /* \"--CODEGEN--\":2859:2860   */\n      dup2\n        /* \"--CODEGEN--\":2856:2869   */\n      lt\n        /* \"--CODEGEN--\":2837:3097   */\n      iszero\n      tag_138\n      jumpi\n        /* \"--CODEGEN--\":2929:2935   */\n      dup2\n        /* \"--CODEGEN--\":2923:2936   */\n      mload\n        /* \"--CODEGEN--\":2950:3013   */\n      tag_139\n        /* \"--CODEGEN--\":3009:3012   */\n      dup9\n        /* \"--CODEGEN--\":2994:3007   */\n      dup3\n        /* \"--CODEGEN--\":2950:3013   */\n      jump(tag_107)\n    tag_139:\n        /* \"--CODEGEN--\":2943:3013   */\n      swap8\n      pop\n        /* \"--CODEGEN--\":3030:3090   */\n      tag_140\n        /* \"--CODEGEN--\":3083:3089   */\n      dup4\n        /* \"--CODEGEN--\":3030:3090   */\n      jump(tag_141)\n    tag_140:\n        /* \"--CODEGEN--\":3020:3090   */\n      swap3\n      pop\n        /* \"--CODEGEN--\":2894:3097   */\n      pop\n        /* \"--CODEGEN--\":2884:2885   */\n      0x01\n        /* \"--CODEGEN--\":2881:2882   */\n      dup2\n        /* \"--CODEGEN--\":2877:2886   */\n      add\n        /* \"--CODEGEN--\":2872:2886   */\n      swap1\n      pop\n        /* \"--CODEGEN--\":2837:3097   */\n      jump(tag_136)\n    tag_138:\n        /* \"--CODEGEN--\":2841:2855   */\n      pop\n        /* \"--CODEGEN--\":3110:3113   */\n      dup6\n        /* \"--CODEGEN--\":3103:3113   */\n      swap4\n      pop\n        /* \"--CODEGEN--\":2553:3119   */\n      pop\n      pop\n      pop\n      swap3\n      swap2\n      pop\n      pop\n      jump\n        /* \"--CODEGEN--\":3188:4038   */\n    tag_142:\n      0x00\n        /* \"--CODEGEN--\":3373:3447   */\n      tag_144\n        /* \"--CODEGEN--\":3441:3446   */\n      dup3\n        /* \"--CODEGEN--\":3373:3447   */\n      jump(tag_145)\n    tag_144:\n        /* \"--CODEGEN--\":3460:3566   */\n      tag_146\n        /* \"--CODEGEN--\":3559:3565   */\n      dup2\n        /* \"--CODEGEN--\":3554:3557   */\n      dup6\n        /* \"--CODEGEN--\":3460:3566   */\n      jump(tag_147)\n    tag_146:\n        /* \"--CODEGEN--\":3453:3566   */\n      swap4\n      pop\n        /* \"--CODEGEN--\":3587:3663   */\n      tag_148\n        /* \"--CODEGEN--\":3657:3662   */\n      dup4\n        /* \"--CODEGEN--\":3587:3663   */\n      jump(tag_149)\n    tag_148:\n        /* \"--CODEGEN--\":3683:3690   */\n      dup1\n        /* \"--CODEGEN--\":3711:3712   */\n      0x00\n        /* \"--CODEGEN--\":3696:4016   */\n    tag_150:\n        /* \"--CODEGEN--\":3721:3727   */\n      dup4\n        /* \"--CODEGEN--\":3718:3719   */\n      dup2\n        /* \"--CODEGEN--\":3715:3728   */\n      lt\n        /* \"--CODEGEN--\":3696:4016   */\n      iszero\n      tag_152\n      jumpi\n        /* \"--CODEGEN--\":3788:3794   */\n      dup2\n        /* \"--CODEGEN--\":3782:3795   */\n      mload\n        /* \"--CODEGEN--\":3809:3912   */\n      tag_153\n        /* \"--CODEGEN--\":3908:3911   */\n      dup9\n        /* \"--CODEGEN--\":3893:3906   */\n      dup3\n        /* \"--CODEGEN--\":3809:3912   */\n      jump(tag_111)\n    tag_153:\n        /* \"--CODEGEN--\":3802:3912   */\n      swap8\n      pop\n        /* \"--CODEGEN--\":3929:4009   */\n      tag_154\n        /* \"--CODEGEN--\":4002:4008   */\n      dup4\n        /* \"--CODEGEN--\":3929:4009   */\n      jump(tag_155)\n    tag_154:\n        /* \"--CODEGEN--\":3919:4009   */\n      swap3\n      pop\n        /* \"--CODEGEN--\":3753:4016   */\n      pop\n        /* \"--CODEGEN--\":3743:3744   */\n      0x01\n        /* \"--CODEGEN--\":3740:3741   */\n      dup2\n        /* \"--CODEGEN--\":3736:3745   */\n      add\n        /* \"--CODEGEN--\":3731:3745   */\n      swap1\n      pop\n        /* \"--CODEGEN--\":3696:4016   */\n      jump(tag_150)\n    tag_152:\n        /* \"--CODEGEN--\":3700:3714   */\n      pop\n        /* \"--CODEGEN--\":4029:4032   */\n      dup6\n        /* \"--CODEGEN--\":4022:4032   */\n      swap4\n      pop\n        /* \"--CODEGEN--\":3352:4038   */\n      pop\n      pop\n      pop\n      swap3\n      swap2\n      pop\n      pop\n      jump\n        /* \"--CODEGEN--\":4046:4140   */\n    tag_156:\n        /* \"--CODEGEN--\":4113:4134   */\n      tag_158\n        /* \"--CODEGEN--\":4128:4133   */\n      dup2\n        /* \"--CODEGEN--\":4113:4134   */\n      jump(tag_159)\n    tag_158:\n        /* \"--CODEGEN--\":4108:4111   */\n      dup3\n        /* \"--CODEGEN--\":4101:4135   */\n      mstore\n        /* \"--CODEGEN--\":4095:4140   */\n      pop\n      pop\n      jump\n        /* \"--CODEGEN--\":4147:4251   */\n    tag_160:\n        /* \"--CODEGEN--\":4224:4245   */\n      tag_162\n        /* \"--CODEGEN--\":4239:4244   */\n      dup2\n        /* \"--CODEGEN--\":4224:4245   */\n      jump(tag_159)\n    tag_162:\n        /* \"--CODEGEN--\":4219:4222   */\n      dup3\n        /* \"--CODEGEN--\":4212:4246   */\n      mstore\n        /* \"--CODEGEN--\":4206:4251   */\n      pop\n      pop\n      jump\n        /* \"--CODEGEN--\":4259:4590   */\n    tag_163:\n      0x00\n        /* \"--CODEGEN--\":4419:4486   */\n      tag_165\n        /* \"--CODEGEN--\":4483:4485   */\n      0x1f\n        /* \"--CODEGEN--\":4478:4481   */\n      dup4\n        /* \"--CODEGEN--\":4419:4486   */\n      jump(tag_166)\n    tag_165:\n        /* \"--CODEGEN--\":4412:4486   */\n      swap2\n      pop\n        /* \"--CODEGEN--\":4519:4552   */\n      0x5472616e736665722068617320616c7265616479206265656e2073656e742e00\n        /* \"--CODEGEN--\":4515:4516   */\n      0x00\n        /* \"--CODEGEN--\":4510:4513   */\n      dup4\n        /* \"--CODEGEN--\":4506:4517   */\n      add\n        /* \"--CODEGEN--\":4499:4553   */\n      mstore\n        /* \"--CODEGEN--\":4581:4583   */\n      0x20\n        /* \"--CODEGEN--\":4576:4579   */\n      dup3\n        /* \"--CODEGEN--\":4572:4584   */\n      add\n        /* \"--CODEGEN--\":4565:4584   */\n      swap1\n      pop\n        /* \"--CODEGEN--\":4405:4590   */\n      swap2\n      swap1\n      pop\n      jump\n        /* \"--CODEGEN--\":4599:4929   */\n    tag_167:\n      0x00\n        /* \"--CODEGEN--\":4759:4826   */\n      tag_169\n        /* \"--CODEGEN--\":4823:4825   */\n      0x1e\n        /* \"--CODEGEN--\":4818:4821   */\n      dup4\n        /* \"--CODEGEN--\":4759:4826   */\n      jump(tag_166)\n    tag_169:\n        /* \"--CODEGEN--\":4752:4826   */\n      swap2\n      pop\n        /* \"--CODEGEN--\":4859:4891   */\n      0x43616e6e6f7420617070726f7665207472616e7366657220616761696e2e0000\n        /* \"--CODEGEN--\":4855:4856   */\n      0x00\n        /* \"--CODEGEN--\":4850:4853   */\n      dup4\n        /* \"--CODEGEN--\":4846:4857   */\n      add\n        /* \"--CODEGEN--\":4839:4892   */\n      mstore\n        /* \"--CODEGEN--\":4920:4922   */\n      0x20\n        /* \"--CODEGEN--\":4915:4918   */\n      dup3\n        /* \"--CODEGEN--\":4911:4923   */\n      add\n        /* \"--CODEGEN--\":4904:4923   */\n      swap1\n      pop\n        /* \"--CODEGEN--\":4745:4929   */\n      swap2\n      swap1\n      pop\n      jump\n        /* \"--CODEGEN--\":4992:5927   */\n    tag_114:\n        /* \"--CODEGEN--\":5119:5123   */\n      0xa0\n        /* \"--CODEGEN--\":5114:5117   */\n      dup3\n        /* \"--CODEGEN--\":5110:5124   */\n      add\n        /* \"--CODEGEN--\":5200:5204   */\n      0x00\n        /* \"--CODEGEN--\":5193:5198   */\n      dup3\n        /* \"--CODEGEN--\":5189:5205   */\n      add\n        /* \"--CODEGEN--\":5183:5206   */\n      mload\n        /* \"--CODEGEN--\":5212:5275   */\n      tag_171\n        /* \"--CODEGEN--\":5269:5273   */\n      0x00\n        /* \"--CODEGEN--\":5264:5267   */\n      dup6\n        /* \"--CODEGEN--\":5260:5274   */\n      add\n        /* \"--CODEGEN--\":5246:5258   */\n      dup3\n        /* \"--CODEGEN--\":5212:5275   */\n      jump(tag_172)\n    tag_171:\n        /* \"--CODEGEN--\":5139:5281   */\n      pop\n        /* \"--CODEGEN--\":5356:5360   */\n      0x20\n        /* \"--CODEGEN--\":5349:5354   */\n      dup3\n        /* \"--CODEGEN--\":5345:5361   */\n      add\n        /* \"--CODEGEN--\":5339:5362   */\n      mload\n        /* \"--CODEGEN--\":5368:5431   */\n      tag_173\n        /* \"--CODEGEN--\":5425:5429   */\n      0x20\n        /* \"--CODEGEN--\":5420:5423   */\n      dup6\n        /* \"--CODEGEN--\":5416:5430   */\n      add\n        /* \"--CODEGEN--\":5402:5414   */\n      dup3\n        /* \"--CODEGEN--\":5368:5431   */\n      jump(tag_172)\n    tag_173:\n        /* \"--CODEGEN--\":5291:5437   */\n      pop\n        /* \"--CODEGEN--\":5508:5512   */\n      0x40\n        /* \"--CODEGEN--\":5501:5506   */\n      dup3\n        /* \"--CODEGEN--\":5497:5513   */\n      add\n        /* \"--CODEGEN--\":5491:5514   */\n      mload\n        /* \"--CODEGEN--\":5520:5599   */\n      tag_174\n        /* \"--CODEGEN--\":5593:5597   */\n      0x40\n        /* \"--CODEGEN--\":5588:5591   */\n      dup6\n        /* \"--CODEGEN--\":5584:5598   */\n      add\n        /* \"--CODEGEN--\":5570:5582   */\n      dup3\n        /* \"--CODEGEN--\":5520:5599   */\n      jump(tag_115)\n    tag_174:\n        /* \"--CODEGEN--\":5447:5605   */\n      pop\n        /* \"--CODEGEN--\":5683:5687   */\n      0x60\n        /* \"--CODEGEN--\":5676:5681   */\n      dup3\n        /* \"--CODEGEN--\":5672:5688   */\n      add\n        /* \"--CODEGEN--\":5666:5689   */\n      mload\n        /* \"--CODEGEN--\":5695:5758   */\n      tag_175\n        /* \"--CODEGEN--\":5752:5756   */\n      0x60\n        /* \"--CODEGEN--\":5747:5750   */\n      dup6\n        /* \"--CODEGEN--\":5743:5757   */\n      add\n        /* \"--CODEGEN--\":5729:5741   */\n      dup3\n        /* \"--CODEGEN--\":5695:5758   */\n      jump(tag_172)\n    tag_175:\n        /* \"--CODEGEN--\":5615:5764   */\n      pop\n        /* \"--CODEGEN--\":5837:5841   */\n      0x80\n        /* \"--CODEGEN--\":5830:5835   */\n      dup3\n        /* \"--CODEGEN--\":5826:5842   */\n      add\n        /* \"--CODEGEN--\":5820:5843   */\n      mload\n        /* \"--CODEGEN--\":5849:5906   */\n      tag_176\n        /* \"--CODEGEN--\":5900:5904   */\n      0x80\n        /* \"--CODEGEN--\":5895:5898   */\n      dup6\n        /* \"--CODEGEN--\":5891:5905   */\n      add\n        /* \"--CODEGEN--\":5877:5889   */\n      dup3\n        /* \"--CODEGEN--\":5849:5906   */\n      jump(tag_156)\n    tag_176:\n        /* \"--CODEGEN--\":5774:5912   */\n      pop\n        /* \"--CODEGEN--\":5092:5927   */\n      pop\n      pop\n      pop\n      jump\n        /* \"--CODEGEN--\":5934:6037   */\n    tag_172:\n        /* \"--CODEGEN--\":6007:6031   */\n      tag_178\n        /* \"--CODEGEN--\":6025:6030   */\n      dup2\n        /* \"--CODEGEN--\":6007:6031   */\n      jump(tag_179)\n    tag_178:\n        /* \"--CODEGEN--\":6002:6005   */\n      dup3\n        /* \"--CODEGEN--\":5995:6032   */\n      mstore\n        /* \"--CODEGEN--\":5989:6037   */\n      pop\n      pop\n      jump\n        /* \"--CODEGEN--\":6044:6157   */\n    tag_180:\n        /* \"--CODEGEN--\":6127:6151   */\n      tag_182\n        /* \"--CODEGEN--\":6145:6150   */\n      dup2\n        /* \"--CODEGEN--\":6127:6151   */\n      jump(tag_179)\n    tag_182:\n        /* \"--CODEGEN--\":6122:6125   */\n      dup3\n        /* \"--CODEGEN--\":6115:6152   */\n      mstore\n        /* \"--CODEGEN--\":6109:6157   */\n      pop\n      pop\n      jump\n        /* \"--CODEGEN--\":6164:6377   */\n    tag_41:\n      0x00\n        /* \"--CODEGEN--\":6282:6284   */\n      0x20\n        /* \"--CODEGEN--\":6271:6280   */\n      dup3\n        /* \"--CODEGEN--\":6267:6285   */\n      add\n        /* \"--CODEGEN--\":6259:6285   */\n      swap1\n      pop\n        /* \"--CODEGEN--\":6296:6367   */\n      tag_184\n        /* \"--CODEGEN--\":6364:6365   */\n      0x00\n        /* \"--CODEGEN--\":6353:6362   */\n      dup4\n        /* \"--CODEGEN--\":6349:6366   */\n      add\n        /* \"--CODEGEN--\":6340:6346   */\n      dup5\n        /* \"--CODEGEN--\":6296:6367   */\n      jump(tag_125)\n    tag_184:\n        /* \"--CODEGEN--\":6253:6377   */\n      swap3\n      swap2\n      pop\n      pop\n      jump\n        /* \"--CODEGEN--\":6384:6745   */\n    tag_27:\n      0x00\n        /* \"--CODEGEN--\":6552:6554   */\n      0x20\n        /* \"--CODEGEN--\":6541:6550   */\n      dup3\n        /* \"--CODEGEN--\":6537:6555   */\n      add\n        /* \"--CODEGEN--\":6529:6555   */\n      swap1\n      pop\n        /* \"--CODEGEN--\":6602:6611   */\n      dup2\n        /* \"--CODEGEN--\":6596:6600   */\n      dup2\n        /* \"--CODEGEN--\":6592:6612   */\n      sub\n        /* \"--CODEGEN--\":6588:6589   */\n      0x00\n        /* \"--CODEGEN--\":6577:6586   */\n      dup4\n        /* \"--CODEGEN--\":6573:6590   */\n      add\n        /* \"--CODEGEN--\":6566:6613   */\n      mstore\n        /* \"--CODEGEN--\":6627:6735   */\n      tag_186\n        /* \"--CODEGEN--\":6730:6734   */\n      dup2\n        /* \"--CODEGEN--\":6721:6727   */\n      dup5\n        /* \"--CODEGEN--\":6627:6735   */\n      jump(tag_128)\n    tag_186:\n        /* \"--CODEGEN--\":6619:6735   */\n      swap1\n      pop\n        /* \"--CODEGEN--\":6523:6745   */\n      swap3\n      swap2\n      pop\n      pop\n      jump\n        /* \"--CODEGEN--\":6752:7193   */\n    tag_19:\n      0x00\n        /* \"--CODEGEN--\":6960:6962   */\n      0x20\n        /* \"--CODEGEN--\":6949:6958   */\n      dup3\n        /* \"--CODEGEN--\":6945:6963   */\n      add\n        /* \"--CODEGEN--\":6937:6963   */\n      swap1\n      pop\n        /* \"--CODEGEN--\":7010:7019   */\n      dup2\n        /* \"--CODEGEN--\":7004:7008   */\n      dup2\n        /* \"--CODEGEN--\":7000:7020   */\n      sub\n        /* \"--CODEGEN--\":6996:6997   */\n      0x00\n        /* \"--CODEGEN--\":6985:6994   */\n      dup4\n        /* \"--CODEGEN--\":6981:6998   */\n      add\n        /* \"--CODEGEN--\":6974:7021   */\n      mstore\n        /* \"--CODEGEN--\":7035:7183   */\n      tag_188\n        /* \"--CODEGEN--\":7178:7182   */\n      dup2\n        /* \"--CODEGEN--\":7169:7175   */\n      dup5\n        /* \"--CODEGEN--\":7035:7183   */\n      jump(tag_142)\n    tag_188:\n        /* \"--CODEGEN--\":7027:7183   */\n      swap1\n      pop\n        /* \"--CODEGEN--\":6931:7193   */\n      swap3\n      swap2\n      pop\n      pop\n      jump\n        /* \"--CODEGEN--\":7200:7401   */\n    tag_47:\n      0x00\n        /* \"--CODEGEN--\":7312:7314   */\n      0x20\n        /* \"--CODEGEN--\":7301:7310   */\n      dup3\n        /* \"--CODEGEN--\":7297:7315   */\n      add\n        /* \"--CODEGEN--\":7289:7315   */\n      swap1\n      pop\n        /* \"--CODEGEN--\":7326:7391   */\n      tag_190\n        /* \"--CODEGEN--\":7388:7389   */\n      0x00\n        /* \"--CODEGEN--\":7377:7386   */\n      dup4\n        /* \"--CODEGEN--\":7373:7390   */\n      add\n        /* \"--CODEGEN--\":7364:7370   */\n      dup5\n        /* \"--CODEGEN--\":7326:7391   */\n      jump(tag_160)\n    tag_190:\n        /* \"--CODEGEN--\":7283:7401   */\n      swap3\n      swap2\n      pop\n      pop\n      jump\n        /* \"--CODEGEN--\":7408:7815   */\n    tag_64:\n      0x00\n        /* \"--CODEGEN--\":7599:7601   */\n      0x20\n        /* \"--CODEGEN--\":7588:7597   */\n      dup3\n        /* \"--CODEGEN--\":7584:7602   */\n      add\n        /* \"--CODEGEN--\":7576:7602   */\n      swap1\n      pop\n        /* \"--CODEGEN--\":7649:7658   */\n      dup2\n        /* \"--CODEGEN--\":7643:7647   */\n      dup2\n        /* \"--CODEGEN--\":7639:7659   */\n      sub\n        /* \"--CODEGEN--\":7635:7636   */\n      0x00\n        /* \"--CODEGEN--\":7624:7633   */\n      dup4\n        /* \"--CODEGEN--\":7620:7637   */\n      add\n        /* \"--CODEGEN--\":7613:7660   */\n      mstore\n        /* \"--CODEGEN--\":7674:7805   */\n      tag_192\n        /* \"--CODEGEN--\":7800:7804   */\n      dup2\n        /* \"--CODEGEN--\":7674:7805   */\n      jump(tag_163)\n    tag_192:\n        /* \"--CODEGEN--\":7666:7805   */\n      swap1\n      pop\n        /* \"--CODEGEN--\":7570:7815   */\n      swap2\n      swap1\n      pop\n      jump\n        /* \"--CODEGEN--\":7822:8229   */\n    tag_67:\n      0x00\n        /* \"--CODEGEN--\":8013:8015   */\n      0x20\n        /* \"--CODEGEN--\":8002:8011   */\n      dup3\n        /* \"--CODEGEN--\":7998:8016   */\n      add\n        /* \"--CODEGEN--\":7990:8016   */\n      swap1\n      pop\n        /* \"--CODEGEN--\":8063:8072   */\n      dup2\n        /* \"--CODEGEN--\":8057:8061   */\n      dup2\n        /* \"--CODEGEN--\":8053:8073   */\n      sub\n        /* \"--CODEGEN--\":8049:8050   */\n      0x00\n        /* \"--CODEGEN--\":8038:8047   */\n      dup4\n        /* \"--CODEGEN--\":8034:8051   */\n      add\n        /* \"--CODEGEN--\":8027:8074   */\n      mstore\n        /* \"--CODEGEN--\":8088:8219   */\n      tag_194\n        /* \"--CODEGEN--\":8214:8218   */\n      dup2\n        /* \"--CODEGEN--\":8088:8219   */\n      jump(tag_167)\n    tag_194:\n        /* \"--CODEGEN--\":8080:8219   */\n      swap1\n      pop\n        /* \"--CODEGEN--\":7984:8229   */\n      swap2\n      swap1\n      pop\n      jump\n        /* \"--CODEGEN--\":8236:8449   */\n    tag_15:\n      0x00\n        /* \"--CODEGEN--\":8354:8356   */\n      0x20\n        /* \"--CODEGEN--\":8343:8352   */\n      dup3\n        /* \"--CODEGEN--\":8339:8357   */\n      add\n        /* \"--CODEGEN--\":8331:8357   */\n      swap1\n      pop\n        /* \"--CODEGEN--\":8368:8439   */\n      tag_196\n        /* \"--CODEGEN--\":8436:8437   */\n      0x00\n        /* \"--CODEGEN--\":8425:8434   */\n      dup4\n        /* \"--CODEGEN--\":8421:8438   */\n      add\n        /* \"--CODEGEN--\":8412:8418   */\n      dup5\n        /* \"--CODEGEN--\":8368:8439   */\n      jump(tag_180)\n    tag_196:\n        /* \"--CODEGEN--\":8325:8449   */\n      swap3\n      swap2\n      pop\n      pop\n      jump\n        /* \"--CODEGEN--\":8456:9135   */\n    tag_33:\n      0x00\n        /* \"--CODEGEN--\":8696:8699   */\n      0xa0\n        /* \"--CODEGEN--\":8685:8694   */\n      dup3\n        /* \"--CODEGEN--\":8681:8700   */\n      add\n        /* \"--CODEGEN--\":8673:8700   */\n      swap1\n      pop\n        /* \"--CODEGEN--\":8711:8782   */\n      tag_198\n        /* \"--CODEGEN--\":8779:8780   */\n      0x00\n        /* \"--CODEGEN--\":8768:8777   */\n      dup4\n        /* \"--CODEGEN--\":8764:8781   */\n      add\n        /* \"--CODEGEN--\":8755:8761   */\n      dup9\n        /* \"--CODEGEN--\":8711:8782   */\n      jump(tag_180)\n    tag_198:\n        /* \"--CODEGEN--\":8793:8865   */\n      tag_199\n        /* \"--CODEGEN--\":8861:8863   */\n      0x20\n        /* \"--CODEGEN--\":8850:8859   */\n      dup4\n        /* \"--CODEGEN--\":8846:8864   */\n      add\n        /* \"--CODEGEN--\":8837:8843   */\n      dup8\n        /* \"--CODEGEN--\":8793:8865   */\n      jump(tag_180)\n    tag_199:\n        /* \"--CODEGEN--\":8876:8964   */\n      tag_200\n        /* \"--CODEGEN--\":8960:8962   */\n      0x40\n        /* \"--CODEGEN--\":8949:8958   */\n      dup4\n        /* \"--CODEGEN--\":8945:8963   */\n      add\n        /* \"--CODEGEN--\":8936:8942   */\n      dup7\n        /* \"--CODEGEN--\":8876:8964   */\n      jump(tag_119)\n    tag_200:\n        /* \"--CODEGEN--\":8975:9047   */\n      tag_201\n        /* \"--CODEGEN--\":9043:9045   */\n      0x60\n        /* \"--CODEGEN--\":9032:9041   */\n      dup4\n        /* \"--CODEGEN--\":9028:9046   */\n      add\n        /* \"--CODEGEN--\":9019:9025   */\n      dup6\n        /* \"--CODEGEN--\":8975:9047   */\n      jump(tag_180)\n    tag_201:\n        /* \"--CODEGEN--\":9058:9125   */\n      tag_202\n        /* \"--CODEGEN--\":9120:9123   */\n      0x80\n        /* \"--CODEGEN--\":9109:9118   */\n      dup4\n        /* \"--CODEGEN--\":9105:9124   */\n      add\n        /* \"--CODEGEN--\":9096:9102   */\n      dup5\n        /* \"--CODEGEN--\":9058:9125   */\n      jump(tag_160)\n    tag_202:\n        /* \"--CODEGEN--\":8667:9135   */\n      swap7\n      swap6\n      pop\n      pop\n      pop\n      pop\n      pop\n      pop\n      jump\n        /* \"--CODEGEN--\":9142:9293   */\n    tag_135:\n      0x00\n        /* \"--CODEGEN--\":9228:9231   */\n      dup2\n        /* \"--CODEGEN--\":9220:9231   */\n      swap1\n      pop\n        /* \"--CODEGEN--\":9266:9270   */\n      0x20\n        /* \"--CODEGEN--\":9261:9264   */\n      dup3\n        /* \"--CODEGEN--\":9257:9271   */\n      add\n        /* \"--CODEGEN--\":9249:9271   */\n      swap1\n      pop\n        /* \"--CODEGEN--\":9214:9293   */\n      swap2\n      swap1\n      pop\n      jump\n        /* \"--CODEGEN--\":9300:9471   */\n    tag_149:\n      0x00\n        /* \"--CODEGEN--\":9406:9409   */\n      dup2\n        /* \"--CODEGEN--\":9398:9409   */\n      swap1\n      pop\n        /* \"--CODEGEN--\":9444:9448   */\n      0x20\n        /* \"--CODEGEN--\":9439:9442   */\n      dup3\n        /* \"--CODEGEN--\":9435:9449   */\n      add\n        /* \"--CODEGEN--\":9427:9449   */\n      swap1\n      pop\n        /* \"--CODEGEN--\":9392:9471   */\n      swap2\n      swap1\n      pop\n      jump\n        /* \"--CODEGEN--\":9478:9615   */\n    tag_131:\n      0x00\n        /* \"--CODEGEN--\":9587:9592   */\n      dup2\n        /* \"--CODEGEN--\":9581:9593   */\n      mload\n        /* \"--CODEGEN--\":9571:9593   */\n      swap1\n      pop\n        /* \"--CODEGEN--\":9552:9615   */\n      swap2\n      swap1\n      pop\n      jump\n        /* \"--CODEGEN--\":9622:9779   */\n    tag_145:\n      0x00\n        /* \"--CODEGEN--\":9751:9756   */\n      dup2\n        /* \"--CODEGEN--\":9745:9757   */\n      mload\n        /* \"--CODEGEN--\":9735:9757   */\n      swap1\n      pop\n        /* \"--CODEGEN--\":9716:9779   */\n      swap2\n      swap1\n      pop\n      jump\n        /* \"--CODEGEN--\":9786:9894   */\n    tag_141:\n      0x00\n        /* \"--CODEGEN--\":9884:9888   */\n      0x20\n        /* \"--CODEGEN--\":9879:9882   */\n      dup3\n        /* \"--CODEGEN--\":9875:9889   */\n      add\n        /* \"--CODEGEN--\":9867:9889   */\n      swap1\n      pop\n        /* \"--CODEGEN--\":9861:9894   */\n      swap2\n      swap1\n      pop\n      jump\n        /* \"--CODEGEN--\":9901:10029   */\n    tag_155:\n      0x00\n        /* \"--CODEGEN--\":10019:10023   */\n      0x20\n        /* \"--CODEGEN--\":10014:10017   */\n      dup3\n        /* \"--CODEGEN--\":10010:10024   */\n      add\n        /* \"--CODEGEN--\":10002:10024   */\n      swap1\n      pop\n        /* \"--CODEGEN--\":9996:10029   */\n      swap2\n      swap1\n      pop\n      jump\n        /* \"--CODEGEN--\":10037:10215   */\n    tag_133:\n      0x00\n        /* \"--CODEGEN--\":10167:10173   */\n      dup3\n        /* \"--CODEGEN--\":10162:10165   */\n      dup3\n        /* \"--CODEGEN--\":10155:10174   */\n      mstore\n        /* \"--CODEGEN--\":10204:10208   */\n      0x20\n        /* \"--CODEGEN--\":10199:10202   */\n      dup3\n        /* \"--CODEGEN--\":10195:10209   */\n      add\n        /* \"--CODEGEN--\":10180:10209   */\n      swap1\n      pop\n        /* \"--CODEGEN--\":10148:10215   */\n      swap3\n      swap2\n      pop\n      pop\n      jump\n        /* \"--CODEGEN--\":10224:10422   */\n    tag_147:\n      0x00\n        /* \"--CODEGEN--\":10374:10380   */\n      dup3\n        /* \"--CODEGEN--\":10369:10372   */\n      dup3\n        /* \"--CODEGEN--\":10362:10381   */\n      mstore\n        /* \"--CODEGEN--\":10411:10415   */\n      0x20\n        /* \"--CODEGEN--\":10406:10409   */\n      dup3\n        /* \"--CODEGEN--\":10402:10416   */\n      add\n        /* \"--CODEGEN--\":10387:10416   */\n      swap1\n      pop\n        /* \"--CODEGEN--\":10355:10422   */\n      swap3\n      swap2\n      pop\n      pop\n      jump\n        /* \"--CODEGEN--\":10431:10594   */\n    tag_166:\n      0x00\n        /* \"--CODEGEN--\":10546:10552   */\n      dup3\n        /* \"--CODEGEN--\":10541:10544   */\n      dup3\n        /* \"--CODEGEN--\":10534:10553   */\n      mstore\n        /* \"--CODEGEN--\":10583:10587   */\n      0x20\n        /* \"--CODEGEN--\":10578:10581   */\n      dup3\n        /* \"--CODEGEN--\":10574:10588   */\n      add\n        /* \"--CODEGEN--\":10559:10588   */\n      swap1\n      pop\n        /* \"--CODEGEN--\":10527:10594   */\n      swap3\n      swap2\n      pop\n      pop\n      jump\n        /* \"--CODEGEN--\":10602:10693   */\n    tag_124:\n      0x00\n        /* \"--CODEGEN--\":10664:10688   */\n      tag_213\n        /* \"--CODEGEN--\":10682:10687   */\n      dup3\n        /* \"--CODEGEN--\":10664:10688   */\n      jump(tag_214)\n    tag_213:\n        /* \"--CODEGEN--\":10653:10688   */\n      swap1\n      pop\n        /* \"--CODEGEN--\":10647:10693   */\n      swap2\n      swap1\n      pop\n      jump\n        /* \"--CODEGEN--\":10700:10799   */\n    tag_118:\n      0x00\n        /* \"--CODEGEN--\":10770:10794   */\n      tag_216\n        /* \"--CODEGEN--\":10788:10793   */\n      dup3\n        /* \"--CODEGEN--\":10770:10794   */\n      jump(tag_214)\n    tag_216:\n        /* \"--CODEGEN--\":10759:10794   */\n      swap1\n      pop\n        /* \"--CODEGEN--\":10753:10799   */\n      swap2\n      swap1\n      pop\n      jump\n        /* \"--CODEGEN--\":10806:10891   */\n    tag_159:\n      0x00\n        /* \"--CODEGEN--\":10879:10884   */\n      dup2\n        /* \"--CODEGEN--\":10872:10885   */\n      iszero\n        /* \"--CODEGEN--\":10865:10886   */\n      iszero\n        /* \"--CODEGEN--\":10854:10886   */\n      swap1\n      pop\n        /* \"--CODEGEN--\":10848:10891   */\n      swap2\n      swap1\n      pop\n      jump\n        /* \"--CODEGEN--\":10898:11019   */\n    tag_214:\n      0x00\n        /* \"--CODEGEN--\":10971:11013   */\n      0xffffffffffffffffffffffffffffffffffffffff\n        /* \"--CODEGEN--\":10964:10969   */\n      dup3\n        /* \"--CODEGEN--\":10960:11014   */\n      and\n        /* \"--CODEGEN--\":10949:11014   */\n      swap1\n      pop\n        /* \"--CODEGEN--\":10943:11019   */\n      swap2\n      swap1\n      pop\n      jump\n        /* \"--CODEGEN--\":11026:11098   */\n    tag_179:\n      0x00\n        /* \"--CODEGEN--\":11088:11093   */\n      dup2\n        /* \"--CODEGEN--\":11077:11093   */\n      swap1\n      pop\n        /* \"--CODEGEN--\":11071:11098   */\n      swap2\n      swap1\n      pop\n      jump\n        /* \"--CODEGEN--\":11105:11222   */\n    tag_87:\n        /* \"--CODEGEN--\":11174:11198   */\n      tag_221\n        /* \"--CODEGEN--\":11192:11197   */\n      dup2\n        /* \"--CODEGEN--\":11174:11198   */\n      jump(tag_124)\n    tag_221:\n        /* \"--CODEGEN--\":11167:11172   */\n      dup2\n        /* \"--CODEGEN--\":11164:11199   */\n      eq\n        /* \"--CODEGEN--\":11154:11156   */\n      tag_222\n      jumpi\n        /* \"--CODEGEN--\":11213:11214   */\n      0x00\n        /* \"--CODEGEN--\":11210:11211   */\n      dup1\n        /* \"--CODEGEN--\":11203:11215   */\n      revert\n        /* \"--CODEGEN--\":11154:11156   */\n    tag_222:\n        /* \"--CODEGEN--\":11148:11222   */\n      pop\n      jump\n        /* \"--CODEGEN--\":11229:11362   */\n    tag_91:\n        /* \"--CODEGEN--\":11306:11338   */\n      tag_224\n        /* \"--CODEGEN--\":11332:11337   */\n      dup2\n        /* \"--CODEGEN--\":11306:11338   */\n      jump(tag_118)\n    tag_224:\n        /* \"--CODEGEN--\":11299:11304   */\n      dup2\n        /* \"--CODEGEN--\":11296:11339   */\n      eq\n        /* \"--CODEGEN--\":11286:11288   */\n      tag_225\n      jumpi\n        /* \"--CODEGEN--\":11353:11354   */\n      0x00\n        /* \"--CODEGEN--\":11350:11351   */\n      dup1\n        /* \"--CODEGEN--\":11343:11355   */\n      revert\n        /* \"--CODEGEN--\":11286:11288   */\n    tag_225:\n        /* \"--CODEGEN--\":11280:11362   */\n      pop\n      jump\n        /* \"--CODEGEN--\":11369:11486   */\n    tag_95:\n        /* \"--CODEGEN--\":11438:11462   */\n      tag_227\n        /* \"--CODEGEN--\":11456:11461   */\n      dup2\n        /* \"--CODEGEN--\":11438:11462   */\n      jump(tag_179)\n    tag_227:\n        /* \"--CODEGEN--\":11431:11436   */\n      dup2\n        /* \"--CODEGEN--\":11428:11463   */\n      eq\n        /* \"--CODEGEN--\":11418:11420   */\n      tag_228\n      jumpi\n        /* \"--CODEGEN--\":11477:11478   */\n      0x00\n        /* \"--CODEGEN--\":11474:11475   */\n      dup1\n        /* \"--CODEGEN--\":11467:11479   */\n      revert\n        /* \"--CODEGEN--\":11418:11420   */\n    tag_228:\n        /* \"--CODEGEN--\":11412:11486   */\n      pop\n      jump\n\n    auxdata: 0xa26469706673582212209ff10095e6f747838ae8d8ed53872f3e0bfa1d8b7b061b34aa08549c6854e7ca64736f6c63430006000033\n}\n",
				"bytecode": {
					"linkReferences": {},
					"object": "60806040523480156200001157600080fd5b5060405162001098380380620010988339818101604052620000379190810190620001ef565b81600090805190602001906200004f9291906200005f565b5080600181905550505062000312565b828054828255906000526020600020908101928215620000db579160200282015b82811115620000da5782518260006101000a81548173ffffffffffffffffffffffffffffffffffffffff021916908373ffffffffffffffffffffffffffffffffffffffff1602179055509160200191906001019062000080565b5b509050620000ea9190620000ee565b5090565b6200013191905b808211156200012d57600081816101000a81549073ffffffffffffffffffffffffffffffffffffffff021916905550600101620000f5565b5090565b90565b6000815190506200014581620002de565b92915050565b600082601f8301126200015d57600080fd5b8151620001746200016e8262000277565b62000249565b915081818352602084019350602081019050838560208402820111156200019a57600080fd5b60005b83811015620001ce5781620001b3888262000134565b8452602084019350602083019250506001810190506200019d565b5050505092915050565b600081519050620001e981620002f8565b92915050565b600080604083850312156200020357600080fd5b600083015167ffffffffffffffff8111156200021e57600080fd5b6200022c858286016200014b565b92505060206200023f85828601620001d8565b9150509250929050565b6000604051905081810181811067ffffffffffffffff821117156200026d57600080fd5b8060405250919050565b600067ffffffffffffffff8211156200028f57600080fd5b602082029050602081019050919050565b6000620002ad82620002b4565b9050919050565b600073ffffffffffffffffffffffffffffffffffffffff82169050919050565b6000819050919050565b620002e981620002a0565b8114620002f557600080fd5b50565b6200030381620002d4565b81146200030f57600080fd5b50565b610d7680620003226000396000f3fe608060405234801561001057600080fd5b50600436106100885760003560e01c80639377d7111161005b5780639377d71114610103578063cacca4a014610137578063d3650fb814610153578063ffabc6731461018357610088565b80631703a0181461008d5780632f65142c146100ab5780634c12fa47146100c95780636cb3e8ef146100e5575b600080fd5b6100956101b3565b6040516100a29190610bb0565b60405180910390f35b6100b36101b9565b6040516100c09190610b33565b60405180910390f35b6100e360048036036100de919081019061086e565b6102a7565b005b6100ed6103a3565b6040516100fa9190610b11565b60405180910390f35b61011d60048036036101189190810190610845565b610431565b60405161012e959493929190610bcb565b60405180910390f35b610151600480360361014c9190810190610845565b6104a1565b005b61016d60048036036101689190810190610845565b61075f565b60405161017a9190610af6565b60405180910390f35b61019d60048036036101989190810190610809565b61079b565b6040516101aa9190610b55565b60405180910390f35b60015481565b60606002805480602002602001604051908101604052809291908181526020016000905b8282101561029e57838290600052602060002090600502016040518060a001604052908160008201548152602001600182015481526020016002820160009054906101000a900473ffffffffffffffffffffffffffffffffffffffff1673ffffffffffffffffffffffffffffffffffffffff1673ffffffffffffffffffffffffffffffffffffffff168152602001600382015481526020016004820160009054906101000a900460ff161515151581525050815260200190600101906101dd565b50505050905090565b60026040518060a0016040528060028054905081526020018481526020018373ffffffffffffffffffffffffffffffffffffffff16815260200160008152602001600015158152509080600181540180825580915050600190039060005260206000209060050201600090919091909150600082015181600001556020820151816001015560408201518160020160006101000a81548173ffffffffffffffffffffffffffffffffffffffff021916908373ffffffffffffffffffffffffffffffffffffffff1602179055506060820151816003015560808201518160040160006101000a81548160ff02191690831515021790555050505050565b6060600080548060200260200160405190810160405280929190818152602001828054801561042757602002820191906000526020600020905b8160009054906101000a900473ffffffffffffffffffffffffffffffffffffffff1673ffffffffffffffffffffffffffffffffffffffff16815260200190600101908083116103dd575b5050505050905090565b6002818154811061043e57fe5b90600052602060002090600502016000915090508060000154908060010154908060020160009054906101000a900473ffffffffffffffffffffffffffffffffffffffff16908060030154908060040160009054906101000a900460ff16905085565b60001515600282815481106104b257fe5b906000526020600020906005020160040160009054906101000a900460ff16151514610513576040517f08c379a000000000000000000000000000000000000000000000000000000000815260040161050a90610b70565b60405180910390fd5b60001515600360003373ffffffffffffffffffffffffffffffffffffffff1673ffffffffffffffffffffffffffffffffffffffff168152602001908152602001600020600083815260200190815260200160002060009054906101000a900460ff161515146105b7576040517f08c379a00000000000000000000000000000000000000000000000000000000081526004016105ae90610b90565b60405180910390fd5b6001600360003373ffffffffffffffffffffffffffffffffffffffff1673ffffffffffffffffffffffffffffffffffffffff168152602001908152602001600020600083815260200190815260200160002060006101000a81548160ff0219169083151502179055506002818154811061062d57fe5b9060005260206000209060050201600301600081548092919060010191905055506001546002828154811061065e57fe5b9060005260206000209060050201600301541061075c5760016002828154811061068457fe5b906000526020600020906005020160040160006101000a81548160ff0219169083151502179055506000600282815481106106bb57fe5b906000526020600020906005020160020160009054906101000a900473ffffffffffffffffffffffffffffffffffffffff1690506000600283815481106106fe57fe5b90600052602060002090600502016001015490508173ffffffffffffffffffffffffffffffffffffffff166108fc829081150290604051600060405180830381858888f19350505050158015610758573d6000803e3d6000fd5b5050505b50565b6000818154811061076c57fe5b906000526020600020016000915054906101000a900473ffffffffffffffffffffffffffffffffffffffff1681565b60036020528160005260406000206020528060005260406000206000915091509054906101000a900460ff1681565b6000813590506107d981610cfb565b92915050565b6000813590506107ee81610d12565b92915050565b60008135905061080381610d29565b92915050565b6000806040838503121561081c57600080fd5b600061082a858286016107ca565b925050602061083b858286016107f4565b9150509250929050565b60006020828403121561085757600080fd5b6000610865848285016107f4565b91505092915050565b6000806040838503121561088157600080fd5b600061088f858286016107f4565b92505060206108a0858286016107df565b9150509250929050565b60006108b683836108f8565b60208301905092915050565b60006108ce8383610a70565b60a08301905092915050565b6108e381610cb3565b82525050565b6108f281610cb3565b82525050565b61090181610ca1565b82525050565b61091081610ca1565b82525050565b600061092182610c3e565b61092b8185610c6e565b935061093683610c1e565b8060005b8381101561096757815161094e88826108aa565b975061095983610c54565b92505060018101905061093a565b5085935050505092915050565b600061097f82610c49565b6109898185610c7f565b935061099483610c2e565b8060005b838110156109c55781516109ac88826108c2565b97506109b783610c61565b925050600181019050610998565b5085935050505092915050565b6109db81610cc5565b82525050565b6109ea81610cc5565b82525050565b60006109fd601f83610c90565b91507f5472616e736665722068617320616c7265616479206265656e2073656e742e006000830152602082019050919050565b6000610a3d601e83610c90565b91507f43616e6e6f7420617070726f7665207472616e7366657220616761696e2e00006000830152602082019050919050565b60a082016000820151610a866000850182610ad8565b506020820151610a996020850182610ad8565b506040820151610aac60408501826108da565b506060820151610abf6060850182610ad8565b506080820151610ad260808501826109d2565b50505050565b610ae181610cf1565b82525050565b610af081610cf1565b82525050565b6000602082019050610b0b6000830184610907565b92915050565b60006020820190508181036000830152610b2b8184610916565b905092915050565b60006020820190508181036000830152610b4d8184610974565b905092915050565b6000602082019050610b6a60008301846109e1565b92915050565b60006020820190508181036000830152610b89816109f0565b9050919050565b60006020820190508181036000830152610ba981610a30565b9050919050565b6000602082019050610bc56000830184610ae7565b92915050565b600060a082019050610be06000830188610ae7565b610bed6020830187610ae7565b610bfa60408301866108e9565b610c076060830185610ae7565b610c1460808301846109e1565b9695505050505050565b6000819050602082019050919050565b6000819050602082019050919050565b600081519050919050565b600081519050919050565b6000602082019050919050565b6000602082019050919050565b600082825260208201905092915050565b600082825260208201905092915050565b600082825260208201905092915050565b6000610cac82610cd1565b9050919050565b6000610cbe82610cd1565b9050919050565b60008115159050919050565b600073ffffffffffffffffffffffffffffffffffffffff82169050919050565b6000819050919050565b610d0481610ca1565b8114610d0f57600080fd5b50565b610d1b81610cb3565b8114610d2657600080fd5b50565b610d3281610cf1565b8114610d3d57600080fd5b5056fea26469706673582212209ff10095e6f747838ae8d8ed53872f3e0bfa1d8b7b061b34aa08549c6854e7ca64736f6c63430006000033",
					"opcodes": "PUSH1 0x80 PUSH1 0x40 MSTORE CALLVALUE DUP1 ISZERO PUSH3 0x11 JUMPI PUSH1 0x0 DUP1 REVERT JUMPDEST POP PUSH1 0x40 MLOAD PUSH3 0x1098 CODESIZE SUB DUP1 PUSH3 0x1098 DUP4 CODECOPY DUP2 DUP2 ADD PUSH1 0x40 MSTORE PUSH3 0x37 SWAP2 SWAP1 DUP2 ADD SWAP1 PUSH3 0x1EF JUMP JUMPDEST DUP2 PUSH1 0x0 SWAP1 DUP1 MLOAD SWAP1 PUSH1 0x20 ADD SWAP1 PUSH3 0x4F SWAP3 SWAP2 SWAP1 PUSH3 0x5F JUMP JUMPDEST POP DUP1 PUSH1 0x1 DUP2 SWAP1 SSTORE POP POP POP PUSH3 0x312 JUMP JUMPDEST DUP3 DUP1 SLOAD DUP3 DUP3 SSTORE SWAP1 PUSH1 0x0 MSTORE PUSH1 0x20 PUSH1 0x0 KECCAK256 SWAP1 DUP2 ADD SWAP3 DUP3 ISZERO PUSH3 0xDB JUMPI SWAP2 PUSH1 0x20 MUL DUP3 ADD JUMPDEST DUP3 DUP2 GT ISZERO PUSH3 0xDA JUMPI DUP3 MLOAD DUP3 PUSH1 0x0 PUSH2 0x100 EXP DUP2 SLOAD DUP2 PUSH20 0xFFFFFFFFFFFFFFFFFFFFFFFFFFFFFFFFFFFFFFFF MUL NOT AND SWAP1 DUP4 PUSH20 0xFFFFFFFFFFFFFFFFFFFFFFFFFFFFFFFFFFFFFFFF AND MUL OR SWAP1 SSTORE POP SWAP2 PUSH1 0x20 ADD SWAP2 SWAP1 PUSH1 0x1 ADD SWAP1 PUSH3 0x80 JUMP JUMPDEST JUMPDEST POP SWAP1 POP PUSH3 0xEA SWAP2 SWAP1 PUSH3 0xEE JUMP JUMPDEST POP SWAP1 JUMP JUMPDEST PUSH3 0x131 SWAP2 SWAP1 JUMPDEST DUP1 DUP3 GT ISZERO PUSH3 0x12D JUMPI PUSH1 0x0 DUP2 DUP2 PUSH2 0x100 EXP DUP2 SLOAD SWAP1 PUSH20 0xFFFFFFFFFFFFFFFFFFFFFFFFFFFFFFFFFFFFFFFF MUL NOT AND SWAP1 SSTORE POP PUSH1 0x1 ADD PUSH3 0xF5 JUMP JUMPDEST POP SWAP1 JUMP JUMPDEST SWAP1 JUMP JUMPDEST PUSH1 0x0 DUP2 MLOAD SWAP1 POP PUSH3 0x145 DUP2 PUSH3 0x2DE JUMP JUMPDEST SWAP3 SWAP2 POP POP JUMP JUMPDEST PUSH1 0x0 DUP3 PUSH1 0x1F DUP4 ADD SLT PUSH3 0x15D JUMPI PUSH1 0x0 DUP1 REVERT JUMPDEST DUP2 MLOAD PUSH3 0x174 PUSH3 0x16E DUP3 PUSH3 0x277 JUMP JUMPDEST PUSH3 0x249 JUMP JUMPDEST SWAP2 POP DUP2 DUP2 DUP4 MSTORE PUSH1 0x20 DUP5 ADD SWAP4 POP PUSH1 0x20 DUP2 ADD SWAP1 POP DUP4 DUP6 PUSH1 0x20 DUP5 MUL DUP3 ADD GT ISZERO PUSH3 0x19A JUMPI PUSH1 0x0 DUP1 REVERT JUMPDEST PUSH1 0x0 JUMPDEST DUP4 DUP2 LT ISZERO PUSH3 0x1CE JUMPI DUP2 PUSH3 0x1B3 DUP9 DUP3 PUSH3 0x134 JUMP JUMPDEST DUP5 MSTORE PUSH1 0x20 DUP5 ADD SWAP4 POP PUSH1 0x20 DUP4 ADD SWAP3 POP POP PUSH1 0x1 DUP2 ADD SWAP1 POP PUSH3 0x19D JUMP JUMPDEST POP POP POP POP SWAP3 SWAP2 POP POP JUMP JUMPDEST PUSH1 0x0 DUP2 MLOAD SWAP1 POP PUSH3 0x1E9 DUP2 PUSH3 0x2F8 JUMP JUMPDEST SWAP3 SWAP2 POP POP JUMP JUMPDEST PUSH1 0x0 DUP1 PUSH1 0x40 DUP4 DUP6 SUB SLT ISZERO PUSH3 0x203 JUMPI PUSH1 0x0 DUP1 REVERT JUMPDEST PUSH1 0x0 DUP4 ADD MLOAD PUSH8 0xFFFFFFFFFFFFFFFF DUP2 GT ISZERO PUSH3 0x21E JUMPI PUSH1 0x0 DUP1 REVERT JUMPDEST PUSH3 0x22C DUP6 DUP3 DUP7 ADD PUSH3 0x14B JUMP JUMPDEST SWAP3 POP POP PUSH1 0x20 PUSH3 0x23F DUP6 DUP3 DUP7 ADD PUSH3 0x1D8 JUMP JUMPDEST SWAP2 POP POP SWAP3 POP SWAP3 SWAP1 POP JUMP JUMPDEST PUSH1 0x0 PUSH1 0x40 MLOAD SWAP1 POP DUP2 DUP2 ADD DUP2 DUP2 LT PUSH8 0xFFFFFFFFFFFFFFFF DUP3 GT OR ISZERO PUSH3 0x26D JUMPI PUSH1 0x0 DUP1 REVERT JUMPDEST DUP1 PUSH1 0x40 MSTORE POP SWAP2 SWAP1 POP JUMP JUMPDEST PUSH1 0x0 PUSH8 0xFFFFFFFFFFFFFFFF DUP3 GT ISZERO PUSH3 0x28F JUMPI PUSH1 0x0 DUP1 REVERT JUMPDEST PUSH1 0x20 DUP3 MUL SWAP1 POP PUSH1 0x20 DUP2 ADD SWAP1 POP SWAP2 SWAP1 POP JUMP JUMPDEST PUSH1 0x0 PUSH3 0x2AD DUP3 PUSH3 0x2B4 JUMP JUMPDEST SWAP1 POP SWAP2 SWAP1 POP JUMP JUMPDEST PUSH1 0x0 PUSH20 0xFFFFFFFFFFFFFFFFFFFFFFFFFFFFFFFFFFFFFFFF DUP3 AND SWAP1 POP SWAP2 SWAP1 POP JUMP JUMPDEST PUSH1 0x0 DUP2 SWAP1 POP SWAP2 SWAP1 POP JUMP JUMPDEST PUSH3 0x2E9 DUP2 PUSH3 0x2A0 JUMP JUMPDEST DUP2 EQ PUSH3 0x2F5 JUMPI PUSH1 0x0 DUP1 REVERT JUMPDEST POP JUMP JUMPDEST PUSH3 0x303 DUP2 PUSH3 0x2D4 JUMP JUMPDEST DUP2 EQ PUSH3 0x30F JUMPI PUSH1 0x0 DUP1 REVERT JUMPDEST POP JUMP JUMPDEST PUSH2 0xD76 DUP1 PUSH3 0x322 PUSH1 0x0 CODECOPY PUSH1 0x0 RETURN INVALID PUSH1 0x80 PUSH1 0x40 MSTORE CALLVALUE DUP1 ISZERO PUSH2 0x10 JUMPI PUSH1 0x0 DUP1 REVERT JUMPDEST POP PUSH1 0x4 CALLDATASIZE LT PUSH2 0x88 JUMPI PUSH1 0x0 CALLDATALOAD PUSH1 0xE0 SHR DUP1 PUSH4 0x9377D711 GT PUSH2 0x5B JUMPI DUP1 PUSH4 0x9377D711 EQ PUSH2 0x103 JUMPI DUP1 PUSH4 0xCACCA4A0 EQ PUSH2 0x137 JUMPI DUP1 PUSH4 0xD3650FB8 EQ PUSH2 0x153 JUMPI DUP1 PUSH4 0xFFABC673 EQ PUSH2 0x183 JUMPI PUSH2 0x88 JUMP JUMPDEST DUP1 PUSH4 0x1703A018 EQ PUSH2 0x8D JUMPI DUP1 PUSH4 0x2F65142C EQ PUSH2 0xAB JUMPI DUP1 PUSH4 0x4C12FA47 EQ PUSH2 0xC9 JUMPI DUP1 PUSH4 0x6CB3E8EF EQ PUSH2 0xE5 JUMPI JUMPDEST PUSH1 0x0 DUP1 REVERT JUMPDEST PUSH2 0x95 PUSH2 0x1B3 JUMP JUMPDEST PUSH1 0x40 MLOAD PUSH2 0xA2 SWAP2 SWAP1 PUSH2 0xBB0 JUMP JUMPDEST PUSH1 0x40 MLOAD DUP1 SWAP2 SUB SWAP1 RETURN JUMPDEST PUSH2 0xB3 PUSH2 0x1B9 JUMP JUMPDEST PUSH1 0x40 MLOAD PUSH2 0xC0 SWAP2 SWAP1 PUSH2 0xB33 JUMP JUMPDEST PUSH1 0x40 MLOAD DUP1 SWAP2 SUB SWAP1 RETURN JUMPDEST PUSH2 0xE3 PUSH1 0x4 DUP1 CALLDATASIZE SUB PUSH2 0xDE SWAP2 SWAP1 DUP2 ADD SWAP1 PUSH2 0x86E JUMP JUMPDEST PUSH2 0x2A7 JUMP JUMPDEST STOP JUMPDEST PUSH2 0xED PUSH2 0x3A3 JUMP JUMPDEST PUSH1 0x40 MLOAD PUSH2 0xFA SWAP2 SWAP1 PUSH2 0xB11 JUMP JUMPDEST PUSH1 0x40 MLOAD DUP1 SWAP2 SUB SWAP1 RETURN JUMPDEST PUSH2 0x11D PUSH1 0x4 DUP1 CALLDATASIZE SUB PUSH2 0x118 SWAP2 SWAP1 DUP2 ADD SWAP1 PUSH2 0x845 JUMP JUMPDEST PUSH2 0x431 JUMP JUMPDEST PUSH1 0x40 MLOAD PUSH2 0x12E SWAP6 SWAP5 SWAP4 SWAP3 SWAP2 SWAP1 PUSH2 0xBCB JUMP JUMPDEST PUSH1 0x40 MLOAD DUP1 SWAP2 SUB SWAP1 RETURN JUMPDEST PUSH2 0x151 PUSH1 0x4 DUP1 CALLDATASIZE SUB PUSH2 0x14C SWAP2 SWAP1 DUP2 ADD SWAP1 PUSH2 0x845 JUMP JUMPDEST PUSH2 0x4A1 JUMP JUMPDEST STOP JUMPDEST PUSH2 0x16D PUSH1 0x4 DUP1 CALLDATASIZE SUB PUSH2 0x168 SWAP2 SWAP1 DUP2 ADD SWAP1 PUSH2 0x845 JUMP JUMPDEST PUSH2 0x75F JUMP JUMPDEST PUSH1 0x40 MLOAD PUSH2 0x17A SWAP2 SWAP1 PUSH2 0xAF6 JUMP JUMPDEST PUSH1 0x40 MLOAD DUP1 SWAP2 SUB SWAP1 RETURN JUMPDEST PUSH2 0x19D PUSH1 0x4 DUP1 CALLDATASIZE SUB PUSH2 0x198 SWAP2 SWAP1 DUP2 ADD SWAP1 PUSH2 0x809 JUMP JUMPDEST PUSH2 0x79B JUMP JUMPDEST PUSH1 0x40 MLOAD PUSH2 0x1AA SWAP2 SWAP1 PUSH2 0xB55 JUMP JUMPDEST PUSH1 0x40 MLOAD DUP1 SWAP2 SUB SWAP1 RETURN JUMPDEST PUSH1 0x1 SLOAD DUP2 JUMP JUMPDEST PUSH1 0x60 PUSH1 0x2 DUP1 SLOAD DUP1 PUSH1 0x20 MUL PUSH1 0x20 ADD PUSH1 0x40 MLOAD SWAP1 DUP2 ADD PUSH1 0x40 MSTORE DUP1 SWAP3 SWAP2 SWAP1 DUP2 DUP2 MSTORE PUSH1 0x20 ADD PUSH1 0x0 SWAP1 JUMPDEST DUP3 DUP3 LT ISZERO PUSH2 0x29E JUMPI DUP4 DUP3 SWAP1 PUSH1 0x0 MSTORE PUSH1 0x20 PUSH1 0x0 KECCAK256 SWAP1 PUSH1 0x5 MUL ADD PUSH1 0x40 MLOAD DUP1 PUSH1 0xA0 ADD PUSH1 0x40 MSTORE SWAP1 DUP2 PUSH1 0x0 DUP3 ADD SLOAD DUP2 MSTORE PUSH1 0x20 ADD PUSH1 0x1 DUP3 ADD SLOAD DUP2 MSTORE PUSH1 0x20 ADD PUSH1 0x2 DUP3 ADD PUSH1 0x0 SWAP1 SLOAD SWAP1 PUSH2 0x100 EXP SWAP1 DIV PUSH20 0xFFFFFFFFFFFFFFFFFFFFFFFFFFFFFFFFFFFFFFFF AND PUSH20 0xFFFFFFFFFFFFFFFFFFFFFFFFFFFFFFFFFFFFFFFF AND PUSH20 0xFFFFFFFFFFFFFFFFFFFFFFFFFFFFFFFFFFFFFFFF AND DUP2 MSTORE PUSH1 0x20 ADD PUSH1 0x3 DUP3 ADD SLOAD DUP2 MSTORE PUSH1 0x20 ADD PUSH1 0x4 DUP3 ADD PUSH1 0x0 SWAP1 SLOAD SWAP1 PUSH2 0x100 EXP SWAP1 DIV PUSH1 0xFF AND ISZERO ISZERO ISZERO ISZERO DUP2 MSTORE POP POP DUP2 MSTORE PUSH1 0x20 ADD SWAP1 PUSH1 0x1 ADD SWAP1 PUSH2 0x1DD JUMP JUMPDEST POP POP POP POP SWAP1 POP SWAP1 JUMP JUMPDEST PUSH1 0x2 PUSH1 0x40 MLOAD DUP1 PUSH1 0xA0 ADD PUSH1 0x40 MSTORE DUP1 PUSH1 0x2 DUP1 SLOAD SWAP1 POP DUP2 MSTORE PUSH1 0x20 ADD DUP5 DUP2 MSTORE PUSH1 0x20 ADD DUP4 PUSH20 0xFFFFFFFFFFFFFFFFFFFFFFFFFFFFFFFFFFFFFFFF AND DUP2 MSTORE PUSH1 0x20 ADD PUSH1 0x0 DUP2 MSTORE PUSH1 0x20 ADD PUSH1 0x0 ISZERO ISZERO DUP2 MSTORE POP SWAP1 DUP1 PUSH1 0x1 DUP2 SLOAD ADD DUP1 DUP3 SSTORE DUP1 SWAP2 POP POP PUSH1 0x1 SWAP1 SUB SWAP1 PUSH1 0x0 MSTORE PUSH1 0x20 PUSH1 0x0 KECCAK256 SWAP1 PUSH1 0x5 MUL ADD PUSH1 0x0 SWAP1 SWAP2 SWAP1 SWAP2 SWAP1 SWAP2 POP PUSH1 0x0 DUP3 ADD MLOAD DUP2 PUSH1 0x0 ADD SSTORE PUSH1 0x20 DUP3 ADD MLOAD DUP2 PUSH1 0x1 ADD SSTORE PUSH1 0x40 DUP3 ADD MLOAD DUP2 PUSH1 0x2 ADD PUSH1 0x0 PUSH2 0x100 EXP DUP2 SLOAD DUP2 PUSH20 0xFFFFFFFFFFFFFFFFFFFFFFFFFFFFFFFFFFFFFFFF MUL NOT AND SWAP1 DUP4 PUSH20 0xFFFFFFFFFFFFFFFFFFFFFFFFFFFFFFFFFFFFFFFF AND MUL OR SWAP1 SSTORE POP PUSH1 0x60 DUP3 ADD MLOAD DUP2 PUSH1 0x3 ADD SSTORE PUSH1 0x80 DUP3 ADD MLOAD DUP2 PUSH1 0x4 ADD PUSH1 0x0 PUSH2 0x100 EXP DUP2 SLOAD DUP2 PUSH1 0xFF MUL NOT AND SWAP1 DUP4 ISZERO ISZERO MUL OR SWAP1 SSTORE POP POP POP POP POP JUMP JUMPDEST PUSH1 0x60 PUSH1 0x0 DUP1 SLOAD DUP1 PUSH1 0x20 MUL PUSH1 0x20 ADD PUSH1 0x40 MLOAD SWAP1 DUP2 ADD PUSH1 0x40 MSTORE DUP1 SWAP3 SWAP2 SWAP1 DUP2 DUP2 MSTORE PUSH1 0x20 ADD DUP3 DUP1 SLOAD DUP1 ISZERO PUSH2 0x427 JUMPI PUSH1 0x20 MUL DUP3 ADD SWAP2 SWAP1 PUSH1 0x0 MSTORE PUSH1 0x20 PUSH1 0x0 KECCAK256 SWAP1 JUMPDEST DUP2 PUSH1 0x0 SWAP1 SLOAD SWAP1 PUSH2 0x100 EXP SWAP1 DIV PUSH20 0xFFFFFFFFFFFFFFFFFFFFFFFFFFFFFFFFFFFFFFFF AND PUSH20 0xFFFFFFFFFFFFFFFFFFFFFFFFFFFFFFFFFFFFFFFF AND DUP2 MSTORE PUSH1 0x20 ADD SWAP1 PUSH1 0x1 ADD SWAP1 DUP1 DUP4 GT PUSH2 0x3DD JUMPI JUMPDEST POP POP POP POP POP SWAP1 POP SWAP1 JUMP JUMPDEST PUSH1 0x2 DUP2 DUP2 SLOAD DUP2 LT PUSH2 0x43E JUMPI INVALID JUMPDEST SWAP1 PUSH1 0x0 MSTORE PUSH1 0x20 PUSH1 0x0 KECCAK256 SWAP1 PUSH1 0x5 MUL ADD PUSH1 0x0 SWAP2 POP SWAP1 POP DUP1 PUSH1 0x0 ADD SLOAD SWAP1 DUP1 PUSH1 0x1 ADD SLOAD SWAP1 DUP1 PUSH1 0x2 ADD PUSH1 0x0 SWAP1 SLOAD SWAP1 PUSH2 0x100 EXP SWAP1 DIV PUSH20 0xFFFFFFFFFFFFFFFFFFFFFFFFFFFFFFFFFFFFFFFF AND SWAP1 DUP1 PUSH1 0x3 ADD SLOAD SWAP1 DUP1 PUSH1 0x4 ADD PUSH1 0x0 SWAP1 SLOAD SWAP1 PUSH2 0x100 EXP SWAP1 DIV PUSH1 0xFF AND SWAP1 POP DUP6 JUMP JUMPDEST PUSH1 0x0 ISZERO ISZERO PUSH1 0x2 DUP3 DUP2 SLOAD DUP2 LT PUSH2 0x4B2 JUMPI INVALID JUMPDEST SWAP1 PUSH1 0x0 MSTORE PUSH1 0x20 PUSH1 0x0 KECCAK256 SWAP1 PUSH1 0x5 MUL ADD PUSH1 0x4 ADD PUSH1 0x0 SWAP1 SLOAD SWAP1 PUSH2 0x100 EXP SWAP1 DIV PUSH1 0xFF AND ISZERO ISZERO EQ PUSH2 0x513 JUMPI PUSH1 0x40 MLOAD PUSH32 0x8C379A000000000000000000000000000000000000000000000000000000000 DUP2 MSTORE PUSH1 0x4 ADD PUSH2 0x50A SWAP1 PUSH2 0xB70 JUMP JUMPDEST PUSH1 0x40 MLOAD DUP1 SWAP2 SUB SWAP1 REVERT JUMPDEST PUSH1 0x0 ISZERO ISZERO PUSH1 0x3 PUSH1 0x0 CALLER PUSH20 0xFFFFFFFFFFFFFFFFFFFFFFFFFFFFFFFFFFFFFFFF AND PUSH20 0xFFFFFFFFFFFFFFFFFFFFFFFFFFFFFFFFFFFFFFFF AND DUP2 MSTORE PUSH1 0x20 ADD SWAP1 DUP2 MSTORE PUSH1 0x20 ADD PUSH1 0x0 KECCAK256 PUSH1 0x0 DUP4 DUP2 MSTORE PUSH1 0x20 ADD SWAP1 DUP2 MSTORE PUSH1 0x20 ADD PUSH1 0x0 KECCAK256 PUSH1 0x0 SWAP1 SLOAD SWAP1 PUSH2 0x100 EXP SWAP1 DIV PUSH1 0xFF AND ISZERO ISZERO EQ PUSH2 0x5B7 JUMPI PUSH1 0x40 MLOAD PUSH32 0x8C379A000000000000000000000000000000000000000000000000000000000 DUP2 MSTORE PUSH1 0x4 ADD PUSH2 0x5AE SWAP1 PUSH2 0xB90 JUMP JUMPDEST PUSH1 0x40 MLOAD DUP1 SWAP2 SUB SWAP1 REVERT JUMPDEST PUSH1 0x1 PUSH1 0x3 PUSH1 0x0 CALLER PUSH20 0xFFFFFFFFFFFFFFFFFFFFFFFFFFFFFFFFFFFFFFFF AND PUSH20 0xFFFFFFFFFFFFFFFFFFFFFFFFFFFFFFFFFFFFFFFF AND DUP2 MSTORE PUSH1 0x20 ADD SWAP1 DUP2 MSTORE PUSH1 0x20 ADD PUSH1 0x0 KECCAK256 PUSH1 0x0 DUP4 DUP2 MSTORE PUSH1 0x20 ADD SWAP1 DUP2 MSTORE PUSH1 0x20 ADD PUSH1 0x0 KECCAK256 PUSH1 0x0 PUSH2 0x100 EXP DUP2 SLOAD DUP2 PUSH1 0xFF MUL NOT AND SWAP1 DUP4 ISZERO ISZERO MUL OR SWAP1 SSTORE POP PUSH1 0x2 DUP2 DUP2 SLOAD DUP2 LT PUSH2 0x62D JUMPI INVALID JUMPDEST SWAP1 PUSH1 0x0 MSTORE PUSH1 0x20 PUSH1 0x0 KECCAK256 SWAP1 PUSH1 0x5 MUL ADD PUSH1 0x3 ADD PUSH1 0x0 DUP2 SLOAD DUP1 SWAP3 SWAP2 SWAP1 PUSH1 0x1 ADD SWAP2 SWAP1 POP SSTORE POP PUSH1 0x1 SLOAD PUSH1 0x2 DUP3 DUP2 SLOAD DUP2 LT PUSH2 0x65E JUMPI INVALID JUMPDEST SWAP1 PUSH1 0x0 MSTORE PUSH1 0x20 PUSH1 0x0 KECCAK256 SWAP1 PUSH1 0x5 MUL ADD PUSH1 0x3 ADD SLOAD LT PUSH2 0x75C JUMPI PUSH1 0x1 PUSH1 0x2 DUP3 DUP2 SLOAD DUP2 LT PUSH2 0x684 JUMPI INVALID JUMPDEST SWAP1 PUSH1 0x0 MSTORE PUSH1 0x20 PUSH1 0x0 KECCAK256 SWAP1 PUSH1 0x5 MUL ADD PUSH1 0x4 ADD PUSH1 0x0 PUSH2 0x100 EXP DUP2 SLOAD DUP2 PUSH1 0xFF MUL NOT AND SWAP1 DUP4 ISZERO ISZERO MUL OR SWAP1 SSTORE POP PUSH1 0x0 PUSH1 0x2 DUP3 DUP2 SLOAD DUP2 LT PUSH2 0x6BB JUMPI INVALID JUMPDEST SWAP1 PUSH1 0x0 MSTORE PUSH1 0x20 PUSH1 0x0 KECCAK256 SWAP1 PUSH1 0x5 MUL ADD PUSH1 0x2 ADD PUSH1 0x0 SWAP1 SLOAD SWAP1 PUSH2 0x100 EXP SWAP1 DIV PUSH20 0xFFFFFFFFFFFFFFFFFFFFFFFFFFFFFFFFFFFFFFFF AND SWAP1 POP PUSH1 0x0 PUSH1 0x2 DUP4 DUP2 SLOAD DUP2 LT PUSH2 0x6FE JUMPI INVALID JUMPDEST SWAP1 PUSH1 0x0 MSTORE PUSH1 0x20 PUSH1 0x0 KECCAK256 SWAP1 PUSH1 0x5 MUL ADD PUSH1 0x1 ADD SLOAD SWAP1 POP DUP2 PUSH20 0xFFFFFFFFFFFFFFFFFFFFFFFFFFFFFFFFFFFFFFFF AND PUSH2 0x8FC DUP3 SWAP1 DUP2 ISZERO MUL SWAP1 PUSH1 0x40 MLOAD PUSH1 0x0 PUSH1 0x40 MLOAD DUP1 DUP4 SUB DUP2 DUP6 DUP9 DUP9 CALL SWAP4 POP POP POP POP ISZERO DUP1 ISZERO PUSH2 0x758 JUMPI RETURNDATASIZE PUSH1 0x0 DUP1 RETURNDATACOPY RETURNDATASIZE PUSH1 0x0 REVERT JUMPDEST POP POP POP JUMPDEST POP JUMP JUMPDEST PUSH1 0x0 DUP2 DUP2 SLOAD DUP2 LT PUSH2 0x76C JUMPI INVALID JUMPDEST SWAP1 PUSH1 0x0 MSTORE PUSH1 0x20 PUSH1 0x0 KECCAK256 ADD PUSH1 0x0 SWAP2 POP SLOAD SWAP1 PUSH2 0x100 EXP SWAP1 DIV PUSH20 0xFFFFFFFFFFFFFFFFFFFFFFFFFFFFFFFFFFFFFFFF AND DUP2 JUMP JUMPDEST PUSH1 0x3 PUSH1 0x20 MSTORE DUP2 PUSH1 0x0 MSTORE PUSH1 0x40 PUSH1 0x0 KECCAK256 PUSH1 0x20 MSTORE DUP1 PUSH1 0x0 MSTORE PUSH1 0x40 PUSH1 0x0 KECCAK256 PUSH1 0x0 SWAP2 POP SWAP2 POP SWAP1 SLOAD SWAP1 PUSH2 0x100 EXP SWAP1 DIV PUSH1 0xFF AND DUP2 JUMP JUMPDEST PUSH1 0x0 DUP2 CALLDATALOAD SWAP1 POP PUSH2 0x7D9 DUP2 PUSH2 0xCFB JUMP JUMPDEST SWAP3 SWAP2 POP POP JUMP JUMPDEST PUSH1 0x0 DUP2 CALLDATALOAD SWAP1 POP PUSH2 0x7EE DUP2 PUSH2 0xD12 JUMP JUMPDEST SWAP3 SWAP2 POP POP JUMP JUMPDEST PUSH1 0x0 DUP2 CALLDATALOAD SWAP1 POP PUSH2 0x803 DUP2 PUSH2 0xD29 JUMP JUMPDEST SWAP3 SWAP2 POP POP JUMP JUMPDEST PUSH1 0x0 DUP1 PUSH1 0x40 DUP4 DUP6 SUB SLT ISZERO PUSH2 0x81C JUMPI PUSH1 0x0 DUP1 REVERT JUMPDEST PUSH1 0x0 PUSH2 0x82A DUP6 DUP3 DUP7 ADD PUSH2 0x7CA JUMP JUMPDEST SWAP3 POP POP PUSH1 0x20 PUSH2 0x83B DUP6 DUP3 DUP7 ADD PUSH2 0x7F4 JUMP JUMPDEST SWAP2 POP POP SWAP3 POP SWAP3 SWAP1 POP JUMP JUMPDEST PUSH1 0x0 PUSH1 0x20 DUP3 DUP5 SUB SLT ISZERO PUSH2 0x857 JUMPI PUSH1 0x0 DUP1 REVERT JUMPDEST PUSH1 0x0 PUSH2 0x865 DUP5 DUP3 DUP6 ADD PUSH2 0x7F4 JUMP JUMPDEST SWAP2 POP POP SWAP3 SWAP2 POP POP JUMP JUMPDEST PUSH1 0x0 DUP1 PUSH1 0x40 DUP4 DUP6 SUB SLT ISZERO PUSH2 0x881 JUMPI PUSH1 0x0 DUP1 REVERT JUMPDEST PUSH1 0x0 PUSH2 0x88F DUP6 DUP3 DUP7 ADD PUSH2 0x7F4 JUMP JUMPDEST SWAP3 POP POP PUSH1 0x20 PUSH2 0x8A0 DUP6 DUP3 DUP7 ADD PUSH2 0x7DF JUMP JUMPDEST SWAP2 POP POP SWAP3 POP SWAP3 SWAP1 POP JUMP JUMPDEST PUSH1 0x0 PUSH2 0x8B6 DUP4 DUP4 PUSH2 0x8F8 JUMP JUMPDEST PUSH1 0x20 DUP4 ADD SWAP1 POP SWAP3 SWAP2 POP POP JUMP JUMPDEST PUSH1 0x0 PUSH2 0x8CE DUP4 DUP4 PUSH2 0xA70 JUMP JUMPDEST PUSH1 0xA0 DUP4 ADD SWAP1 POP SWAP3 SWAP2 POP POP JUMP JUMPDEST PUSH2 0x8E3 DUP2 PUSH2 0xCB3 JUMP JUMPDEST DUP3 MSTORE POP POP JUMP JUMPDEST PUSH2 0x8F2 DUP2 PUSH2 0xCB3 JUMP JUMPDEST DUP3 MSTORE POP POP JUMP JUMPDEST PUSH2 0x901 DUP2 PUSH2 0xCA1 JUMP JUMPDEST DUP3 MSTORE POP POP JUMP JUMPDEST PUSH2 0x910 DUP2 PUSH2 0xCA1 JUMP JUMPDEST DUP3 MSTORE POP POP JUMP JUMPDEST PUSH1 0x0 PUSH2 0x921 DUP3 PUSH2 0xC3E JUMP JUMPDEST PUSH2 0x92B DUP2 DUP6 PUSH2 0xC6E JUMP JUMPDEST SWAP4 POP PUSH2 0x936 DUP4 PUSH2 0xC1E JUMP JUMPDEST DUP1 PUSH1 0x0 JUMPDEST DUP4 DUP2 LT ISZERO PUSH2 0x967 JUMPI DUP2 MLOAD PUSH2 0x94E DUP9 DUP3 PUSH2 0x8AA JUMP JUMPDEST SWAP8 POP PUSH2 0x959 DUP4 PUSH2 0xC54 JUMP JUMPDEST SWAP3 POP POP PUSH1 0x1 DUP2 ADD SWAP1 POP PUSH2 0x93A JUMP JUMPDEST POP DUP6 SWAP4 POP POP POP POP SWAP3 SWAP2 POP POP JUMP JUMPDEST PUSH1 0x0 PUSH2 0x97F DUP3 PUSH2 0xC49 JUMP JUMPDEST PUSH2 0x989 DUP2 DUP6 PUSH2 0xC7F JUMP JUMPDEST SWAP4 POP PUSH2 0x994 DUP4 PUSH2 0xC2E JUMP JUMPDEST DUP1 PUSH1 0x0 JUMPDEST DUP4 DUP2 LT ISZERO PUSH2 0x9C5 JUMPI DUP2 MLOAD PUSH2 0x9AC DUP9 DUP3 PUSH2 0x8C2 JUMP JUMPDEST SWAP8 POP PUSH2 0x9B7 DUP4 PUSH2 0xC61 JUMP JUMPDEST SWAP3 POP POP PUSH1 0x1 DUP2 ADD SWAP1 POP PUSH2 0x998 JUMP JUMPDEST POP DUP6 SWAP4 POP POP POP POP SWAP3 SWAP2 POP POP JUMP JUMPDEST PUSH2 0x9DB DUP2 PUSH2 0xCC5 JUMP JUMPDEST DUP3 MSTORE POP POP JUMP JUMPDEST PUSH2 0x9EA DUP2 PUSH2 0xCC5 JUMP JUMPDEST DUP3 MSTORE POP POP JUMP JUMPDEST PUSH1 0x0 PUSH2 0x9FD PUSH1 0x1F DUP4 PUSH2 0xC90 JUMP JUMPDEST SWAP2 POP PUSH32 0x5472616E736665722068617320616C7265616479206265656E2073656E742E00 PUSH1 0x0 DUP4 ADD MSTORE PUSH1 0x20 DUP3 ADD SWAP1 POP SWAP2 SWAP1 POP JUMP JUMPDEST PUSH1 0x0 PUSH2 0xA3D PUSH1 0x1E DUP4 PUSH2 0xC90 JUMP JUMPDEST SWAP2 POP PUSH32 0x43616E6E6F7420617070726F7665207472616E7366657220616761696E2E0000 PUSH1 0x0 DUP4 ADD MSTORE PUSH1 0x20 DUP3 ADD SWAP1 POP SWAP2 SWAP1 POP JUMP JUMPDEST PUSH1 0xA0 DUP3 ADD PUSH1 0x0 DUP3 ADD MLOAD PUSH2 0xA86 PUSH1 0x0 DUP6 ADD DUP3 PUSH2 0xAD8 JUMP JUMPDEST POP PUSH1 0x20 DUP3 ADD MLOAD PUSH2 0xA99 PUSH1 0x20 DUP6 ADD DUP3 PUSH2 0xAD8 JUMP JUMPDEST POP PUSH1 0x40 DUP3 ADD MLOAD PUSH2 0xAAC PUSH1 0x40 DUP6 ADD DUP3 PUSH2 0x8DA JUMP JUMPDEST POP PUSH1 0x60 DUP3 ADD MLOAD PUSH2 0xABF PUSH1 0x60 DUP6 ADD DUP3 PUSH2 0xAD8 JUMP JUMPDEST POP PUSH1 0x80 DUP3 ADD MLOAD PUSH2 0xAD2 PUSH1 0x80 DUP6 ADD DUP3 PUSH2 0x9D2 JUMP JUMPDEST POP POP POP POP JUMP JUMPDEST PUSH2 0xAE1 DUP2 PUSH2 0xCF1 JUMP JUMPDEST DUP3 MSTORE POP POP JUMP JUMPDEST PUSH2 0xAF0 DUP2 PUSH2 0xCF1 JUMP JUMPDEST DUP3 MSTORE POP POP JUMP JUMPDEST PUSH1 0x0 PUSH1 0x20 DUP3 ADD SWAP1 POP PUSH2 0xB0B PUSH1 0x0 DUP4 ADD DUP5 PUSH2 0x907 JUMP JUMPDEST SWAP3 SWAP2 POP POP JUMP JUMPDEST PUSH1 0x0 PUSH1 0x20 DUP3 ADD SWAP1 POP DUP2 DUP2 SUB PUSH1 0x0 DUP4 ADD MSTORE PUSH2 0xB2B DUP2 DUP5 PUSH2 0x916 JUMP JUMPDEST SWAP1 POP SWAP3 SWAP2 POP POP JUMP JUMPDEST PUSH1 0x0 PUSH1 0x20 DUP3 ADD SWAP1 POP DUP2 DUP2 SUB PUSH1 0x0 DUP4 ADD MSTORE PUSH2 0xB4D DUP2 DUP5 PUSH2 0x974 JUMP JUMPDEST SWAP1 POP SWAP3 SWAP2 POP POP JUMP JUMPDEST PUSH1 0x0 PUSH1 0x20 DUP3 ADD SWAP1 POP PUSH2 0xB6A PUSH1 0x0 DUP4 ADD DUP5 PUSH2 0x9E1 JUMP JUMPDEST SWAP3 SWAP2 POP POP JUMP JUMPDEST PUSH1 0x0 PUSH1 0x20 DUP3 ADD SWAP1 POP DUP2 DUP2 SUB PUSH1 0x0 DUP4 ADD MSTORE PUSH2 0xB89 DUP2 PUSH2 0x9F0 JUMP JUMPDEST SWAP1 POP SWAP2 SWAP1 POP JUMP JUMPDEST PUSH1 0x0 PUSH1 0x20 DUP3 ADD SWAP1 POP DUP2 DUP2 SUB PUSH1 0x0 DUP4 ADD MSTORE PUSH2 0xBA9 DUP2 PUSH2 0xA30 JUMP JUMPDEST SWAP1 POP SWAP2 SWAP1 POP JUMP JUMPDEST PUSH1 0x0 PUSH1 0x20 DUP3 ADD SWAP1 POP PUSH2 0xBC5 PUSH1 0x0 DUP4 ADD DUP5 PUSH2 0xAE7 JUMP JUMPDEST SWAP3 SWAP2 POP POP JUMP JUMPDEST PUSH1 0x0 PUSH1 0xA0 DUP3 ADD SWAP1 POP PUSH2 0xBE0 PUSH1 0x0 DUP4 ADD DUP9 PUSH2 0xAE7 JUMP JUMPDEST PUSH2 0xBED PUSH1 0x20 DUP4 ADD DUP8 PUSH2 0xAE7 JUMP JUMPDEST PUSH2 0xBFA PUSH1 0x40 DUP4 ADD DUP7 PUSH2 0x8E9 JUMP JUMPDEST PUSH2 0xC07 PUSH1 0x60 DUP4 ADD DUP6 PUSH2 0xAE7 JUMP JUMPDEST PUSH2 0xC14 PUSH1 0x80 DUP4 ADD DUP5 PUSH2 0x9E1 JUMP JUMPDEST SWAP7 SWAP6 POP POP POP POP POP POP JUMP JUMPDEST PUSH1 0x0 DUP2 SWAP1 POP PUSH1 0x20 DUP3 ADD SWAP1 POP SWAP2 SWAP1 POP JUMP JUMPDEST PUSH1 0x0 DUP2 SWAP1 POP PUSH1 0x20 DUP3 ADD SWAP1 POP SWAP2 SWAP1 POP JUMP JUMPDEST PUSH1 0x0 DUP2 MLOAD SWAP1 POP SWAP2 SWAP1 POP JUMP JUMPDEST PUSH1 0x0 DUP2 MLOAD SWAP1 POP SWAP2 SWAP1 POP JUMP JUMPDEST PUSH1 0x0 PUSH1 0x20 DUP3 ADD SWAP1 POP SWAP2 SWAP1 POP JUMP JUMPDEST PUSH1 0x0 PUSH1 0x20 DUP3 ADD SWAP1 POP SWAP2 SWAP1 POP JUMP JUMPDEST PUSH1 0x0 DUP3 DUP3 MSTORE PUSH1 0x20 DUP3 ADD SWAP1 POP SWAP3 SWAP2 POP POP JUMP JUMPDEST PUSH1 0x0 DUP3 DUP3 MSTORE PUSH1 0x20 DUP3 ADD SWAP1 POP SWAP3 SWAP2 POP POP JUMP JUMPDEST PUSH1 0x0 DUP3 DUP3 MSTORE PUSH1 0x20 DUP3 ADD SWAP1 POP SWAP3 SWAP2 POP POP JUMP JUMPDEST PUSH1 0x0 PUSH2 0xCAC DUP3 PUSH2 0xCD1 JUMP JUMPDEST SWAP1 POP SWAP2 SWAP1 POP JUMP JUMPDEST PUSH1 0x0 PUSH2 0xCBE DUP3 PUSH2 0xCD1 JUMP JUMPDEST SWAP1 POP SWAP2 SWAP1 POP JUMP JUMPDEST PUSH1 0x0 DUP2 ISZERO ISZERO SWAP1 POP SWAP2 SWAP1 POP JUMP JUMPDEST PUSH1 0x0 PUSH20 0xFFFFFFFFFFFFFFFFFFFFFFFFFFFFFFFFFFFFFFFF DUP3 AND SWAP1 POP SWAP2 SWAP1 POP JUMP JUMPDEST PUSH1 0x0 DUP2 SWAP1 POP SWAP2 SWAP1 POP JUMP JUMPDEST PUSH2 0xD04 DUP2 PUSH2 0xCA1 JUMP JUMPDEST DUP2 EQ PUSH2 0xD0F JUMPI PUSH1 0x0 DUP1 REVERT JUMPDEST POP JUMP JUMPDEST PUSH2 0xD1B DUP2 PUSH2 0xCB3 JUMP JUMPDEST DUP2 EQ PUSH2 0xD26 JUMPI PUSH1 0x0 DUP1 REVERT JUMPDEST POP JUMP JUMPDEST PUSH2 0xD32 DUP2 PUSH2 0xCF1 JUMP JUMPDEST DUP2 EQ PUSH2 0xD3D JUMPI PUSH1 0x0 DUP1 REVERT JUMPDEST POP JUMP INVALID LOG2 PUSH5 0x6970667358 0x22 SLT KECCAK256 SWAP16 CALL STOP SWAP6 0xE6 0xF7 SELFBALANCE DUP4 DUP11 0xE8 0xD8 0xED MSTORE8 DUP8 0x2F RETURNDATACOPY SIGNEXTEND STATICCALL SAR DUP12 PUSH28 0x61B34AA08549C6854E7CA64736F6C63430006000033000000000000 "
				},
				"gasEstimates": {
					"creation": {
						"codeDepositCost": "689200",
						"executionCost": "infinite",
						"totalCost": "infinite"
					},
					"external": {
						"approvals(address,uint256)": "1853",
						"approveTransfer(uint256)": "infinite",
						"approvers(uint256)": "2400",
						"createTransfer(uint256,address)": "109368",
						"getApprovers()": "infinite",
						"getTransfers()": "infinite",
						"quorum()": "1130",
						"transfers(uint256)": "infinite"
					}
				},
				"methodIdentifiers": {
					"approvals(address,uint256)": "ffabc673",
					"approveTransfer(uint256)": "cacca4a0",
					"approvers(uint256)": "d3650fb8",
					"createTransfer(uint256,address)": "4c12fa47",
					"getApprovers()": "6cb3e8ef",
					"getTransfers()": "2f65142c",
					"quorum()": "1703a018",
					"transfers(uint256)": "9377d711"
				}
			},
			"userdoc": {
				"methods": {}
			}
		}
	}
}