{
	"blockchain_app/multisig_wallet/contracts/Wallet.sol": {
		"Wallet": {
			"abi": [
				{
					"inputs": [
						{
							"internalType": "address[]",
							"name": "_approvers",
							"type": "address[]"
						},
						{
							"internalType": "uint256",
							"name": "_quorum",
							"type": "uint256"
						}
					],
					"stateMutability": "nonpayable",
					"type": "constructor"
				},
				{
					"inputs": [
						{
							"internalType": "address",
							"name": "",
							"type": "address"
						},
						{
							"internalType": "uint256",
							"name": "",
							"type": "uint256"
						}
					],
					"name": "approvals",
					"outputs": [
						{
							"internalType": "bool",
							"name": "",
							"type": "bool"
						}
					],
					"stateMutability": "view",
					"type": "function"
				},
				{
					"inputs": [
						{
							"internalType": "uint256",
							"name": "_id",
							"type": "uint256"
						}
					],
					"name": "approveTransfer",
					"outputs": [],
					"stateMutability": "nonpayable",
					"type": "function"
				},
				{
					"inputs": [
						{
							"internalType": "uint256",
							"name": "",
							"type": "uint256"
						}
					],
					"name": "approvers",
					"outputs": [
						{
							"internalType": "address",
							"name": "",
							"type": "address"
						}
					],
					"stateMutability": "view",
					"type": "function"
				},
				{
					"inputs": [
						{
							"internalType": "uint256",
							"name": "amount",
							"type": "uint256"
						},
						{
							"internalType": "address payable",
							"name": "to",
							"type": "address"
						}
					],
					"name": "createTransfer",
					"outputs": [],
					"stateMutability": "nonpayable",
					"type": "function"
				},
				{
					"inputs": [],
					"name": "getApprovers",
					"outputs": [
						{
							"internalType": "address[]",
							"name": "",
							"type": "address[]"
						}
					],
					"stateMutability": "view",
					"type": "function"
				},
				{
					"inputs": [],
					"name": "getTransfers",
					"outputs": [
						{
							"components": [
								{
									"internalType": "uint256",
									"name": "id",
									"type": "uint256"
								},
								{
									"internalType": "uint256",
									"name": "amount",
									"type": "uint256"
								},
								{
									"internalType": "address payable",
									"name": "to",
									"type": "address"
								},
								{
									"internalType": "uint256",
									"name": "approvals",
									"type": "uint256"
								},
								{
									"internalType": "bool",
									"name": "sent",
									"type": "bool"
								}
							],
							"internalType": "struct Wallet.Transfer[]",
							"name": "",
							"type": "tuple[]"
						}
					],
					"stateMutability": "view",
					"type": "function"
				},
				{
					"inputs": [],
					"name": "quorum",
					"outputs": [
						{
							"internalType": "uint256",
							"name": "",
							"type": "uint256"
						}
					],
					"stateMutability": "view",
					"type": "function"
				},
				{
					"inputs": [
						{
							"internalType": "uint256",
							"name": "",
							"type": "uint256"
						}
					],
					"name": "transfers",
					"outputs": [
						{
							"internalType": "uint256",
							"name": "id",
							"type": "uint256"
						},
						{
							"internalType": "uint256",
							"name": "amount",
							"type": "uint256"
						},
						{
							"internalType": "address payable",
							"name": "to",
							"type": "address"
						},
						{
							"internalType": "uint256",
							"name": "approvals",
							"type": "uint256"
						},
						{
							"internalType": "bool",
							"name": "sent",
							"type": "bool"
						}
					],
					"stateMutability": "view",
					"type": "function"
				}
			],
			"devdoc": {
				"author": "phuquyng",
				"details": "todo",
				"methods": {},
				"title": "Manage the multi signature wallet"
			},
			"evm": {
				"assembly": "    /* \"blockchain_app/multisig_wallet/contracts/Wallet.sol\":144:1607  contract Wallet {\r... */\n  mstore(0x40, 0x80)\n    /* \"blockchain_app/multisig_wallet/contracts/Wallet.sol\":692:822  constructor(address[] memory _approvers, uint _quorum) public {\r... */\n  callvalue\n    /* \"--CODEGEN--\":8:17   */\n  dup1\n    /* \"--CODEGEN--\":5:7   */\n  iszero\n  tag_1\n  jumpi\n    /* \"--CODEGEN--\":30:31   */\n  0x00\n    /* \"--CODEGEN--\":27:28   */\n  dup1\n    /* \"--CODEGEN--\":20:32   */\n  revert\n    /* \"--CODEGEN--\":5:7   */\ntag_1:\n    /* \"blockchain_app/multisig_wallet/contracts/Wallet.sol\":692:822  constructor(address[] memory _approvers, uint _quorum) public {\r... */\n  pop\n  mload(0x40)\n  sub(codesize, bytecodeSize)\n  dup1\n  bytecodeSize\n  dup4\n  codecopy\n  dup2\n  dup2\n  add\n  0x40\n  mstore\n  tag_2\n  swap2\n  swap1\n  dup2\n  add\n  swap1\n  jump(tag_3)\ntag_2:\n    /* \"blockchain_app/multisig_wallet/contracts/Wallet.sol\":777:787  _approvers */\n  dup2\n    /* \"blockchain_app/multisig_wallet/contracts/Wallet.sol\":765:774  approvers */\n  0x00\n    /* \"blockchain_app/multisig_wallet/contracts/Wallet.sol\":765:787  approvers = _approvers */\n  swap1\n  dup1\n  mload\n  swap1\n  0x20\n  add\n  swap1\n  tag_6\n  swap3\n  swap2\n  swap1\n  tag_7\n  jump\t// in\ntag_6:\n  pop\n    /* \"blockchain_app/multisig_wallet/contracts/Wallet.sol\":807:814  _quorum */\n  dup1\n    /* \"blockchain_app/multisig_wallet/contracts/Wallet.sol\":798:804  quorum */\n  0x01\n    /* \"blockchain_app/multisig_wallet/contracts/Wallet.sol\":798:814  quorum = _quorum */\n  dup2\n  swap1\n  sstore\n  pop\n    /* \"blockchain_app/multisig_wallet/contracts/Wallet.sol\":692:822  constructor(address[] memory _approvers, uint _quorum) public {\r... */\n  pop\n  pop\n    /* \"blockchain_app/multisig_wallet/contracts/Wallet.sol\":144:1607  contract Wallet {\r... */\n  jump(tag_8)\ntag_7:\n  dup3\n  dup1\n  sload\n  dup3\n  dup3\n  sstore\n  swap1\n  0x00\n  mstore\n  keccak256(0x00, 0x20)\n  swap1\n  dup2\n  add\n  swap3\n  dup3\n  iszero\n  tag_9\n  jumpi\n  swap2\n  0x20\n  mul\n  dup3\n  add\ntag_10:\n  dup3\n  dup2\n  gt\n  iszero\n  tag_11\n  jumpi\n  dup3\n  mload\n  dup3\n  exp(0x0100, 0x00)\n  dup2\n  sload\n  dup2\n  0xffffffffffffffffffffffffffffffffffffffff\n  mul\n  not\n  and\n  swap1\n  dup4\n  0xffffffffffffffffffffffffffffffffffffffff\n  and\n  mul\n  or\n  swap1\n  sstore\n  pop\n  swap2\n  0x20\n  add\n  swap2\n  swap1\n  0x01\n  add\n  swap1\n  jump(tag_10)\ntag_11:\ntag_9:\n  pop\n  swap1\n  pop\n  tag_12\n  swap2\n  swap1\n  tag_13\n  jump\t// in\ntag_12:\n  pop\n  swap1\n  jump\t// out\ntag_13:\n  tag_14\n  swap2\n  swap1\ntag_15:\n  dup1\n  dup3\n  gt\n  iszero\n  tag_16\n  jumpi\n  0x00\n  dup2\n  dup2\n  0x0100\n  exp\n  dup2\n  sload\n  swap1\n  0xffffffffffffffffffffffffffffffffffffffff\n  mul\n  not\n  and\n  swap1\n  sstore\n  pop\n  0x01\n  add\n  jump(tag_15)\ntag_16:\n  pop\n  swap1\n  jump\ntag_14:\n  swap1\n  jump\t// out\n    /* \"--CODEGEN--\":5:139   */\ntag_18:\n  0x00\n    /* \"--CODEGEN--\":89:95   */\n  dup2\n    /* \"--CODEGEN--\":83:96   */\n  mload\n    /* \"--CODEGEN--\":74:96   */\n  swap1\n  pop\n    /* \"--CODEGEN--\":101:134   */\n  tag_20\n    /* \"--CODEGEN--\":128:133   */\n  dup2\n    /* \"--CODEGEN--\":101:134   */\n  jump(tag_21)\ntag_20:\n    /* \"--CODEGEN--\":68:139   */\n  swap3\n  swap2\n  pop\n  pop\n  jump\n    /* \"--CODEGEN--\":164:886   */\ntag_22:\n  0x00\n    /* \"--CODEGEN--\":292:295   */\n  dup3\n    /* \"--CODEGEN--\":285:289   */\n  0x1f\n    /* \"--CODEGEN--\":277:283   */\n  dup4\n    /* \"--CODEGEN--\":273:290   */\n  add\n    /* \"--CODEGEN--\":269:296   */\n  slt\n    /* \"--CODEGEN--\":259:261   */\n  tag_24\n  jumpi\n    /* \"--CODEGEN--\":310:311   */\n  0x00\n    /* \"--CODEGEN--\":307:308   */\n  dup1\n    /* \"--CODEGEN--\":300:312   */\n  revert\n    /* \"--CODEGEN--\":259:261   */\ntag_24:\n    /* \"--CODEGEN--\":340:346   */\n  dup2\n    /* \"--CODEGEN--\":334:347   */\n  mload\n    /* \"--CODEGEN--\":362:442   */\n  tag_25\n    /* \"--CODEGEN--\":377:441   */\n  tag_26\n    /* \"--CODEGEN--\":434:440   */\n  dup3\n    /* \"--CODEGEN--\":377:441   */\n  jump(tag_27)\ntag_26:\n    /* \"--CODEGEN--\":362:442   */\n  jump(tag_28)\ntag_25:\n    /* \"--CODEGEN--\":353:442   */\n  swap2\n  pop\n    /* \"--CODEGEN--\":459:464   */\n  dup2\n    /* \"--CODEGEN--\":484:490   */\n  dup2\n    /* \"--CODEGEN--\":477:482   */\n  dup4\n    /* \"--CODEGEN--\":470:491   */\n  mstore\n    /* \"--CODEGEN--\":514:518   */\n  0x20\n    /* \"--CODEGEN--\":506:512   */\n  dup5\n    /* \"--CODEGEN--\":502:519   */\n  add\n    /* \"--CODEGEN--\":492:519   */\n  swap4\n  pop\n    /* \"--CODEGEN--\":536:540   */\n  0x20\n    /* \"--CODEGEN--\":531:534   */\n  dup2\n    /* \"--CODEGEN--\":527:541   */\n  add\n    /* \"--CODEGEN--\":520:541   */\n  swap1\n  pop\n    /* \"--CODEGEN--\":589:595   */\n  dup4\n    /* \"--CODEGEN--\":636:639   */\n  dup6\n    /* \"--CODEGEN--\":628:632   */\n  0x20\n    /* \"--CODEGEN--\":620:626   */\n  dup5\n    /* \"--CODEGEN--\":616:633   */\n  mul\n    /* \"--CODEGEN--\":611:614   */\n  dup3\n    /* \"--CODEGEN--\":607:634   */\n  add\n    /* \"--CODEGEN--\":604:640   */\n  gt\n    /* \"--CODEGEN--\":601:603   */\n  iszero\n  tag_29\n  jumpi\n    /* \"--CODEGEN--\":653:654   */\n  0x00\n    /* \"--CODEGEN--\":650:651   */\n  dup1\n    /* \"--CODEGEN--\":643:655   */\n  revert\n    /* \"--CODEGEN--\":601:603   */\ntag_29:\n    /* \"--CODEGEN--\":678:679   */\n  0x00\n    /* \"--CODEGEN--\":663:880   */\ntag_30:\n    /* \"--CODEGEN--\":688:694   */\n  dup4\n    /* \"--CODEGEN--\":685:686   */\n  dup2\n    /* \"--CODEGEN--\":682:695   */\n  lt\n    /* \"--CODEGEN--\":663:880   */\n  iszero\n  tag_32\n  jumpi\n    /* \"--CODEGEN--\":746:749   */\n  dup2\n    /* \"--CODEGEN--\":768:816   */\n  tag_33\n    /* \"--CODEGEN--\":812:815   */\n  dup9\n    /* \"--CODEGEN--\":800:810   */\n  dup3\n    /* \"--CODEGEN--\":768:816   */\n  jump(tag_18)\ntag_33:\n    /* \"--CODEGEN--\":763:766   */\n  dup5\n    /* \"--CODEGEN--\":756:817   */\n  mstore\n    /* \"--CODEGEN--\":840:844   */\n  0x20\n    /* \"--CODEGEN--\":835:838   */\n  dup5\n    /* \"--CODEGEN--\":831:845   */\n  add\n    /* \"--CODEGEN--\":824:845   */\n  swap4\n  pop\n    /* \"--CODEGEN--\":868:872   */\n  0x20\n    /* \"--CODEGEN--\":863:866   */\n  dup4\n    /* \"--CODEGEN--\":859:873   */\n  add\n    /* \"--CODEGEN--\":852:873   */\n  swap3\n  pop\n    /* \"--CODEGEN--\":720:880   */\n  pop\n    /* \"--CODEGEN--\":710:711   */\n  0x01\n    /* \"--CODEGEN--\":707:708   */\n  dup2\n    /* \"--CODEGEN--\":703:712   */\n  add\n    /* \"--CODEGEN--\":698:712   */\n  swap1\n  pop\n    /* \"--CODEGEN--\":663:880   */\n  jump(tag_30)\ntag_32:\n    /* \"--CODEGEN--\":667:681   */\n  pop\n    /* \"--CODEGEN--\":252:886   */\n  pop\n  pop\n  pop\n  swap3\n  swap2\n  pop\n  pop\n  jump\n    /* \"--CODEGEN--\":894:1028   */\ntag_34:\n  0x00\n    /* \"--CODEGEN--\":978:984   */\n  dup2\n    /* \"--CODEGEN--\":972:985   */\n  mload\n    /* \"--CODEGEN--\":963:985   */\n  swap1\n  pop\n    /* \"--CODEGEN--\":990:1023   */\n  tag_36\n    /* \"--CODEGEN--\":1017:1022   */\n  dup2\n    /* \"--CODEGEN--\":990:1023   */\n  jump(tag_37)\ntag_36:\n    /* \"--CODEGEN--\":957:1028   */\n  swap3\n  swap2\n  pop\n  pop\n  jump\n    /* \"--CODEGEN--\":1035:1563   */\ntag_3:\n  0x00\n  dup1\n    /* \"--CODEGEN--\":1192:1194   */\n  0x40\n    /* \"--CODEGEN--\":1180:1189   */\n  dup4\n    /* \"--CODEGEN--\":1171:1178   */\n  dup6\n    /* \"--CODEGEN--\":1167:1190   */\n  sub\n    /* \"--CODEGEN--\":1163:1195   */\n  slt\n    /* \"--CODEGEN--\":1160:1162   */\n  iszero\n  tag_39\n  jumpi\n    /* \"--CODEGEN--\":1208:1209   */\n  0x00\n    /* \"--CODEGEN--\":1205:1206   */\n  dup1\n    /* \"--CODEGEN--\":1198:1210   */\n  revert\n    /* \"--CODEGEN--\":1160:1162   */\ntag_39:\n    /* \"--CODEGEN--\":1264:1265   */\n  0x00\n    /* \"--CODEGEN--\":1253:1262   */\n  dup4\n    /* \"--CODEGEN--\":1249:1266   */\n  add\n    /* \"--CODEGEN--\":1243:1267   */\n  mload\n    /* \"--CODEGEN--\":1287:1305   */\n  0xffffffffffffffff\n    /* \"--CODEGEN--\":1279:1285   */\n  dup2\n    /* \"--CODEGEN--\":1276:1306   */\n  gt\n    /* \"--CODEGEN--\":1273:1275   */\n  iszero\n  tag_40\n  jumpi\n    /* \"--CODEGEN--\":1319:1320   */\n  0x00\n    /* \"--CODEGEN--\":1316:1317   */\n  dup1\n    /* \"--CODEGEN--\":1309:1321   */\n  revert\n    /* \"--CODEGEN--\":1273:1275   */\ntag_40:\n    /* \"--CODEGEN--\":1339:1428   */\n  tag_41\n    /* \"--CODEGEN--\":1420:1427   */\n  dup6\n    /* \"--CODEGEN--\":1411:1417   */\n  dup3\n    /* \"--CODEGEN--\":1400:1409   */\n  dup7\n    /* \"--CODEGEN--\":1396:1418   */\n  add\n    /* \"--CODEGEN--\":1339:1428   */\n  jump(tag_22)\ntag_41:\n    /* \"--CODEGEN--\":1329:1428   */\n  swap3\n  pop\n    /* \"--CODEGEN--\":1222:1434   */\n  pop\n    /* \"--CODEGEN--\":1465:1467   */\n  0x20\n    /* \"--CODEGEN--\":1483:1547   */\n  tag_42\n    /* \"--CODEGEN--\":1539:1546   */\n  dup6\n    /* \"--CODEGEN--\":1530:1536   */\n  dup3\n    /* \"--CODEGEN--\":1519:1528   */\n  dup7\n    /* \"--CODEGEN--\":1515:1537   */\n  add\n    /* \"--CODEGEN--\":1483:1547   */\n  jump(tag_34)\ntag_42:\n    /* \"--CODEGEN--\":1473:1547   */\n  swap2\n  pop\n    /* \"--CODEGEN--\":1444:1553   */\n  pop\n    /* \"--CODEGEN--\":1154:1563   */\n  swap3\n  pop\n  swap3\n  swap1\n  pop\n  jump\n    /* \"--CODEGEN--\":1570:1826   */\ntag_28:\n  0x00\n    /* \"--CODEGEN--\":1632:1634   */\n  0x40\n    /* \"--CODEGEN--\":1626:1635   */\n  mload\n    /* \"--CODEGEN--\":1616:1635   */\n  swap1\n  pop\n    /* \"--CODEGEN--\":1670:1674   */\n  dup2\n    /* \"--CODEGEN--\":1662:1668   */\n  dup2\n    /* \"--CODEGEN--\":1658:1675   */\n  add\n    /* \"--CODEGEN--\":1769:1775   */\n  dup2\n    /* \"--CODEGEN--\":1757:1767   */\n  dup2\n    /* \"--CODEGEN--\":1754:1776   */\n  lt\n    /* \"--CODEGEN--\":1733:1751   */\n  0xffffffffffffffff\n    /* \"--CODEGEN--\":1721:1731   */\n  dup3\n    /* \"--CODEGEN--\":1718:1752   */\n  gt\n    /* \"--CODEGEN--\":1715:1777   */\n  or\n    /* \"--CODEGEN--\":1712:1714   */\n  iszero\n  tag_44\n  jumpi\n    /* \"--CODEGEN--\":1790:1791   */\n  0x00\n    /* \"--CODEGEN--\":1787:1788   */\n  dup1\n    /* \"--CODEGEN--\":1780:1792   */\n  revert\n    /* \"--CODEGEN--\":1712:1714   */\ntag_44:\n    /* \"--CODEGEN--\":1810:1820   */\n  dup1\n    /* \"--CODEGEN--\":1806:1808   */\n  0x40\n    /* \"--CODEGEN--\":1799:1821   */\n  mstore\n    /* \"--CODEGEN--\":1610:1826   */\n  pop\n  swap2\n  swap1\n  pop\n  jump\n    /* \"--CODEGEN--\":1833:2137   */\ntag_27:\n  0x00\n    /* \"--CODEGEN--\":1992:2010   */\n  0xffffffffffffffff\n    /* \"--CODEGEN--\":1984:1990   */\n  dup3\n    /* \"--CODEGEN--\":1981:2011   */\n  gt\n    /* \"--CODEGEN--\":1978:1980   */\n  iszero\n  tag_46\n  jumpi\n    /* \"--CODEGEN--\":2024:2025   */\n  0x00\n    /* \"--CODEGEN--\":2021:2022   */\n  dup1\n    /* \"--CODEGEN--\":2014:2026   */\n  revert\n    /* \"--CODEGEN--\":1978:1980   */\ntag_46:\n    /* \"--CODEGEN--\":2059:2063   */\n  0x20\n    /* \"--CODEGEN--\":2051:2057   */\n  dup3\n    /* \"--CODEGEN--\":2047:2064   */\n  mul\n    /* \"--CODEGEN--\":2039:2064   */\n  swap1\n  pop\n    /* \"--CODEGEN--\":2122:2126   */\n  0x20\n    /* \"--CODEGEN--\":2116:2120   */\n  dup2\n    /* \"--CODEGEN--\":2112:2127   */\n  add\n    /* \"--CODEGEN--\":2104:2127   */\n  swap1\n  pop\n    /* \"--CODEGEN--\":1915:2137   */\n  swap2\n  swap1\n  pop\n  jump\n    /* \"--CODEGEN--\":2144:2235   */\ntag_47:\n  0x00\n    /* \"--CODEGEN--\":2206:2230   */\n  tag_49\n    /* \"--CODEGEN--\":2224:2229   */\n  dup3\n    /* \"--CODEGEN--\":2206:2230   */\n  jump(tag_50)\ntag_49:\n    /* \"--CODEGEN--\":2195:2230   */\n  swap1\n  pop\n    /* \"--CODEGEN--\":2189:2235   */\n  swap2\n  swap1\n  pop\n  jump\n    /* \"--CODEGEN--\":2242:2363   */\ntag_50:\n  0x00\n    /* \"--CODEGEN--\":2315:2357   */\n  0xffffffffffffffffffffffffffffffffffffffff\n    /* \"--CODEGEN--\":2308:2313   */\n  dup3\n    /* \"--CODEGEN--\":2304:2358   */\n  and\n    /* \"--CODEGEN--\":2293:2358   */\n  swap1\n  pop\n    /* \"--CODEGEN--\":2287:2363   */\n  swap2\n  swap1\n  pop\n  jump\n    /* \"--CODEGEN--\":2370:2442   */\ntag_52:\n  0x00\n    /* \"--CODEGEN--\":2432:2437   */\n  dup2\n    /* \"--CODEGEN--\":2421:2437   */\n  swap1\n  pop\n    /* \"--CODEGEN--\":2415:2442   */\n  swap2\n  swap1\n  pop\n  jump\n    /* \"--CODEGEN--\":2449:2566   */\ntag_21:\n    /* \"--CODEGEN--\":2518:2542   */\n  tag_55\n    /* \"--CODEGEN--\":2536:2541   */\n  dup2\n    /* \"--CODEGEN--\":2518:2542   */\n  jump(tag_47)\ntag_55:\n    /* \"--CODEGEN--\":2511:2516   */\n  dup2\n    /* \"--CODEGEN--\":2508:2543   */\n  eq\n    /* \"--CODEGEN--\":2498:2500   */\n  tag_56\n  jumpi\n    /* \"--CODEGEN--\":2557:2558   */\n  0x00\n    /* \"--CODEGEN--\":2554:2555   */\n  dup1\n    /* \"--CODEGEN--\":2547:2559   */\n  revert\n    /* \"--CODEGEN--\":2498:2500   */\ntag_56:\n    /* \"--CODEGEN--\":2492:2566   */\n  pop\n  jump\n    /* \"--CODEGEN--\":2573:2690   */\ntag_37:\n    /* \"--CODEGEN--\":2642:2666   */\n  tag_58\n    /* \"--CODEGEN--\":2660:2665   */\n  dup2\n    /* \"--CODEGEN--\":2642:2666   */\n  jump(tag_52)\ntag_58:\n    /* \"--CODEGEN--\":2635:2640   */\n  dup2\n    /* \"--CODEGEN--\":2632:2667   */\n  eq\n    /* \"--CODEGEN--\":2622:2624   */\n  tag_59\n  jumpi\n    /* \"--CODEGEN--\":2681:2682   */\n  0x00\n    /* \"--CODEGEN--\":2678:2679   */\n  dup1\n    /* \"--CODEGEN--\":2671:2683   */\n  revert\n    /* \"--CODEGEN--\":2622:2624   */\ntag_59:\n    /* \"--CODEGEN--\":2616:2690   */\n  pop\n  jump\n    /* \"blockchain_app/multisig_wallet/contracts/Wallet.sol\":144:1607  contract Wallet {\r... */\ntag_8:\n  dataSize(sub_0)\n  dup1\n  dataOffset(sub_0)\n  0x00\n  codecopy\n  0x00\n  return\nstop\n\nsub_0: assembly {\n        /* \"blockchain_app/multisig_wallet/contracts/Wallet.sol\":144:1607  contract Wallet {\r... */\n      mstore(0x40, 0x80)\n      callvalue\n        /* \"--CODEGEN--\":8:17   */\n      dup1\n        /* \"--CODEGEN--\":5:7   */\n      iszero\n      tag_1\n      jumpi\n        /* \"--CODEGEN--\":30:31   */\n      0x00\n        /* \"--CODEGEN--\":27:28   */\n      dup1\n        /* \"--CODEGEN--\":20:32   */\n      revert\n        /* \"--CODEGEN--\":5:7   */\n    tag_1:\n        /* \"blockchain_app/multisig_wallet/contracts/Wallet.sol\":144:1607  contract Wallet {\r... */\n      pop\n      jumpi(tag_2, lt(calldatasize, 0x04))\n      shr(0xe0, calldataload(0x00))\n      dup1\n      0x9377d711\n      gt\n      tag_11\n      jumpi\n      dup1\n      0x9377d711\n      eq\n      tag_7\n      jumpi\n      dup1\n      0xcacca4a0\n      eq\n      tag_8\n      jumpi\n      dup1\n      0xd3650fb8\n      eq\n      tag_9\n      jumpi\n      dup1\n      0xffabc673\n      eq\n      tag_10\n      jumpi\n      jump(tag_2)\n    tag_11:\n      dup1\n      0x1703a018\n      eq\n      tag_3\n      jumpi\n      dup1\n      0x2f65142c\n      eq\n      tag_4\n      jumpi\n      dup1\n      0x4c12fa47\n      eq\n      tag_5\n      jumpi\n      dup1\n      0x6cb3e8ef\n      eq\n      tag_6\n      jumpi\n    tag_2:\n      0x00\n      dup1\n      revert\n        /* \"blockchain_app/multisig_wallet/contracts/Wallet.sol\":300:318  uint public quorum */\n    tag_3:\n      tag_12\n      tag_13\n      jump\t// in\n    tag_12:\n      mload(0x40)\n      tag_14\n      swap2\n      swap1\n      jump(tag_15)\n    tag_14:\n      mload(0x40)\n      dup1\n      swap2\n      sub\n      swap1\n      return\n        /* \"blockchain_app/multisig_wallet/contracts/Wallet.sol\":937:1037  function getTransfers() external view returns(Transfer[] memory) {\r... */\n    tag_4:\n      tag_16\n      tag_17\n      jump\t// in\n    tag_16:\n      mload(0x40)\n      tag_18\n      swap2\n      swap1\n      jump(tag_19)\n    tag_18:\n      mload(0x40)\n      dup1\n      swap2\n      sub\n      swap1\n      return\n        /* \"blockchain_app/multisig_wallet/contracts/Wallet.sol\":1087:1312  function createTransfer(uint amount, address payable to) external {\r... */\n    tag_5:\n      tag_20\n      0x04\n      dup1\n      calldatasize\n      sub\n      tag_21\n      swap2\n      swap1\n      dup2\n      add\n      swap1\n      jump(tag_22)\n    tag_21:\n      tag_23\n      jump\t// in\n    tag_20:\n      stop\n        /* \"blockchain_app/multisig_wallet/contracts/Wallet.sol\":830:929  function getApprovers() external view returns(address[] memory) {\r... */\n    tag_6:\n      tag_24\n      tag_25\n      jump\t// in\n    tag_24:\n      mload(0x40)\n      tag_26\n      swap2\n      swap1\n      jump(tag_27)\n    tag_26:\n      mload(0x40)\n      dup1\n      swap2\n      sub\n      swap1\n      return\n        /* \"blockchain_app/multisig_wallet/contracts/Wallet.sol\":519:546  Transfer[] public transfers */\n    tag_7:\n      tag_28\n      0x04\n      dup1\n      calldatasize\n      sub\n      tag_29\n      swap2\n      swap1\n      dup2\n      add\n      swap1\n      jump(tag_30)\n    tag_29:\n      tag_31\n      jump\t// in\n    tag_28:\n      mload(0x40)\n      tag_32\n      swap6\n      swap5\n      swap4\n      swap3\n      swap2\n      swap1\n      jump(tag_33)\n    tag_32:\n      mload(0x40)\n      dup1\n      swap2\n      sub\n      swap1\n      return\n        /* \"blockchain_app/multisig_wallet/contracts/Wallet.sol\":1360:1604  function approveTransfer(uint _id) external {\r... */\n    tag_8:\n      tag_34\n      0x04\n      dup1\n      calldatasize\n      sub\n      tag_35\n      swap2\n      swap1\n      dup2\n      add\n      swap1\n      jump(tag_30)\n    tag_35:\n      tag_36\n      jump\t// in\n    tag_34:\n      stop\n        /* \"blockchain_app/multisig_wallet/contracts/Wallet.sol\":204:230  address[] public approvers */\n    tag_9:\n      tag_37\n      0x04\n      dup1\n      calldatasize\n      sub\n      tag_38\n      swap2\n      swap1\n      dup2\n      add\n      swap1\n      jump(tag_30)\n    tag_38:\n      tag_39\n      jump\t// in\n    tag_37:\n      mload(0x40)\n      tag_40\n      swap2\n      swap1\n      jump(tag_41)\n    tag_40:\n      mload(0x40)\n      dup1\n      swap2\n      sub\n      swap1\n      return\n        /* \"blockchain_app/multisig_wallet/contracts/Wallet.sol\":596:654  mapping(address => mapping(uint => bool)) public approvals */\n    tag_10:\n      tag_42\n      0x04\n      dup1\n      calldatasize\n      sub\n      tag_43\n      swap2\n      swap1\n      dup2\n      add\n      swap1\n      jump(tag_44)\n    tag_43:\n      tag_45\n      jump\t// in\n    tag_42:\n      mload(0x40)\n      tag_46\n      swap2\n      swap1\n      jump(tag_47)\n    tag_46:\n      mload(0x40)\n      dup1\n      swap2\n      sub\n      swap1\n      return\n        /* \"blockchain_app/multisig_wallet/contracts/Wallet.sol\":300:318  uint public quorum */\n    tag_13:\n      sload(0x01)\n      dup2\n      jump\t// out\n        /* \"blockchain_app/multisig_wallet/contracts/Wallet.sol\":937:1037  function getTransfers() external view returns(Transfer[] memory) {\r... */\n    tag_17:\n        /* \"blockchain_app/multisig_wallet/contracts/Wallet.sol\":983:1000  Transfer[] memory */\n      0x60\n        /* \"blockchain_app/multisig_wallet/contracts/Wallet.sol\":1020:1029  transfers */\n      0x02\n        /* \"blockchain_app/multisig_wallet/contracts/Wallet.sol\":1013:1029  return transfers */\n      dup1\n      sload\n      dup1\n      0x20\n      mul\n      0x20\n      add\n      mload(0x40)\n      swap1\n      dup2\n      add\n      0x40\n      mstore\n      dup1\n      swap3\n      swap2\n      swap1\n      dup2\n      dup2\n      mstore\n      0x20\n      add\n      0x00\n      swap1\n    tag_49:\n      dup3\n      dup3\n      lt\n      iszero\n      tag_50\n      jumpi\n      dup4\n      dup3\n      swap1\n      0x00\n      mstore\n      keccak256(0x00, 0x20)\n      swap1\n      0x05\n      mul\n      add\n      mload(0x40)\n      dup1\n      0xa0\n      add\n      0x40\n      mstore\n      swap1\n      dup2\n      0x00\n      dup3\n      add\n      sload\n      dup2\n      mstore\n      0x20\n      add\n      0x01\n      dup3\n      add\n      sload\n      dup2\n      mstore\n      0x20\n      add\n      0x02\n      dup3\n      add\n      0x00\n      swap1\n      sload\n      swap1\n      0x0100\n      exp\n      swap1\n      div\n      0xffffffffffffffffffffffffffffffffffffffff\n      and\n      0xffffffffffffffffffffffffffffffffffffffff\n      and\n      0xffffffffffffffffffffffffffffffffffffffff\n      and\n      dup2\n      mstore\n      0x20\n      add\n      0x03\n      dup3\n      add\n      sload\n      dup2\n      mstore\n      0x20\n      add\n      0x04\n      dup3\n      add\n      0x00\n      swap1\n      sload\n      swap1\n      0x0100\n      exp\n      swap1\n      div\n      0xff\n      and\n      iszero\n      iszero\n      iszero\n      iszero\n      dup2\n      mstore\n      pop\n      pop\n      dup2\n      mstore\n      0x20\n      add\n      swap1\n      0x01\n      add\n      swap1\n      jump(tag_49)\n    tag_50:\n      pop\n      pop\n      pop\n      pop\n      swap1\n      pop\n        /* \"blockchain_app/multisig_wallet/contracts/Wallet.sol\":937:1037  function getTransfers() external view returns(Transfer[] memory) {\r... */\n      swap1\n      jump\t// out\n        /* \"blockchain_app/multisig_wallet/contracts/Wallet.sol\":1087:1312  function createTransfer(uint amount, address payable to) external {\r... */\n    tag_23:\n        /* \"blockchain_app/multisig_wallet/contracts/Wallet.sol\":1164:1173  transfers */\n      0x02\n        /* \"blockchain_app/multisig_wallet/contracts/Wallet.sol\":1179:1303  Transfer(\r... */\n      mload(0x40)\n      dup1\n      0xa0\n      add\n      0x40\n      mstore\n      dup1\n        /* \"blockchain_app/multisig_wallet/contracts/Wallet.sol\":1202:1211  transfers */\n      0x02\n        /* \"blockchain_app/multisig_wallet/contracts/Wallet.sol\":1202:1218  transfers.length */\n      dup1\n      sload\n      swap1\n      pop\n        /* \"blockchain_app/multisig_wallet/contracts/Wallet.sol\":1179:1303  Transfer(\r... */\n      dup2\n      mstore\n      0x20\n      add\n        /* \"blockchain_app/multisig_wallet/contracts/Wallet.sol\":1233:1239  amount */\n      dup5\n        /* \"blockchain_app/multisig_wallet/contracts/Wallet.sol\":1179:1303  Transfer(\r... */\n      dup2\n      mstore\n      0x20\n      add\n        /* \"blockchain_app/multisig_wallet/contracts/Wallet.sol\":1254:1256  to */\n      dup4\n        /* \"blockchain_app/multisig_wallet/contracts/Wallet.sol\":1179:1303  Transfer(\r... */\n      0xffffffffffffffffffffffffffffffffffffffff\n      and\n      dup2\n      mstore\n      0x20\n      add\n        /* \"blockchain_app/multisig_wallet/contracts/Wallet.sol\":1271:1272  0 */\n      0x00\n        /* \"blockchain_app/multisig_wallet/contracts/Wallet.sol\":1179:1303  Transfer(\r... */\n      dup2\n      mstore\n      0x20\n      add\n        /* \"blockchain_app/multisig_wallet/contracts/Wallet.sol\":1287:1292  false */\n      0x00\n        /* \"blockchain_app/multisig_wallet/contracts/Wallet.sol\":1179:1303  Transfer(\r... */\n      iszero\n      iszero\n      dup2\n      mstore\n      pop\n        /* \"blockchain_app/multisig_wallet/contracts/Wallet.sol\":1164:1304  transfers.push(Transfer(\r... */\n      swap1\n      dup1\n        /* \"--CODEGEN--\":39:40   */\n      0x01\n        /* \"--CODEGEN--\":33:36   */\n      dup2\n        /* \"--CODEGEN--\":27:37   */\n      sload\n        /* \"--CODEGEN--\":23:41   */\n      add\n        /* \"--CODEGEN--\":57:67   */\n      dup1\n        /* \"--CODEGEN--\":52:55   */\n      dup3\n        /* \"--CODEGEN--\":45:68   */\n      sstore\n        /* \"--CODEGEN--\":79:89   */\n      dup1\n        /* \"--CODEGEN--\":72:89   */\n      swap2\n      pop\n        /* \"--CODEGEN--\":0:93   */\n      pop\n        /* \"blockchain_app/multisig_wallet/contracts/Wallet.sol\":1164:1304  transfers.push(Transfer(\r... */\n      0x01\n      swap1\n      sub\n      swap1\n      0x00\n      mstore\n      keccak256(0x00, 0x20)\n      swap1\n      0x05\n      mul\n      add\n      0x00\n      swap1\n      swap2\n      swap1\n      swap2\n      swap1\n      swap2\n      pop\n      0x00\n      dup3\n      add\n      mload\n      dup2\n      0x00\n      add\n      sstore\n      0x20\n      dup3\n      add\n      mload\n      dup2\n      0x01\n      add\n      sstore\n      0x40\n      dup3\n      add\n      mload\n      dup2\n      0x02\n      add\n      exp(0x0100, 0x00)\n      dup2\n      sload\n      dup2\n      0xffffffffffffffffffffffffffffffffffffffff\n      mul\n      not\n      and\n      swap1\n      dup4\n      0xffffffffffffffffffffffffffffffffffffffff\n      and\n      mul\n      or\n      swap1\n      sstore\n      pop\n      0x60\n      dup3\n      add\n      mload\n      dup2\n      0x03\n      add\n      sstore\n      0x80\n      dup3\n      add\n      mload\n      dup2\n      0x04\n      add\n      exp(0x0100, 0x00)\n      dup2\n      sload\n      dup2\n      0xff\n      mul\n      not\n      and\n      swap1\n      dup4\n      iszero\n      iszero\n      mul\n      or\n      swap1\n      sstore\n      pop\n      pop\n      pop\n        /* \"blockchain_app/multisig_wallet/contracts/Wallet.sol\":1087:1312  function createTransfer(uint amount, address payable to) external {\r... */\n      pop\n      pop\n      jump\t// out\n        /* \"blockchain_app/multisig_wallet/contracts/Wallet.sol\":830:929  function getApprovers() external view returns(address[] memory) {\r... */\n    tag_25:\n        /* \"blockchain_app/multisig_wallet/contracts/Wallet.sol\":876:892  address[] memory */\n      0x60\n        /* \"blockchain_app/multisig_wallet/contracts/Wallet.sol\":912:921  approvers */\n      0x00\n        /* \"blockchain_app/multisig_wallet/contracts/Wallet.sol\":905:921  return approvers */\n      dup1\n      sload\n      dup1\n      0x20\n      mul\n      0x20\n      add\n      mload(0x40)\n      swap1\n      dup2\n      add\n      0x40\n      mstore\n      dup1\n      swap3\n      swap2\n      swap1\n      dup2\n      dup2\n      mstore\n      0x20\n      add\n      dup3\n      dup1\n      sload\n      dup1\n      iszero\n      tag_55\n      jumpi\n      0x20\n      mul\n      dup3\n      add\n      swap2\n      swap1\n      0x00\n      mstore\n      keccak256(0x00, 0x20)\n      swap1\n    tag_56:\n      dup2\n      0x00\n      swap1\n      sload\n      swap1\n      0x0100\n      exp\n      swap1\n      div\n      0xffffffffffffffffffffffffffffffffffffffff\n      and\n      0xffffffffffffffffffffffffffffffffffffffff\n      and\n      dup2\n      mstore\n      0x20\n      add\n      swap1\n      0x01\n      add\n      swap1\n      dup1\n      dup4\n      gt\n      tag_56\n      jumpi\n    tag_55:\n      pop\n      pop\n      pop\n      pop\n      pop\n      swap1\n      pop\n        /* \"blockchain_app/multisig_wallet/contracts/Wallet.sol\":830:929  function getApprovers() external view returns(address[] memory) {\r... */\n      swap1\n      jump\t// out\n        /* \"blockchain_app/multisig_wallet/contracts/Wallet.sol\":519:546  Transfer[] public transfers */\n    tag_31:\n      0x02\n      dup2\n      dup2\n      sload\n      dup2\n      lt\n      tag_57\n      jumpi\n      invalid\n    tag_57:\n      swap1\n      0x00\n      mstore\n      keccak256(0x00, 0x20)\n      swap1\n      0x05\n      mul\n      add\n      0x00\n      swap2\n      pop\n      swap1\n      pop\n      dup1\n      0x00\n      add\n      sload\n      swap1\n      dup1\n      0x01\n      add\n      sload\n      swap1\n      dup1\n      0x02\n      add\n      0x00\n      swap1\n      sload\n      swap1\n      0x0100\n      exp\n      swap1\n      div\n      0xffffffffffffffffffffffffffffffffffffffff\n      and\n      swap1\n      dup1\n      0x03\n      add\n      sload\n      swap1\n      dup1\n      0x04\n      add\n      0x00\n      swap1\n      sload\n      swap1\n      0x0100\n      exp\n      swap1\n      div\n      0xff\n      and\n      swap1\n      pop\n      dup6\n      jump\t// out\n        /* \"blockchain_app/multisig_wallet/contracts/Wallet.sol\":1360:1604  function approveTransfer(uint _id) external {\r... */\n    tag_36:\n        /* \"blockchain_app/multisig_wallet/contracts/Wallet.sol\":1487:1492  false */\n      0x00\n        /* \"blockchain_app/multisig_wallet/contracts/Wallet.sol\":1464:1492  transfers[_id].sent == false */\n      iszero\n      iszero\n        /* \"blockchain_app/multisig_wallet/contracts/Wallet.sol\":1464:1473  transfers */\n      0x02\n        /* \"blockchain_app/multisig_wallet/contracts/Wallet.sol\":1474:1477  _id */\n      dup3\n        /* \"blockchain_app/multisig_wallet/contracts/Wallet.sol\":1464:1478  transfers[_id] */\n      dup2\n      sload\n      dup2\n      lt\n      tag_60\n      jumpi\n      invalid\n    tag_60:\n      swap1\n      0x00\n      mstore\n      keccak256(0x00, 0x20)\n      swap1\n      0x05\n      mul\n      add\n        /* \"blockchain_app/multisig_wallet/contracts/Wallet.sol\":1464:1483  transfers[_id].sent */\n      0x04\n      add\n      0x00\n      swap1\n      sload\n      swap1\n      0x0100\n      exp\n      swap1\n      div\n      0xff\n      and\n        /* \"blockchain_app/multisig_wallet/contracts/Wallet.sol\":1464:1492  transfers[_id].sent == false */\n      iszero\n      iszero\n      eq\n        /* \"blockchain_app/multisig_wallet/contracts/Wallet.sol\":1456:1497  require(transfers[_id].sent == false, \"\") */\n      tag_62\n      jumpi\n      mload(0x40)\n      0x08c379a000000000000000000000000000000000000000000000000000000000\n      dup2\n      mstore\n      0x04\n      add\n      tag_63\n      swap1\n      jump(tag_64)\n    tag_63:\n      mload(0x40)\n      dup1\n      swap2\n      sub\n      swap1\n      revert\n    tag_62:\n        /* \"blockchain_app/multisig_wallet/contracts/Wallet.sol\":1546:1551  false */\n      0x00\n        /* \"blockchain_app/multisig_wallet/contracts/Wallet.sol\":1516:1551  approvals[msg.sender][_id] == false */\n      iszero\n      iszero\n        /* \"blockchain_app/multisig_wallet/contracts/Wallet.sol\":1516:1525  approvals */\n      0x03\n        /* \"blockchain_app/multisig_wallet/contracts/Wallet.sol\":1516:1537  approvals[msg.sender] */\n      0x00\n        /* \"blockchain_app/multisig_wallet/contracts/Wallet.sol\":1526:1536  msg.sender */\n      caller\n        /* \"blockchain_app/multisig_wallet/contracts/Wallet.sol\":1516:1537  approvals[msg.sender] */\n      0xffffffffffffffffffffffffffffffffffffffff\n      and\n      0xffffffffffffffffffffffffffffffffffffffff\n      and\n      dup2\n      mstore\n      0x20\n      add\n      swap1\n      dup2\n      mstore\n      0x20\n      add\n      0x00\n      keccak256\n        /* \"blockchain_app/multisig_wallet/contracts/Wallet.sol\":1516:1542  approvals[msg.sender][_id] */\n      0x00\n        /* \"blockchain_app/multisig_wallet/contracts/Wallet.sol\":1538:1541  _id */\n      dup4\n        /* \"blockchain_app/multisig_wallet/contracts/Wallet.sol\":1516:1542  approvals[msg.sender][_id] */\n      dup2\n      mstore\n      0x20\n      add\n      swap1\n      dup2\n      mstore\n      0x20\n      add\n      0x00\n      keccak256\n      0x00\n      swap1\n      sload\n      swap1\n      0x0100\n      exp\n      swap1\n      div\n      0xff\n      and\n        /* \"blockchain_app/multisig_wallet/contracts/Wallet.sol\":1516:1551  approvals[msg.sender][_id] == false */\n      iszero\n      iszero\n      eq\n        /* \"blockchain_app/multisig_wallet/contracts/Wallet.sol\":1508:1552  require(approvals[msg.sender][_id] == false) */\n      tag_65\n      jumpi\n      0x00\n      dup1\n      revert\n    tag_65:\n        /* \"blockchain_app/multisig_wallet/contracts/Wallet.sol\":1592:1596  true */\n      0x01\n        /* \"blockchain_app/multisig_wallet/contracts/Wallet.sol\":1563:1572  approvals */\n      0x03\n        /* \"blockchain_app/multisig_wallet/contracts/Wallet.sol\":1563:1584  approvals[msg.sender] */\n      0x00\n        /* \"blockchain_app/multisig_wallet/contracts/Wallet.sol\":1573:1583  msg.sender */\n      caller\n        /* \"blockchain_app/multisig_wallet/contracts/Wallet.sol\":1563:1584  approvals[msg.sender] */\n      0xffffffffffffffffffffffffffffffffffffffff\n      and\n      0xffffffffffffffffffffffffffffffffffffffff\n      and\n      dup2\n      mstore\n      0x20\n      add\n      swap1\n      dup2\n      mstore\n      0x20\n      add\n      0x00\n      keccak256\n        /* \"blockchain_app/multisig_wallet/contracts/Wallet.sol\":1563:1589  approvals[msg.sender][_id] */\n      0x00\n        /* \"blockchain_app/multisig_wallet/contracts/Wallet.sol\":1585:1588  _id */\n      dup4\n        /* \"blockchain_app/multisig_wallet/contracts/Wallet.sol\":1563:1589  approvals[msg.sender][_id] */\n      dup2\n      mstore\n      0x20\n      add\n      swap1\n      dup2\n      mstore\n      0x20\n      add\n      0x00\n      keccak256\n      0x00\n        /* \"blockchain_app/multisig_wallet/contracts/Wallet.sol\":1563:1596  approvals[msg.sender][_id] = true */\n      0x0100\n      exp\n      dup2\n      sload\n      dup2\n      0xff\n      mul\n      not\n      and\n      swap1\n      dup4\n      iszero\n      iszero\n      mul\n      or\n      swap1\n      sstore\n      pop\n        /* \"blockchain_app/multisig_wallet/contracts/Wallet.sol\":1360:1604  function approveTransfer(uint _id) external {\r... */\n      pop\n      jump\t// out\n        /* \"blockchain_app/multisig_wallet/contracts/Wallet.sol\":204:230  address[] public approvers */\n    tag_39:\n      0x00\n      dup2\n      dup2\n      sload\n      dup2\n      lt\n      tag_66\n      jumpi\n      invalid\n    tag_66:\n      swap1\n      0x00\n      mstore\n      keccak256(0x00, 0x20)\n      add\n      0x00\n      swap2\n      pop\n      sload\n      swap1\n      0x0100\n      exp\n      swap1\n      div\n      0xffffffffffffffffffffffffffffffffffffffff\n      and\n      dup2\n      jump\t// out\n        /* \"blockchain_app/multisig_wallet/contracts/Wallet.sol\":596:654  mapping(address => mapping(uint => bool)) public approvals */\n    tag_45:\n      mstore(0x20, 0x03)\n      dup2\n      0x00\n      mstore\n      mstore(0x20, keccak256(0x00, 0x40))\n      dup1\n      0x00\n      mstore\n      keccak256(0x00, 0x40)\n      0x00\n      swap2\n      pop\n      swap2\n      pop\n      swap1\n      sload\n      swap1\n      0x0100\n      exp\n      swap1\n      div\n      0xff\n      and\n      dup2\n      jump\t// out\n        /* \"--CODEGEN--\":5:135   */\n    tag_69:\n      0x00\n        /* \"--CODEGEN--\":85:91   */\n      dup2\n        /* \"--CODEGEN--\":72:92   */\n      calldataload\n        /* \"--CODEGEN--\":63:92   */\n      swap1\n      pop\n        /* \"--CODEGEN--\":97:130   */\n      tag_71\n        /* \"--CODEGEN--\":124:129   */\n      dup2\n        /* \"--CODEGEN--\":97:130   */\n      jump(tag_72)\n    tag_71:\n        /* \"--CODEGEN--\":57:135   */\n      swap3\n      swap2\n      pop\n      pop\n      jump\n        /* \"--CODEGEN--\":142:288   */\n    tag_73:\n      0x00\n        /* \"--CODEGEN--\":230:236   */\n      dup2\n        /* \"--CODEGEN--\":217:237   */\n      calldataload\n        /* \"--CODEGEN--\":208:237   */\n      swap1\n      pop\n        /* \"--CODEGEN--\":242:283   */\n      tag_75\n        /* \"--CODEGEN--\":277:282   */\n      dup2\n        /* \"--CODEGEN--\":242:283   */\n      jump(tag_76)\n    tag_75:\n        /* \"--CODEGEN--\":202:288   */\n      swap3\n      swap2\n      pop\n      pop\n      jump\n        /* \"--CODEGEN--\":295:425   */\n    tag_77:\n      0x00\n        /* \"--CODEGEN--\":375:381   */\n      dup2\n        /* \"--CODEGEN--\":362:382   */\n      calldataload\n        /* \"--CODEGEN--\":353:382   */\n      swap1\n      pop\n        /* \"--CODEGEN--\":387:420   */\n      tag_79\n        /* \"--CODEGEN--\":414:419   */\n      dup2\n        /* \"--CODEGEN--\":387:420   */\n      jump(tag_80)\n    tag_79:\n        /* \"--CODEGEN--\":347:425   */\n      swap3\n      swap2\n      pop\n      pop\n      jump\n        /* \"--CODEGEN--\":432:798   */\n    tag_44:\n      0x00\n      dup1\n        /* \"--CODEGEN--\":553:555   */\n      0x40\n        /* \"--CODEGEN--\":541:550   */\n      dup4\n        /* \"--CODEGEN--\":532:539   */\n      dup6\n        /* \"--CODEGEN--\":528:551   */\n      sub\n        /* \"--CODEGEN--\":524:556   */\n      slt\n        /* \"--CODEGEN--\":521:523   */\n      iszero\n      tag_82\n      jumpi\n        /* \"--CODEGEN--\":569:570   */\n      0x00\n        /* \"--CODEGEN--\":566:567   */\n      dup1\n        /* \"--CODEGEN--\":559:571   */\n      revert\n        /* \"--CODEGEN--\":521:523   */\n    tag_82:\n        /* \"--CODEGEN--\":604:605   */\n      0x00\n        /* \"--CODEGEN--\":621:674   */\n      tag_83\n        /* \"--CODEGEN--\":666:673   */\n      dup6\n        /* \"--CODEGEN--\":657:663   */\n      dup3\n        /* \"--CODEGEN--\":646:655   */\n      dup7\n        /* \"--CODEGEN--\":642:664   */\n      add\n        /* \"--CODEGEN--\":621:674   */\n      jump(tag_69)\n    tag_83:\n        /* \"--CODEGEN--\":611:674   */\n      swap3\n      pop\n        /* \"--CODEGEN--\":583:680   */\n      pop\n        /* \"--CODEGEN--\":711:713   */\n      0x20\n        /* \"--CODEGEN--\":729:782   */\n      tag_84\n        /* \"--CODEGEN--\":774:781   */\n      dup6\n        /* \"--CODEGEN--\":765:771   */\n      dup3\n        /* \"--CODEGEN--\":754:763   */\n      dup7\n        /* \"--CODEGEN--\":750:772   */\n      add\n        /* \"--CODEGEN--\":729:782   */\n      jump(tag_77)\n    tag_84:\n        /* \"--CODEGEN--\":719:782   */\n      swap2\n      pop\n        /* \"--CODEGEN--\":690:788   */\n      pop\n        /* \"--CODEGEN--\":515:798   */\n      swap3\n      pop\n      swap3\n      swap1\n      pop\n      jump\n        /* \"--CODEGEN--\":805:1046   */\n    tag_30:\n      0x00\n        /* \"--CODEGEN--\":909:911   */\n      0x20\n        /* \"--CODEGEN--\":897:906   */\n      dup3\n        /* \"--CODEGEN--\":888:895   */\n      dup5\n        /* \"--CODEGEN--\":884:907   */\n      sub\n        /* \"--CODEGEN--\":880:912   */\n      slt\n        /* \"--CODEGEN--\":877:879   */\n      iszero\n      tag_86\n      jumpi\n        /* \"--CODEGEN--\":925:926   */\n      0x00\n        /* \"--CODEGEN--\":922:923   */\n      dup1\n        /* \"--CODEGEN--\":915:927   */\n      revert\n        /* \"--CODEGEN--\":877:879   */\n    tag_86:\n        /* \"--CODEGEN--\":960:961   */\n      0x00\n        /* \"--CODEGEN--\":977:1030   */\n      tag_87\n        /* \"--CODEGEN--\":1022:1029   */\n      dup5\n        /* \"--CODEGEN--\":1013:1019   */\n      dup3\n        /* \"--CODEGEN--\":1002:1011   */\n      dup6\n        /* \"--CODEGEN--\":998:1020   */\n      add\n        /* \"--CODEGEN--\":977:1030   */\n      jump(tag_77)\n    tag_87:\n        /* \"--CODEGEN--\":967:1030   */\n      swap2\n      pop\n        /* \"--CODEGEN--\":939:1036   */\n      pop\n        /* \"--CODEGEN--\":871:1046   */\n      swap3\n      swap2\n      pop\n      pop\n      jump\n        /* \"--CODEGEN--\":1053:1435   */\n    tag_22:\n      0x00\n      dup1\n        /* \"--CODEGEN--\":1182:1184   */\n      0x40\n        /* \"--CODEGEN--\":1170:1179   */\n      dup4\n        /* \"--CODEGEN--\":1161:1168   */\n      dup6\n        /* \"--CODEGEN--\":1157:1180   */\n      sub\n        /* \"--CODEGEN--\":1153:1185   */\n      slt\n        /* \"--CODEGEN--\":1150:1152   */\n      iszero\n      tag_89\n      jumpi\n        /* \"--CODEGEN--\":1198:1199   */\n      0x00\n        /* \"--CODEGEN--\":1195:1196   */\n      dup1\n        /* \"--CODEGEN--\":1188:1200   */\n      revert\n        /* \"--CODEGEN--\":1150:1152   */\n    tag_89:\n        /* \"--CODEGEN--\":1233:1234   */\n      0x00\n        /* \"--CODEGEN--\":1250:1303   */\n      tag_90\n        /* \"--CODEGEN--\":1295:1302   */\n      dup6\n        /* \"--CODEGEN--\":1286:1292   */\n      dup3\n        /* \"--CODEGEN--\":1275:1284   */\n      dup7\n        /* \"--CODEGEN--\":1271:1293   */\n      add\n        /* \"--CODEGEN--\":1250:1303   */\n      jump(tag_77)\n    tag_90:\n        /* \"--CODEGEN--\":1240:1303   */\n      swap3\n      pop\n        /* \"--CODEGEN--\":1212:1309   */\n      pop\n        /* \"--CODEGEN--\":1340:1342   */\n      0x20\n        /* \"--CODEGEN--\":1358:1419   */\n      tag_91\n        /* \"--CODEGEN--\":1411:1418   */\n      dup6\n        /* \"--CODEGEN--\":1402:1408   */\n      dup3\n        /* \"--CODEGEN--\":1391:1400   */\n      dup7\n        /* \"--CODEGEN--\":1387:1409   */\n      add\n        /* \"--CODEGEN--\":1358:1419   */\n      jump(tag_73)\n    tag_91:\n        /* \"--CODEGEN--\":1348:1419   */\n      swap2\n      pop\n        /* \"--CODEGEN--\":1319:1425   */\n      pop\n        /* \"--CODEGEN--\":1144:1435   */\n      swap3\n      pop\n      swap3\n      swap1\n      pop\n      jump\n        /* \"--CODEGEN--\":1443:1616   */\n    tag_92:\n      0x00\n        /* \"--CODEGEN--\":1530:1576   */\n      tag_94\n        /* \"--CODEGEN--\":1572:1575   */\n      dup4\n        /* \"--CODEGEN--\":1564:1570   */\n      dup4\n        /* \"--CODEGEN--\":1530:1576   */\n      jump(tag_95)\n    tag_94:\n        /* \"--CODEGEN--\":1605:1609   */\n      0x20\n        /* \"--CODEGEN--\":1600:1603   */\n      dup4\n        /* \"--CODEGEN--\":1596:1610   */\n      add\n        /* \"--CODEGEN--\":1582:1610   */\n      swap1\n      pop\n        /* \"--CODEGEN--\":1523:1616   */\n      swap3\n      swap2\n      pop\n      pop\n      jump\n        /* \"--CODEGEN--\":1625:1882   */\n    tag_96:\n      0x00\n        /* \"--CODEGEN--\":1752:1842   */\n      tag_98\n        /* \"--CODEGEN--\":1838:1841   */\n      dup4\n        /* \"--CODEGEN--\":1830:1836   */\n      dup4\n        /* \"--CODEGEN--\":1752:1842   */\n      jump(tag_99)\n    tag_98:\n        /* \"--CODEGEN--\":1871:1875   */\n      0xa0\n        /* \"--CODEGEN--\":1866:1869   */\n      dup4\n        /* \"--CODEGEN--\":1862:1876   */\n      add\n        /* \"--CODEGEN--\":1848:1876   */\n      swap1\n      pop\n        /* \"--CODEGEN--\":1745:1882   */\n      swap3\n      swap2\n      pop\n      pop\n      jump\n        /* \"--CODEGEN--\":1890:2017   */\n    tag_100:\n        /* \"--CODEGEN--\":1979:2011   */\n      tag_102\n        /* \"--CODEGEN--\":2005:2010   */\n      dup2\n        /* \"--CODEGEN--\":1979:2011   */\n      jump(tag_103)\n    tag_102:\n        /* \"--CODEGEN--\":1974:1977   */\n      dup3\n        /* \"--CODEGEN--\":1967:2012   */\n      mstore\n        /* \"--CODEGEN--\":1961:2017   */\n      pop\n      pop\n      jump\n        /* \"--CODEGEN--\":2024:2161   */\n    tag_104:\n        /* \"--CODEGEN--\":2123:2155   */\n      tag_106\n        /* \"--CODEGEN--\":2149:2154   */\n      dup2\n        /* \"--CODEGEN--\":2123:2155   */\n      jump(tag_103)\n    tag_106:\n        /* \"--CODEGEN--\":2118:2121   */\n      dup3\n        /* \"--CODEGEN--\":2111:2156   */\n      mstore\n        /* \"--CODEGEN--\":2105:2161   */\n      pop\n      pop\n      jump\n        /* \"--CODEGEN--\":2168:2271   */\n    tag_95:\n        /* \"--CODEGEN--\":2241:2265   */\n      tag_108\n        /* \"--CODEGEN--\":2259:2264   */\n      dup2\n        /* \"--CODEGEN--\":2241:2265   */\n      jump(tag_109)\n    tag_108:\n        /* \"--CODEGEN--\":2236:2239   */\n      dup3\n        /* \"--CODEGEN--\":2229:2266   */\n      mstore\n        /* \"--CODEGEN--\":2223:2271   */\n      pop\n      pop\n      jump\n        /* \"--CODEGEN--\":2278:2391   */\n    tag_110:\n        /* \"--CODEGEN--\":2361:2385   */\n      tag_112\n        /* \"--CODEGEN--\":2379:2384   */\n      dup2\n        /* \"--CODEGEN--\":2361:2385   */\n      jump(tag_109)\n    tag_112:\n        /* \"--CODEGEN--\":2356:2359   */\n      dup3\n        /* \"--CODEGEN--\":2349:2386   */\n      mstore\n        /* \"--CODEGEN--\":2343:2391   */\n      pop\n      pop\n      jump\n        /* \"--CODEGEN--\":2429:3119   */\n    tag_113:\n      0x00\n        /* \"--CODEGEN--\":2574:2628   */\n      tag_115\n        /* \"--CODEGEN--\":2622:2627   */\n      dup3\n        /* \"--CODEGEN--\":2574:2628   */\n      jump(tag_116)\n    tag_115:\n        /* \"--CODEGEN--\":2641:2727   */\n      tag_117\n        /* \"--CODEGEN--\":2720:2726   */\n      dup2\n        /* \"--CODEGEN--\":2715:2718   */\n      dup6\n        /* \"--CODEGEN--\":2641:2727   */\n      jump(tag_118)\n    tag_117:\n        /* \"--CODEGEN--\":2634:2727   */\n      swap4\n      pop\n        /* \"--CODEGEN--\":2748:2804   */\n      tag_119\n        /* \"--CODEGEN--\":2798:2803   */\n      dup4\n        /* \"--CODEGEN--\":2748:2804   */\n      jump(tag_120)\n    tag_119:\n        /* \"--CODEGEN--\":2824:2831   */\n      dup1\n        /* \"--CODEGEN--\":2852:2853   */\n      0x00\n        /* \"--CODEGEN--\":2837:3097   */\n    tag_121:\n        /* \"--CODEGEN--\":2862:2868   */\n      dup4\n        /* \"--CODEGEN--\":2859:2860   */\n      dup2\n        /* \"--CODEGEN--\":2856:2869   */\n      lt\n        /* \"--CODEGEN--\":2837:3097   */\n      iszero\n      tag_123\n      jumpi\n        /* \"--CODEGEN--\":2929:2935   */\n      dup2\n        /* \"--CODEGEN--\":2923:2936   */\n      mload\n        /* \"--CODEGEN--\":2950:3013   */\n      tag_124\n        /* \"--CODEGEN--\":3009:3012   */\n      dup9\n        /* \"--CODEGEN--\":2994:3007   */\n      dup3\n        /* \"--CODEGEN--\":2950:3013   */\n      jump(tag_92)\n    tag_124:\n        /* \"--CODEGEN--\":2943:3013   */\n      swap8\n      pop\n        /* \"--CODEGEN--\":3030:3090   */\n      tag_125\n        /* \"--CODEGEN--\":3083:3089   */\n      dup4\n        /* \"--CODEGEN--\":3030:3090   */\n      jump(tag_126)\n    tag_125:\n        /* \"--CODEGEN--\":3020:3090   */\n      swap3\n      pop\n        /* \"--CODEGEN--\":2894:3097   */\n      pop\n        /* \"--CODEGEN--\":2884:2885   */\n      0x01\n        /* \"--CODEGEN--\":2881:2882   */\n      dup2\n        /* \"--CODEGEN--\":2877:2886   */\n      add\n        /* \"--CODEGEN--\":2872:2886   */\n      swap1\n      pop\n        /* \"--CODEGEN--\":2837:3097   */\n      jump(tag_121)\n    tag_123:\n        /* \"--CODEGEN--\":2841:2855   */\n      pop\n        /* \"--CODEGEN--\":3110:3113   */\n      dup6\n        /* \"--CODEGEN--\":3103:3113   */\n      swap4\n      pop\n        /* \"--CODEGEN--\":2553:3119   */\n      pop\n      pop\n      pop\n      swap3\n      swap2\n      pop\n      pop\n      jump\n        /* \"--CODEGEN--\":3188:4038   */\n    tag_127:\n      0x00\n        /* \"--CODEGEN--\":3373:3447   */\n      tag_129\n        /* \"--CODEGEN--\":3441:3446   */\n      dup3\n        /* \"--CODEGEN--\":3373:3447   */\n      jump(tag_130)\n    tag_129:\n        /* \"--CODEGEN--\":3460:3566   */\n      tag_131\n        /* \"--CODEGEN--\":3559:3565   */\n      dup2\n        /* \"--CODEGEN--\":3554:3557   */\n      dup6\n        /* \"--CODEGEN--\":3460:3566   */\n      jump(tag_132)\n    tag_131:\n        /* \"--CODEGEN--\":3453:3566   */\n      swap4\n      pop\n        /* \"--CODEGEN--\":3587:3663   */\n      tag_133\n        /* \"--CODEGEN--\":3657:3662   */\n      dup4\n        /* \"--CODEGEN--\":3587:3663   */\n      jump(tag_134)\n    tag_133:\n        /* \"--CODEGEN--\":3683:3690   */\n      dup1\n        /* \"--CODEGEN--\":3711:3712   */\n      0x00\n        /* \"--CODEGEN--\":3696:4016   */\n    tag_135:\n        /* \"--CODEGEN--\":3721:3727   */\n      dup4\n        /* \"--CODEGEN--\":3718:3719   */\n      dup2\n        /* \"--CODEGEN--\":3715:3728   */\n      lt\n        /* \"--CODEGEN--\":3696:4016   */\n      iszero\n      tag_137\n      jumpi\n        /* \"--CODEGEN--\":3788:3794   */\n      dup2\n        /* \"--CODEGEN--\":3782:3795   */\n      mload\n        /* \"--CODEGEN--\":3809:3912   */\n      tag_138\n        /* \"--CODEGEN--\":3908:3911   */\n      dup9\n        /* \"--CODEGEN--\":3893:3906   */\n      dup3\n        /* \"--CODEGEN--\":3809:3912   */\n      jump(tag_96)\n    tag_138:\n        /* \"--CODEGEN--\":3802:3912   */\n      swap8\n      pop\n        /* \"--CODEGEN--\":3929:4009   */\n      tag_139\n        /* \"--CODEGEN--\":4002:4008   */\n      dup4\n        /* \"--CODEGEN--\":3929:4009   */\n      jump(tag_140)\n    tag_139:\n        /* \"--CODEGEN--\":3919:4009   */\n      swap3\n      pop\n        /* \"--CODEGEN--\":3753:4016   */\n      pop\n        /* \"--CODEGEN--\":3743:3744   */\n      0x01\n        /* \"--CODEGEN--\":3740:3741   */\n      dup2\n        /* \"--CODEGEN--\":3736:3745   */\n      add\n        /* \"--CODEGEN--\":3731:3745   */\n      swap1\n      pop\n        /* \"--CODEGEN--\":3696:4016   */\n      jump(tag_135)\n    tag_137:\n        /* \"--CODEGEN--\":3700:3714   */\n      pop\n        /* \"--CODEGEN--\":4029:4032   */\n      dup6\n        /* \"--CODEGEN--\":4022:4032   */\n      swap4\n      pop\n        /* \"--CODEGEN--\":3352:4038   */\n      pop\n      pop\n      pop\n      swap3\n      swap2\n      pop\n      pop\n      jump\n        /* \"--CODEGEN--\":4046:4140   */\n    tag_141:\n        /* \"--CODEGEN--\":4113:4134   */\n      tag_143\n        /* \"--CODEGEN--\":4128:4133   */\n      dup2\n        /* \"--CODEGEN--\":4113:4134   */\n      jump(tag_144)\n    tag_143:\n        /* \"--CODEGEN--\":4108:4111   */\n      dup3\n        /* \"--CODEGEN--\":4101:4135   */\n      mstore\n        /* \"--CODEGEN--\":4095:4140   */\n      pop\n      pop\n      jump\n        /* \"--CODEGEN--\":4147:4251   */\n    tag_145:\n        /* \"--CODEGEN--\":4224:4245   */\n      tag_147\n        /* \"--CODEGEN--\":4239:4244   */\n      dup2\n        /* \"--CODEGEN--\":4224:4245   */\n      jump(tag_144)\n    tag_147:\n        /* \"--CODEGEN--\":4219:4222   */\n      dup3\n        /* \"--CODEGEN--\":4212:4246   */\n      mstore\n        /* \"--CODEGEN--\":4206:4251   */\n      pop\n      pop\n      jump\n        /* \"--CODEGEN--\":4259:4521   */\n    tag_148:\n      0x00\n        /* \"--CODEGEN--\":4419:4485   */\n      tag_150\n        /* \"--CODEGEN--\":4483:4484   */\n      0x00\n        /* \"--CODEGEN--\":4478:4481   */\n      dup4\n        /* \"--CODEGEN--\":4419:4485   */\n      jump(tag_151)\n    tag_150:\n        /* \"--CODEGEN--\":4412:4485   */\n      swap2\n      pop\n        /* \"--CODEGEN--\":4513:4514   */\n      0x00\n        /* \"--CODEGEN--\":4508:4511   */\n      dup3\n        /* \"--CODEGEN--\":4504:4515   */\n      add\n        /* \"--CODEGEN--\":4497:4515   */\n      swap1\n      pop\n        /* \"--CODEGEN--\":4405:4521   */\n      swap2\n      swap1\n      pop\n      jump\n        /* \"--CODEGEN--\":4584:5519   */\n    tag_99:\n        /* \"--CODEGEN--\":4711:4715   */\n      0xa0\n        /* \"--CODEGEN--\":4706:4709   */\n      dup3\n        /* \"--CODEGEN--\":4702:4716   */\n      add\n        /* \"--CODEGEN--\":4792:4796   */\n      0x00\n        /* \"--CODEGEN--\":4785:4790   */\n      dup3\n        /* \"--CODEGEN--\":4781:4797   */\n      add\n        /* \"--CODEGEN--\":4775:4798   */\n      mload\n        /* \"--CODEGEN--\":4804:4867   */\n      tag_153\n        /* \"--CODEGEN--\":4861:4865   */\n      0x00\n        /* \"--CODEGEN--\":4856:4859   */\n      dup6\n        /* \"--CODEGEN--\":4852:4866   */\n      add\n        /* \"--CODEGEN--\":4838:4850   */\n      dup3\n        /* \"--CODEGEN--\":4804:4867   */\n      jump(tag_154)\n    tag_153:\n        /* \"--CODEGEN--\":4731:4873   */\n      pop\n        /* \"--CODEGEN--\":4948:4952   */\n      0x20\n        /* \"--CODEGEN--\":4941:4946   */\n      dup3\n        /* \"--CODEGEN--\":4937:4953   */\n      add\n        /* \"--CODEGEN--\":4931:4954   */\n      mload\n        /* \"--CODEGEN--\":4960:5023   */\n      tag_155\n        /* \"--CODEGEN--\":5017:5021   */\n      0x20\n        /* \"--CODEGEN--\":5012:5015   */\n      dup6\n        /* \"--CODEGEN--\":5008:5022   */\n      add\n        /* \"--CODEGEN--\":4994:5006   */\n      dup3\n        /* \"--CODEGEN--\":4960:5023   */\n      jump(tag_154)\n    tag_155:\n        /* \"--CODEGEN--\":4883:5029   */\n      pop\n        /* \"--CODEGEN--\":5100:5104   */\n      0x40\n        /* \"--CODEGEN--\":5093:5098   */\n      dup3\n        /* \"--CODEGEN--\":5089:5105   */\n      add\n        /* \"--CODEGEN--\":5083:5106   */\n      mload\n        /* \"--CODEGEN--\":5112:5191   */\n      tag_156\n        /* \"--CODEGEN--\":5185:5189   */\n      0x40\n        /* \"--CODEGEN--\":5180:5183   */\n      dup6\n        /* \"--CODEGEN--\":5176:5190   */\n      add\n        /* \"--CODEGEN--\":5162:5174   */\n      dup3\n        /* \"--CODEGEN--\":5112:5191   */\n      jump(tag_100)\n    tag_156:\n        /* \"--CODEGEN--\":5039:5197   */\n      pop\n        /* \"--CODEGEN--\":5275:5279   */\n      0x60\n        /* \"--CODEGEN--\":5268:5273   */\n      dup3\n        /* \"--CODEGEN--\":5264:5280   */\n      add\n        /* \"--CODEGEN--\":5258:5281   */\n      mload\n        /* \"--CODEGEN--\":5287:5350   */\n      tag_157\n        /* \"--CODEGEN--\":5344:5348   */\n      0x60\n        /* \"--CODEGEN--\":5339:5342   */\n      dup6\n        /* \"--CODEGEN--\":5335:5349   */\n      add\n        /* \"--CODEGEN--\":5321:5333   */\n      dup3\n        /* \"--CODEGEN--\":5287:5350   */\n      jump(tag_154)\n    tag_157:\n        /* \"--CODEGEN--\":5207:5356   */\n      pop\n        /* \"--CODEGEN--\":5429:5433   */\n      0x80\n        /* \"--CODEGEN--\":5422:5427   */\n      dup3\n        /* \"--CODEGEN--\":5418:5434   */\n      add\n        /* \"--CODEGEN--\":5412:5435   */\n      mload\n        /* \"--CODEGEN--\":5441:5498   */\n      tag_158\n        /* \"--CODEGEN--\":5492:5496   */\n      0x80\n        /* \"--CODEGEN--\":5487:5490   */\n      dup6\n        /* \"--CODEGEN--\":5483:5497   */\n      add\n        /* \"--CODEGEN--\":5469:5481   */\n      dup3\n        /* \"--CODEGEN--\":5441:5498   */\n      jump(tag_141)\n    tag_158:\n        /* \"--CODEGEN--\":5366:5504   */\n      pop\n        /* \"--CODEGEN--\":4684:5519   */\n      pop\n      pop\n      pop\n      jump\n        /* \"--CODEGEN--\":5526:5629   */\n    tag_154:\n        /* \"--CODEGEN--\":5599:5623   */\n      tag_160\n        /* \"--CODEGEN--\":5617:5622   */\n      dup2\n        /* \"--CODEGEN--\":5599:5623   */\n      jump(tag_161)\n    tag_160:\n        /* \"--CODEGEN--\":5594:5597   */\n      dup3\n        /* \"--CODEGEN--\":5587:5624   */\n      mstore\n        /* \"--CODEGEN--\":5581:5629   */\n      pop\n      pop\n      jump\n        /* \"--CODEGEN--\":5636:5749   */\n    tag_162:\n        /* \"--CODEGEN--\":5719:5743   */\n      tag_164\n        /* \"--CODEGEN--\":5737:5742   */\n      dup2\n        /* \"--CODEGEN--\":5719:5743   */\n      jump(tag_161)\n    tag_164:\n        /* \"--CODEGEN--\":5714:5717   */\n      dup3\n        /* \"--CODEGEN--\":5707:5744   */\n      mstore\n        /* \"--CODEGEN--\":5701:5749   */\n      pop\n      pop\n      jump\n        /* \"--CODEGEN--\":5756:5969   */\n    tag_41:\n      0x00\n        /* \"--CODEGEN--\":5874:5876   */\n      0x20\n        /* \"--CODEGEN--\":5863:5872   */\n      dup3\n        /* \"--CODEGEN--\":5859:5877   */\n      add\n        /* \"--CODEGEN--\":5851:5877   */\n      swap1\n      pop\n        /* \"--CODEGEN--\":5888:5959   */\n      tag_166\n        /* \"--CODEGEN--\":5956:5957   */\n      0x00\n        /* \"--CODEGEN--\":5945:5954   */\n      dup4\n        /* \"--CODEGEN--\":5941:5958   */\n      add\n        /* \"--CODEGEN--\":5932:5938   */\n      dup5\n        /* \"--CODEGEN--\":5888:5959   */\n      jump(tag_110)\n    tag_166:\n        /* \"--CODEGEN--\":5845:5969   */\n      swap3\n      swap2\n      pop\n      pop\n      jump\n        /* \"--CODEGEN--\":5976:6337   */\n    tag_27:\n      0x00\n        /* \"--CODEGEN--\":6144:6146   */\n      0x20\n        /* \"--CODEGEN--\":6133:6142   */\n      dup3\n        /* \"--CODEGEN--\":6129:6147   */\n      add\n        /* \"--CODEGEN--\":6121:6147   */\n      swap1\n      pop\n        /* \"--CODEGEN--\":6194:6203   */\n      dup2\n        /* \"--CODEGEN--\":6188:6192   */\n      dup2\n        /* \"--CODEGEN--\":6184:6204   */\n      sub\n        /* \"--CODEGEN--\":6180:6181   */\n      0x00\n        /* \"--CODEGEN--\":6169:6178   */\n      dup4\n        /* \"--CODEGEN--\":6165:6182   */\n      add\n        /* \"--CODEGEN--\":6158:6205   */\n      mstore\n        /* \"--CODEGEN--\":6219:6327   */\n      tag_168\n        /* \"--CODEGEN--\":6322:6326   */\n      dup2\n        /* \"--CODEGEN--\":6313:6319   */\n      dup5\n        /* \"--CODEGEN--\":6219:6327   */\n      jump(tag_113)\n    tag_168:\n        /* \"--CODEGEN--\":6211:6327   */\n      swap1\n      pop\n        /* \"--CODEGEN--\":6115:6337   */\n      swap3\n      swap2\n      pop\n      pop\n      jump\n        /* \"--CODEGEN--\":6344:6785   */\n    tag_19:\n      0x00\n        /* \"--CODEGEN--\":6552:6554   */\n      0x20\n        /* \"--CODEGEN--\":6541:6550   */\n      dup3\n        /* \"--CODEGEN--\":6537:6555   */\n      add\n        /* \"--CODEGEN--\":6529:6555   */\n      swap1\n      pop\n        /* \"--CODEGEN--\":6602:6611   */\n      dup2\n        /* \"--CODEGEN--\":6596:6600   */\n      dup2\n        /* \"--CODEGEN--\":6592:6612   */\n      sub\n        /* \"--CODEGEN--\":6588:6589   */\n      0x00\n        /* \"--CODEGEN--\":6577:6586   */\n      dup4\n        /* \"--CODEGEN--\":6573:6590   */\n      add\n        /* \"--CODEGEN--\":6566:6613   */\n      mstore\n        /* \"--CODEGEN--\":6627:6775   */\n      tag_170\n        /* \"--CODEGEN--\":6770:6774   */\n      dup2\n        /* \"--CODEGEN--\":6761:6767   */\n      dup5\n        /* \"--CODEGEN--\":6627:6775   */\n      jump(tag_127)\n    tag_170:\n        /* \"--CODEGEN--\":6619:6775   */\n      swap1\n      pop\n        /* \"--CODEGEN--\":6523:6785   */\n      swap3\n      swap2\n      pop\n      pop\n      jump\n        /* \"--CODEGEN--\":6792:6993   */\n    tag_47:\n      0x00\n        /* \"--CODEGEN--\":6904:6906   */\n      0x20\n        /* \"--CODEGEN--\":6893:6902   */\n      dup3\n        /* \"--CODEGEN--\":6889:6907   */\n      add\n        /* \"--CODEGEN--\":6881:6907   */\n      swap1\n      pop\n        /* \"--CODEGEN--\":6918:6983   */\n      tag_172\n        /* \"--CODEGEN--\":6980:6981   */\n      0x00\n        /* \"--CODEGEN--\":6969:6978   */\n      dup4\n        /* \"--CODEGEN--\":6965:6982   */\n      add\n        /* \"--CODEGEN--\":6956:6962   */\n      dup5\n        /* \"--CODEGEN--\":6918:6983   */\n      jump(tag_145)\n    tag_172:\n        /* \"--CODEGEN--\":6875:6993   */\n      swap3\n      swap2\n      pop\n      pop\n      jump\n        /* \"--CODEGEN--\":7000:7407   */\n    tag_64:\n      0x00\n        /* \"--CODEGEN--\":7191:7193   */\n      0x20\n        /* \"--CODEGEN--\":7180:7189   */\n      dup3\n        /* \"--CODEGEN--\":7176:7194   */\n      add\n        /* \"--CODEGEN--\":7168:7194   */\n      swap1\n      pop\n        /* \"--CODEGEN--\":7241:7250   */\n      dup2\n        /* \"--CODEGEN--\":7235:7239   */\n      dup2\n        /* \"--CODEGEN--\":7231:7251   */\n      sub\n        /* \"--CODEGEN--\":7227:7228   */\n      0x00\n        /* \"--CODEGEN--\":7216:7225   */\n      dup4\n        /* \"--CODEGEN--\":7212:7229   */\n      add\n        /* \"--CODEGEN--\":7205:7252   */\n      mstore\n        /* \"--CODEGEN--\":7266:7397   */\n      tag_174\n        /* \"--CODEGEN--\":7392:7396   */\n      dup2\n        /* \"--CODEGEN--\":7266:7397   */\n      jump(tag_148)\n    tag_174:\n        /* \"--CODEGEN--\":7258:7397   */\n      swap1\n      pop\n        /* \"--CODEGEN--\":7162:7407   */\n      swap2\n      swap1\n      pop\n      jump\n        /* \"--CODEGEN--\":7414:7627   */\n    tag_15:\n      0x00\n        /* \"--CODEGEN--\":7532:7534   */\n      0x20\n        /* \"--CODEGEN--\":7521:7530   */\n      dup3\n        /* \"--CODEGEN--\":7517:7535   */\n      add\n        /* \"--CODEGEN--\":7509:7535   */\n      swap1\n      pop\n        /* \"--CODEGEN--\":7546:7617   */\n      tag_176\n        /* \"--CODEGEN--\":7614:7615   */\n      0x00\n        /* \"--CODEGEN--\":7603:7612   */\n      dup4\n        /* \"--CODEGEN--\":7599:7616   */\n      add\n        /* \"--CODEGEN--\":7590:7596   */\n      dup5\n        /* \"--CODEGEN--\":7546:7617   */\n      jump(tag_162)\n    tag_176:\n        /* \"--CODEGEN--\":7503:7627   */\n      swap3\n      swap2\n      pop\n      pop\n      jump\n        /* \"--CODEGEN--\":7634:8313   */\n    tag_33:\n      0x00\n        /* \"--CODEGEN--\":7874:7877   */\n      0xa0\n        /* \"--CODEGEN--\":7863:7872   */\n      dup3\n        /* \"--CODEGEN--\":7859:7878   */\n      add\n        /* \"--CODEGEN--\":7851:7878   */\n      swap1\n      pop\n        /* \"--CODEGEN--\":7889:7960   */\n      tag_178\n        /* \"--CODEGEN--\":7957:7958   */\n      0x00\n        /* \"--CODEGEN--\":7946:7955   */\n      dup4\n        /* \"--CODEGEN--\":7942:7959   */\n      add\n        /* \"--CODEGEN--\":7933:7939   */\n      dup9\n        /* \"--CODEGEN--\":7889:7960   */\n      jump(tag_162)\n    tag_178:\n        /* \"--CODEGEN--\":7971:8043   */\n      tag_179\n        /* \"--CODEGEN--\":8039:8041   */\n      0x20\n        /* \"--CODEGEN--\":8028:8037   */\n      dup4\n        /* \"--CODEGEN--\":8024:8042   */\n      add\n        /* \"--CODEGEN--\":8015:8021   */\n      dup8\n        /* \"--CODEGEN--\":7971:8043   */\n      jump(tag_162)\n    tag_179:\n        /* \"--CODEGEN--\":8054:8142   */\n      tag_180\n        /* \"--CODEGEN--\":8138:8140   */\n      0x40\n        /* \"--CODEGEN--\":8127:8136   */\n      dup4\n        /* \"--CODEGEN--\":8123:8141   */\n      add\n        /* \"--CODEGEN--\":8114:8120   */\n      dup7\n        /* \"--CODEGEN--\":8054:8142   */\n      jump(tag_104)\n    tag_180:\n        /* \"--CODEGEN--\":8153:8225   */\n      tag_181\n        /* \"--CODEGEN--\":8221:8223   */\n      0x60\n        /* \"--CODEGEN--\":8210:8219   */\n      dup4\n        /* \"--CODEGEN--\":8206:8224   */\n      add\n        /* \"--CODEGEN--\":8197:8203   */\n      dup6\n        /* \"--CODEGEN--\":8153:8225   */\n      jump(tag_162)\n    tag_181:\n        /* \"--CODEGEN--\":8236:8303   */\n      tag_182\n        /* \"--CODEGEN--\":8298:8301   */\n      0x80\n        /* \"--CODEGEN--\":8287:8296   */\n      dup4\n        /* \"--CODEGEN--\":8283:8302   */\n      add\n        /* \"--CODEGEN--\":8274:8280   */\n      dup5\n        /* \"--CODEGEN--\":8236:8303   */\n      jump(tag_145)\n    tag_182:\n        /* \"--CODEGEN--\":7845:8313   */\n      swap7\n      swap6\n      pop\n      pop\n      pop\n      pop\n      pop\n      pop\n      jump\n        /* \"--CODEGEN--\":8320:8471   */\n    tag_120:\n      0x00\n        /* \"--CODEGEN--\":8406:8409   */\n      dup2\n        /* \"--CODEGEN--\":8398:8409   */\n      swap1\n      pop\n        /* \"--CODEGEN--\":8444:8448   */\n      0x20\n        /* \"--CODEGEN--\":8439:8442   */\n      dup3\n        /* \"--CODEGEN--\":8435:8449   */\n      add\n        /* \"--CODEGEN--\":8427:8449   */\n      swap1\n      pop\n        /* \"--CODEGEN--\":8392:8471   */\n      swap2\n      swap1\n      pop\n      jump\n        /* \"--CODEGEN--\":8478:8649   */\n    tag_134:\n      0x00\n        /* \"--CODEGEN--\":8584:8587   */\n      dup2\n        /* \"--CODEGEN--\":8576:8587   */\n      swap1\n      pop\n        /* \"--CODEGEN--\":8622:8626   */\n      0x20\n        /* \"--CODEGEN--\":8617:8620   */\n      dup3\n        /* \"--CODEGEN--\":8613:8627   */\n      add\n        /* \"--CODEGEN--\":8605:8627   */\n      swap1\n      pop\n        /* \"--CODEGEN--\":8570:8649   */\n      swap2\n      swap1\n      pop\n      jump\n        /* \"--CODEGEN--\":8656:8793   */\n    tag_116:\n      0x00\n        /* \"--CODEGEN--\":8765:8770   */\n      dup2\n        /* \"--CODEGEN--\":8759:8771   */\n      mload\n        /* \"--CODEGEN--\":8749:8771   */\n      swap1\n      pop\n        /* \"--CODEGEN--\":8730:8793   */\n      swap2\n      swap1\n      pop\n      jump\n        /* \"--CODEGEN--\":8800:8957   */\n    tag_130:\n      0x00\n        /* \"--CODEGEN--\":8929:8934   */\n      dup2\n        /* \"--CODEGEN--\":8923:8935   */\n      mload\n        /* \"--CODEGEN--\":8913:8935   */\n      swap1\n      pop\n        /* \"--CODEGEN--\":8894:8957   */\n      swap2\n      swap1\n      pop\n      jump\n        /* \"--CODEGEN--\":8964:9072   */\n    tag_126:\n      0x00\n        /* \"--CODEGEN--\":9062:9066   */\n      0x20\n        /* \"--CODEGEN--\":9057:9060   */\n      dup3\n        /* \"--CODEGEN--\":9053:9067   */\n      add\n        /* \"--CODEGEN--\":9045:9067   */\n      swap1\n      pop\n        /* \"--CODEGEN--\":9039:9072   */\n      swap2\n      swap1\n      pop\n      jump\n        /* \"--CODEGEN--\":9079:9207   */\n    tag_140:\n      0x00\n        /* \"--CODEGEN--\":9197:9201   */\n      0x20\n        /* \"--CODEGEN--\":9192:9195   */\n      dup3\n        /* \"--CODEGEN--\":9188:9202   */\n      add\n        /* \"--CODEGEN--\":9180:9202   */\n      swap1\n      pop\n        /* \"--CODEGEN--\":9174:9207   */\n      swap2\n      swap1\n      pop\n      jump\n        /* \"--CODEGEN--\":9215:9393   */\n    tag_118:\n      0x00\n        /* \"--CODEGEN--\":9345:9351   */\n      dup3\n        /* \"--CODEGEN--\":9340:9343   */\n      dup3\n        /* \"--CODEGEN--\":9333:9352   */\n      mstore\n        /* \"--CODEGEN--\":9382:9386   */\n      0x20\n        /* \"--CODEGEN--\":9377:9380   */\n      dup3\n        /* \"--CODEGEN--\":9373:9387   */\n      add\n        /* \"--CODEGEN--\":9358:9387   */\n      swap1\n      pop\n        /* \"--CODEGEN--\":9326:9393   */\n      swap3\n      swap2\n      pop\n      pop\n      jump\n        /* \"--CODEGEN--\":9402:9600   */\n    tag_132:\n      0x00\n        /* \"--CODEGEN--\":9552:9558   */\n      dup3\n        /* \"--CODEGEN--\":9547:9550   */\n      dup3\n        /* \"--CODEGEN--\":9540:9559   */\n      mstore\n        /* \"--CODEGEN--\":9589:9593   */\n      0x20\n        /* \"--CODEGEN--\":9584:9587   */\n      dup3\n        /* \"--CODEGEN--\":9580:9594   */\n      add\n        /* \"--CODEGEN--\":9565:9594   */\n      swap1\n      pop\n        /* \"--CODEGEN--\":9533:9600   */\n      swap3\n      swap2\n      pop\n      pop\n      jump\n        /* \"--CODEGEN--\":9609:9772   */\n    tag_151:\n      0x00\n        /* \"--CODEGEN--\":9724:9730   */\n      dup3\n        /* \"--CODEGEN--\":9719:9722   */\n      dup3\n        /* \"--CODEGEN--\":9712:9731   */\n      mstore\n        /* \"--CODEGEN--\":9761:9765   */\n      0x20\n        /* \"--CODEGEN--\":9756:9759   */\n      dup3\n        /* \"--CODEGEN--\":9752:9766   */\n      add\n        /* \"--CODEGEN--\":9737:9766   */\n      swap1\n      pop\n        /* \"--CODEGEN--\":9705:9772   */\n      swap3\n      swap2\n      pop\n      pop\n      jump\n        /* \"--CODEGEN--\":9780:9871   */\n    tag_109:\n      0x00\n        /* \"--CODEGEN--\":9842:9866   */\n      tag_193\n        /* \"--CODEGEN--\":9860:9865   */\n      dup3\n        /* \"--CODEGEN--\":9842:9866   */\n      jump(tag_194)\n    tag_193:\n        /* \"--CODEGEN--\":9831:9866   */\n      swap1\n      pop\n        /* \"--CODEGEN--\":9825:9871   */\n      swap2\n      swap1\n      pop\n      jump\n        /* \"--CODEGEN--\":9878:9977   */\n    tag_103:\n      0x00\n        /* \"--CODEGEN--\":9948:9972   */\n      tag_196\n        /* \"--CODEGEN--\":9966:9971   */\n      dup3\n        /* \"--CODEGEN--\":9948:9972   */\n      jump(tag_194)\n    tag_196:\n        /* \"--CODEGEN--\":9937:9972   */\n      swap1\n      pop\n        /* \"--CODEGEN--\":9931:9977   */\n      swap2\n      swap1\n      pop\n      jump\n        /* \"--CODEGEN--\":9984:10069   */\n    tag_144:\n      0x00\n        /* \"--CODEGEN--\":10057:10062   */\n      dup2\n        /* \"--CODEGEN--\":10050:10063   */\n      iszero\n        /* \"--CODEGEN--\":10043:10064   */\n      iszero\n        /* \"--CODEGEN--\":10032:10064   */\n      swap1\n      pop\n        /* \"--CODEGEN--\":10026:10069   */\n      swap2\n      swap1\n      pop\n      jump\n        /* \"--CODEGEN--\":10076:10197   */\n    tag_194:\n      0x00\n        /* \"--CODEGEN--\":10149:10191   */\n      0xffffffffffffffffffffffffffffffffffffffff\n        /* \"--CODEGEN--\":10142:10147   */\n      dup3\n        /* \"--CODEGEN--\":10138:10192   */\n      and\n        /* \"--CODEGEN--\":10127:10192   */\n      swap1\n      pop\n        /* \"--CODEGEN--\":10121:10197   */\n      swap2\n      swap1\n      pop\n      jump\n        /* \"--CODEGEN--\":10204:10276   */\n    tag_161:\n      0x00\n        /* \"--CODEGEN--\":10266:10271   */\n      dup2\n        /* \"--CODEGEN--\":10255:10271   */\n      swap1\n      pop\n        /* \"--CODEGEN--\":10249:10276   */\n      swap2\n      swap1\n      pop\n      jump\n        /* \"--CODEGEN--\":10283:10400   */\n    tag_72:\n        /* \"--CODEGEN--\":10352:10376   */\n      tag_201\n        /* \"--CODEGEN--\":10370:10375   */\n      dup2\n        /* \"--CODEGEN--\":10352:10376   */\n      jump(tag_109)\n    tag_201:\n        /* \"--CODEGEN--\":10345:10350   */\n      dup2\n        /* \"--CODEGEN--\":10342:10377   */\n      eq\n        /* \"--CODEGEN--\":10332:10334   */\n      tag_202\n      jumpi\n        /* \"--CODEGEN--\":10391:10392   */\n      0x00\n        /* \"--CODEGEN--\":10388:10389   */\n      dup1\n        /* \"--CODEGEN--\":10381:10393   */\n      revert\n        /* \"--CODEGEN--\":10332:10334   */\n    tag_202:\n        /* \"--CODEGEN--\":10326:10400   */\n      pop\n      jump\n        /* \"--CODEGEN--\":10407:10540   */\n    tag_76:\n        /* \"--CODEGEN--\":10484:10516   */\n      tag_204\n        /* \"--CODEGEN--\":10510:10515   */\n      dup2\n        /* \"--CODEGEN--\":10484:10516   */\n      jump(tag_103)\n    tag_204:\n        /* \"--CODEGEN--\":10477:10482   */\n      dup2\n        /* \"--CODEGEN--\":10474:10517   */\n      eq\n        /* \"--CODEGEN--\":10464:10466   */\n      tag_205\n      jumpi\n        /* \"--CODEGEN--\":10531:10532   */\n      0x00\n        /* \"--CODEGEN--\":10528:10529   */\n      dup1\n        /* \"--CODEGEN--\":10521:10533   */\n      revert\n        /* \"--CODEGEN--\":10464:10466   */\n    tag_205:\n        /* \"--CODEGEN--\":10458:10540   */\n      pop\n      jump\n        /* \"--CODEGEN--\":10547:10664   */\n    tag_80:\n        /* \"--CODEGEN--\":10616:10640   */\n      tag_207\n        /* \"--CODEGEN--\":10634:10639   */\n      dup2\n        /* \"--CODEGEN--\":10616:10640   */\n      jump(tag_161)\n    tag_207:\n        /* \"--CODEGEN--\":10609:10614   */\n      dup2\n        /* \"--CODEGEN--\":10606:10641   */\n      eq\n        /* \"--CODEGEN--\":10596:10598   */\n      tag_208\n      jumpi\n        /* \"--CODEGEN--\":10655:10656   */\n      0x00\n        /* \"--CODEGEN--\":10652:10653   */\n      dup1\n        /* \"--CODEGEN--\":10645:10657   */\n      revert\n        /* \"--CODEGEN--\":10596:10598   */\n    tag_208:\n        /* \"--CODEGEN--\":10590:10664   */\n      pop\n      jump\n\n    auxdata: 0xa2646970667358221220f397f0271d2252cd42946847142eb6e27538ae45419655bb485bd1c509670cb364736f6c63430006000033\n}\n",
				"bytecode": {
					"linkReferences": {},
					"object": "60806040523480156200001157600080fd5b5060405162000ea038038062000ea08339818101604052620000379190810190620001ef565b81600090805190602001906200004f9291906200005f565b5080600181905550505062000312565b828054828255906000526020600020908101928215620000db579160200282015b82811115620000da5782518260006101000a81548173ffffffffffffffffffffffffffffffffffffffff021916908373ffffffffffffffffffffffffffffffffffffffff1602179055509160200191906001019062000080565b5b509050620000ea9190620000ee565b5090565b6200013191905b808211156200012d57600081816101000a81549073ffffffffffffffffffffffffffffffffffffffff021916905550600101620000f5565b5090565b90565b6000815190506200014581620002de565b92915050565b600082601f8301126200015d57600080fd5b8151620001746200016e8262000277565b62000249565b915081818352602084019350602081019050838560208402820111156200019a57600080fd5b60005b83811015620001ce5781620001b3888262000134565b8452602084019350602083019250506001810190506200019d565b5050505092915050565b600081519050620001e981620002f8565b92915050565b600080604083850312156200020357600080fd5b600083015167ffffffffffffffff8111156200021e57600080fd5b6200022c858286016200014b565b92505060206200023f85828601620001d8565b9150509250929050565b6000604051905081810181811067ffffffffffffffff821117156200026d57600080fd5b8060405250919050565b600067ffffffffffffffff8211156200028f57600080fd5b602082029050602081019050919050565b6000620002ad82620002b4565b9050919050565b600073ffffffffffffffffffffffffffffffffffffffff82169050919050565b6000819050919050565b620002e981620002a0565b8114620002f557600080fd5b50565b6200030381620002d4565b81146200030f57600080fd5b50565b610b7e80620003226000396000f3fe608060405234801561001057600080fd5b50600436106100885760003560e01c80639377d7111161005b5780639377d71114610103578063cacca4a014610137578063d3650fb814610153578063ffabc6731461018357610088565b80631703a0181461008d5780632f65142c146100ab5780634c12fa47146100c95780636cb3e8ef146100e5575b600080fd5b6100956101b3565b6040516100a291906109b8565b60405180910390f35b6100b36101b9565b6040516100c0919061095b565b60405180910390f35b6100e360048036036100de91908101906106fc565b6102a7565b005b6100ed6103a3565b6040516100fa9190610939565b60405180910390f35b61011d600480360361011891908101906106d3565b610431565b60405161012e9594939291906109d3565b60405180910390f35b610151600480360361014c91908101906106d3565b6104a1565b005b61016d600480360361016891908101906106d3565b6105ed565b60405161017a919061091e565b60405180910390f35b61019d60048036036101989190810190610697565b610629565b6040516101aa919061097d565b60405180910390f35b60015481565b60606002805480602002602001604051908101604052809291908181526020016000905b8282101561029e57838290600052602060002090600502016040518060a001604052908160008201548152602001600182015481526020016002820160009054906101000a900473ffffffffffffffffffffffffffffffffffffffff1673ffffffffffffffffffffffffffffffffffffffff1673ffffffffffffffffffffffffffffffffffffffff168152602001600382015481526020016004820160009054906101000a900460ff161515151581525050815260200190600101906101dd565b50505050905090565b60026040518060a0016040528060028054905081526020018481526020018373ffffffffffffffffffffffffffffffffffffffff16815260200160008152602001600015158152509080600181540180825580915050600190039060005260206000209060050201600090919091909150600082015181600001556020820151816001015560408201518160020160006101000a81548173ffffffffffffffffffffffffffffffffffffffff021916908373ffffffffffffffffffffffffffffffffffffffff1602179055506060820151816003015560808201518160040160006101000a81548160ff02191690831515021790555050505050565b6060600080548060200260200160405190810160405280929190818152602001828054801561042757602002820191906000526020600020905b8160009054906101000a900473ffffffffffffffffffffffffffffffffffffffff1673ffffffffffffffffffffffffffffffffffffffff16815260200190600101908083116103dd575b5050505050905090565b6002818154811061043e57fe5b90600052602060002090600502016000915090508060000154908060010154908060020160009054906101000a900473ffffffffffffffffffffffffffffffffffffffff16908060030154908060040160009054906101000a900460ff16905085565b60001515600282815481106104b257fe5b906000526020600020906005020160040160009054906101000a900460ff16151514610513576040517f08c379a000000000000000000000000000000000000000000000000000000000815260040161050a90610998565b60405180910390fd5b60001515600360003373ffffffffffffffffffffffffffffffffffffffff1673ffffffffffffffffffffffffffffffffffffffff168152602001908152602001600020600083815260200190815260200160002060009054906101000a900460ff1615151461058157600080fd5b6001600360003373ffffffffffffffffffffffffffffffffffffffff1673ffffffffffffffffffffffffffffffffffffffff168152602001908152602001600020600083815260200190815260200160002060006101000a81548160ff02191690831515021790555050565b600081815481106105fa57fe5b906000526020600020016000915054906101000a900473ffffffffffffffffffffffffffffffffffffffff1681565b60036020528160005260406000206020528060005260406000206000915091509054906101000a900460ff1681565b60008135905061066781610b03565b92915050565b60008135905061067c81610b1a565b92915050565b60008135905061069181610b31565b92915050565b600080604083850312156106aa57600080fd5b60006106b885828601610658565b92505060206106c985828601610682565b9150509250929050565b6000602082840312156106e557600080fd5b60006106f384828501610682565b91505092915050565b6000806040838503121561070f57600080fd5b600061071d85828601610682565b925050602061072e8582860161066d565b9150509250929050565b60006107448383610786565b60208301905092915050565b600061075c8383610898565b60a08301905092915050565b61077181610abb565b82525050565b61078081610abb565b82525050565b61078f81610aa9565b82525050565b61079e81610aa9565b82525050565b60006107af82610a46565b6107b98185610a76565b93506107c483610a26565b8060005b838110156107f55781516107dc8882610738565b97506107e783610a5c565b9250506001810190506107c8565b5085935050505092915050565b600061080d82610a51565b6108178185610a87565b935061082283610a36565b8060005b8381101561085357815161083a8882610750565b975061084583610a69565b925050600181019050610826565b5085935050505092915050565b61086981610acd565b82525050565b61087881610acd565b82525050565b600061088b600083610a98565b9150600082019050919050565b60a0820160008201516108ae6000850182610900565b5060208201516108c16020850182610900565b5060408201516108d46040850182610768565b5060608201516108e76060850182610900565b5060808201516108fa6080850182610860565b50505050565b61090981610af9565b82525050565b61091881610af9565b82525050565b60006020820190506109336000830184610795565b92915050565b6000602082019050818103600083015261095381846107a4565b905092915050565b600060208201905081810360008301526109758184610802565b905092915050565b6000602082019050610992600083018461086f565b92915050565b600060208201905081810360008301526109b18161087e565b9050919050565b60006020820190506109cd600083018461090f565b92915050565b600060a0820190506109e8600083018861090f565b6109f5602083018761090f565b610a026040830186610777565b610a0f606083018561090f565b610a1c608083018461086f565b9695505050505050565b6000819050602082019050919050565b6000819050602082019050919050565b600081519050919050565b600081519050919050565b6000602082019050919050565b6000602082019050919050565b600082825260208201905092915050565b600082825260208201905092915050565b600082825260208201905092915050565b6000610ab482610ad9565b9050919050565b6000610ac682610ad9565b9050919050565b60008115159050919050565b600073ffffffffffffffffffffffffffffffffffffffff82169050919050565b6000819050919050565b610b0c81610aa9565b8114610b1757600080fd5b50565b610b2381610abb565b8114610b2e57600080fd5b50565b610b3a81610af9565b8114610b4557600080fd5b5056fea2646970667358221220f397f0271d2252cd42946847142eb6e27538ae45419655bb485bd1c509670cb364736f6c63430006000033",
					"opcodes": "PUSH1 0x80 PUSH1 0x40 MSTORE CALLVALUE DUP1 ISZERO PUSH3 0x11 JUMPI PUSH1 0x0 DUP1 REVERT JUMPDEST POP PUSH1 0x40 MLOAD PUSH3 0xEA0 CODESIZE SUB DUP1 PUSH3 0xEA0 DUP4 CODECOPY DUP2 DUP2 ADD PUSH1 0x40 MSTORE PUSH3 0x37 SWAP2 SWAP1 DUP2 ADD SWAP1 PUSH3 0x1EF JUMP JUMPDEST DUP2 PUSH1 0x0 SWAP1 DUP1 MLOAD SWAP1 PUSH1 0x20 ADD SWAP1 PUSH3 0x4F SWAP3 SWAP2 SWAP1 PUSH3 0x5F JUMP JUMPDEST POP DUP1 PUSH1 0x1 DUP2 SWAP1 SSTORE POP POP POP PUSH3 0x312 JUMP JUMPDEST DUP3 DUP1 SLOAD DUP3 DUP3 SSTORE SWAP1 PUSH1 0x0 MSTORE PUSH1 0x20 PUSH1 0x0 KECCAK256 SWAP1 DUP2 ADD SWAP3 DUP3 ISZERO PUSH3 0xDB JUMPI SWAP2 PUSH1 0x20 MUL DUP3 ADD JUMPDEST DUP3 DUP2 GT ISZERO PUSH3 0xDA JUMPI DUP3 MLOAD DUP3 PUSH1 0x0 PUSH2 0x100 EXP DUP2 SLOAD DUP2 PUSH20 0xFFFFFFFFFFFFFFFFFFFFFFFFFFFFFFFFFFFFFFFF MUL NOT AND SWAP1 DUP4 PUSH20 0xFFFFFFFFFFFFFFFFFFFFFFFFFFFFFFFFFFFFFFFF AND MUL OR SWAP1 SSTORE POP SWAP2 PUSH1 0x20 ADD SWAP2 SWAP1 PUSH1 0x1 ADD SWAP1 PUSH3 0x80 JUMP JUMPDEST JUMPDEST POP SWAP1 POP PUSH3 0xEA SWAP2 SWAP1 PUSH3 0xEE JUMP JUMPDEST POP SWAP1 JUMP JUMPDEST PUSH3 0x131 SWAP2 SWAP1 JUMPDEST DUP1 DUP3 GT ISZERO PUSH3 0x12D JUMPI PUSH1 0x0 DUP2 DUP2 PUSH2 0x100 EXP DUP2 SLOAD SWAP1 PUSH20 0xFFFFFFFFFFFFFFFFFFFFFFFFFFFFFFFFFFFFFFFF MUL NOT AND SWAP1 SSTORE POP PUSH1 0x1 ADD PUSH3 0xF5 JUMP JUMPDEST POP SWAP1 JUMP JUMPDEST SWAP1 JUMP JUMPDEST PUSH1 0x0 DUP2 MLOAD SWAP1 POP PUSH3 0x145 DUP2 PUSH3 0x2DE JUMP JUMPDEST SWAP3 SWAP2 POP POP JUMP JUMPDEST PUSH1 0x0 DUP3 PUSH1 0x1F DUP4 ADD SLT PUSH3 0x15D JUMPI PUSH1 0x0 DUP1 REVERT JUMPDEST DUP2 MLOAD PUSH3 0x174 PUSH3 0x16E DUP3 PUSH3 0x277 JUMP JUMPDEST PUSH3 0x249 JUMP JUMPDEST SWAP2 POP DUP2 DUP2 DUP4 MSTORE PUSH1 0x20 DUP5 ADD SWAP4 POP PUSH1 0x20 DUP2 ADD SWAP1 POP DUP4 DUP6 PUSH1 0x20 DUP5 MUL DUP3 ADD GT ISZERO PUSH3 0x19A JUMPI PUSH1 0x0 DUP1 REVERT JUMPDEST PUSH1 0x0 JUMPDEST DUP4 DUP2 LT ISZERO PUSH3 0x1CE JUMPI DUP2 PUSH3 0x1B3 DUP9 DUP3 PUSH3 0x134 JUMP JUMPDEST DUP5 MSTORE PUSH1 0x20 DUP5 ADD SWAP4 POP PUSH1 0x20 DUP4 ADD SWAP3 POP POP PUSH1 0x1 DUP2 ADD SWAP1 POP PUSH3 0x19D JUMP JUMPDEST POP POP POP POP SWAP3 SWAP2 POP POP JUMP JUMPDEST PUSH1 0x0 DUP2 MLOAD SWAP1 POP PUSH3 0x1E9 DUP2 PUSH3 0x2F8 JUMP JUMPDEST SWAP3 SWAP2 POP POP JUMP JUMPDEST PUSH1 0x0 DUP1 PUSH1 0x40 DUP4 DUP6 SUB SLT ISZERO PUSH3 0x203 JUMPI PUSH1 0x0 DUP1 REVERT JUMPDEST PUSH1 0x0 DUP4 ADD MLOAD PUSH8 0xFFFFFFFFFFFFFFFF DUP2 GT ISZERO PUSH3 0x21E JUMPI PUSH1 0x0 DUP1 REVERT JUMPDEST PUSH3 0x22C DUP6 DUP3 DUP7 ADD PUSH3 0x14B JUMP JUMPDEST SWAP3 POP POP PUSH1 0x20 PUSH3 0x23F DUP6 DUP3 DUP7 ADD PUSH3 0x1D8 JUMP JUMPDEST SWAP2 POP POP SWAP3 POP SWAP3 SWAP1 POP JUMP JUMPDEST PUSH1 0x0 PUSH1 0x40 MLOAD SWAP1 POP DUP2 DUP2 ADD DUP2 DUP2 LT PUSH8 0xFFFFFFFFFFFFFFFF DUP3 GT OR ISZERO PUSH3 0x26D JUMPI PUSH1 0x0 DUP1 REVERT JUMPDEST DUP1 PUSH1 0x40 MSTORE POP SWAP2 SWAP1 POP JUMP JUMPDEST PUSH1 0x0 PUSH8 0xFFFFFFFFFFFFFFFF DUP3 GT ISZERO PUSH3 0x28F JUMPI PUSH1 0x0 DUP1 REVERT JUMPDEST PUSH1 0x20 DUP3 MUL SWAP1 POP PUSH1 0x20 DUP2 ADD SWAP1 POP SWAP2 SWAP1 POP JUMP JUMPDEST PUSH1 0x0 PUSH3 0x2AD DUP3 PUSH3 0x2B4 JUMP JUMPDEST SWAP1 POP SWAP2 SWAP1 POP JUMP JUMPDEST PUSH1 0x0 PUSH20 0xFFFFFFFFFFFFFFFFFFFFFFFFFFFFFFFFFFFFFFFF DUP3 AND SWAP1 POP SWAP2 SWAP1 POP JUMP JUMPDEST PUSH1 0x0 DUP2 SWAP1 POP SWAP2 SWAP1 POP JUMP JUMPDEST PUSH3 0x2E9 DUP2 PUSH3 0x2A0 JUMP JUMPDEST DUP2 EQ PUSH3 0x2F5 JUMPI PUSH1 0x0 DUP1 REVERT JUMPDEST POP JUMP JUMPDEST PUSH3 0x303 DUP2 PUSH3 0x2D4 JUMP JUMPDEST DUP2 EQ PUSH3 0x30F JUMPI PUSH1 0x0 DUP1 REVERT JUMPDEST POP JUMP JUMPDEST PUSH2 0xB7E DUP1 PUSH3 0x322 PUSH1 0x0 CODECOPY PUSH1 0x0 RETURN INVALID PUSH1 0x80 PUSH1 0x40 MSTORE CALLVALUE DUP1 ISZERO PUSH2 0x10 JUMPI PUSH1 0x0 DUP1 REVERT JUMPDEST POP PUSH1 0x4 CALLDATASIZE LT PUSH2 0x88 JUMPI PUSH1 0x0 CALLDATALOAD PUSH1 0xE0 SHR DUP1 PUSH4 0x9377D711 GT PUSH2 0x5B JUMPI DUP1 PUSH4 0x9377D711 EQ PUSH2 0x103 JUMPI DUP1 PUSH4 0xCACCA4A0 EQ PUSH2 0x137 JUMPI DUP1 PUSH4 0xD3650FB8 EQ PUSH2 0x153 JUMPI DUP1 PUSH4 0xFFABC673 EQ PUSH2 0x183 JUMPI PUSH2 0x88 JUMP JUMPDEST DUP1 PUSH4 0x1703A018 EQ PUSH2 0x8D JUMPI DUP1 PUSH4 0x2F65142C EQ PUSH2 0xAB JUMPI DUP1 PUSH4 0x4C12FA47 EQ PUSH2 0xC9 JUMPI DUP1 PUSH4 0x6CB3E8EF EQ PUSH2 0xE5 JUMPI JUMPDEST PUSH1 0x0 DUP1 REVERT JUMPDEST PUSH2 0x95 PUSH2 0x1B3 JUMP JUMPDEST PUSH1 0x40 MLOAD PUSH2 0xA2 SWAP2 SWAP1 PUSH2 0x9B8 JUMP JUMPDEST PUSH1 0x40 MLOAD DUP1 SWAP2 SUB SWAP1 RETURN JUMPDEST PUSH2 0xB3 PUSH2 0x1B9 JUMP JUMPDEST PUSH1 0x40 MLOAD PUSH2 0xC0 SWAP2 SWAP1 PUSH2 0x95B JUMP JUMPDEST PUSH1 0x40 MLOAD DUP1 SWAP2 SUB SWAP1 RETURN JUMPDEST PUSH2 0xE3 PUSH1 0x4 DUP1 CALLDATASIZE SUB PUSH2 0xDE SWAP2 SWAP1 DUP2 ADD SWAP1 PUSH2 0x6FC JUMP JUMPDEST PUSH2 0x2A7 JUMP JUMPDEST STOP JUMPDEST PUSH2 0xED PUSH2 0x3A3 JUMP JUMPDEST PUSH1 0x40 MLOAD PUSH2 0xFA SWAP2 SWAP1 PUSH2 0x939 JUMP JUMPDEST PUSH1 0x40 MLOAD DUP1 SWAP2 SUB SWAP1 RETURN JUMPDEST PUSH2 0x11D PUSH1 0x4 DUP1 CALLDATASIZE SUB PUSH2 0x118 SWAP2 SWAP1 DUP2 ADD SWAP1 PUSH2 0x6D3 JUMP JUMPDEST PUSH2 0x431 JUMP JUMPDEST PUSH1 0x40 MLOAD PUSH2 0x12E SWAP6 SWAP5 SWAP4 SWAP3 SWAP2 SWAP1 PUSH2 0x9D3 JUMP JUMPDEST PUSH1 0x40 MLOAD DUP1 SWAP2 SUB SWAP1 RETURN JUMPDEST PUSH2 0x151 PUSH1 0x4 DUP1 CALLDATASIZE SUB PUSH2 0x14C SWAP2 SWAP1 DUP2 ADD SWAP1 PUSH2 0x6D3 JUMP JUMPDEST PUSH2 0x4A1 JUMP JUMPDEST STOP JUMPDEST PUSH2 0x16D PUSH1 0x4 DUP1 CALLDATASIZE SUB PUSH2 0x168 SWAP2 SWAP1 DUP2 ADD SWAP1 PUSH2 0x6D3 JUMP JUMPDEST PUSH2 0x5ED JUMP JUMPDEST PUSH1 0x40 MLOAD PUSH2 0x17A SWAP2 SWAP1 PUSH2 0x91E JUMP JUMPDEST PUSH1 0x40 MLOAD DUP1 SWAP2 SUB SWAP1 RETURN JUMPDEST PUSH2 0x19D PUSH1 0x4 DUP1 CALLDATASIZE SUB PUSH2 0x198 SWAP2 SWAP1 DUP2 ADD SWAP1 PUSH2 0x697 JUMP JUMPDEST PUSH2 0x629 JUMP JUMPDEST PUSH1 0x40 MLOAD PUSH2 0x1AA SWAP2 SWAP1 PUSH2 0x97D JUMP JUMPDEST PUSH1 0x40 MLOAD DUP1 SWAP2 SUB SWAP1 RETURN JUMPDEST PUSH1 0x1 SLOAD DUP2 JUMP JUMPDEST PUSH1 0x60 PUSH1 0x2 DUP1 SLOAD DUP1 PUSH1 0x20 MUL PUSH1 0x20 ADD PUSH1 0x40 MLOAD SWAP1 DUP2 ADD PUSH1 0x40 MSTORE DUP1 SWAP3 SWAP2 SWAP1 DUP2 DUP2 MSTORE PUSH1 0x20 ADD PUSH1 0x0 SWAP1 JUMPDEST DUP3 DUP3 LT ISZERO PUSH2 0x29E JUMPI DUP4 DUP3 SWAP1 PUSH1 0x0 MSTORE PUSH1 0x20 PUSH1 0x0 KECCAK256 SWAP1 PUSH1 0x5 MUL ADD PUSH1 0x40 MLOAD DUP1 PUSH1 0xA0 ADD PUSH1 0x40 MSTORE SWAP1 DUP2 PUSH1 0x0 DUP3 ADD SLOAD DUP2 MSTORE PUSH1 0x20 ADD PUSH1 0x1 DUP3 ADD SLOAD DUP2 MSTORE PUSH1 0x20 ADD PUSH1 0x2 DUP3 ADD PUSH1 0x0 SWAP1 SLOAD SWAP1 PUSH2 0x100 EXP SWAP1 DIV PUSH20 0xFFFFFFFFFFFFFFFFFFFFFFFFFFFFFFFFFFFFFFFF AND PUSH20 0xFFFFFFFFFFFFFFFFFFFFFFFFFFFFFFFFFFFFFFFF AND PUSH20 0xFFFFFFFFFFFFFFFFFFFFFFFFFFFFFFFFFFFFFFFF AND DUP2 MSTORE PUSH1 0x20 ADD PUSH1 0x3 DUP3 ADD SLOAD DUP2 MSTORE PUSH1 0x20 ADD PUSH1 0x4 DUP3 ADD PUSH1 0x0 SWAP1 SLOAD SWAP1 PUSH2 0x100 EXP SWAP1 DIV PUSH1 0xFF AND ISZERO ISZERO ISZERO ISZERO DUP2 MSTORE POP POP DUP2 MSTORE PUSH1 0x20 ADD SWAP1 PUSH1 0x1 ADD SWAP1 PUSH2 0x1DD JUMP JUMPDEST POP POP POP POP SWAP1 POP SWAP1 JUMP JUMPDEST PUSH1 0x2 PUSH1 0x40 MLOAD DUP1 PUSH1 0xA0 ADD PUSH1 0x40 MSTORE DUP1 PUSH1 0x2 DUP1 SLOAD SWAP1 POP DUP2 MSTORE PUSH1 0x20 ADD DUP5 DUP2 MSTORE PUSH1 0x20 ADD DUP4 PUSH20 0xFFFFFFFFFFFFFFFFFFFFFFFFFFFFFFFFFFFFFFFF AND DUP2 MSTORE PUSH1 0x20 ADD PUSH1 0x0 DUP2 MSTORE PUSH1 0x20 ADD PUSH1 0x0 ISZERO ISZERO DUP2 MSTORE POP SWAP1 DUP1 PUSH1 0x1 DUP2 SLOAD ADD DUP1 DUP3 SSTORE DUP1 SWAP2 POP POP PUSH1 0x1 SWAP1 SUB SWAP1 PUSH1 0x0 MSTORE PUSH1 0x20 PUSH1 0x0 KECCAK256 SWAP1 PUSH1 0x5 MUL ADD PUSH1 0x0 SWAP1 SWAP2 SWAP1 SWAP2 SWAP1 SWAP2 POP PUSH1 0x0 DUP3 ADD MLOAD DUP2 PUSH1 0x0 ADD SSTORE PUSH1 0x20 DUP3 ADD MLOAD DUP2 PUSH1 0x1 ADD SSTORE PUSH1 0x40 DUP3 ADD MLOAD DUP2 PUSH1 0x2 ADD PUSH1 0x0 PUSH2 0x100 EXP DUP2 SLOAD DUP2 PUSH20 0xFFFFFFFFFFFFFFFFFFFFFFFFFFFFFFFFFFFFFFFF MUL NOT AND SWAP1 DUP4 PUSH20 0xFFFFFFFFFFFFFFFFFFFFFFFFFFFFFFFFFFFFFFFF AND MUL OR SWAP1 SSTORE POP PUSH1 0x60 DUP3 ADD MLOAD DUP2 PUSH1 0x3 ADD SSTORE PUSH1 0x80 DUP3 ADD MLOAD DUP2 PUSH1 0x4 ADD PUSH1 0x0 PUSH2 0x100 EXP DUP2 SLOAD DUP2 PUSH1 0xFF MUL NOT AND SWAP1 DUP4 ISZERO ISZERO MUL OR SWAP1 SSTORE POP POP POP POP POP JUMP JUMPDEST PUSH1 0x60 PUSH1 0x0 DUP1 SLOAD DUP1 PUSH1 0x20 MUL PUSH1 0x20 ADD PUSH1 0x40 MLOAD SWAP1 DUP2 ADD PUSH1 0x40 MSTORE DUP1 SWAP3 SWAP2 SWAP1 DUP2 DUP2 MSTORE PUSH1 0x20 ADD DUP3 DUP1 SLOAD DUP1 ISZERO PUSH2 0x427 JUMPI PUSH1 0x20 MUL DUP3 ADD SWAP2 SWAP1 PUSH1 0x0 MSTORE PUSH1 0x20 PUSH1 0x0 KECCAK256 SWAP1 JUMPDEST DUP2 PUSH1 0x0 SWAP1 SLOAD SWAP1 PUSH2 0x100 EXP SWAP1 DIV PUSH20 0xFFFFFFFFFFFFFFFFFFFFFFFFFFFFFFFFFFFFFFFF AND PUSH20 0xFFFFFFFFFFFFFFFFFFFFFFFFFFFFFFFFFFFFFFFF AND DUP2 MSTORE PUSH1 0x20 ADD SWAP1 PUSH1 0x1 ADD SWAP1 DUP1 DUP4 GT PUSH2 0x3DD JUMPI JUMPDEST POP POP POP POP POP SWAP1 POP SWAP1 JUMP JUMPDEST PUSH1 0x2 DUP2 DUP2 SLOAD DUP2 LT PUSH2 0x43E JUMPI INVALID JUMPDEST SWAP1 PUSH1 0x0 MSTORE PUSH1 0x20 PUSH1 0x0 KECCAK256 SWAP1 PUSH1 0x5 MUL ADD PUSH1 0x0 SWAP2 POP SWAP1 POP DUP1 PUSH1 0x0 ADD SLOAD SWAP1 DUP1 PUSH1 0x1 ADD SLOAD SWAP1 DUP1 PUSH1 0x2 ADD PUSH1 0x0 SWAP1 SLOAD SWAP1 PUSH2 0x100 EXP SWAP1 DIV PUSH20 0xFFFFFFFFFFFFFFFFFFFFFFFFFFFFFFFFFFFFFFFF AND SWAP1 DUP1 PUSH1 0x3 ADD SLOAD SWAP1 DUP1 PUSH1 0x4 ADD PUSH1 0x0 SWAP1 SLOAD SWAP1 PUSH2 0x100 EXP SWAP1 DIV PUSH1 0xFF AND SWAP1 POP DUP6 JUMP JUMPDEST PUSH1 0x0 ISZERO ISZERO PUSH1 0x2 DUP3 DUP2 SLOAD DUP2 LT PUSH2 0x4B2 JUMPI INVALID JUMPDEST SWAP1 PUSH1 0x0 MSTORE PUSH1 0x20 PUSH1 0x0 KECCAK256 SWAP1 PUSH1 0x5 MUL ADD PUSH1 0x4 ADD PUSH1 0x0 SWAP1 SLOAD SWAP1 PUSH2 0x100 EXP SWAP1 DIV PUSH1 0xFF AND ISZERO ISZERO EQ PUSH2 0x513 JUMPI PUSH1 0x40 MLOAD PUSH32 0x8C379A000000000000000000000000000000000000000000000000000000000 DUP2 MSTORE PUSH1 0x4 ADD PUSH2 0x50A SWAP1 PUSH2 0x998 JUMP JUMPDEST PUSH1 0x40 MLOAD DUP1 SWAP2 SUB SWAP1 REVERT JUMPDEST PUSH1 0x0 ISZERO ISZERO PUSH1 0x3 PUSH1 0x0 CALLER PUSH20 0xFFFFFFFFFFFFFFFFFFFFFFFFFFFFFFFFFFFFFFFF AND PUSH20 0xFFFFFFFFFFFFFFFFFFFFFFFFFFFFFFFFFFFFFFFF AND DUP2 MSTORE PUSH1 0x20 ADD SWAP1 DUP2 MSTORE PUSH1 0x20 ADD PUSH1 0x0 KECCAK256 PUSH1 0x0 DUP4 DUP2 MSTORE PUSH1 0x20 ADD SWAP1 DUP2 MSTORE PUSH1 0x20 ADD PUSH1 0x0 KECCAK256 PUSH1 0x0 SWAP1 SLOAD SWAP1 PUSH2 0x100 EXP SWAP1 DIV PUSH1 0xFF AND ISZERO ISZERO EQ PUSH2 0x581 JUMPI PUSH1 0x0 DUP1 REVERT JUMPDEST PUSH1 0x1 PUSH1 0x3 PUSH1 0x0 CALLER PUSH20 0xFFFFFFFFFFFFFFFFFFFFFFFFFFFFFFFFFFFFFFFF AND PUSH20 0xFFFFFFFFFFFFFFFFFFFFFFFFFFFFFFFFFFFFFFFF AND DUP2 MSTORE PUSH1 0x20 ADD SWAP1 DUP2 MSTORE PUSH1 0x20 ADD PUSH1 0x0 KECCAK256 PUSH1 0x0 DUP4 DUP2 MSTORE PUSH1 0x20 ADD SWAP1 DUP2 MSTORE PUSH1 0x20 ADD PUSH1 0x0 KECCAK256 PUSH1 0x0 PUSH2 0x100 EXP DUP2 SLOAD DUP2 PUSH1 0xFF MUL NOT AND SWAP1 DUP4 ISZERO ISZERO MUL OR SWAP1 SSTORE POP POP JUMP JUMPDEST PUSH1 0x0 DUP2 DUP2 SLOAD DUP2 LT PUSH2 0x5FA JUMPI INVALID JUMPDEST SWAP1 PUSH1 0x0 MSTORE PUSH1 0x20 PUSH1 0x0 KECCAK256 ADD PUSH1 0x0 SWAP2 POP SLOAD SWAP1 PUSH2 0x100 EXP SWAP1 DIV PUSH20 0xFFFFFFFFFFFFFFFFFFFFFFFFFFFFFFFFFFFFFFFF AND DUP2 JUMP JUMPDEST PUSH1 0x3 PUSH1 0x20 MSTORE DUP2 PUSH1 0x0 MSTORE PUSH1 0x40 PUSH1 0x0 KECCAK256 PUSH1 0x20 MSTORE DUP1 PUSH1 0x0 MSTORE PUSH1 0x40 PUSH1 0x0 KECCAK256 PUSH1 0x0 SWAP2 POP SWAP2 POP SWAP1 SLOAD SWAP1 PUSH2 0x100 EXP SWAP1 DIV PUSH1 0xFF AND DUP2 JUMP JUMPDEST PUSH1 0x0 DUP2 CALLDATALOAD SWAP1 POP PUSH2 0x667 DUP2 PUSH2 0xB03 JUMP JUMPDEST SWAP3 SWAP2 POP POP JUMP JUMPDEST PUSH1 0x0 DUP2 CALLDATALOAD SWAP1 POP PUSH2 0x67C DUP2 PUSH2 0xB1A JUMP JUMPDEST SWAP3 SWAP2 POP POP JUMP JUMPDEST PUSH1 0x0 DUP2 CALLDATALOAD SWAP1 POP PUSH2 0x691 DUP2 PUSH2 0xB31 JUMP JUMPDEST SWAP3 SWAP2 POP POP JUMP JUMPDEST PUSH1 0x0 DUP1 PUSH1 0x40 DUP4 DUP6 SUB SLT ISZERO PUSH2 0x6AA JUMPI PUSH1 0x0 DUP1 REVERT JUMPDEST PUSH1 0x0 PUSH2 0x6B8 DUP6 DUP3 DUP7 ADD PUSH2 0x658 JUMP JUMPDEST SWAP3 POP POP PUSH1 0x20 PUSH2 0x6C9 DUP6 DUP3 DUP7 ADD PUSH2 0x682 JUMP JUMPDEST SWAP2 POP POP SWAP3 POP SWAP3 SWAP1 POP JUMP JUMPDEST PUSH1 0x0 PUSH1 0x20 DUP3 DUP5 SUB SLT ISZERO PUSH2 0x6E5 JUMPI PUSH1 0x0 DUP1 REVERT JUMPDEST PUSH1 0x0 PUSH2 0x6F3 DUP5 DUP3 DUP6 ADD PUSH2 0x682 JUMP JUMPDEST SWAP2 POP POP SWAP3 SWAP2 POP POP JUMP JUMPDEST PUSH1 0x0 DUP1 PUSH1 0x40 DUP4 DUP6 SUB SLT ISZERO PUSH2 0x70F JUMPI PUSH1 0x0 DUP1 REVERT JUMPDEST PUSH1 0x0 PUSH2 0x71D DUP6 DUP3 DUP7 ADD PUSH2 0x682 JUMP JUMPDEST SWAP3 POP POP PUSH1 0x20 PUSH2 0x72E DUP6 DUP3 DUP7 ADD PUSH2 0x66D JUMP JUMPDEST SWAP2 POP POP SWAP3 POP SWAP3 SWAP1 POP JUMP JUMPDEST PUSH1 0x0 PUSH2 0x744 DUP4 DUP4 PUSH2 0x786 JUMP JUMPDEST PUSH1 0x20 DUP4 ADD SWAP1 POP SWAP3 SWAP2 POP POP JUMP JUMPDEST PUSH1 0x0 PUSH2 0x75C DUP4 DUP4 PUSH2 0x898 JUMP JUMPDEST PUSH1 0xA0 DUP4 ADD SWAP1 POP SWAP3 SWAP2 POP POP JUMP JUMPDEST PUSH2 0x771 DUP2 PUSH2 0xABB JUMP JUMPDEST DUP3 MSTORE POP POP JUMP JUMPDEST PUSH2 0x780 DUP2 PUSH2 0xABB JUMP JUMPDEST DUP3 MSTORE POP POP JUMP JUMPDEST PUSH2 0x78F DUP2 PUSH2 0xAA9 JUMP JUMPDEST DUP3 MSTORE POP POP JUMP JUMPDEST PUSH2 0x79E DUP2 PUSH2 0xAA9 JUMP JUMPDEST DUP3 MSTORE POP POP JUMP JUMPDEST PUSH1 0x0 PUSH2 0x7AF DUP3 PUSH2 0xA46 JUMP JUMPDEST PUSH2 0x7B9 DUP2 DUP6 PUSH2 0xA76 JUMP JUMPDEST SWAP4 POP PUSH2 0x7C4 DUP4 PUSH2 0xA26 JUMP JUMPDEST DUP1 PUSH1 0x0 JUMPDEST DUP4 DUP2 LT ISZERO PUSH2 0x7F5 JUMPI DUP2 MLOAD PUSH2 0x7DC DUP9 DUP3 PUSH2 0x738 JUMP JUMPDEST SWAP8 POP PUSH2 0x7E7 DUP4 PUSH2 0xA5C JUMP JUMPDEST SWAP3 POP POP PUSH1 0x1 DUP2 ADD SWAP1 POP PUSH2 0x7C8 JUMP JUMPDEST POP DUP6 SWAP4 POP POP POP POP SWAP3 SWAP2 POP POP JUMP JUMPDEST PUSH1 0x0 PUSH2 0x80D DUP3 PUSH2 0xA51 JUMP JUMPDEST PUSH2 0x817 DUP2 DUP6 PUSH2 0xA87 JUMP JUMPDEST SWAP4 POP PUSH2 0x822 DUP4 PUSH2 0xA36 JUMP JUMPDEST DUP1 PUSH1 0x0 JUMPDEST DUP4 DUP2 LT ISZERO PUSH2 0x853 JUMPI DUP2 MLOAD PUSH2 0x83A DUP9 DUP3 PUSH2 0x750 JUMP JUMPDEST SWAP8 POP PUSH2 0x845 DUP4 PUSH2 0xA69 JUMP JUMPDEST SWAP3 POP POP PUSH1 0x1 DUP2 ADD SWAP1 POP PUSH2 0x826 JUMP JUMPDEST POP DUP6 SWAP4 POP POP POP POP SWAP3 SWAP2 POP POP JUMP JUMPDEST PUSH2 0x869 DUP2 PUSH2 0xACD JUMP JUMPDEST DUP3 MSTORE POP POP JUMP JUMPDEST PUSH2 0x878 DUP2 PUSH2 0xACD JUMP JUMPDEST DUP3 MSTORE POP POP JUMP JUMPDEST PUSH1 0x0 PUSH2 0x88B PUSH1 0x0 DUP4 PUSH2 0xA98 JUMP JUMPDEST SWAP2 POP PUSH1 0x0 DUP3 ADD SWAP1 POP SWAP2 SWAP1 POP JUMP JUMPDEST PUSH1 0xA0 DUP3 ADD PUSH1 0x0 DUP3 ADD MLOAD PUSH2 0x8AE PUSH1 0x0 DUP6 ADD DUP3 PUSH2 0x900 JUMP JUMPDEST POP PUSH1 0x20 DUP3 ADD MLOAD PUSH2 0x8C1 PUSH1 0x20 DUP6 ADD DUP3 PUSH2 0x900 JUMP JUMPDEST POP PUSH1 0x40 DUP3 ADD MLOAD PUSH2 0x8D4 PUSH1 0x40 DUP6 ADD DUP3 PUSH2 0x768 JUMP JUMPDEST POP PUSH1 0x60 DUP3 ADD MLOAD PUSH2 0x8E7 PUSH1 0x60 DUP6 ADD DUP3 PUSH2 0x900 JUMP JUMPDEST POP PUSH1 0x80 DUP3 ADD MLOAD PUSH2 0x8FA PUSH1 0x80 DUP6 ADD DUP3 PUSH2 0x860 JUMP JUMPDEST POP POP POP POP JUMP JUMPDEST PUSH2 0x909 DUP2 PUSH2 0xAF9 JUMP JUMPDEST DUP3 MSTORE POP POP JUMP JUMPDEST PUSH2 0x918 DUP2 PUSH2 0xAF9 JUMP JUMPDEST DUP3 MSTORE POP POP JUMP JUMPDEST PUSH1 0x0 PUSH1 0x20 DUP3 ADD SWAP1 POP PUSH2 0x933 PUSH1 0x0 DUP4 ADD DUP5 PUSH2 0x795 JUMP JUMPDEST SWAP3 SWAP2 POP POP JUMP JUMPDEST PUSH1 0x0 PUSH1 0x20 DUP3 ADD SWAP1 POP DUP2 DUP2 SUB PUSH1 0x0 DUP4 ADD MSTORE PUSH2 0x953 DUP2 DUP5 PUSH2 0x7A4 JUMP JUMPDEST SWAP1 POP SWAP3 SWAP2 POP POP JUMP JUMPDEST PUSH1 0x0 PUSH1 0x20 DUP3 ADD SWAP1 POP DUP2 DUP2 SUB PUSH1 0x0 DUP4 ADD MSTORE PUSH2 0x975 DUP2 DUP5 PUSH2 0x802 JUMP JUMPDEST SWAP1 POP SWAP3 SWAP2 POP POP JUMP JUMPDEST PUSH1 0x0 PUSH1 0x20 DUP3 ADD SWAP1 POP PUSH2 0x992 PUSH1 0x0 DUP4 ADD DUP5 PUSH2 0x86F JUMP JUMPDEST SWAP3 SWAP2 POP POP JUMP JUMPDEST PUSH1 0x0 PUSH1 0x20 DUP3 ADD SWAP1 POP DUP2 DUP2 SUB PUSH1 0x0 DUP4 ADD MSTORE PUSH2 0x9B1 DUP2 PUSH2 0x87E JUMP JUMPDEST SWAP1 POP SWAP2 SWAP1 POP JUMP JUMPDEST PUSH1 0x0 PUSH1 0x20 DUP3 ADD SWAP1 POP PUSH2 0x9CD PUSH1 0x0 DUP4 ADD DUP5 PUSH2 0x90F JUMP JUMPDEST SWAP3 SWAP2 POP POP JUMP JUMPDEST PUSH1 0x0 PUSH1 0xA0 DUP3 ADD SWAP1 POP PUSH2 0x9E8 PUSH1 0x0 DUP4 ADD DUP9 PUSH2 0x90F JUMP JUMPDEST PUSH2 0x9F5 PUSH1 0x20 DUP4 ADD DUP8 PUSH2 0x90F JUMP JUMPDEST PUSH2 0xA02 PUSH1 0x40 DUP4 ADD DUP7 PUSH2 0x777 JUMP JUMPDEST PUSH2 0xA0F PUSH1 0x60 DUP4 ADD DUP6 PUSH2 0x90F JUMP JUMPDEST PUSH2 0xA1C PUSH1 0x80 DUP4 ADD DUP5 PUSH2 0x86F JUMP JUMPDEST SWAP7 SWAP6 POP POP POP POP POP POP JUMP JUMPDEST PUSH1 0x0 DUP2 SWAP1 POP PUSH1 0x20 DUP3 ADD SWAP1 POP SWAP2 SWAP1 POP JUMP JUMPDEST PUSH1 0x0 DUP2 SWAP1 POP PUSH1 0x20 DUP3 ADD SWAP1 POP SWAP2 SWAP1 POP JUMP JUMPDEST PUSH1 0x0 DUP2 MLOAD SWAP1 POP SWAP2 SWAP1 POP JUMP JUMPDEST PUSH1 0x0 DUP2 MLOAD SWAP1 POP SWAP2 SWAP1 POP JUMP JUMPDEST PUSH1 0x0 PUSH1 0x20 DUP3 ADD SWAP1 POP SWAP2 SWAP1 POP JUMP JUMPDEST PUSH1 0x0 PUSH1 0x20 DUP3 ADD SWAP1 POP SWAP2 SWAP1 POP JUMP JUMPDEST PUSH1 0x0 DUP3 DUP3 MSTORE PUSH1 0x20 DUP3 ADD SWAP1 POP SWAP3 SWAP2 POP POP JUMP JUMPDEST PUSH1 0x0 DUP3 DUP3 MSTORE PUSH1 0x20 DUP3 ADD SWAP1 POP SWAP3 SWAP2 POP POP JUMP JUMPDEST PUSH1 0x0 DUP3 DUP3 MSTORE PUSH1 0x20 DUP3 ADD SWAP1 POP SWAP3 SWAP2 POP POP JUMP JUMPDEST PUSH1 0x0 PUSH2 0xAB4 DUP3 PUSH2 0xAD9 JUMP JUMPDEST SWAP1 POP SWAP2 SWAP1 POP JUMP JUMPDEST PUSH1 0x0 PUSH2 0xAC6 DUP3 PUSH2 0xAD9 JUMP JUMPDEST SWAP1 POP SWAP2 SWAP1 POP JUMP JUMPDEST PUSH1 0x0 DUP2 ISZERO ISZERO SWAP1 POP SWAP2 SWAP1 POP JUMP JUMPDEST PUSH1 0x0 PUSH20 0xFFFFFFFFFFFFFFFFFFFFFFFFFFFFFFFFFFFFFFFF DUP3 AND SWAP1 POP SWAP2 SWAP1 POP JUMP JUMPDEST PUSH1 0x0 DUP2 SWAP1 POP SWAP2 SWAP1 POP JUMP JUMPDEST PUSH2 0xB0C DUP2 PUSH2 0xAA9 JUMP JUMPDEST DUP2 EQ PUSH2 0xB17 JUMPI PUSH1 0x0 DUP1 REVERT JUMPDEST POP JUMP JUMPDEST PUSH2 0xB23 DUP2 PUSH2 0xABB JUMP JUMPDEST DUP2 EQ PUSH2 0xB2E JUMPI PUSH1 0x0 DUP1 REVERT JUMPDEST POP JUMP JUMPDEST PUSH2 0xB3A DUP2 PUSH2 0xAF9 JUMP JUMPDEST DUP2 EQ PUSH2 0xB45 JUMPI PUSH1 0x0 DUP1 REVERT JUMPDEST POP JUMP INVALID LOG2 PUSH5 0x6970667358 0x22 SLT KECCAK256 RETURN SWAP8 CREATE 0x27 SAR 0x22 MSTORE 0xCD TIMESTAMP SWAP5 PUSH9 0x47142EB6E27538AE45 COINBASE SWAP7 SSTORE 0xBB 0x48 JUMPDEST 0xD1 0xC5 MULMOD PUSH8 0xCB364736F6C6343 STOP MOD STOP STOP CALLER "
				},
				"gasEstimates": {
					"creation": {
						"codeDepositCost": "588400",
						"executionCost": "infinite",
						"totalCost": "infinite"
					},
					"external": {
						"approvals(address,uint256)": "1853",
						"approveTransfer(uint256)": "24268",
						"approvers(uint256)": "2400",
						"createTransfer(uint256,address)": "109368",
						"getApprovers()": "infinite",
						"getTransfers()": "infinite",
						"quorum()": "1130",
						"transfers(uint256)": "infinite"
					}
				},
				"methodIdentifiers": {
					"approvals(address,uint256)": "ffabc673",
					"approveTransfer(uint256)": "cacca4a0",
					"approvers(uint256)": "d3650fb8",
					"createTransfer(uint256,address)": "4c12fa47",
					"getApprovers()": "6cb3e8ef",
					"getTransfers()": "2f65142c",
					"quorum()": "1703a018",
					"transfers(uint256)": "9377d711"
				}
			},
			"userdoc": {
				"methods": {}
			}
		}
	}
}