{
	"blockchain_app/multisig_wallet/truffle_wallet/contracts/Wallet.sol": {
		"Wallet": {
			"abi": [
				{
					"inputs": [
						{
							"internalType": "address",
							"name": "",
							"type": "address"
						},
						{
							"internalType": "uint256",
							"name": "",
							"type": "uint256"
						}
					],
					"name": "approvals",
					"outputs": [
						{
							"internalType": "bool",
							"name": "",
							"type": "bool"
						}
					],
					"stateMutability": "view",
					"type": "function"
				},
				{
					"inputs": [
						{
							"internalType": "uint256",
							"name": "_id",
							"type": "uint256"
						}
					],
					"name": "approveTransfer",
					"outputs": [],
					"stateMutability": "nonpayable",
					"type": "function"
				},
				{
					"inputs": [
						{
							"internalType": "uint256",
							"name": "",
							"type": "uint256"
						}
					],
					"name": "approvers",
					"outputs": [
						{
							"internalType": "address",
							"name": "",
							"type": "address"
						}
					],
					"stateMutability": "view",
					"type": "function"
				},
				{
					"inputs": [
						{
							"internalType": "uint256",
							"name": "amount",
							"type": "uint256"
						},
						{
							"internalType": "address payable",
							"name": "to",
							"type": "address"
						}
					],
					"name": "createTransfer",
					"outputs": [],
					"stateMutability": "nonpayable",
					"type": "function"
				},
				{
					"inputs": [],
					"name": "quorum",
					"outputs": [
						{
							"internalType": "uint256",
							"name": "",
							"type": "uint256"
						}
					],
					"stateMutability": "view",
					"type": "function"
				},
				{
					"inputs": [
						{
							"internalType": "uint256",
							"name": "",
							"type": "uint256"
						}
					],
					"name": "transfers",
					"outputs": [
						{
							"internalType": "uint256",
							"name": "id",
							"type": "uint256"
						},
						{
							"internalType": "uint256",
							"name": "amount",
							"type": "uint256"
						},
						{
							"internalType": "address payable",
							"name": "to",
							"type": "address"
						},
						{
							"internalType": "uint256",
							"name": "approvals",
							"type": "uint256"
						},
						{
							"internalType": "bool",
							"name": "sent",
							"type": "bool"
						}
					],
					"stateMutability": "view",
					"type": "function"
				},
				{
					"stateMutability": "payable",
					"type": "receive"
				}
			],
			"devdoc": {
				"author": "phuquyng",
				"details": "todo",
				"methods": {
					"approveTransfer(uint256)": {
						"details": "approve a transfer \r"
					},
					"createTransfer(uint256,address)": {
						"details": "create a new transfer"
					}
				},
				"title": "Manage the multi signature wallet"
			},
			"evm": {
				"assembly": "    /* \"blockchain_app/multisig_wallet/truffle_wallet/contracts/Wallet.sol\":144:2514  contract Wallet {\r... */\n  mstore(0x40, 0x80)\n  callvalue\n    /* \"--CODEGEN--\":8:17   */\n  dup1\n    /* \"--CODEGEN--\":5:7   */\n  iszero\n  tag_1\n  jumpi\n    /* \"--CODEGEN--\":30:31   */\n  0x00\n    /* \"--CODEGEN--\":27:28   */\n  dup1\n    /* \"--CODEGEN--\":20:32   */\n  revert\n    /* \"--CODEGEN--\":5:7   */\ntag_1:\n    /* \"blockchain_app/multisig_wallet/truffle_wallet/contracts/Wallet.sol\":144:2514  contract Wallet {\r... */\n  pop\n  dataSize(sub_0)\n  dup1\n  dataOffset(sub_0)\n  0x00\n  codecopy\n  0x00\n  return\nstop\n\nsub_0: assembly {\n        /* \"blockchain_app/multisig_wallet/truffle_wallet/contracts/Wallet.sol\":144:2514  contract Wallet {\r... */\n      mstore(0x40, 0x80)\n      jumpi(tag_1, lt(calldatasize, 0x04))\n      shr(0xe0, calldataload(0x00))\n      dup1\n      0x1703a018\n      eq\n      tag_3\n      jumpi\n      dup1\n      0x4c12fa47\n      eq\n      tag_4\n      jumpi\n      dup1\n      0x9377d711\n      eq\n      tag_5\n      jumpi\n      dup1\n      0xcacca4a0\n      eq\n      tag_6\n      jumpi\n      dup1\n      0xd3650fb8\n      eq\n      tag_7\n      jumpi\n      dup1\n      0xffabc673\n      eq\n      tag_8\n      jumpi\n      jump(tag_2)\n    tag_1:\n      jumpi(tag_2, calldatasize)\n      stop\n    tag_2:\n      0x00\n      dup1\n      revert\n        /* \"blockchain_app/multisig_wallet/truffle_wallet/contracts/Wallet.sol\":300:318  uint public quorum */\n    tag_3:\n      callvalue\n        /* \"--CODEGEN--\":8:17   */\n      dup1\n        /* \"--CODEGEN--\":5:7   */\n      iszero\n      tag_11\n      jumpi\n        /* \"--CODEGEN--\":30:31   */\n      0x00\n        /* \"--CODEGEN--\":27:28   */\n      dup1\n        /* \"--CODEGEN--\":20:32   */\n      revert\n        /* \"--CODEGEN--\":5:7   */\n    tag_11:\n        /* \"blockchain_app/multisig_wallet/truffle_wallet/contracts/Wallet.sol\":300:318  uint public quorum */\n      pop\n      tag_12\n      tag_13\n      jump\t// in\n    tag_12:\n      mload(0x40)\n      tag_14\n      swap2\n      swap1\n      jump(tag_15)\n    tag_14:\n      mload(0x40)\n      dup1\n      swap2\n      sub\n      swap1\n      return\n        /* \"blockchain_app/multisig_wallet/truffle_wallet/contracts/Wallet.sol\":1480:1718  function createTransfer(uint amount, address payable to) external onlyApprover {\r... */\n    tag_4:\n      callvalue\n        /* \"--CODEGEN--\":8:17   */\n      dup1\n        /* \"--CODEGEN--\":5:7   */\n      iszero\n      tag_16\n      jumpi\n        /* \"--CODEGEN--\":30:31   */\n      0x00\n        /* \"--CODEGEN--\":27:28   */\n      dup1\n        /* \"--CODEGEN--\":20:32   */\n      revert\n        /* \"--CODEGEN--\":5:7   */\n    tag_16:\n        /* \"blockchain_app/multisig_wallet/truffle_wallet/contracts/Wallet.sol\":1480:1718  function createTransfer(uint amount, address payable to) external onlyApprover {\r... */\n      pop\n      tag_17\n      0x04\n      dup1\n      calldatasize\n      sub\n      tag_18\n      swap2\n      swap1\n      dup2\n      add\n      swap1\n      jump(tag_19)\n    tag_18:\n      tag_20\n      jump\t// in\n    tag_17:\n      stop\n        /* \"blockchain_app/multisig_wallet/truffle_wallet/contracts/Wallet.sol\":519:546  Transfer[] public transfers */\n    tag_5:\n      callvalue\n        /* \"--CODEGEN--\":8:17   */\n      dup1\n        /* \"--CODEGEN--\":5:7   */\n      iszero\n      tag_21\n      jumpi\n        /* \"--CODEGEN--\":30:31   */\n      0x00\n        /* \"--CODEGEN--\":27:28   */\n      dup1\n        /* \"--CODEGEN--\":20:32   */\n      revert\n        /* \"--CODEGEN--\":5:7   */\n    tag_21:\n        /* \"blockchain_app/multisig_wallet/truffle_wallet/contracts/Wallet.sol\":519:546  Transfer[] public transfers */\n      pop\n      tag_22\n      0x04\n      dup1\n      calldatasize\n      sub\n      tag_23\n      swap2\n      swap1\n      dup2\n      add\n      swap1\n      jump(tag_24)\n    tag_23:\n      tag_25\n      jump\t// in\n    tag_22:\n      mload(0x40)\n      tag_26\n      swap6\n      swap5\n      swap4\n      swap3\n      swap2\n      swap1\n      jump(tag_27)\n    tag_26:\n      mload(0x40)\n      dup1\n      swap2\n      sub\n      swap1\n      return\n        /* \"blockchain_app/multisig_wallet/truffle_wallet/contracts/Wallet.sol\":1784:2387  function approveTransfer(uint _id) external onlyApprover {\r... */\n    tag_6:\n      callvalue\n        /* \"--CODEGEN--\":8:17   */\n      dup1\n        /* \"--CODEGEN--\":5:7   */\n      iszero\n      tag_28\n      jumpi\n        /* \"--CODEGEN--\":30:31   */\n      0x00\n        /* \"--CODEGEN--\":27:28   */\n      dup1\n        /* \"--CODEGEN--\":20:32   */\n      revert\n        /* \"--CODEGEN--\":5:7   */\n    tag_28:\n        /* \"blockchain_app/multisig_wallet/truffle_wallet/contracts/Wallet.sol\":1784:2387  function approveTransfer(uint _id) external onlyApprover {\r... */\n      pop\n      tag_29\n      0x04\n      dup1\n      calldatasize\n      sub\n      tag_30\n      swap2\n      swap1\n      dup2\n      add\n      swap1\n      jump(tag_24)\n    tag_30:\n      tag_31\n      jump\t// in\n    tag_29:\n      stop\n        /* \"blockchain_app/multisig_wallet/truffle_wallet/contracts/Wallet.sol\":204:230  address[] public approvers */\n    tag_7:\n      callvalue\n        /* \"--CODEGEN--\":8:17   */\n      dup1\n        /* \"--CODEGEN--\":5:7   */\n      iszero\n      tag_32\n      jumpi\n        /* \"--CODEGEN--\":30:31   */\n      0x00\n        /* \"--CODEGEN--\":27:28   */\n      dup1\n        /* \"--CODEGEN--\":20:32   */\n      revert\n        /* \"--CODEGEN--\":5:7   */\n    tag_32:\n        /* \"blockchain_app/multisig_wallet/truffle_wallet/contracts/Wallet.sol\":204:230  address[] public approvers */\n      pop\n      tag_33\n      0x04\n      dup1\n      calldatasize\n      sub\n      tag_34\n      swap2\n      swap1\n      dup2\n      add\n      swap1\n      jump(tag_24)\n    tag_34:\n      tag_35\n      jump\t// in\n    tag_33:\n      mload(0x40)\n      tag_36\n      swap2\n      swap1\n      jump(tag_37)\n    tag_36:\n      mload(0x40)\n      dup1\n      swap2\n      sub\n      swap1\n      return\n        /* \"blockchain_app/multisig_wallet/truffle_wallet/contracts/Wallet.sol\":596:654  mapping(address => mapping(uint => bool)) public approvals */\n    tag_8:\n      callvalue\n        /* \"--CODEGEN--\":8:17   */\n      dup1\n        /* \"--CODEGEN--\":5:7   */\n      iszero\n      tag_38\n      jumpi\n        /* \"--CODEGEN--\":30:31   */\n      0x00\n        /* \"--CODEGEN--\":27:28   */\n      dup1\n        /* \"--CODEGEN--\":20:32   */\n      revert\n        /* \"--CODEGEN--\":5:7   */\n    tag_38:\n        /* \"blockchain_app/multisig_wallet/truffle_wallet/contracts/Wallet.sol\":596:654  mapping(address => mapping(uint => bool)) public approvals */\n      pop\n      tag_39\n      0x04\n      dup1\n      calldatasize\n      sub\n      tag_40\n      swap2\n      swap1\n      dup2\n      add\n      swap1\n      jump(tag_41)\n    tag_40:\n      tag_42\n      jump\t// in\n    tag_39:\n      mload(0x40)\n      tag_43\n      swap2\n      swap1\n      jump(tag_44)\n    tag_43:\n      mload(0x40)\n      dup1\n      swap2\n      sub\n      swap1\n      return\n        /* \"blockchain_app/multisig_wallet/truffle_wallet/contracts/Wallet.sol\":300:318  uint public quorum */\n    tag_13:\n      sload(0x01)\n      dup2\n      jump\t// out\n        /* \"blockchain_app/multisig_wallet/truffle_wallet/contracts/Wallet.sol\":1480:1718  function createTransfer(uint amount, address payable to) external onlyApprover {\r... */\n    tag_20:\n        /* \"blockchain_app/multisig_wallet/truffle_wallet/contracts/Wallet.sol\":751:766  bool isApprover */\n      0x00\n        /* \"blockchain_app/multisig_wallet/truffle_wallet/contracts/Wallet.sol\":769:774  false */\n      dup1\n        /* \"blockchain_app/multisig_wallet/truffle_wallet/contracts/Wallet.sol\":751:774  bool isApprover = false */\n      swap1\n      pop\n        /* \"blockchain_app/multisig_wallet/truffle_wallet/contracts/Wallet.sol\":790:796  uint i */\n      0x00\n        /* \"blockchain_app/multisig_wallet/truffle_wallet/contracts/Wallet.sol\":799:800  0 */\n      dup1\n        /* \"blockchain_app/multisig_wallet/truffle_wallet/contracts/Wallet.sol\":790:800  uint i = 0 */\n      swap1\n      pop\n        /* \"blockchain_app/multisig_wallet/truffle_wallet/contracts/Wallet.sol\":785:939  for (uint i = 0; i < approvers.length; i++) {\r... */\n    tag_46:\n        /* \"blockchain_app/multisig_wallet/truffle_wallet/contracts/Wallet.sol\":806:815  approvers */\n      0x00\n        /* \"blockchain_app/multisig_wallet/truffle_wallet/contracts/Wallet.sol\":806:822  approvers.length */\n      dup1\n      sload\n      swap1\n      pop\n        /* \"blockchain_app/multisig_wallet/truffle_wallet/contracts/Wallet.sol\":802:803  i */\n      dup2\n        /* \"blockchain_app/multisig_wallet/truffle_wallet/contracts/Wallet.sol\":802:822  i < approvers.length */\n      lt\n        /* \"blockchain_app/multisig_wallet/truffle_wallet/contracts/Wallet.sol\":785:939  for (uint i = 0; i < approvers.length; i++) {\r... */\n      iszero\n      tag_47\n      jumpi\n        /* \"blockchain_app/multisig_wallet/truffle_wallet/contracts/Wallet.sol\":862:871  approvers */\n      0x00\n        /* \"blockchain_app/multisig_wallet/truffle_wallet/contracts/Wallet.sol\":872:873  i */\n      dup2\n        /* \"blockchain_app/multisig_wallet/truffle_wallet/contracts/Wallet.sol\":862:874  approvers[i] */\n      dup2\n      sload\n      dup2\n      lt\n      tag_49\n      jumpi\n      invalid\n    tag_49:\n      swap1\n      0x00\n      mstore\n      keccak256(0x00, 0x20)\n      add\n      0x00\n      swap1\n      sload\n      swap1\n      0x0100\n      exp\n      swap1\n      div\n      0xffffffffffffffffffffffffffffffffffffffff\n      and\n        /* \"blockchain_app/multisig_wallet/truffle_wallet/contracts/Wallet.sol\":848:874  msg.sender == approvers[i] */\n      0xffffffffffffffffffffffffffffffffffffffff\n      and\n        /* \"blockchain_app/multisig_wallet/truffle_wallet/contracts/Wallet.sol\":848:858  msg.sender */\n      caller\n        /* \"blockchain_app/multisig_wallet/truffle_wallet/contracts/Wallet.sol\":848:874  msg.sender == approvers[i] */\n      0xffffffffffffffffffffffffffffffffffffffff\n      and\n      eq\n        /* \"blockchain_app/multisig_wallet/truffle_wallet/contracts/Wallet.sol\":844:928  if (msg.sender == approvers[i]) {\r... */\n      iszero\n      tag_51\n      jumpi\n        /* \"blockchain_app/multisig_wallet/truffle_wallet/contracts/Wallet.sol\":908:912  true */\n      0x01\n        /* \"blockchain_app/multisig_wallet/truffle_wallet/contracts/Wallet.sol\":895:912  isApprover = true */\n      swap2\n      pop\n        /* \"blockchain_app/multisig_wallet/truffle_wallet/contracts/Wallet.sol\":844:928  if (msg.sender == approvers[i]) {\r... */\n    tag_51:\n        /* \"blockchain_app/multisig_wallet/truffle_wallet/contracts/Wallet.sol\":824:827  i++ */\n      dup1\n      dup1\n      0x01\n      add\n      swap2\n      pop\n      pop\n        /* \"blockchain_app/multisig_wallet/truffle_wallet/contracts/Wallet.sol\":785:939  for (uint i = 0; i < approvers.length; i++) {\r... */\n      jump(tag_46)\n    tag_47:\n      pop\n        /* \"blockchain_app/multisig_wallet/truffle_wallet/contracts/Wallet.sol\":971:975  true */\n      0x01\n        /* \"blockchain_app/multisig_wallet/truffle_wallet/contracts/Wallet.sol\":957:975  isApprover == true */\n      iszero\n      iszero\n        /* \"blockchain_app/multisig_wallet/truffle_wallet/contracts/Wallet.sol\":957:967  isApprover */\n      dup2\n        /* \"blockchain_app/multisig_wallet/truffle_wallet/contracts/Wallet.sol\":957:975  isApprover == true */\n      iszero\n      iszero\n      eq\n        /* \"blockchain_app/multisig_wallet/truffle_wallet/contracts/Wallet.sol\":949:1002  require(isApprover == true, \"Only approver allowed.\") */\n      tag_52\n      jumpi\n      mload(0x40)\n      0x08c379a000000000000000000000000000000000000000000000000000000000\n      dup2\n      mstore\n      0x04\n      add\n      tag_53\n      swap1\n      jump(tag_54)\n    tag_53:\n      mload(0x40)\n      dup1\n      swap2\n      sub\n      swap1\n      revert\n    tag_52:\n        /* \"blockchain_app/multisig_wallet/truffle_wallet/contracts/Wallet.sol\":1570:1579  transfers */\n      0x02\n        /* \"blockchain_app/multisig_wallet/truffle_wallet/contracts/Wallet.sol\":1585:1709  Transfer(\r... */\n      mload(0x40)\n      dup1\n      0xa0\n      add\n      0x40\n      mstore\n      dup1\n        /* \"blockchain_app/multisig_wallet/truffle_wallet/contracts/Wallet.sol\":1608:1617  transfers */\n      0x02\n        /* \"blockchain_app/multisig_wallet/truffle_wallet/contracts/Wallet.sol\":1608:1624  transfers.length */\n      dup1\n      sload\n      swap1\n      pop\n        /* \"blockchain_app/multisig_wallet/truffle_wallet/contracts/Wallet.sol\":1585:1709  Transfer(\r... */\n      dup2\n      mstore\n      0x20\n      add\n        /* \"blockchain_app/multisig_wallet/truffle_wallet/contracts/Wallet.sol\":1639:1645  amount */\n      dup6\n        /* \"blockchain_app/multisig_wallet/truffle_wallet/contracts/Wallet.sol\":1585:1709  Transfer(\r... */\n      dup2\n      mstore\n      0x20\n      add\n        /* \"blockchain_app/multisig_wallet/truffle_wallet/contracts/Wallet.sol\":1660:1662  to */\n      dup5\n        /* \"blockchain_app/multisig_wallet/truffle_wallet/contracts/Wallet.sol\":1585:1709  Transfer(\r... */\n      0xffffffffffffffffffffffffffffffffffffffff\n      and\n      dup2\n      mstore\n      0x20\n      add\n        /* \"blockchain_app/multisig_wallet/truffle_wallet/contracts/Wallet.sol\":1677:1678  0 */\n      0x00\n        /* \"blockchain_app/multisig_wallet/truffle_wallet/contracts/Wallet.sol\":1585:1709  Transfer(\r... */\n      dup2\n      mstore\n      0x20\n      add\n        /* \"blockchain_app/multisig_wallet/truffle_wallet/contracts/Wallet.sol\":1693:1698  false */\n      0x00\n        /* \"blockchain_app/multisig_wallet/truffle_wallet/contracts/Wallet.sol\":1585:1709  Transfer(\r... */\n      iszero\n      iszero\n      dup2\n      mstore\n      pop\n        /* \"blockchain_app/multisig_wallet/truffle_wallet/contracts/Wallet.sol\":1570:1710  transfers.push(Transfer(\r... */\n      swap1\n      dup1\n        /* \"--CODEGEN--\":39:40   */\n      0x01\n        /* \"--CODEGEN--\":33:36   */\n      dup2\n        /* \"--CODEGEN--\":27:37   */\n      sload\n        /* \"--CODEGEN--\":23:41   */\n      add\n        /* \"--CODEGEN--\":57:67   */\n      dup1\n        /* \"--CODEGEN--\":52:55   */\n      dup3\n        /* \"--CODEGEN--\":45:68   */\n      sstore\n        /* \"--CODEGEN--\":79:89   */\n      dup1\n        /* \"--CODEGEN--\":72:89   */\n      swap2\n      pop\n        /* \"--CODEGEN--\":0:93   */\n      pop\n        /* \"blockchain_app/multisig_wallet/truffle_wallet/contracts/Wallet.sol\":1570:1710  transfers.push(Transfer(\r... */\n      0x01\n      swap1\n      sub\n      swap1\n      0x00\n      mstore\n      keccak256(0x00, 0x20)\n      swap1\n      0x05\n      mul\n      add\n      0x00\n      swap1\n      swap2\n      swap1\n      swap2\n      swap1\n      swap2\n      pop\n      0x00\n      dup3\n      add\n      mload\n      dup2\n      0x00\n      add\n      sstore\n      0x20\n      dup3\n      add\n      mload\n      dup2\n      0x01\n      add\n      sstore\n      0x40\n      dup3\n      add\n      mload\n      dup2\n      0x02\n      add\n      exp(0x0100, 0x00)\n      dup2\n      sload\n      dup2\n      0xffffffffffffffffffffffffffffffffffffffff\n      mul\n      not\n      and\n      swap1\n      dup4\n      0xffffffffffffffffffffffffffffffffffffffff\n      and\n      mul\n      or\n      swap1\n      sstore\n      pop\n      0x60\n      dup3\n      add\n      mload\n      dup2\n      0x03\n      add\n      sstore\n      0x80\n      dup3\n      add\n      mload\n      dup2\n      0x04\n      add\n      exp(0x0100, 0x00)\n      dup2\n      sload\n      dup2\n      0xff\n      mul\n      not\n      and\n      swap1\n      dup4\n      iszero\n      iszero\n      mul\n      or\n      swap1\n      sstore\n      pop\n      pop\n      pop\n        /* \"blockchain_app/multisig_wallet/truffle_wallet/contracts/Wallet.sol\":1480:1718  function createTransfer(uint amount, address payable to) external onlyApprover {\r... */\n      pop\n      pop\n      pop\n      jump\t// out\n        /* \"blockchain_app/multisig_wallet/truffle_wallet/contracts/Wallet.sol\":519:546  Transfer[] public transfers */\n    tag_25:\n      0x02\n      dup2\n      dup2\n      sload\n      dup2\n      lt\n      tag_57\n      jumpi\n      invalid\n    tag_57:\n      swap1\n      0x00\n      mstore\n      keccak256(0x00, 0x20)\n      swap1\n      0x05\n      mul\n      add\n      0x00\n      swap2\n      pop\n      swap1\n      pop\n      dup1\n      0x00\n      add\n      sload\n      swap1\n      dup1\n      0x01\n      add\n      sload\n      swap1\n      dup1\n      0x02\n      add\n      0x00\n      swap1\n      sload\n      swap1\n      0x0100\n      exp\n      swap1\n      div\n      0xffffffffffffffffffffffffffffffffffffffff\n      and\n      swap1\n      dup1\n      0x03\n      add\n      sload\n      swap1\n      dup1\n      0x04\n      add\n      0x00\n      swap1\n      sload\n      swap1\n      0x0100\n      exp\n      swap1\n      div\n      0xff\n      and\n      swap1\n      pop\n      dup6\n      jump\t// out\n        /* \"blockchain_app/multisig_wallet/truffle_wallet/contracts/Wallet.sol\":1784:2387  function approveTransfer(uint _id) external onlyApprover {\r... */\n    tag_31:\n        /* \"blockchain_app/multisig_wallet/truffle_wallet/contracts/Wallet.sol\":751:766  bool isApprover */\n      0x00\n        /* \"blockchain_app/multisig_wallet/truffle_wallet/contracts/Wallet.sol\":769:774  false */\n      dup1\n        /* \"blockchain_app/multisig_wallet/truffle_wallet/contracts/Wallet.sol\":751:774  bool isApprover = false */\n      swap1\n      pop\n        /* \"blockchain_app/multisig_wallet/truffle_wallet/contracts/Wallet.sol\":790:796  uint i */\n      0x00\n        /* \"blockchain_app/multisig_wallet/truffle_wallet/contracts/Wallet.sol\":799:800  0 */\n      dup1\n        /* \"blockchain_app/multisig_wallet/truffle_wallet/contracts/Wallet.sol\":790:800  uint i = 0 */\n      swap1\n      pop\n        /* \"blockchain_app/multisig_wallet/truffle_wallet/contracts/Wallet.sol\":785:939  for (uint i = 0; i < approvers.length; i++) {\r... */\n    tag_60:\n        /* \"blockchain_app/multisig_wallet/truffle_wallet/contracts/Wallet.sol\":806:815  approvers */\n      0x00\n        /* \"blockchain_app/multisig_wallet/truffle_wallet/contracts/Wallet.sol\":806:822  approvers.length */\n      dup1\n      sload\n      swap1\n      pop\n        /* \"blockchain_app/multisig_wallet/truffle_wallet/contracts/Wallet.sol\":802:803  i */\n      dup2\n        /* \"blockchain_app/multisig_wallet/truffle_wallet/contracts/Wallet.sol\":802:822  i < approvers.length */\n      lt\n        /* \"blockchain_app/multisig_wallet/truffle_wallet/contracts/Wallet.sol\":785:939  for (uint i = 0; i < approvers.length; i++) {\r... */\n      iszero\n      tag_61\n      jumpi\n        /* \"blockchain_app/multisig_wallet/truffle_wallet/contracts/Wallet.sol\":862:871  approvers */\n      0x00\n        /* \"blockchain_app/multisig_wallet/truffle_wallet/contracts/Wallet.sol\":872:873  i */\n      dup2\n        /* \"blockchain_app/multisig_wallet/truffle_wallet/contracts/Wallet.sol\":862:874  approvers[i] */\n      dup2\n      sload\n      dup2\n      lt\n      tag_63\n      jumpi\n      invalid\n    tag_63:\n      swap1\n      0x00\n      mstore\n      keccak256(0x00, 0x20)\n      add\n      0x00\n      swap1\n      sload\n      swap1\n      0x0100\n      exp\n      swap1\n      div\n      0xffffffffffffffffffffffffffffffffffffffff\n      and\n        /* \"blockchain_app/multisig_wallet/truffle_wallet/contracts/Wallet.sol\":848:874  msg.sender == approvers[i] */\n      0xffffffffffffffffffffffffffffffffffffffff\n      and\n        /* \"blockchain_app/multisig_wallet/truffle_wallet/contracts/Wallet.sol\":848:858  msg.sender */\n      caller\n        /* \"blockchain_app/multisig_wallet/truffle_wallet/contracts/Wallet.sol\":848:874  msg.sender == approvers[i] */\n      0xffffffffffffffffffffffffffffffffffffffff\n      and\n      eq\n        /* \"blockchain_app/multisig_wallet/truffle_wallet/contracts/Wallet.sol\":844:928  if (msg.sender == approvers[i]) {\r... */\n      iszero\n      tag_65\n      jumpi\n        /* \"blockchain_app/multisig_wallet/truffle_wallet/contracts/Wallet.sol\":908:912  true */\n      0x01\n        /* \"blockchain_app/multisig_wallet/truffle_wallet/contracts/Wallet.sol\":895:912  isApprover = true */\n      swap2\n      pop\n        /* \"blockchain_app/multisig_wallet/truffle_wallet/contracts/Wallet.sol\":844:928  if (msg.sender == approvers[i]) {\r... */\n    tag_65:\n        /* \"blockchain_app/multisig_wallet/truffle_wallet/contracts/Wallet.sol\":824:827  i++ */\n      dup1\n      dup1\n      0x01\n      add\n      swap2\n      pop\n      pop\n        /* \"blockchain_app/multisig_wallet/truffle_wallet/contracts/Wallet.sol\":785:939  for (uint i = 0; i < approvers.length; i++) {\r... */\n      jump(tag_60)\n    tag_61:\n      pop\n        /* \"blockchain_app/multisig_wallet/truffle_wallet/contracts/Wallet.sol\":971:975  true */\n      0x01\n        /* \"blockchain_app/multisig_wallet/truffle_wallet/contracts/Wallet.sol\":957:975  isApprover == true */\n      iszero\n      iszero\n        /* \"blockchain_app/multisig_wallet/truffle_wallet/contracts/Wallet.sol\":957:967  isApprover */\n      dup2\n        /* \"blockchain_app/multisig_wallet/truffle_wallet/contracts/Wallet.sol\":957:975  isApprover == true */\n      iszero\n      iszero\n      eq\n        /* \"blockchain_app/multisig_wallet/truffle_wallet/contracts/Wallet.sol\":949:1002  require(isApprover == true, \"Only approver allowed.\") */\n      tag_66\n      jumpi\n      mload(0x40)\n      0x08c379a000000000000000000000000000000000000000000000000000000000\n      dup2\n      mstore\n      0x04\n      add\n      tag_67\n      swap1\n      jump(tag_54)\n    tag_67:\n      mload(0x40)\n      dup1\n      swap2\n      sub\n      swap1\n      revert\n    tag_66:\n        /* \"blockchain_app/multisig_wallet/truffle_wallet/contracts/Wallet.sol\":1924:1929  false */\n      0x00\n        /* \"blockchain_app/multisig_wallet/truffle_wallet/contracts/Wallet.sol\":1901:1929  transfers[_id].sent == false */\n      iszero\n      iszero\n        /* \"blockchain_app/multisig_wallet/truffle_wallet/contracts/Wallet.sol\":1901:1910  transfers */\n      0x02\n        /* \"blockchain_app/multisig_wallet/truffle_wallet/contracts/Wallet.sol\":1911:1914  _id */\n      dup4\n        /* \"blockchain_app/multisig_wallet/truffle_wallet/contracts/Wallet.sol\":1901:1915  transfers[_id] */\n      dup2\n      sload\n      dup2\n      lt\n      tag_69\n      jumpi\n      invalid\n    tag_69:\n      swap1\n      0x00\n      mstore\n      keccak256(0x00, 0x20)\n      swap1\n      0x05\n      mul\n      add\n        /* \"blockchain_app/multisig_wallet/truffle_wallet/contracts/Wallet.sol\":1901:1920  transfers[_id].sent */\n      0x04\n      add\n      0x00\n      swap1\n      sload\n      swap1\n      0x0100\n      exp\n      swap1\n      div\n      0xff\n      and\n        /* \"blockchain_app/multisig_wallet/truffle_wallet/contracts/Wallet.sol\":1901:1929  transfers[_id].sent == false */\n      iszero\n      iszero\n      eq\n        /* \"blockchain_app/multisig_wallet/truffle_wallet/contracts/Wallet.sol\":1893:1965  require(transfers[_id].sent == false, \"Transfer has already been sent.\") */\n      tag_71\n      jumpi\n      mload(0x40)\n      0x08c379a000000000000000000000000000000000000000000000000000000000\n      dup2\n      mstore\n      0x04\n      add\n      tag_72\n      swap1\n      jump(tag_73)\n    tag_72:\n      mload(0x40)\n      dup1\n      swap2\n      sub\n      swap1\n      revert\n    tag_71:\n        /* \"blockchain_app/multisig_wallet/truffle_wallet/contracts/Wallet.sol\":2014:2019  false */\n      0x00\n        /* \"blockchain_app/multisig_wallet/truffle_wallet/contracts/Wallet.sol\":1984:2019  approvals[msg.sender][_id] == false */\n      iszero\n      iszero\n        /* \"blockchain_app/multisig_wallet/truffle_wallet/contracts/Wallet.sol\":1984:1993  approvals */\n      0x03\n        /* \"blockchain_app/multisig_wallet/truffle_wallet/contracts/Wallet.sol\":1984:2005  approvals[msg.sender] */\n      0x00\n        /* \"blockchain_app/multisig_wallet/truffle_wallet/contracts/Wallet.sol\":1994:2004  msg.sender */\n      caller\n        /* \"blockchain_app/multisig_wallet/truffle_wallet/contracts/Wallet.sol\":1984:2005  approvals[msg.sender] */\n      0xffffffffffffffffffffffffffffffffffffffff\n      and\n      0xffffffffffffffffffffffffffffffffffffffff\n      and\n      dup2\n      mstore\n      0x20\n      add\n      swap1\n      dup2\n      mstore\n      0x20\n      add\n      0x00\n      keccak256\n        /* \"blockchain_app/multisig_wallet/truffle_wallet/contracts/Wallet.sol\":1984:2010  approvals[msg.sender][_id] */\n      0x00\n        /* \"blockchain_app/multisig_wallet/truffle_wallet/contracts/Wallet.sol\":2006:2009  _id */\n      dup5\n        /* \"blockchain_app/multisig_wallet/truffle_wallet/contracts/Wallet.sol\":1984:2010  approvals[msg.sender][_id] */\n      dup2\n      mstore\n      0x20\n      add\n      swap1\n      dup2\n      mstore\n      0x20\n      add\n      0x00\n      keccak256\n      0x00\n      swap1\n      sload\n      swap1\n      0x0100\n      exp\n      swap1\n      div\n      0xff\n      and\n        /* \"blockchain_app/multisig_wallet/truffle_wallet/contracts/Wallet.sol\":1984:2019  approvals[msg.sender][_id] == false */\n      iszero\n      iszero\n      eq\n        /* \"blockchain_app/multisig_wallet/truffle_wallet/contracts/Wallet.sol\":1976:2054  require(approvals[msg.sender][_id] == false, \"Cannot approve transfer again.\") */\n      tag_74\n      jumpi\n      mload(0x40)\n      0x08c379a000000000000000000000000000000000000000000000000000000000\n      dup2\n      mstore\n      0x04\n      add\n      tag_75\n      swap1\n      jump(tag_76)\n    tag_75:\n      mload(0x40)\n      dup1\n      swap2\n      sub\n      swap1\n      revert\n    tag_74:\n        /* \"blockchain_app/multisig_wallet/truffle_wallet/contracts/Wallet.sol\":2096:2100  true */\n      0x01\n        /* \"blockchain_app/multisig_wallet/truffle_wallet/contracts/Wallet.sol\":2067:2076  approvals */\n      0x03\n        /* \"blockchain_app/multisig_wallet/truffle_wallet/contracts/Wallet.sol\":2067:2088  approvals[msg.sender] */\n      0x00\n        /* \"blockchain_app/multisig_wallet/truffle_wallet/contracts/Wallet.sol\":2077:2087  msg.sender */\n      caller\n        /* \"blockchain_app/multisig_wallet/truffle_wallet/contracts/Wallet.sol\":2067:2088  approvals[msg.sender] */\n      0xffffffffffffffffffffffffffffffffffffffff\n      and\n      0xffffffffffffffffffffffffffffffffffffffff\n      and\n      dup2\n      mstore\n      0x20\n      add\n      swap1\n      dup2\n      mstore\n      0x20\n      add\n      0x00\n      keccak256\n        /* \"blockchain_app/multisig_wallet/truffle_wallet/contracts/Wallet.sol\":2067:2093  approvals[msg.sender][_id] */\n      0x00\n        /* \"blockchain_app/multisig_wallet/truffle_wallet/contracts/Wallet.sol\":2089:2092  _id */\n      dup5\n        /* \"blockchain_app/multisig_wallet/truffle_wallet/contracts/Wallet.sol\":2067:2093  approvals[msg.sender][_id] */\n      dup2\n      mstore\n      0x20\n      add\n      swap1\n      dup2\n      mstore\n      0x20\n      add\n      0x00\n      keccak256\n      0x00\n        /* \"blockchain_app/multisig_wallet/truffle_wallet/contracts/Wallet.sol\":2067:2100  approvals[msg.sender][_id] = true */\n      0x0100\n      exp\n      dup2\n      sload\n      dup2\n      0xff\n      mul\n      not\n      and\n      swap1\n      dup4\n      iszero\n      iszero\n      mul\n      or\n      swap1\n      sstore\n      pop\n        /* \"blockchain_app/multisig_wallet/truffle_wallet/contracts/Wallet.sol\":2111:2120  transfers */\n      0x02\n        /* \"blockchain_app/multisig_wallet/truffle_wallet/contracts/Wallet.sol\":2121:2124  _id */\n      dup3\n        /* \"blockchain_app/multisig_wallet/truffle_wallet/contracts/Wallet.sol\":2111:2125  transfers[_id] */\n      dup2\n      sload\n      dup2\n      lt\n      tag_77\n      jumpi\n      invalid\n    tag_77:\n      swap1\n      0x00\n      mstore\n      keccak256(0x00, 0x20)\n      swap1\n      0x05\n      mul\n      add\n        /* \"blockchain_app/multisig_wallet/truffle_wallet/contracts/Wallet.sol\":2111:2135  transfers[_id].approvals */\n      0x03\n      add\n      0x00\n        /* \"blockchain_app/multisig_wallet/truffle_wallet/contracts/Wallet.sol\":2111:2137  transfers[_id].approvals++ */\n      dup2\n      sload\n      dup1\n      swap3\n      swap2\n      swap1\n      0x01\n      add\n      swap2\n      swap1\n      pop\n      sstore\n      pop\n        /* \"blockchain_app/multisig_wallet/truffle_wallet/contracts/Wallet.sol\":2182:2188  quorum */\n      sload(0x01)\n        /* \"blockchain_app/multisig_wallet/truffle_wallet/contracts/Wallet.sol\":2154:2163  transfers */\n      0x02\n        /* \"blockchain_app/multisig_wallet/truffle_wallet/contracts/Wallet.sol\":2164:2167  _id */\n      dup4\n        /* \"blockchain_app/multisig_wallet/truffle_wallet/contracts/Wallet.sol\":2154:2168  transfers[_id] */\n      dup2\n      sload\n      dup2\n      lt\n      tag_79\n      jumpi\n      invalid\n    tag_79:\n      swap1\n      0x00\n      mstore\n      keccak256(0x00, 0x20)\n      swap1\n      0x05\n      mul\n      add\n        /* \"blockchain_app/multisig_wallet/truffle_wallet/contracts/Wallet.sol\":2154:2178  transfers[_id].approvals */\n      0x03\n      add\n      sload\n        /* \"blockchain_app/multisig_wallet/truffle_wallet/contracts/Wallet.sol\":2154:2188  transfers[_id].approvals >= quorum */\n      lt\n        /* \"blockchain_app/multisig_wallet/truffle_wallet/contracts/Wallet.sol\":2150:2380  if (transfers[_id].approvals >= quorum) {\r... */\n      tag_81\n      jumpi\n        /* \"blockchain_app/multisig_wallet/truffle_wallet/contracts/Wallet.sol\":2227:2231  true */\n      0x01\n        /* \"blockchain_app/multisig_wallet/truffle_wallet/contracts/Wallet.sol\":2205:2214  transfers */\n      0x02\n        /* \"blockchain_app/multisig_wallet/truffle_wallet/contracts/Wallet.sol\":2215:2218  _id */\n      dup4\n        /* \"blockchain_app/multisig_wallet/truffle_wallet/contracts/Wallet.sol\":2205:2219  transfers[_id] */\n      dup2\n      sload\n      dup2\n      lt\n      tag_82\n      jumpi\n      invalid\n    tag_82:\n      swap1\n      0x00\n      mstore\n      keccak256(0x00, 0x20)\n      swap1\n      0x05\n      mul\n      add\n        /* \"blockchain_app/multisig_wallet/truffle_wallet/contracts/Wallet.sol\":2205:2224  transfers[_id].sent */\n      0x04\n      add\n      0x00\n        /* \"blockchain_app/multisig_wallet/truffle_wallet/contracts/Wallet.sol\":2205:2231  transfers[_id].sent = true */\n      0x0100\n      exp\n      dup2\n      sload\n      dup2\n      0xff\n      mul\n      not\n      and\n      swap1\n      dup4\n      iszero\n      iszero\n      mul\n      or\n      swap1\n      sstore\n      pop\n        /* \"blockchain_app/multisig_wallet/truffle_wallet/contracts/Wallet.sol\":2246:2264  address payable to */\n      0x00\n        /* \"blockchain_app/multisig_wallet/truffle_wallet/contracts/Wallet.sol\":2267:2276  transfers */\n      0x02\n        /* \"blockchain_app/multisig_wallet/truffle_wallet/contracts/Wallet.sol\":2277:2280  _id */\n      dup4\n        /* \"blockchain_app/multisig_wallet/truffle_wallet/contracts/Wallet.sol\":2267:2281  transfers[_id] */\n      dup2\n      sload\n      dup2\n      lt\n      tag_84\n      jumpi\n      invalid\n    tag_84:\n      swap1\n      0x00\n      mstore\n      keccak256(0x00, 0x20)\n      swap1\n      0x05\n      mul\n      add\n        /* \"blockchain_app/multisig_wallet/truffle_wallet/contracts/Wallet.sol\":2267:2284  transfers[_id].to */\n      0x02\n      add\n      0x00\n      swap1\n      sload\n      swap1\n      0x0100\n      exp\n      swap1\n      div\n      0xffffffffffffffffffffffffffffffffffffffff\n      and\n        /* \"blockchain_app/multisig_wallet/truffle_wallet/contracts/Wallet.sol\":2246:2284  address payable to = transfers[_id].to */\n      swap1\n      pop\n        /* \"blockchain_app/multisig_wallet/truffle_wallet/contracts/Wallet.sol\":2299:2310  uint amount */\n      0x00\n        /* \"blockchain_app/multisig_wallet/truffle_wallet/contracts/Wallet.sol\":2313:2322  transfers */\n      0x02\n        /* \"blockchain_app/multisig_wallet/truffle_wallet/contracts/Wallet.sol\":2323:2326  _id */\n      dup5\n        /* \"blockchain_app/multisig_wallet/truffle_wallet/contracts/Wallet.sol\":2313:2327  transfers[_id] */\n      dup2\n      sload\n      dup2\n      lt\n      tag_86\n      jumpi\n      invalid\n    tag_86:\n      swap1\n      0x00\n      mstore\n      keccak256(0x00, 0x20)\n      swap1\n      0x05\n      mul\n      add\n        /* \"blockchain_app/multisig_wallet/truffle_wallet/contracts/Wallet.sol\":2313:2334  transfers[_id].amount */\n      0x01\n      add\n      sload\n        /* \"blockchain_app/multisig_wallet/truffle_wallet/contracts/Wallet.sol\":2299:2334  uint amount = transfers[_id].amount */\n      swap1\n      pop\n        /* \"blockchain_app/multisig_wallet/truffle_wallet/contracts/Wallet.sol\":2349:2351  to */\n      dup2\n        /* \"blockchain_app/multisig_wallet/truffle_wallet/contracts/Wallet.sol\":2349:2360  to.transfer */\n      0xffffffffffffffffffffffffffffffffffffffff\n      and\n        /* \"blockchain_app/multisig_wallet/truffle_wallet/contracts/Wallet.sol\":2349:2368  to.transfer(amount) */\n      0x08fc\n        /* \"blockchain_app/multisig_wallet/truffle_wallet/contracts/Wallet.sol\":2361:2367  amount */\n      dup3\n        /* \"blockchain_app/multisig_wallet/truffle_wallet/contracts/Wallet.sol\":2349:2368  to.transfer(amount) */\n      swap1\n      dup2\n      iszero\n      mul\n      swap1\n      mload(0x40)\n      0x00\n      mload(0x40)\n      dup1\n      dup4\n      sub\n      dup2\n      dup6\n      dup9\n      dup9\n      call\n      swap4\n      pop\n      pop\n      pop\n      pop\n      iszero\n        /* \"--CODEGEN--\":8:17   */\n      dup1\n        /* \"--CODEGEN--\":5:7   */\n      iszero\n      tag_89\n      jumpi\n        /* \"--CODEGEN--\":45:61   */\n      returndatasize\n        /* \"--CODEGEN--\":42:43   */\n      0x00\n        /* \"--CODEGEN--\":39:40   */\n      dup1\n        /* \"--CODEGEN--\":24:62   */\n      returndatacopy\n        /* \"--CODEGEN--\":77:93   */\n      returndatasize\n        /* \"--CODEGEN--\":74:75   */\n      0x00\n        /* \"--CODEGEN--\":67:94   */\n      revert\n        /* \"--CODEGEN--\":5:7   */\n    tag_89:\n        /* \"blockchain_app/multisig_wallet/truffle_wallet/contracts/Wallet.sol\":2349:2368  to.transfer(amount) */\n      pop\n        /* \"blockchain_app/multisig_wallet/truffle_wallet/contracts/Wallet.sol\":2150:2380  if (transfers[_id].approvals >= quorum) {\r... */\n      pop\n      pop\n    tag_81:\n        /* \"blockchain_app/multisig_wallet/truffle_wallet/contracts/Wallet.sol\":1784:2387  function approveTransfer(uint _id) external onlyApprover {\r... */\n      pop\n      pop\n      jump\t// out\n        /* \"blockchain_app/multisig_wallet/truffle_wallet/contracts/Wallet.sol\":204:230  address[] public approvers */\n    tag_35:\n      0x00\n      dup2\n      dup2\n      sload\n      dup2\n      lt\n      tag_90\n      jumpi\n      invalid\n    tag_90:\n      swap1\n      0x00\n      mstore\n      keccak256(0x00, 0x20)\n      add\n      0x00\n      swap2\n      pop\n      sload\n      swap1\n      0x0100\n      exp\n      swap1\n      div\n      0xffffffffffffffffffffffffffffffffffffffff\n      and\n      dup2\n      jump\t// out\n        /* \"blockchain_app/multisig_wallet/truffle_wallet/contracts/Wallet.sol\":596:654  mapping(address => mapping(uint => bool)) public approvals */\n    tag_42:\n      mstore(0x20, 0x03)\n      dup2\n      0x00\n      mstore\n      mstore(0x20, keccak256(0x00, 0x40))\n      dup1\n      0x00\n      mstore\n      keccak256(0x00, 0x40)\n      0x00\n      swap2\n      pop\n      swap2\n      pop\n      swap1\n      sload\n      swap1\n      0x0100\n      exp\n      swap1\n      div\n      0xff\n      and\n      dup2\n      jump\t// out\n        /* \"--CODEGEN--\":5:135   */\n    tag_93:\n      0x00\n        /* \"--CODEGEN--\":85:91   */\n      dup2\n        /* \"--CODEGEN--\":72:92   */\n      calldataload\n        /* \"--CODEGEN--\":63:92   */\n      swap1\n      pop\n        /* \"--CODEGEN--\":97:130   */\n      tag_95\n        /* \"--CODEGEN--\":124:129   */\n      dup2\n        /* \"--CODEGEN--\":97:130   */\n      jump(tag_96)\n    tag_95:\n        /* \"--CODEGEN--\":57:135   */\n      swap3\n      swap2\n      pop\n      pop\n      jump\n        /* \"--CODEGEN--\":142:288   */\n    tag_97:\n      0x00\n        /* \"--CODEGEN--\":230:236   */\n      dup2\n        /* \"--CODEGEN--\":217:237   */\n      calldataload\n        /* \"--CODEGEN--\":208:237   */\n      swap1\n      pop\n        /* \"--CODEGEN--\":242:283   */\n      tag_99\n        /* \"--CODEGEN--\":277:282   */\n      dup2\n        /* \"--CODEGEN--\":242:283   */\n      jump(tag_100)\n    tag_99:\n        /* \"--CODEGEN--\":202:288   */\n      swap3\n      swap2\n      pop\n      pop\n      jump\n        /* \"--CODEGEN--\":295:425   */\n    tag_101:\n      0x00\n        /* \"--CODEGEN--\":375:381   */\n      dup2\n        /* \"--CODEGEN--\":362:382   */\n      calldataload\n        /* \"--CODEGEN--\":353:382   */\n      swap1\n      pop\n        /* \"--CODEGEN--\":387:420   */\n      tag_103\n        /* \"--CODEGEN--\":414:419   */\n      dup2\n        /* \"--CODEGEN--\":387:420   */\n      jump(tag_104)\n    tag_103:\n        /* \"--CODEGEN--\":347:425   */\n      swap3\n      swap2\n      pop\n      pop\n      jump\n        /* \"--CODEGEN--\":432:798   */\n    tag_41:\n      0x00\n      dup1\n        /* \"--CODEGEN--\":553:555   */\n      0x40\n        /* \"--CODEGEN--\":541:550   */\n      dup4\n        /* \"--CODEGEN--\":532:539   */\n      dup6\n        /* \"--CODEGEN--\":528:551   */\n      sub\n        /* \"--CODEGEN--\":524:556   */\n      slt\n        /* \"--CODEGEN--\":521:523   */\n      iszero\n      tag_106\n      jumpi\n        /* \"--CODEGEN--\":569:570   */\n      0x00\n        /* \"--CODEGEN--\":566:567   */\n      dup1\n        /* \"--CODEGEN--\":559:571   */\n      revert\n        /* \"--CODEGEN--\":521:523   */\n    tag_106:\n        /* \"--CODEGEN--\":604:605   */\n      0x00\n        /* \"--CODEGEN--\":621:674   */\n      tag_107\n        /* \"--CODEGEN--\":666:673   */\n      dup6\n        /* \"--CODEGEN--\":657:663   */\n      dup3\n        /* \"--CODEGEN--\":646:655   */\n      dup7\n        /* \"--CODEGEN--\":642:664   */\n      add\n        /* \"--CODEGEN--\":621:674   */\n      jump(tag_93)\n    tag_107:\n        /* \"--CODEGEN--\":611:674   */\n      swap3\n      pop\n        /* \"--CODEGEN--\":583:680   */\n      pop\n        /* \"--CODEGEN--\":711:713   */\n      0x20\n        /* \"--CODEGEN--\":729:782   */\n      tag_108\n        /* \"--CODEGEN--\":774:781   */\n      dup6\n        /* \"--CODEGEN--\":765:771   */\n      dup3\n        /* \"--CODEGEN--\":754:763   */\n      dup7\n        /* \"--CODEGEN--\":750:772   */\n      add\n        /* \"--CODEGEN--\":729:782   */\n      jump(tag_101)\n    tag_108:\n        /* \"--CODEGEN--\":719:782   */\n      swap2\n      pop\n        /* \"--CODEGEN--\":690:788   */\n      pop\n        /* \"--CODEGEN--\":515:798   */\n      swap3\n      pop\n      swap3\n      swap1\n      pop\n      jump\n        /* \"--CODEGEN--\":805:1046   */\n    tag_24:\n      0x00\n        /* \"--CODEGEN--\":909:911   */\n      0x20\n        /* \"--CODEGEN--\":897:906   */\n      dup3\n        /* \"--CODEGEN--\":888:895   */\n      dup5\n        /* \"--CODEGEN--\":884:907   */\n      sub\n        /* \"--CODEGEN--\":880:912   */\n      slt\n        /* \"--CODEGEN--\":877:879   */\n      iszero\n      tag_110\n      jumpi\n        /* \"--CODEGEN--\":925:926   */\n      0x00\n        /* \"--CODEGEN--\":922:923   */\n      dup1\n        /* \"--CODEGEN--\":915:927   */\n      revert\n        /* \"--CODEGEN--\":877:879   */\n    tag_110:\n        /* \"--CODEGEN--\":960:961   */\n      0x00\n        /* \"--CODEGEN--\":977:1030   */\n      tag_111\n        /* \"--CODEGEN--\":1022:1029   */\n      dup5\n        /* \"--CODEGEN--\":1013:1019   */\n      dup3\n        /* \"--CODEGEN--\":1002:1011   */\n      dup6\n        /* \"--CODEGEN--\":998:1020   */\n      add\n        /* \"--CODEGEN--\":977:1030   */\n      jump(tag_101)\n    tag_111:\n        /* \"--CODEGEN--\":967:1030   */\n      swap2\n      pop\n        /* \"--CODEGEN--\":939:1036   */\n      pop\n        /* \"--CODEGEN--\":871:1046   */\n      swap3\n      swap2\n      pop\n      pop\n      jump\n        /* \"--CODEGEN--\":1053:1435   */\n    tag_19:\n      0x00\n      dup1\n        /* \"--CODEGEN--\":1182:1184   */\n      0x40\n        /* \"--CODEGEN--\":1170:1179   */\n      dup4\n        /* \"--CODEGEN--\":1161:1168   */\n      dup6\n        /* \"--CODEGEN--\":1157:1180   */\n      sub\n        /* \"--CODEGEN--\":1153:1185   */\n      slt\n        /* \"--CODEGEN--\":1150:1152   */\n      iszero\n      tag_113\n      jumpi\n        /* \"--CODEGEN--\":1198:1199   */\n      0x00\n        /* \"--CODEGEN--\":1195:1196   */\n      dup1\n        /* \"--CODEGEN--\":1188:1200   */\n      revert\n        /* \"--CODEGEN--\":1150:1152   */\n    tag_113:\n        /* \"--CODEGEN--\":1233:1234   */\n      0x00\n        /* \"--CODEGEN--\":1250:1303   */\n      tag_114\n        /* \"--CODEGEN--\":1295:1302   */\n      dup6\n        /* \"--CODEGEN--\":1286:1292   */\n      dup3\n        /* \"--CODEGEN--\":1275:1284   */\n      dup7\n        /* \"--CODEGEN--\":1271:1293   */\n      add\n        /* \"--CODEGEN--\":1250:1303   */\n      jump(tag_101)\n    tag_114:\n        /* \"--CODEGEN--\":1240:1303   */\n      swap3\n      pop\n        /* \"--CODEGEN--\":1212:1309   */\n      pop\n        /* \"--CODEGEN--\":1340:1342   */\n      0x20\n        /* \"--CODEGEN--\":1358:1419   */\n      tag_115\n        /* \"--CODEGEN--\":1411:1418   */\n      dup6\n        /* \"--CODEGEN--\":1402:1408   */\n      dup3\n        /* \"--CODEGEN--\":1391:1400   */\n      dup7\n        /* \"--CODEGEN--\":1387:1409   */\n      add\n        /* \"--CODEGEN--\":1358:1419   */\n      jump(tag_97)\n    tag_115:\n        /* \"--CODEGEN--\":1348:1419   */\n      swap2\n      pop\n        /* \"--CODEGEN--\":1319:1425   */\n      pop\n        /* \"--CODEGEN--\":1144:1435   */\n      swap3\n      pop\n      swap3\n      swap1\n      pop\n      jump\n        /* \"--CODEGEN--\":1442:1579   */\n    tag_116:\n        /* \"--CODEGEN--\":1541:1573   */\n      tag_118\n        /* \"--CODEGEN--\":1567:1572   */\n      dup2\n        /* \"--CODEGEN--\":1541:1573   */\n      jump(tag_119)\n    tag_118:\n        /* \"--CODEGEN--\":1536:1539   */\n      dup3\n        /* \"--CODEGEN--\":1529:1574   */\n      mstore\n        /* \"--CODEGEN--\":1523:1579   */\n      pop\n      pop\n      jump\n        /* \"--CODEGEN--\":1586:1699   */\n    tag_120:\n        /* \"--CODEGEN--\":1669:1693   */\n      tag_122\n        /* \"--CODEGEN--\":1687:1692   */\n      dup2\n        /* \"--CODEGEN--\":1669:1693   */\n      jump(tag_123)\n    tag_122:\n        /* \"--CODEGEN--\":1664:1667   */\n      dup3\n        /* \"--CODEGEN--\":1657:1694   */\n      mstore\n        /* \"--CODEGEN--\":1651:1699   */\n      pop\n      pop\n      jump\n        /* \"--CODEGEN--\":1706:1810   */\n    tag_124:\n        /* \"--CODEGEN--\":1783:1804   */\n      tag_126\n        /* \"--CODEGEN--\":1798:1803   */\n      dup2\n        /* \"--CODEGEN--\":1783:1804   */\n      jump(tag_127)\n    tag_126:\n        /* \"--CODEGEN--\":1778:1781   */\n      dup3\n        /* \"--CODEGEN--\":1771:1805   */\n      mstore\n        /* \"--CODEGEN--\":1765:1810   */\n      pop\n      pop\n      jump\n        /* \"--CODEGEN--\":1818:2149   */\n    tag_128:\n      0x00\n        /* \"--CODEGEN--\":1978:2045   */\n      tag_130\n        /* \"--CODEGEN--\":2042:2044   */\n      0x1f\n        /* \"--CODEGEN--\":2037:2040   */\n      dup4\n        /* \"--CODEGEN--\":1978:2045   */\n      jump(tag_131)\n    tag_130:\n        /* \"--CODEGEN--\":1971:2045   */\n      swap2\n      pop\n        /* \"--CODEGEN--\":2078:2111   */\n      0x5472616e736665722068617320616c7265616479206265656e2073656e742e00\n        /* \"--CODEGEN--\":2074:2075   */\n      0x00\n        /* \"--CODEGEN--\":2069:2072   */\n      dup4\n        /* \"--CODEGEN--\":2065:2076   */\n      add\n        /* \"--CODEGEN--\":2058:2112   */\n      mstore\n        /* \"--CODEGEN--\":2140:2142   */\n      0x20\n        /* \"--CODEGEN--\":2135:2138   */\n      dup3\n        /* \"--CODEGEN--\":2131:2143   */\n      add\n        /* \"--CODEGEN--\":2124:2143   */\n      swap1\n      pop\n        /* \"--CODEGEN--\":1964:2149   */\n      swap2\n      swap1\n      pop\n      jump\n        /* \"--CODEGEN--\":2158:2488   */\n    tag_132:\n      0x00\n        /* \"--CODEGEN--\":2318:2385   */\n      tag_134\n        /* \"--CODEGEN--\":2382:2384   */\n      0x1e\n        /* \"--CODEGEN--\":2377:2380   */\n      dup4\n        /* \"--CODEGEN--\":2318:2385   */\n      jump(tag_131)\n    tag_134:\n        /* \"--CODEGEN--\":2311:2385   */\n      swap2\n      pop\n        /* \"--CODEGEN--\":2418:2450   */\n      0x43616e6e6f7420617070726f7665207472616e7366657220616761696e2e0000\n        /* \"--CODEGEN--\":2414:2415   */\n      0x00\n        /* \"--CODEGEN--\":2409:2412   */\n      dup4\n        /* \"--CODEGEN--\":2405:2416   */\n      add\n        /* \"--CODEGEN--\":2398:2451   */\n      mstore\n        /* \"--CODEGEN--\":2479:2481   */\n      0x20\n        /* \"--CODEGEN--\":2474:2477   */\n      dup3\n        /* \"--CODEGEN--\":2470:2482   */\n      add\n        /* \"--CODEGEN--\":2463:2482   */\n      swap1\n      pop\n        /* \"--CODEGEN--\":2304:2488   */\n      swap2\n      swap1\n      pop\n      jump\n        /* \"--CODEGEN--\":2497:2819   */\n    tag_135:\n      0x00\n        /* \"--CODEGEN--\":2657:2724   */\n      tag_137\n        /* \"--CODEGEN--\":2721:2723   */\n      0x16\n        /* \"--CODEGEN--\":2716:2719   */\n      dup4\n        /* \"--CODEGEN--\":2657:2724   */\n      jump(tag_131)\n    tag_137:\n        /* \"--CODEGEN--\":2650:2724   */\n      swap2\n      pop\n        /* \"--CODEGEN--\":2757:2781   */\n      0x4f6e6c7920617070726f76657220616c6c6f7765642e00000000000000000000\n        /* \"--CODEGEN--\":2753:2754   */\n      0x00\n        /* \"--CODEGEN--\":2748:2751   */\n      dup4\n        /* \"--CODEGEN--\":2744:2755   */\n      add\n        /* \"--CODEGEN--\":2737:2782   */\n      mstore\n        /* \"--CODEGEN--\":2810:2812   */\n      0x20\n        /* \"--CODEGEN--\":2805:2808   */\n      dup3\n        /* \"--CODEGEN--\":2801:2813   */\n      add\n        /* \"--CODEGEN--\":2794:2813   */\n      swap1\n      pop\n        /* \"--CODEGEN--\":2643:2819   */\n      swap2\n      swap1\n      pop\n      jump\n        /* \"--CODEGEN--\":2827:2940   */\n    tag_138:\n        /* \"--CODEGEN--\":2910:2934   */\n      tag_140\n        /* \"--CODEGEN--\":2928:2933   */\n      dup2\n        /* \"--CODEGEN--\":2910:2934   */\n      jump(tag_141)\n    tag_140:\n        /* \"--CODEGEN--\":2905:2908   */\n      dup3\n        /* \"--CODEGEN--\":2898:2935   */\n      mstore\n        /* \"--CODEGEN--\":2892:2940   */\n      pop\n      pop\n      jump\n        /* \"--CODEGEN--\":2947:3160   */\n    tag_37:\n      0x00\n        /* \"--CODEGEN--\":3065:3067   */\n      0x20\n        /* \"--CODEGEN--\":3054:3063   */\n      dup3\n        /* \"--CODEGEN--\":3050:3068   */\n      add\n        /* \"--CODEGEN--\":3042:3068   */\n      swap1\n      pop\n        /* \"--CODEGEN--\":3079:3150   */\n      tag_143\n        /* \"--CODEGEN--\":3147:3148   */\n      0x00\n        /* \"--CODEGEN--\":3136:3145   */\n      dup4\n        /* \"--CODEGEN--\":3132:3149   */\n      add\n        /* \"--CODEGEN--\":3123:3129   */\n      dup5\n        /* \"--CODEGEN--\":3079:3150   */\n      jump(tag_120)\n    tag_143:\n        /* \"--CODEGEN--\":3036:3160   */\n      swap3\n      swap2\n      pop\n      pop\n      jump\n        /* \"--CODEGEN--\":3167:3368   */\n    tag_44:\n      0x00\n        /* \"--CODEGEN--\":3279:3281   */\n      0x20\n        /* \"--CODEGEN--\":3268:3277   */\n      dup3\n        /* \"--CODEGEN--\":3264:3282   */\n      add\n        /* \"--CODEGEN--\":3256:3282   */\n      swap1\n      pop\n        /* \"--CODEGEN--\":3293:3358   */\n      tag_145\n        /* \"--CODEGEN--\":3355:3356   */\n      0x00\n        /* \"--CODEGEN--\":3344:3353   */\n      dup4\n        /* \"--CODEGEN--\":3340:3357   */\n      add\n        /* \"--CODEGEN--\":3331:3337   */\n      dup5\n        /* \"--CODEGEN--\":3293:3358   */\n      jump(tag_124)\n    tag_145:\n        /* \"--CODEGEN--\":3250:3368   */\n      swap3\n      swap2\n      pop\n      pop\n      jump\n        /* \"--CODEGEN--\":3375:3782   */\n    tag_73:\n      0x00\n        /* \"--CODEGEN--\":3566:3568   */\n      0x20\n        /* \"--CODEGEN--\":3555:3564   */\n      dup3\n        /* \"--CODEGEN--\":3551:3569   */\n      add\n        /* \"--CODEGEN--\":3543:3569   */\n      swap1\n      pop\n        /* \"--CODEGEN--\":3616:3625   */\n      dup2\n        /* \"--CODEGEN--\":3610:3614   */\n      dup2\n        /* \"--CODEGEN--\":3606:3626   */\n      sub\n        /* \"--CODEGEN--\":3602:3603   */\n      0x00\n        /* \"--CODEGEN--\":3591:3600   */\n      dup4\n        /* \"--CODEGEN--\":3587:3604   */\n      add\n        /* \"--CODEGEN--\":3580:3627   */\n      mstore\n        /* \"--CODEGEN--\":3641:3772   */\n      tag_147\n        /* \"--CODEGEN--\":3767:3771   */\n      dup2\n        /* \"--CODEGEN--\":3641:3772   */\n      jump(tag_128)\n    tag_147:\n        /* \"--CODEGEN--\":3633:3772   */\n      swap1\n      pop\n        /* \"--CODEGEN--\":3537:3782   */\n      swap2\n      swap1\n      pop\n      jump\n        /* \"--CODEGEN--\":3789:4196   */\n    tag_76:\n      0x00\n        /* \"--CODEGEN--\":3980:3982   */\n      0x20\n        /* \"--CODEGEN--\":3969:3978   */\n      dup3\n        /* \"--CODEGEN--\":3965:3983   */\n      add\n        /* \"--CODEGEN--\":3957:3983   */\n      swap1\n      pop\n        /* \"--CODEGEN--\":4030:4039   */\n      dup2\n        /* \"--CODEGEN--\":4024:4028   */\n      dup2\n        /* \"--CODEGEN--\":4020:4040   */\n      sub\n        /* \"--CODEGEN--\":4016:4017   */\n      0x00\n        /* \"--CODEGEN--\":4005:4014   */\n      dup4\n        /* \"--CODEGEN--\":4001:4018   */\n      add\n        /* \"--CODEGEN--\":3994:4041   */\n      mstore\n        /* \"--CODEGEN--\":4055:4186   */\n      tag_149\n        /* \"--CODEGEN--\":4181:4185   */\n      dup2\n        /* \"--CODEGEN--\":4055:4186   */\n      jump(tag_132)\n    tag_149:\n        /* \"--CODEGEN--\":4047:4186   */\n      swap1\n      pop\n        /* \"--CODEGEN--\":3951:4196   */\n      swap2\n      swap1\n      pop\n      jump\n        /* \"--CODEGEN--\":4203:4610   */\n    tag_54:\n      0x00\n        /* \"--CODEGEN--\":4394:4396   */\n      0x20\n        /* \"--CODEGEN--\":4383:4392   */\n      dup3\n        /* \"--CODEGEN--\":4379:4397   */\n      add\n        /* \"--CODEGEN--\":4371:4397   */\n      swap1\n      pop\n        /* \"--CODEGEN--\":4444:4453   */\n      dup2\n        /* \"--CODEGEN--\":4438:4442   */\n      dup2\n        /* \"--CODEGEN--\":4434:4454   */\n      sub\n        /* \"--CODEGEN--\":4430:4431   */\n      0x00\n        /* \"--CODEGEN--\":4419:4428   */\n      dup4\n        /* \"--CODEGEN--\":4415:4432   */\n      add\n        /* \"--CODEGEN--\":4408:4455   */\n      mstore\n        /* \"--CODEGEN--\":4469:4600   */\n      tag_151\n        /* \"--CODEGEN--\":4595:4599   */\n      dup2\n        /* \"--CODEGEN--\":4469:4600   */\n      jump(tag_135)\n    tag_151:\n        /* \"--CODEGEN--\":4461:4600   */\n      swap1\n      pop\n        /* \"--CODEGEN--\":4365:4610   */\n      swap2\n      swap1\n      pop\n      jump\n        /* \"--CODEGEN--\":4617:4830   */\n    tag_15:\n      0x00\n        /* \"--CODEGEN--\":4735:4737   */\n      0x20\n        /* \"--CODEGEN--\":4724:4733   */\n      dup3\n        /* \"--CODEGEN--\":4720:4738   */\n      add\n        /* \"--CODEGEN--\":4712:4738   */\n      swap1\n      pop\n        /* \"--CODEGEN--\":4749:4820   */\n      tag_153\n        /* \"--CODEGEN--\":4817:4818   */\n      0x00\n        /* \"--CODEGEN--\":4806:4815   */\n      dup4\n        /* \"--CODEGEN--\":4802:4819   */\n      add\n        /* \"--CODEGEN--\":4793:4799   */\n      dup5\n        /* \"--CODEGEN--\":4749:4820   */\n      jump(tag_138)\n    tag_153:\n        /* \"--CODEGEN--\":4706:4830   */\n      swap3\n      swap2\n      pop\n      pop\n      jump\n        /* \"--CODEGEN--\":4837:5516   */\n    tag_27:\n      0x00\n        /* \"--CODEGEN--\":5077:5080   */\n      0xa0\n        /* \"--CODEGEN--\":5066:5075   */\n      dup3\n        /* \"--CODEGEN--\":5062:5081   */\n      add\n        /* \"--CODEGEN--\":5054:5081   */\n      swap1\n      pop\n        /* \"--CODEGEN--\":5092:5163   */\n      tag_155\n        /* \"--CODEGEN--\":5160:5161   */\n      0x00\n        /* \"--CODEGEN--\":5149:5158   */\n      dup4\n        /* \"--CODEGEN--\":5145:5162   */\n      add\n        /* \"--CODEGEN--\":5136:5142   */\n      dup9\n        /* \"--CODEGEN--\":5092:5163   */\n      jump(tag_138)\n    tag_155:\n        /* \"--CODEGEN--\":5174:5246   */\n      tag_156\n        /* \"--CODEGEN--\":5242:5244   */\n      0x20\n        /* \"--CODEGEN--\":5231:5240   */\n      dup4\n        /* \"--CODEGEN--\":5227:5245   */\n      add\n        /* \"--CODEGEN--\":5218:5224   */\n      dup8\n        /* \"--CODEGEN--\":5174:5246   */\n      jump(tag_138)\n    tag_156:\n        /* \"--CODEGEN--\":5257:5345   */\n      tag_157\n        /* \"--CODEGEN--\":5341:5343   */\n      0x40\n        /* \"--CODEGEN--\":5330:5339   */\n      dup4\n        /* \"--CODEGEN--\":5326:5344   */\n      add\n        /* \"--CODEGEN--\":5317:5323   */\n      dup7\n        /* \"--CODEGEN--\":5257:5345   */\n      jump(tag_116)\n    tag_157:\n        /* \"--CODEGEN--\":5356:5428   */\n      tag_158\n        /* \"--CODEGEN--\":5424:5426   */\n      0x60\n        /* \"--CODEGEN--\":5413:5422   */\n      dup4\n        /* \"--CODEGEN--\":5409:5427   */\n      add\n        /* \"--CODEGEN--\":5400:5406   */\n      dup6\n        /* \"--CODEGEN--\":5356:5428   */\n      jump(tag_138)\n    tag_158:\n        /* \"--CODEGEN--\":5439:5506   */\n      tag_159\n        /* \"--CODEGEN--\":5501:5504   */\n      0x80\n        /* \"--CODEGEN--\":5490:5499   */\n      dup4\n        /* \"--CODEGEN--\":5486:5505   */\n      add\n        /* \"--CODEGEN--\":5477:5483   */\n      dup5\n        /* \"--CODEGEN--\":5439:5506   */\n      jump(tag_124)\n    tag_159:\n        /* \"--CODEGEN--\":5048:5516   */\n      swap7\n      swap6\n      pop\n      pop\n      pop\n      pop\n      pop\n      pop\n      jump\n        /* \"--CODEGEN--\":5524:5687   */\n    tag_131:\n      0x00\n        /* \"--CODEGEN--\":5639:5645   */\n      dup3\n        /* \"--CODEGEN--\":5634:5637   */\n      dup3\n        /* \"--CODEGEN--\":5627:5646   */\n      mstore\n        /* \"--CODEGEN--\":5676:5680   */\n      0x20\n        /* \"--CODEGEN--\":5671:5674   */\n      dup3\n        /* \"--CODEGEN--\":5667:5681   */\n      add\n        /* \"--CODEGEN--\":5652:5681   */\n      swap1\n      pop\n        /* \"--CODEGEN--\":5620:5687   */\n      swap3\n      swap2\n      pop\n      pop\n      jump\n        /* \"--CODEGEN--\":5695:5786   */\n    tag_123:\n      0x00\n        /* \"--CODEGEN--\":5757:5781   */\n      tag_162\n        /* \"--CODEGEN--\":5775:5780   */\n      dup3\n        /* \"--CODEGEN--\":5757:5781   */\n      jump(tag_163)\n    tag_162:\n        /* \"--CODEGEN--\":5746:5781   */\n      swap1\n      pop\n        /* \"--CODEGEN--\":5740:5786   */\n      swap2\n      swap1\n      pop\n      jump\n        /* \"--CODEGEN--\":5793:5892   */\n    tag_119:\n      0x00\n        /* \"--CODEGEN--\":5863:5887   */\n      tag_165\n        /* \"--CODEGEN--\":5881:5886   */\n      dup3\n        /* \"--CODEGEN--\":5863:5887   */\n      jump(tag_163)\n    tag_165:\n        /* \"--CODEGEN--\":5852:5887   */\n      swap1\n      pop\n        /* \"--CODEGEN--\":5846:5892   */\n      swap2\n      swap1\n      pop\n      jump\n        /* \"--CODEGEN--\":5899:5984   */\n    tag_127:\n      0x00\n        /* \"--CODEGEN--\":5972:5977   */\n      dup2\n        /* \"--CODEGEN--\":5965:5978   */\n      iszero\n        /* \"--CODEGEN--\":5958:5979   */\n      iszero\n        /* \"--CODEGEN--\":5947:5979   */\n      swap1\n      pop\n        /* \"--CODEGEN--\":5941:5984   */\n      swap2\n      swap1\n      pop\n      jump\n        /* \"--CODEGEN--\":5991:6112   */\n    tag_163:\n      0x00\n        /* \"--CODEGEN--\":6064:6106   */\n      0xffffffffffffffffffffffffffffffffffffffff\n        /* \"--CODEGEN--\":6057:6062   */\n      dup3\n        /* \"--CODEGEN--\":6053:6107   */\n      and\n        /* \"--CODEGEN--\":6042:6107   */\n      swap1\n      pop\n        /* \"--CODEGEN--\":6036:6112   */\n      swap2\n      swap1\n      pop\n      jump\n        /* \"--CODEGEN--\":6119:6191   */\n    tag_141:\n      0x00\n        /* \"--CODEGEN--\":6181:6186   */\n      dup2\n        /* \"--CODEGEN--\":6170:6186   */\n      swap1\n      pop\n        /* \"--CODEGEN--\":6164:6191   */\n      swap2\n      swap1\n      pop\n      jump\n        /* \"--CODEGEN--\":6198:6315   */\n    tag_96:\n        /* \"--CODEGEN--\":6267:6291   */\n      tag_170\n        /* \"--CODEGEN--\":6285:6290   */\n      dup2\n        /* \"--CODEGEN--\":6267:6291   */\n      jump(tag_123)\n    tag_170:\n        /* \"--CODEGEN--\":6260:6265   */\n      dup2\n        /* \"--CODEGEN--\":6257:6292   */\n      eq\n        /* \"--CODEGEN--\":6247:6249   */\n      tag_171\n      jumpi\n        /* \"--CODEGEN--\":6306:6307   */\n      0x00\n        /* \"--CODEGEN--\":6303:6304   */\n      dup1\n        /* \"--CODEGEN--\":6296:6308   */\n      revert\n        /* \"--CODEGEN--\":6247:6249   */\n    tag_171:\n        /* \"--CODEGEN--\":6241:6315   */\n      pop\n      jump\n        /* \"--CODEGEN--\":6322:6455   */\n    tag_100:\n        /* \"--CODEGEN--\":6399:6431   */\n      tag_173\n        /* \"--CODEGEN--\":6425:6430   */\n      dup2\n        /* \"--CODEGEN--\":6399:6431   */\n      jump(tag_119)\n    tag_173:\n        /* \"--CODEGEN--\":6392:6397   */\n      dup2\n        /* \"--CODEGEN--\":6389:6432   */\n      eq\n        /* \"--CODEGEN--\":6379:6381   */\n      tag_174\n      jumpi\n        /* \"--CODEGEN--\":6446:6447   */\n      0x00\n        /* \"--CODEGEN--\":6443:6444   */\n      dup1\n        /* \"--CODEGEN--\":6436:6448   */\n      revert\n        /* \"--CODEGEN--\":6379:6381   */\n    tag_174:\n        /* \"--CODEGEN--\":6373:6455   */\n      pop\n      jump\n        /* \"--CODEGEN--\":6462:6579   */\n    tag_104:\n        /* \"--CODEGEN--\":6531:6555   */\n      tag_176\n        /* \"--CODEGEN--\":6549:6554   */\n      dup2\n        /* \"--CODEGEN--\":6531:6555   */\n      jump(tag_141)\n    tag_176:\n        /* \"--CODEGEN--\":6524:6529   */\n      dup2\n        /* \"--CODEGEN--\":6521:6556   */\n      eq\n        /* \"--CODEGEN--\":6511:6513   */\n      tag_177\n      jumpi\n        /* \"--CODEGEN--\":6570:6571   */\n      0x00\n        /* \"--CODEGEN--\":6567:6568   */\n      dup1\n        /* \"--CODEGEN--\":6560:6572   */\n      revert\n        /* \"--CODEGEN--\":6511:6513   */\n    tag_177:\n        /* \"--CODEGEN--\":6505:6579   */\n      pop\n      jump\n\n    auxdata: 0xa26469706673582212203774c715de48ca152e340b6bfc54ac7c5e51096fd55df52d82051e828eb2f40264736f6c63430006000033\n}\n",
				"bytecode": {
					"linkReferences": {},
					"object": "608060405234801561001057600080fd5b50610bba806100206000396000f3fe6080604052600436106100595760003560e01c80631703a018146100655780634c12fa47146100905780639377d711146100b9578063cacca4a0146100fa578063d3650fb814610123578063ffabc6731461016057610060565b3661006057005b600080fd5b34801561007157600080fd5b5061007a61019d565b6040516100879190610a66565b60405180910390f35b34801561009c57600080fd5b506100b760048036036100b29190810190610898565b6101a3565b005b3480156100c557600080fd5b506100e060048036036100db919081019061086f565b61037d565b6040516100f1959493929190610a81565b60405180910390f35b34801561010657600080fd5b50610121600480360361011c919081019061086f565b6103ed565b005b34801561012f57600080fd5b5061014a6004803603610145919081019061086f565b610789565b60405161015791906109d0565b60405180910390f35b34801561016c57600080fd5b5061018760048036036101829190810190610833565b6107c5565b60405161019491906109eb565b60405180910390f35b60015481565b600080905060008090505b60008054905081101561023857600081815481106101c857fe5b9060005260206000200160009054906101000a900473ffffffffffffffffffffffffffffffffffffffff1673ffffffffffffffffffffffffffffffffffffffff163373ffffffffffffffffffffffffffffffffffffffff16141561022b57600191505b80806001019150506101ae565b506001151581151514610280576040517f08c379a000000000000000000000000000000000000000000000000000000000815260040161027790610a46565b60405180910390fd5b60026040518060a0016040528060028054905081526020018581526020018473ffffffffffffffffffffffffffffffffffffffff16815260200160008152602001600015158152509080600181540180825580915050600190039060005260206000209060050201600090919091909150600082015181600001556020820151816001015560408201518160020160006101000a81548173ffffffffffffffffffffffffffffffffffffffff021916908373ffffffffffffffffffffffffffffffffffffffff1602179055506060820151816003015560808201518160040160006101000a81548160ff0219169083151502179055505050505050565b6002818154811061038a57fe5b90600052602060002090600502016000915090508060000154908060010154908060020160009054906101000a900473ffffffffffffffffffffffffffffffffffffffff16908060030154908060040160009054906101000a900460ff16905085565b600080905060008090505b600080549050811015610482576000818154811061041257fe5b9060005260206000200160009054906101000a900473ffffffffffffffffffffffffffffffffffffffff1673ffffffffffffffffffffffffffffffffffffffff163373ffffffffffffffffffffffffffffffffffffffff16141561047557600191505b80806001019150506103f8565b5060011515811515146104ca576040517f08c379a00000000000000000000000000000000000000000000000000000000081526004016104c190610a46565b60405180910390fd5b60001515600283815481106104db57fe5b906000526020600020906005020160040160009054906101000a900460ff1615151461053c576040517f08c379a000000000000000000000000000000000000000000000000000000000815260040161053390610a06565b60405180910390fd5b60001515600360003373ffffffffffffffffffffffffffffffffffffffff1673ffffffffffffffffffffffffffffffffffffffff168152602001908152602001600020600084815260200190815260200160002060009054906101000a900460ff161515146105e0576040517f08c379a00000000000000000000000000000000000000000000000000000000081526004016105d790610a26565b60405180910390fd5b6001600360003373ffffffffffffffffffffffffffffffffffffffff1673ffffffffffffffffffffffffffffffffffffffff168152602001908152602001600020600084815260200190815260200160002060006101000a81548160ff0219169083151502179055506002828154811061065657fe5b9060005260206000209060050201600301600081548092919060010191905055506001546002838154811061068757fe5b90600052602060002090600502016003015410610785576001600283815481106106ad57fe5b906000526020600020906005020160040160006101000a81548160ff0219169083151502179055506000600283815481106106e457fe5b906000526020600020906005020160020160009054906101000a900473ffffffffffffffffffffffffffffffffffffffff16905060006002848154811061072757fe5b90600052602060002090600502016001015490508173ffffffffffffffffffffffffffffffffffffffff166108fc829081150290604051600060405180830381858888f19350505050158015610781573d6000803e3d6000fd5b5050505b5050565b6000818154811061079657fe5b906000526020600020016000915054906101000a900473ffffffffffffffffffffffffffffffffffffffff1681565b60036020528160005260406000206020528060005260406000206000915091509054906101000a900460ff1681565b60008135905061080381610b3f565b92915050565b60008135905061081881610b56565b92915050565b60008135905061082d81610b6d565b92915050565b6000806040838503121561084657600080fd5b6000610854858286016107f4565b92505060206108658582860161081e565b9150509250929050565b60006020828403121561088157600080fd5b600061088f8482850161081e565b91505092915050565b600080604083850312156108ab57600080fd5b60006108b98582860161081e565b92505060206108ca85828601610809565b9150509250929050565b6108dd81610af7565b82525050565b6108ec81610ae5565b82525050565b6108fb81610b09565b82525050565b600061090e601f83610ad4565b91507f5472616e736665722068617320616c7265616479206265656e2073656e742e006000830152602082019050919050565b600061094e601e83610ad4565b91507f43616e6e6f7420617070726f7665207472616e7366657220616761696e2e00006000830152602082019050919050565b600061098e601683610ad4565b91507f4f6e6c7920617070726f76657220616c6c6f7765642e000000000000000000006000830152602082019050919050565b6109ca81610b35565b82525050565b60006020820190506109e560008301846108e3565b92915050565b6000602082019050610a0060008301846108f2565b92915050565b60006020820190508181036000830152610a1f81610901565b9050919050565b60006020820190508181036000830152610a3f81610941565b9050919050565b60006020820190508181036000830152610a5f81610981565b9050919050565b6000602082019050610a7b60008301846109c1565b92915050565b600060a082019050610a9660008301886109c1565b610aa360208301876109c1565b610ab060408301866108d4565b610abd60608301856109c1565b610aca60808301846108f2565b9695505050505050565b600082825260208201905092915050565b6000610af082610b15565b9050919050565b6000610b0282610b15565b9050919050565b60008115159050919050565b600073ffffffffffffffffffffffffffffffffffffffff82169050919050565b6000819050919050565b610b4881610ae5565b8114610b5357600080fd5b50565b610b5f81610af7565b8114610b6a57600080fd5b50565b610b7681610b35565b8114610b8157600080fd5b5056fea26469706673582212203774c715de48ca152e340b6bfc54ac7c5e51096fd55df52d82051e828eb2f40264736f6c63430006000033",
					"opcodes": "PUSH1 0x80 PUSH1 0x40 MSTORE CALLVALUE DUP1 ISZERO PUSH2 0x10 JUMPI PUSH1 0x0 DUP1 REVERT JUMPDEST POP PUSH2 0xBBA DUP1 PUSH2 0x20 PUSH1 0x0 CODECOPY PUSH1 0x0 RETURN INVALID PUSH1 0x80 PUSH1 0x40 MSTORE PUSH1 0x4 CALLDATASIZE LT PUSH2 0x59 JUMPI PUSH1 0x0 CALLDATALOAD PUSH1 0xE0 SHR DUP1 PUSH4 0x1703A018 EQ PUSH2 0x65 JUMPI DUP1 PUSH4 0x4C12FA47 EQ PUSH2 0x90 JUMPI DUP1 PUSH4 0x9377D711 EQ PUSH2 0xB9 JUMPI DUP1 PUSH4 0xCACCA4A0 EQ PUSH2 0xFA JUMPI DUP1 PUSH4 0xD3650FB8 EQ PUSH2 0x123 JUMPI DUP1 PUSH4 0xFFABC673 EQ PUSH2 0x160 JUMPI PUSH2 0x60 JUMP JUMPDEST CALLDATASIZE PUSH2 0x60 JUMPI STOP JUMPDEST PUSH1 0x0 DUP1 REVERT JUMPDEST CALLVALUE DUP1 ISZERO PUSH2 0x71 JUMPI PUSH1 0x0 DUP1 REVERT JUMPDEST POP PUSH2 0x7A PUSH2 0x19D JUMP JUMPDEST PUSH1 0x40 MLOAD PUSH2 0x87 SWAP2 SWAP1 PUSH2 0xA66 JUMP JUMPDEST PUSH1 0x40 MLOAD DUP1 SWAP2 SUB SWAP1 RETURN JUMPDEST CALLVALUE DUP1 ISZERO PUSH2 0x9C JUMPI PUSH1 0x0 DUP1 REVERT JUMPDEST POP PUSH2 0xB7 PUSH1 0x4 DUP1 CALLDATASIZE SUB PUSH2 0xB2 SWAP2 SWAP1 DUP2 ADD SWAP1 PUSH2 0x898 JUMP JUMPDEST PUSH2 0x1A3 JUMP JUMPDEST STOP JUMPDEST CALLVALUE DUP1 ISZERO PUSH2 0xC5 JUMPI PUSH1 0x0 DUP1 REVERT JUMPDEST POP PUSH2 0xE0 PUSH1 0x4 DUP1 CALLDATASIZE SUB PUSH2 0xDB SWAP2 SWAP1 DUP2 ADD SWAP1 PUSH2 0x86F JUMP JUMPDEST PUSH2 0x37D JUMP JUMPDEST PUSH1 0x40 MLOAD PUSH2 0xF1 SWAP6 SWAP5 SWAP4 SWAP3 SWAP2 SWAP1 PUSH2 0xA81 JUMP JUMPDEST PUSH1 0x40 MLOAD DUP1 SWAP2 SUB SWAP1 RETURN JUMPDEST CALLVALUE DUP1 ISZERO PUSH2 0x106 JUMPI PUSH1 0x0 DUP1 REVERT JUMPDEST POP PUSH2 0x121 PUSH1 0x4 DUP1 CALLDATASIZE SUB PUSH2 0x11C SWAP2 SWAP1 DUP2 ADD SWAP1 PUSH2 0x86F JUMP JUMPDEST PUSH2 0x3ED JUMP JUMPDEST STOP JUMPDEST CALLVALUE DUP1 ISZERO PUSH2 0x12F JUMPI PUSH1 0x0 DUP1 REVERT JUMPDEST POP PUSH2 0x14A PUSH1 0x4 DUP1 CALLDATASIZE SUB PUSH2 0x145 SWAP2 SWAP1 DUP2 ADD SWAP1 PUSH2 0x86F JUMP JUMPDEST PUSH2 0x789 JUMP JUMPDEST PUSH1 0x40 MLOAD PUSH2 0x157 SWAP2 SWAP1 PUSH2 0x9D0 JUMP JUMPDEST PUSH1 0x40 MLOAD DUP1 SWAP2 SUB SWAP1 RETURN JUMPDEST CALLVALUE DUP1 ISZERO PUSH2 0x16C JUMPI PUSH1 0x0 DUP1 REVERT JUMPDEST POP PUSH2 0x187 PUSH1 0x4 DUP1 CALLDATASIZE SUB PUSH2 0x182 SWAP2 SWAP1 DUP2 ADD SWAP1 PUSH2 0x833 JUMP JUMPDEST PUSH2 0x7C5 JUMP JUMPDEST PUSH1 0x40 MLOAD PUSH2 0x194 SWAP2 SWAP1 PUSH2 0x9EB JUMP JUMPDEST PUSH1 0x40 MLOAD DUP1 SWAP2 SUB SWAP1 RETURN JUMPDEST PUSH1 0x1 SLOAD DUP2 JUMP JUMPDEST PUSH1 0x0 DUP1 SWAP1 POP PUSH1 0x0 DUP1 SWAP1 POP JUMPDEST PUSH1 0x0 DUP1 SLOAD SWAP1 POP DUP2 LT ISZERO PUSH2 0x238 JUMPI PUSH1 0x0 DUP2 DUP2 SLOAD DUP2 LT PUSH2 0x1C8 JUMPI INVALID JUMPDEST SWAP1 PUSH1 0x0 MSTORE PUSH1 0x20 PUSH1 0x0 KECCAK256 ADD PUSH1 0x0 SWAP1 SLOAD SWAP1 PUSH2 0x100 EXP SWAP1 DIV PUSH20 0xFFFFFFFFFFFFFFFFFFFFFFFFFFFFFFFFFFFFFFFF AND PUSH20 0xFFFFFFFFFFFFFFFFFFFFFFFFFFFFFFFFFFFFFFFF AND CALLER PUSH20 0xFFFFFFFFFFFFFFFFFFFFFFFFFFFFFFFFFFFFFFFF AND EQ ISZERO PUSH2 0x22B JUMPI PUSH1 0x1 SWAP2 POP JUMPDEST DUP1 DUP1 PUSH1 0x1 ADD SWAP2 POP POP PUSH2 0x1AE JUMP JUMPDEST POP PUSH1 0x1 ISZERO ISZERO DUP2 ISZERO ISZERO EQ PUSH2 0x280 JUMPI PUSH1 0x40 MLOAD PUSH32 0x8C379A000000000000000000000000000000000000000000000000000000000 DUP2 MSTORE PUSH1 0x4 ADD PUSH2 0x277 SWAP1 PUSH2 0xA46 JUMP JUMPDEST PUSH1 0x40 MLOAD DUP1 SWAP2 SUB SWAP1 REVERT JUMPDEST PUSH1 0x2 PUSH1 0x40 MLOAD DUP1 PUSH1 0xA0 ADD PUSH1 0x40 MSTORE DUP1 PUSH1 0x2 DUP1 SLOAD SWAP1 POP DUP2 MSTORE PUSH1 0x20 ADD DUP6 DUP2 MSTORE PUSH1 0x20 ADD DUP5 PUSH20 0xFFFFFFFFFFFFFFFFFFFFFFFFFFFFFFFFFFFFFFFF AND DUP2 MSTORE PUSH1 0x20 ADD PUSH1 0x0 DUP2 MSTORE PUSH1 0x20 ADD PUSH1 0x0 ISZERO ISZERO DUP2 MSTORE POP SWAP1 DUP1 PUSH1 0x1 DUP2 SLOAD ADD DUP1 DUP3 SSTORE DUP1 SWAP2 POP POP PUSH1 0x1 SWAP1 SUB SWAP1 PUSH1 0x0 MSTORE PUSH1 0x20 PUSH1 0x0 KECCAK256 SWAP1 PUSH1 0x5 MUL ADD PUSH1 0x0 SWAP1 SWAP2 SWAP1 SWAP2 SWAP1 SWAP2 POP PUSH1 0x0 DUP3 ADD MLOAD DUP2 PUSH1 0x0 ADD SSTORE PUSH1 0x20 DUP3 ADD MLOAD DUP2 PUSH1 0x1 ADD SSTORE PUSH1 0x40 DUP3 ADD MLOAD DUP2 PUSH1 0x2 ADD PUSH1 0x0 PUSH2 0x100 EXP DUP2 SLOAD DUP2 PUSH20 0xFFFFFFFFFFFFFFFFFFFFFFFFFFFFFFFFFFFFFFFF MUL NOT AND SWAP1 DUP4 PUSH20 0xFFFFFFFFFFFFFFFFFFFFFFFFFFFFFFFFFFFFFFFF AND MUL OR SWAP1 SSTORE POP PUSH1 0x60 DUP3 ADD MLOAD DUP2 PUSH1 0x3 ADD SSTORE PUSH1 0x80 DUP3 ADD MLOAD DUP2 PUSH1 0x4 ADD PUSH1 0x0 PUSH2 0x100 EXP DUP2 SLOAD DUP2 PUSH1 0xFF MUL NOT AND SWAP1 DUP4 ISZERO ISZERO MUL OR SWAP1 SSTORE POP POP POP POP POP POP JUMP JUMPDEST PUSH1 0x2 DUP2 DUP2 SLOAD DUP2 LT PUSH2 0x38A JUMPI INVALID JUMPDEST SWAP1 PUSH1 0x0 MSTORE PUSH1 0x20 PUSH1 0x0 KECCAK256 SWAP1 PUSH1 0x5 MUL ADD PUSH1 0x0 SWAP2 POP SWAP1 POP DUP1 PUSH1 0x0 ADD SLOAD SWAP1 DUP1 PUSH1 0x1 ADD SLOAD SWAP1 DUP1 PUSH1 0x2 ADD PUSH1 0x0 SWAP1 SLOAD SWAP1 PUSH2 0x100 EXP SWAP1 DIV PUSH20 0xFFFFFFFFFFFFFFFFFFFFFFFFFFFFFFFFFFFFFFFF AND SWAP1 DUP1 PUSH1 0x3 ADD SLOAD SWAP1 DUP1 PUSH1 0x4 ADD PUSH1 0x0 SWAP1 SLOAD SWAP1 PUSH2 0x100 EXP SWAP1 DIV PUSH1 0xFF AND SWAP1 POP DUP6 JUMP JUMPDEST PUSH1 0x0 DUP1 SWAP1 POP PUSH1 0x0 DUP1 SWAP1 POP JUMPDEST PUSH1 0x0 DUP1 SLOAD SWAP1 POP DUP2 LT ISZERO PUSH2 0x482 JUMPI PUSH1 0x0 DUP2 DUP2 SLOAD DUP2 LT PUSH2 0x412 JUMPI INVALID JUMPDEST SWAP1 PUSH1 0x0 MSTORE PUSH1 0x20 PUSH1 0x0 KECCAK256 ADD PUSH1 0x0 SWAP1 SLOAD SWAP1 PUSH2 0x100 EXP SWAP1 DIV PUSH20 0xFFFFFFFFFFFFFFFFFFFFFFFFFFFFFFFFFFFFFFFF AND PUSH20 0xFFFFFFFFFFFFFFFFFFFFFFFFFFFFFFFFFFFFFFFF AND CALLER PUSH20 0xFFFFFFFFFFFFFFFFFFFFFFFFFFFFFFFFFFFFFFFF AND EQ ISZERO PUSH2 0x475 JUMPI PUSH1 0x1 SWAP2 POP JUMPDEST DUP1 DUP1 PUSH1 0x1 ADD SWAP2 POP POP PUSH2 0x3F8 JUMP JUMPDEST POP PUSH1 0x1 ISZERO ISZERO DUP2 ISZERO ISZERO EQ PUSH2 0x4CA JUMPI PUSH1 0x40 MLOAD PUSH32 0x8C379A000000000000000000000000000000000000000000000000000000000 DUP2 MSTORE PUSH1 0x4 ADD PUSH2 0x4C1 SWAP1 PUSH2 0xA46 JUMP JUMPDEST PUSH1 0x40 MLOAD DUP1 SWAP2 SUB SWAP1 REVERT JUMPDEST PUSH1 0x0 ISZERO ISZERO PUSH1 0x2 DUP4 DUP2 SLOAD DUP2 LT PUSH2 0x4DB JUMPI INVALID JUMPDEST SWAP1 PUSH1 0x0 MSTORE PUSH1 0x20 PUSH1 0x0 KECCAK256 SWAP1 PUSH1 0x5 MUL ADD PUSH1 0x4 ADD PUSH1 0x0 SWAP1 SLOAD SWAP1 PUSH2 0x100 EXP SWAP1 DIV PUSH1 0xFF AND ISZERO ISZERO EQ PUSH2 0x53C JUMPI PUSH1 0x40 MLOAD PUSH32 0x8C379A000000000000000000000000000000000000000000000000000000000 DUP2 MSTORE PUSH1 0x4 ADD PUSH2 0x533 SWAP1 PUSH2 0xA06 JUMP JUMPDEST PUSH1 0x40 MLOAD DUP1 SWAP2 SUB SWAP1 REVERT JUMPDEST PUSH1 0x0 ISZERO ISZERO PUSH1 0x3 PUSH1 0x0 CALLER PUSH20 0xFFFFFFFFFFFFFFFFFFFFFFFFFFFFFFFFFFFFFFFF AND PUSH20 0xFFFFFFFFFFFFFFFFFFFFFFFFFFFFFFFFFFFFFFFF AND DUP2 MSTORE PUSH1 0x20 ADD SWAP1 DUP2 MSTORE PUSH1 0x20 ADD PUSH1 0x0 KECCAK256 PUSH1 0x0 DUP5 DUP2 MSTORE PUSH1 0x20 ADD SWAP1 DUP2 MSTORE PUSH1 0x20 ADD PUSH1 0x0 KECCAK256 PUSH1 0x0 SWAP1 SLOAD SWAP1 PUSH2 0x100 EXP SWAP1 DIV PUSH1 0xFF AND ISZERO ISZERO EQ PUSH2 0x5E0 JUMPI PUSH1 0x40 MLOAD PUSH32 0x8C379A000000000000000000000000000000000000000000000000000000000 DUP2 MSTORE PUSH1 0x4 ADD PUSH2 0x5D7 SWAP1 PUSH2 0xA26 JUMP JUMPDEST PUSH1 0x40 MLOAD DUP1 SWAP2 SUB SWAP1 REVERT JUMPDEST PUSH1 0x1 PUSH1 0x3 PUSH1 0x0 CALLER PUSH20 0xFFFFFFFFFFFFFFFFFFFFFFFFFFFFFFFFFFFFFFFF AND PUSH20 0xFFFFFFFFFFFFFFFFFFFFFFFFFFFFFFFFFFFFFFFF AND DUP2 MSTORE PUSH1 0x20 ADD SWAP1 DUP2 MSTORE PUSH1 0x20 ADD PUSH1 0x0 KECCAK256 PUSH1 0x0 DUP5 DUP2 MSTORE PUSH1 0x20 ADD SWAP1 DUP2 MSTORE PUSH1 0x20 ADD PUSH1 0x0 KECCAK256 PUSH1 0x0 PUSH2 0x100 EXP DUP2 SLOAD DUP2 PUSH1 0xFF MUL NOT AND SWAP1 DUP4 ISZERO ISZERO MUL OR SWAP1 SSTORE POP PUSH1 0x2 DUP3 DUP2 SLOAD DUP2 LT PUSH2 0x656 JUMPI INVALID JUMPDEST SWAP1 PUSH1 0x0 MSTORE PUSH1 0x20 PUSH1 0x0 KECCAK256 SWAP1 PUSH1 0x5 MUL ADD PUSH1 0x3 ADD PUSH1 0x0 DUP2 SLOAD DUP1 SWAP3 SWAP2 SWAP1 PUSH1 0x1 ADD SWAP2 SWAP1 POP SSTORE POP PUSH1 0x1 SLOAD PUSH1 0x2 DUP4 DUP2 SLOAD DUP2 LT PUSH2 0x687 JUMPI INVALID JUMPDEST SWAP1 PUSH1 0x0 MSTORE PUSH1 0x20 PUSH1 0x0 KECCAK256 SWAP1 PUSH1 0x5 MUL ADD PUSH1 0x3 ADD SLOAD LT PUSH2 0x785 JUMPI PUSH1 0x1 PUSH1 0x2 DUP4 DUP2 SLOAD DUP2 LT PUSH2 0x6AD JUMPI INVALID JUMPDEST SWAP1 PUSH1 0x0 MSTORE PUSH1 0x20 PUSH1 0x0 KECCAK256 SWAP1 PUSH1 0x5 MUL ADD PUSH1 0x4 ADD PUSH1 0x0 PUSH2 0x100 EXP DUP2 SLOAD DUP2 PUSH1 0xFF MUL NOT AND SWAP1 DUP4 ISZERO ISZERO MUL OR SWAP1 SSTORE POP PUSH1 0x0 PUSH1 0x2 DUP4 DUP2 SLOAD DUP2 LT PUSH2 0x6E4 JUMPI INVALID JUMPDEST SWAP1 PUSH1 0x0 MSTORE PUSH1 0x20 PUSH1 0x0 KECCAK256 SWAP1 PUSH1 0x5 MUL ADD PUSH1 0x2 ADD PUSH1 0x0 SWAP1 SLOAD SWAP1 PUSH2 0x100 EXP SWAP1 DIV PUSH20 0xFFFFFFFFFFFFFFFFFFFFFFFFFFFFFFFFFFFFFFFF AND SWAP1 POP PUSH1 0x0 PUSH1 0x2 DUP5 DUP2 SLOAD DUP2 LT PUSH2 0x727 JUMPI INVALID JUMPDEST SWAP1 PUSH1 0x0 MSTORE PUSH1 0x20 PUSH1 0x0 KECCAK256 SWAP1 PUSH1 0x5 MUL ADD PUSH1 0x1 ADD SLOAD SWAP1 POP DUP2 PUSH20 0xFFFFFFFFFFFFFFFFFFFFFFFFFFFFFFFFFFFFFFFF AND PUSH2 0x8FC DUP3 SWAP1 DUP2 ISZERO MUL SWAP1 PUSH1 0x40 MLOAD PUSH1 0x0 PUSH1 0x40 MLOAD DUP1 DUP4 SUB DUP2 DUP6 DUP9 DUP9 CALL SWAP4 POP POP POP POP ISZERO DUP1 ISZERO PUSH2 0x781 JUMPI RETURNDATASIZE PUSH1 0x0 DUP1 RETURNDATACOPY RETURNDATASIZE PUSH1 0x0 REVERT JUMPDEST POP POP POP JUMPDEST POP POP JUMP JUMPDEST PUSH1 0x0 DUP2 DUP2 SLOAD DUP2 LT PUSH2 0x796 JUMPI INVALID JUMPDEST SWAP1 PUSH1 0x0 MSTORE PUSH1 0x20 PUSH1 0x0 KECCAK256 ADD PUSH1 0x0 SWAP2 POP SLOAD SWAP1 PUSH2 0x100 EXP SWAP1 DIV PUSH20 0xFFFFFFFFFFFFFFFFFFFFFFFFFFFFFFFFFFFFFFFF AND DUP2 JUMP JUMPDEST PUSH1 0x3 PUSH1 0x20 MSTORE DUP2 PUSH1 0x0 MSTORE PUSH1 0x40 PUSH1 0x0 KECCAK256 PUSH1 0x20 MSTORE DUP1 PUSH1 0x0 MSTORE PUSH1 0x40 PUSH1 0x0 KECCAK256 PUSH1 0x0 SWAP2 POP SWAP2 POP SWAP1 SLOAD SWAP1 PUSH2 0x100 EXP SWAP1 DIV PUSH1 0xFF AND DUP2 JUMP JUMPDEST PUSH1 0x0 DUP2 CALLDATALOAD SWAP1 POP PUSH2 0x803 DUP2 PUSH2 0xB3F JUMP JUMPDEST SWAP3 SWAP2 POP POP JUMP JUMPDEST PUSH1 0x0 DUP2 CALLDATALOAD SWAP1 POP PUSH2 0x818 DUP2 PUSH2 0xB56 JUMP JUMPDEST SWAP3 SWAP2 POP POP JUMP JUMPDEST PUSH1 0x0 DUP2 CALLDATALOAD SWAP1 POP PUSH2 0x82D DUP2 PUSH2 0xB6D JUMP JUMPDEST SWAP3 SWAP2 POP POP JUMP JUMPDEST PUSH1 0x0 DUP1 PUSH1 0x40 DUP4 DUP6 SUB SLT ISZERO PUSH2 0x846 JUMPI PUSH1 0x0 DUP1 REVERT JUMPDEST PUSH1 0x0 PUSH2 0x854 DUP6 DUP3 DUP7 ADD PUSH2 0x7F4 JUMP JUMPDEST SWAP3 POP POP PUSH1 0x20 PUSH2 0x865 DUP6 DUP3 DUP7 ADD PUSH2 0x81E JUMP JUMPDEST SWAP2 POP POP SWAP3 POP SWAP3 SWAP1 POP JUMP JUMPDEST PUSH1 0x0 PUSH1 0x20 DUP3 DUP5 SUB SLT ISZERO PUSH2 0x881 JUMPI PUSH1 0x0 DUP1 REVERT JUMPDEST PUSH1 0x0 PUSH2 0x88F DUP5 DUP3 DUP6 ADD PUSH2 0x81E JUMP JUMPDEST SWAP2 POP POP SWAP3 SWAP2 POP POP JUMP JUMPDEST PUSH1 0x0 DUP1 PUSH1 0x40 DUP4 DUP6 SUB SLT ISZERO PUSH2 0x8AB JUMPI PUSH1 0x0 DUP1 REVERT JUMPDEST PUSH1 0x0 PUSH2 0x8B9 DUP6 DUP3 DUP7 ADD PUSH2 0x81E JUMP JUMPDEST SWAP3 POP POP PUSH1 0x20 PUSH2 0x8CA DUP6 DUP3 DUP7 ADD PUSH2 0x809 JUMP JUMPDEST SWAP2 POP POP SWAP3 POP SWAP3 SWAP1 POP JUMP JUMPDEST PUSH2 0x8DD DUP2 PUSH2 0xAF7 JUMP JUMPDEST DUP3 MSTORE POP POP JUMP JUMPDEST PUSH2 0x8EC DUP2 PUSH2 0xAE5 JUMP JUMPDEST DUP3 MSTORE POP POP JUMP JUMPDEST PUSH2 0x8FB DUP2 PUSH2 0xB09 JUMP JUMPDEST DUP3 MSTORE POP POP JUMP JUMPDEST PUSH1 0x0 PUSH2 0x90E PUSH1 0x1F DUP4 PUSH2 0xAD4 JUMP JUMPDEST SWAP2 POP PUSH32 0x5472616E736665722068617320616C7265616479206265656E2073656E742E00 PUSH1 0x0 DUP4 ADD MSTORE PUSH1 0x20 DUP3 ADD SWAP1 POP SWAP2 SWAP1 POP JUMP JUMPDEST PUSH1 0x0 PUSH2 0x94E PUSH1 0x1E DUP4 PUSH2 0xAD4 JUMP JUMPDEST SWAP2 POP PUSH32 0x43616E6E6F7420617070726F7665207472616E7366657220616761696E2E0000 PUSH1 0x0 DUP4 ADD MSTORE PUSH1 0x20 DUP3 ADD SWAP1 POP SWAP2 SWAP1 POP JUMP JUMPDEST PUSH1 0x0 PUSH2 0x98E PUSH1 0x16 DUP4 PUSH2 0xAD4 JUMP JUMPDEST SWAP2 POP PUSH32 0x4F6E6C7920617070726F76657220616C6C6F7765642E00000000000000000000 PUSH1 0x0 DUP4 ADD MSTORE PUSH1 0x20 DUP3 ADD SWAP1 POP SWAP2 SWAP1 POP JUMP JUMPDEST PUSH2 0x9CA DUP2 PUSH2 0xB35 JUMP JUMPDEST DUP3 MSTORE POP POP JUMP JUMPDEST PUSH1 0x0 PUSH1 0x20 DUP3 ADD SWAP1 POP PUSH2 0x9E5 PUSH1 0x0 DUP4 ADD DUP5 PUSH2 0x8E3 JUMP JUMPDEST SWAP3 SWAP2 POP POP JUMP JUMPDEST PUSH1 0x0 PUSH1 0x20 DUP3 ADD SWAP1 POP PUSH2 0xA00 PUSH1 0x0 DUP4 ADD DUP5 PUSH2 0x8F2 JUMP JUMPDEST SWAP3 SWAP2 POP POP JUMP JUMPDEST PUSH1 0x0 PUSH1 0x20 DUP3 ADD SWAP1 POP DUP2 DUP2 SUB PUSH1 0x0 DUP4 ADD MSTORE PUSH2 0xA1F DUP2 PUSH2 0x901 JUMP JUMPDEST SWAP1 POP SWAP2 SWAP1 POP JUMP JUMPDEST PUSH1 0x0 PUSH1 0x20 DUP3 ADD SWAP1 POP DUP2 DUP2 SUB PUSH1 0x0 DUP4 ADD MSTORE PUSH2 0xA3F DUP2 PUSH2 0x941 JUMP JUMPDEST SWAP1 POP SWAP2 SWAP1 POP JUMP JUMPDEST PUSH1 0x0 PUSH1 0x20 DUP3 ADD SWAP1 POP DUP2 DUP2 SUB PUSH1 0x0 DUP4 ADD MSTORE PUSH2 0xA5F DUP2 PUSH2 0x981 JUMP JUMPDEST SWAP1 POP SWAP2 SWAP1 POP JUMP JUMPDEST PUSH1 0x0 PUSH1 0x20 DUP3 ADD SWAP1 POP PUSH2 0xA7B PUSH1 0x0 DUP4 ADD DUP5 PUSH2 0x9C1 JUMP JUMPDEST SWAP3 SWAP2 POP POP JUMP JUMPDEST PUSH1 0x0 PUSH1 0xA0 DUP3 ADD SWAP1 POP PUSH2 0xA96 PUSH1 0x0 DUP4 ADD DUP9 PUSH2 0x9C1 JUMP JUMPDEST PUSH2 0xAA3 PUSH1 0x20 DUP4 ADD DUP8 PUSH2 0x9C1 JUMP JUMPDEST PUSH2 0xAB0 PUSH1 0x40 DUP4 ADD DUP7 PUSH2 0x8D4 JUMP JUMPDEST PUSH2 0xABD PUSH1 0x60 DUP4 ADD DUP6 PUSH2 0x9C1 JUMP JUMPDEST PUSH2 0xACA PUSH1 0x80 DUP4 ADD DUP5 PUSH2 0x8F2 JUMP JUMPDEST SWAP7 SWAP6 POP POP POP POP POP POP JUMP JUMPDEST PUSH1 0x0 DUP3 DUP3 MSTORE PUSH1 0x20 DUP3 ADD SWAP1 POP SWAP3 SWAP2 POP POP JUMP JUMPDEST PUSH1 0x0 PUSH2 0xAF0 DUP3 PUSH2 0xB15 JUMP JUMPDEST SWAP1 POP SWAP2 SWAP1 POP JUMP JUMPDEST PUSH1 0x0 PUSH2 0xB02 DUP3 PUSH2 0xB15 JUMP JUMPDEST SWAP1 POP SWAP2 SWAP1 POP JUMP JUMPDEST PUSH1 0x0 DUP2 ISZERO ISZERO SWAP1 POP SWAP2 SWAP1 POP JUMP JUMPDEST PUSH1 0x0 PUSH20 0xFFFFFFFFFFFFFFFFFFFFFFFFFFFFFFFFFFFFFFFF DUP3 AND SWAP1 POP SWAP2 SWAP1 POP JUMP JUMPDEST PUSH1 0x0 DUP2 SWAP1 POP SWAP2 SWAP1 POP JUMP JUMPDEST PUSH2 0xB48 DUP2 PUSH2 0xAE5 JUMP JUMPDEST DUP2 EQ PUSH2 0xB53 JUMPI PUSH1 0x0 DUP1 REVERT JUMPDEST POP JUMP JUMPDEST PUSH2 0xB5F DUP2 PUSH2 0xAF7 JUMP JUMPDEST DUP2 EQ PUSH2 0xB6A JUMPI PUSH1 0x0 DUP1 REVERT JUMPDEST POP JUMP JUMPDEST PUSH2 0xB76 DUP2 PUSH2 0xB35 JUMP JUMPDEST DUP2 EQ PUSH2 0xB81 JUMPI PUSH1 0x0 DUP1 REVERT JUMPDEST POP JUMP INVALID LOG2 PUSH5 0x6970667358 0x22 SLT KECCAK256 CALLDATACOPY PUSH21 0xC715DE48CA152E340B6BFC54AC7C5E51096FD55DF5 0x2D DUP3 SDIV 0x1E DUP3 DUP15 0xB2 DELEGATECALL MUL PUSH5 0x736F6C6343 STOP MOD STOP STOP CALLER "
				},
				"gasEstimates": {
					"creation": {
						"codeDepositCost": "600400",
						"executionCost": "632",
						"totalCost": "601032"
					},
					"external": {
						"approvals(address,uint256)": "1875",
						"approveTransfer(uint256)": "infinite",
						"approvers(uint256)": "2422",
						"createTransfer(uint256,address)": "infinite",
						"quorum()": "1107",
						"transfers(uint256)": "infinite"
					}
				},
				"methodIdentifiers": {
					"approvals(address,uint256)": "ffabc673",
					"approveTransfer(uint256)": "cacca4a0",
					"approvers(uint256)": "d3650fb8",
					"createTransfer(uint256,address)": "4c12fa47",
					"quorum()": "1703a018",
					"transfers(uint256)": "9377d711"
				}
			},
			"userdoc": {
				"methods": {
					"createTransfer(uint256,address)": {
						"notice": "constructor(address[] memory _approvers, uint _quorum) public { approvers = _approvers; quorum = _quorum; } function getApprovers() external view returns(address[] memory) { return approvers; } function getTransfers() external view returns(Transfer[] memory) { return transfers; } /**"
					}
				}
			}
		}
	}
}