{
	"blockchain_app/multisig_wallet/truffle_wallet/contracts/Wallet.sol": {
		"Wallet": {
			"abi": [
				{
					"inputs": [
						{
							"internalType": "address[]",
							"name": "_approvers",
							"type": "address[]"
						},
						{
							"internalType": "uint256",
							"name": "_quorum",
							"type": "uint256"
						}
					],
					"stateMutability": "nonpayable",
					"type": "constructor"
				},
				{
					"inputs": [
						{
							"internalType": "address",
							"name": "",
							"type": "address"
						},
						{
							"internalType": "uint256",
							"name": "",
							"type": "uint256"
						}
					],
					"name": "approvals",
					"outputs": [
						{
							"internalType": "bool",
							"name": "",
							"type": "bool"
						}
					],
					"stateMutability": "view",
					"type": "function"
				},
				{
					"inputs": [
						{
							"internalType": "uint256",
							"name": "_id",
							"type": "uint256"
						}
					],
					"name": "approveTransfer",
					"outputs": [],
					"stateMutability": "nonpayable",
					"type": "function"
				},
				{
					"inputs": [
						{
							"internalType": "uint256",
							"name": "",
							"type": "uint256"
						}
					],
					"name": "approvers",
					"outputs": [
						{
							"internalType": "address",
							"name": "",
							"type": "address"
						}
					],
					"stateMutability": "view",
					"type": "function"
				},
				{
					"inputs": [],
					"name": "getApprovers",
					"outputs": [
						{
							"internalType": "address[]",
							"name": "",
							"type": "address[]"
						}
					],
					"stateMutability": "view",
					"type": "function"
				},
				{
					"inputs": [],
					"name": "getTransfers",
					"outputs": [
						{
							"components": [
								{
									"internalType": "uint256",
									"name": "id",
									"type": "uint256"
								},
								{
									"internalType": "uint256",
									"name": "amount",
									"type": "uint256"
								},
								{
									"internalType": "address payable",
									"name": "to",
									"type": "address"
								},
								{
									"internalType": "uint256",
									"name": "approvals",
									"type": "uint256"
								},
								{
									"internalType": "bool",
									"name": "sent",
									"type": "bool"
								}
							],
							"internalType": "struct Wallet.Transfer[]",
							"name": "",
							"type": "tuple[]"
						}
					],
					"stateMutability": "view",
					"type": "function"
				},
				{
					"inputs": [],
					"name": "quorum",
					"outputs": [
						{
							"internalType": "uint256",
							"name": "",
							"type": "uint256"
						}
					],
					"stateMutability": "view",
					"type": "function"
				},
				{
					"inputs": [
						{
							"internalType": "uint256",
							"name": "",
							"type": "uint256"
						}
					],
					"name": "transfers",
					"outputs": [
						{
							"internalType": "uint256",
							"name": "id",
							"type": "uint256"
						},
						{
							"internalType": "uint256",
							"name": "amount",
							"type": "uint256"
						},
						{
							"internalType": "address payable",
							"name": "to",
							"type": "address"
						},
						{
							"internalType": "uint256",
							"name": "approvals",
							"type": "uint256"
						},
						{
							"internalType": "bool",
							"name": "sent",
							"type": "bool"
						}
					],
					"stateMutability": "view",
					"type": "function"
				},
				{
					"stateMutability": "payable",
					"type": "receive"
				}
			],
			"devdoc": {
				"author": "phuquyng",
				"details": "todo",
				"methods": {
					"approveTransfer(uint256)": {
						"details": "create a new  function createTransfer(uint amount, address payable to) external onlyApprover { transfers.push(Transfer( transfers.length, amount, to, 0, false )); } /**approve a transfer \r"
					}
				},
				"title": "Manage the multi signature wallet"
			},
			"evm": {
				"assembly": "    /* \"blockchain_app/multisig_wallet/truffle_wallet/contracts/Wallet.sol\":144:2524  contract Wallet {\r... */\n  mstore(0x40, 0x80)\n    /* \"blockchain_app/multisig_wallet/truffle_wallet/contracts/Wallet.sol\":1059:1189  constructor(address[] memory _approvers, uint _quorum) public {\r... */\n  callvalue\n    /* \"--CODEGEN--\":8:17   */\n  dup1\n    /* \"--CODEGEN--\":5:7   */\n  iszero\n  tag_1\n  jumpi\n    /* \"--CODEGEN--\":30:31   */\n  0x00\n    /* \"--CODEGEN--\":27:28   */\n  dup1\n    /* \"--CODEGEN--\":20:32   */\n  revert\n    /* \"--CODEGEN--\":5:7   */\ntag_1:\n    /* \"blockchain_app/multisig_wallet/truffle_wallet/contracts/Wallet.sol\":1059:1189  constructor(address[] memory _approvers, uint _quorum) public {\r... */\n  pop\n  mload(0x40)\n  sub(codesize, bytecodeSize)\n  dup1\n  bytecodeSize\n  dup4\n  codecopy\n  dup2\n  dup2\n  add\n  0x40\n  mstore\n  tag_2\n  swap2\n  swap1\n  dup2\n  add\n  swap1\n  jump(tag_3)\ntag_2:\n    /* \"blockchain_app/multisig_wallet/truffle_wallet/contracts/Wallet.sol\":1144:1154  _approvers */\n  dup2\n    /* \"blockchain_app/multisig_wallet/truffle_wallet/contracts/Wallet.sol\":1132:1141  approvers */\n  0x00\n    /* \"blockchain_app/multisig_wallet/truffle_wallet/contracts/Wallet.sol\":1132:1154  approvers = _approvers */\n  swap1\n  dup1\n  mload\n  swap1\n  0x20\n  add\n  swap1\n  tag_6\n  swap3\n  swap2\n  swap1\n  tag_7\n  jump\t// in\ntag_6:\n  pop\n    /* \"blockchain_app/multisig_wallet/truffle_wallet/contracts/Wallet.sol\":1174:1181  _quorum */\n  dup1\n    /* \"blockchain_app/multisig_wallet/truffle_wallet/contracts/Wallet.sol\":1165:1171  quorum */\n  0x01\n    /* \"blockchain_app/multisig_wallet/truffle_wallet/contracts/Wallet.sol\":1165:1181  quorum = _quorum */\n  dup2\n  swap1\n  sstore\n  pop\n    /* \"blockchain_app/multisig_wallet/truffle_wallet/contracts/Wallet.sol\":1059:1189  constructor(address[] memory _approvers, uint _quorum) public {\r... */\n  pop\n  pop\n    /* \"blockchain_app/multisig_wallet/truffle_wallet/contracts/Wallet.sol\":144:2524  contract Wallet {\r... */\n  jump(tag_8)\ntag_7:\n  dup3\n  dup1\n  sload\n  dup3\n  dup3\n  sstore\n  swap1\n  0x00\n  mstore\n  keccak256(0x00, 0x20)\n  swap1\n  dup2\n  add\n  swap3\n  dup3\n  iszero\n  tag_9\n  jumpi\n  swap2\n  0x20\n  mul\n  dup3\n  add\ntag_10:\n  dup3\n  dup2\n  gt\n  iszero\n  tag_11\n  jumpi\n  dup3\n  mload\n  dup3\n  exp(0x0100, 0x00)\n  dup2\n  sload\n  dup2\n  0xffffffffffffffffffffffffffffffffffffffff\n  mul\n  not\n  and\n  swap1\n  dup4\n  0xffffffffffffffffffffffffffffffffffffffff\n  and\n  mul\n  or\n  swap1\n  sstore\n  pop\n  swap2\n  0x20\n  add\n  swap2\n  swap1\n  0x01\n  add\n  swap1\n  jump(tag_10)\ntag_11:\ntag_9:\n  pop\n  swap1\n  pop\n  tag_12\n  swap2\n  swap1\n  tag_13\n  jump\t// in\ntag_12:\n  pop\n  swap1\n  jump\t// out\ntag_13:\n  tag_14\n  swap2\n  swap1\ntag_15:\n  dup1\n  dup3\n  gt\n  iszero\n  tag_16\n  jumpi\n  0x00\n  dup2\n  dup2\n  0x0100\n  exp\n  dup2\n  sload\n  swap1\n  0xffffffffffffffffffffffffffffffffffffffff\n  mul\n  not\n  and\n  swap1\n  sstore\n  pop\n  0x01\n  add\n  jump(tag_15)\ntag_16:\n  pop\n  swap1\n  jump\ntag_14:\n  swap1\n  jump\t// out\n    /* \"--CODEGEN--\":5:139   */\ntag_18:\n  0x00\n    /* \"--CODEGEN--\":89:95   */\n  dup2\n    /* \"--CODEGEN--\":83:96   */\n  mload\n    /* \"--CODEGEN--\":74:96   */\n  swap1\n  pop\n    /* \"--CODEGEN--\":101:134   */\n  tag_20\n    /* \"--CODEGEN--\":128:133   */\n  dup2\n    /* \"--CODEGEN--\":101:134   */\n  jump(tag_21)\ntag_20:\n    /* \"--CODEGEN--\":68:139   */\n  swap3\n  swap2\n  pop\n  pop\n  jump\n    /* \"--CODEGEN--\":164:886   */\ntag_22:\n  0x00\n    /* \"--CODEGEN--\":292:295   */\n  dup3\n    /* \"--CODEGEN--\":285:289   */\n  0x1f\n    /* \"--CODEGEN--\":277:283   */\n  dup4\n    /* \"--CODEGEN--\":273:290   */\n  add\n    /* \"--CODEGEN--\":269:296   */\n  slt\n    /* \"--CODEGEN--\":259:261   */\n  tag_24\n  jumpi\n    /* \"--CODEGEN--\":310:311   */\n  0x00\n    /* \"--CODEGEN--\":307:308   */\n  dup1\n    /* \"--CODEGEN--\":300:312   */\n  revert\n    /* \"--CODEGEN--\":259:261   */\ntag_24:\n    /* \"--CODEGEN--\":340:346   */\n  dup2\n    /* \"--CODEGEN--\":334:347   */\n  mload\n    /* \"--CODEGEN--\":362:442   */\n  tag_25\n    /* \"--CODEGEN--\":377:441   */\n  tag_26\n    /* \"--CODEGEN--\":434:440   */\n  dup3\n    /* \"--CODEGEN--\":377:441   */\n  jump(tag_27)\ntag_26:\n    /* \"--CODEGEN--\":362:442   */\n  jump(tag_28)\ntag_25:\n    /* \"--CODEGEN--\":353:442   */\n  swap2\n  pop\n    /* \"--CODEGEN--\":459:464   */\n  dup2\n    /* \"--CODEGEN--\":484:490   */\n  dup2\n    /* \"--CODEGEN--\":477:482   */\n  dup4\n    /* \"--CODEGEN--\":470:491   */\n  mstore\n    /* \"--CODEGEN--\":514:518   */\n  0x20\n    /* \"--CODEGEN--\":506:512   */\n  dup5\n    /* \"--CODEGEN--\":502:519   */\n  add\n    /* \"--CODEGEN--\":492:519   */\n  swap4\n  pop\n    /* \"--CODEGEN--\":536:540   */\n  0x20\n    /* \"--CODEGEN--\":531:534   */\n  dup2\n    /* \"--CODEGEN--\":527:541   */\n  add\n    /* \"--CODEGEN--\":520:541   */\n  swap1\n  pop\n    /* \"--CODEGEN--\":589:595   */\n  dup4\n    /* \"--CODEGEN--\":636:639   */\n  dup6\n    /* \"--CODEGEN--\":628:632   */\n  0x20\n    /* \"--CODEGEN--\":620:626   */\n  dup5\n    /* \"--CODEGEN--\":616:633   */\n  mul\n    /* \"--CODEGEN--\":611:614   */\n  dup3\n    /* \"--CODEGEN--\":607:634   */\n  add\n    /* \"--CODEGEN--\":604:640   */\n  gt\n    /* \"--CODEGEN--\":601:603   */\n  iszero\n  tag_29\n  jumpi\n    /* \"--CODEGEN--\":653:654   */\n  0x00\n    /* \"--CODEGEN--\":650:651   */\n  dup1\n    /* \"--CODEGEN--\":643:655   */\n  revert\n    /* \"--CODEGEN--\":601:603   */\ntag_29:\n    /* \"--CODEGEN--\":678:679   */\n  0x00\n    /* \"--CODEGEN--\":663:880   */\ntag_30:\n    /* \"--CODEGEN--\":688:694   */\n  dup4\n    /* \"--CODEGEN--\":685:686   */\n  dup2\n    /* \"--CODEGEN--\":682:695   */\n  lt\n    /* \"--CODEGEN--\":663:880   */\n  iszero\n  tag_32\n  jumpi\n    /* \"--CODEGEN--\":746:749   */\n  dup2\n    /* \"--CODEGEN--\":768:816   */\n  tag_33\n    /* \"--CODEGEN--\":812:815   */\n  dup9\n    /* \"--CODEGEN--\":800:810   */\n  dup3\n    /* \"--CODEGEN--\":768:816   */\n  jump(tag_18)\ntag_33:\n    /* \"--CODEGEN--\":763:766   */\n  dup5\n    /* \"--CODEGEN--\":756:817   */\n  mstore\n    /* \"--CODEGEN--\":840:844   */\n  0x20\n    /* \"--CODEGEN--\":835:838   */\n  dup5\n    /* \"--CODEGEN--\":831:845   */\n  add\n    /* \"--CODEGEN--\":824:845   */\n  swap4\n  pop\n    /* \"--CODEGEN--\":868:872   */\n  0x20\n    /* \"--CODEGEN--\":863:866   */\n  dup4\n    /* \"--CODEGEN--\":859:873   */\n  add\n    /* \"--CODEGEN--\":852:873   */\n  swap3\n  pop\n    /* \"--CODEGEN--\":720:880   */\n  pop\n    /* \"--CODEGEN--\":710:711   */\n  0x01\n    /* \"--CODEGEN--\":707:708   */\n  dup2\n    /* \"--CODEGEN--\":703:712   */\n  add\n    /* \"--CODEGEN--\":698:712   */\n  swap1\n  pop\n    /* \"--CODEGEN--\":663:880   */\n  jump(tag_30)\ntag_32:\n    /* \"--CODEGEN--\":667:681   */\n  pop\n    /* \"--CODEGEN--\":252:886   */\n  pop\n  pop\n  pop\n  swap3\n  swap2\n  pop\n  pop\n  jump\n    /* \"--CODEGEN--\":894:1028   */\ntag_34:\n  0x00\n    /* \"--CODEGEN--\":978:984   */\n  dup2\n    /* \"--CODEGEN--\":972:985   */\n  mload\n    /* \"--CODEGEN--\":963:985   */\n  swap1\n  pop\n    /* \"--CODEGEN--\":990:1023   */\n  tag_36\n    /* \"--CODEGEN--\":1017:1022   */\n  dup2\n    /* \"--CODEGEN--\":990:1023   */\n  jump(tag_37)\ntag_36:\n    /* \"--CODEGEN--\":957:1028   */\n  swap3\n  swap2\n  pop\n  pop\n  jump\n    /* \"--CODEGEN--\":1035:1563   */\ntag_3:\n  0x00\n  dup1\n    /* \"--CODEGEN--\":1192:1194   */\n  0x40\n    /* \"--CODEGEN--\":1180:1189   */\n  dup4\n    /* \"--CODEGEN--\":1171:1178   */\n  dup6\n    /* \"--CODEGEN--\":1167:1190   */\n  sub\n    /* \"--CODEGEN--\":1163:1195   */\n  slt\n    /* \"--CODEGEN--\":1160:1162   */\n  iszero\n  tag_39\n  jumpi\n    /* \"--CODEGEN--\":1208:1209   */\n  0x00\n    /* \"--CODEGEN--\":1205:1206   */\n  dup1\n    /* \"--CODEGEN--\":1198:1210   */\n  revert\n    /* \"--CODEGEN--\":1160:1162   */\ntag_39:\n    /* \"--CODEGEN--\":1264:1265   */\n  0x00\n    /* \"--CODEGEN--\":1253:1262   */\n  dup4\n    /* \"--CODEGEN--\":1249:1266   */\n  add\n    /* \"--CODEGEN--\":1243:1267   */\n  mload\n    /* \"--CODEGEN--\":1287:1305   */\n  0xffffffffffffffff\n    /* \"--CODEGEN--\":1279:1285   */\n  dup2\n    /* \"--CODEGEN--\":1276:1306   */\n  gt\n    /* \"--CODEGEN--\":1273:1275   */\n  iszero\n  tag_40\n  jumpi\n    /* \"--CODEGEN--\":1319:1320   */\n  0x00\n    /* \"--CODEGEN--\":1316:1317   */\n  dup1\n    /* \"--CODEGEN--\":1309:1321   */\n  revert\n    /* \"--CODEGEN--\":1273:1275   */\ntag_40:\n    /* \"--CODEGEN--\":1339:1428   */\n  tag_41\n    /* \"--CODEGEN--\":1420:1427   */\n  dup6\n    /* \"--CODEGEN--\":1411:1417   */\n  dup3\n    /* \"--CODEGEN--\":1400:1409   */\n  dup7\n    /* \"--CODEGEN--\":1396:1418   */\n  add\n    /* \"--CODEGEN--\":1339:1428   */\n  jump(tag_22)\ntag_41:\n    /* \"--CODEGEN--\":1329:1428   */\n  swap3\n  pop\n    /* \"--CODEGEN--\":1222:1434   */\n  pop\n    /* \"--CODEGEN--\":1465:1467   */\n  0x20\n    /* \"--CODEGEN--\":1483:1547   */\n  tag_42\n    /* \"--CODEGEN--\":1539:1546   */\n  dup6\n    /* \"--CODEGEN--\":1530:1536   */\n  dup3\n    /* \"--CODEGEN--\":1519:1528   */\n  dup7\n    /* \"--CODEGEN--\":1515:1537   */\n  add\n    /* \"--CODEGEN--\":1483:1547   */\n  jump(tag_34)\ntag_42:\n    /* \"--CODEGEN--\":1473:1547   */\n  swap2\n  pop\n    /* \"--CODEGEN--\":1444:1553   */\n  pop\n    /* \"--CODEGEN--\":1154:1563   */\n  swap3\n  pop\n  swap3\n  swap1\n  pop\n  jump\n    /* \"--CODEGEN--\":1570:1826   */\ntag_28:\n  0x00\n    /* \"--CODEGEN--\":1632:1634   */\n  0x40\n    /* \"--CODEGEN--\":1626:1635   */\n  mload\n    /* \"--CODEGEN--\":1616:1635   */\n  swap1\n  pop\n    /* \"--CODEGEN--\":1670:1674   */\n  dup2\n    /* \"--CODEGEN--\":1662:1668   */\n  dup2\n    /* \"--CODEGEN--\":1658:1675   */\n  add\n    /* \"--CODEGEN--\":1769:1775   */\n  dup2\n    /* \"--CODEGEN--\":1757:1767   */\n  dup2\n    /* \"--CODEGEN--\":1754:1776   */\n  lt\n    /* \"--CODEGEN--\":1733:1751   */\n  0xffffffffffffffff\n    /* \"--CODEGEN--\":1721:1731   */\n  dup3\n    /* \"--CODEGEN--\":1718:1752   */\n  gt\n    /* \"--CODEGEN--\":1715:1777   */\n  or\n    /* \"--CODEGEN--\":1712:1714   */\n  iszero\n  tag_44\n  jumpi\n    /* \"--CODEGEN--\":1790:1791   */\n  0x00\n    /* \"--CODEGEN--\":1787:1788   */\n  dup1\n    /* \"--CODEGEN--\":1780:1792   */\n  revert\n    /* \"--CODEGEN--\":1712:1714   */\ntag_44:\n    /* \"--CODEGEN--\":1810:1820   */\n  dup1\n    /* \"--CODEGEN--\":1806:1808   */\n  0x40\n    /* \"--CODEGEN--\":1799:1821   */\n  mstore\n    /* \"--CODEGEN--\":1610:1826   */\n  pop\n  swap2\n  swap1\n  pop\n  jump\n    /* \"--CODEGEN--\":1833:2137   */\ntag_27:\n  0x00\n    /* \"--CODEGEN--\":1992:2010   */\n  0xffffffffffffffff\n    /* \"--CODEGEN--\":1984:1990   */\n  dup3\n    /* \"--CODEGEN--\":1981:2011   */\n  gt\n    /* \"--CODEGEN--\":1978:1980   */\n  iszero\n  tag_46\n  jumpi\n    /* \"--CODEGEN--\":2024:2025   */\n  0x00\n    /* \"--CODEGEN--\":2021:2022   */\n  dup1\n    /* \"--CODEGEN--\":2014:2026   */\n  revert\n    /* \"--CODEGEN--\":1978:1980   */\ntag_46:\n    /* \"--CODEGEN--\":2059:2063   */\n  0x20\n    /* \"--CODEGEN--\":2051:2057   */\n  dup3\n    /* \"--CODEGEN--\":2047:2064   */\n  mul\n    /* \"--CODEGEN--\":2039:2064   */\n  swap1\n  pop\n    /* \"--CODEGEN--\":2122:2126   */\n  0x20\n    /* \"--CODEGEN--\":2116:2120   */\n  dup2\n    /* \"--CODEGEN--\":2112:2127   */\n  add\n    /* \"--CODEGEN--\":2104:2127   */\n  swap1\n  pop\n    /* \"--CODEGEN--\":1915:2137   */\n  swap2\n  swap1\n  pop\n  jump\n    /* \"--CODEGEN--\":2144:2235   */\ntag_47:\n  0x00\n    /* \"--CODEGEN--\":2206:2230   */\n  tag_49\n    /* \"--CODEGEN--\":2224:2229   */\n  dup3\n    /* \"--CODEGEN--\":2206:2230   */\n  jump(tag_50)\ntag_49:\n    /* \"--CODEGEN--\":2195:2230   */\n  swap1\n  pop\n    /* \"--CODEGEN--\":2189:2235   */\n  swap2\n  swap1\n  pop\n  jump\n    /* \"--CODEGEN--\":2242:2363   */\ntag_50:\n  0x00\n    /* \"--CODEGEN--\":2315:2357   */\n  0xffffffffffffffffffffffffffffffffffffffff\n    /* \"--CODEGEN--\":2308:2313   */\n  dup3\n    /* \"--CODEGEN--\":2304:2358   */\n  and\n    /* \"--CODEGEN--\":2293:2358   */\n  swap1\n  pop\n    /* \"--CODEGEN--\":2287:2363   */\n  swap2\n  swap1\n  pop\n  jump\n    /* \"--CODEGEN--\":2370:2442   */\ntag_52:\n  0x00\n    /* \"--CODEGEN--\":2432:2437   */\n  dup2\n    /* \"--CODEGEN--\":2421:2437   */\n  swap1\n  pop\n    /* \"--CODEGEN--\":2415:2442   */\n  swap2\n  swap1\n  pop\n  jump\n    /* \"--CODEGEN--\":2449:2566   */\ntag_21:\n    /* \"--CODEGEN--\":2518:2542   */\n  tag_55\n    /* \"--CODEGEN--\":2536:2541   */\n  dup2\n    /* \"--CODEGEN--\":2518:2542   */\n  jump(tag_47)\ntag_55:\n    /* \"--CODEGEN--\":2511:2516   */\n  dup2\n    /* \"--CODEGEN--\":2508:2543   */\n  eq\n    /* \"--CODEGEN--\":2498:2500   */\n  tag_56\n  jumpi\n    /* \"--CODEGEN--\":2557:2558   */\n  0x00\n    /* \"--CODEGEN--\":2554:2555   */\n  dup1\n    /* \"--CODEGEN--\":2547:2559   */\n  revert\n    /* \"--CODEGEN--\":2498:2500   */\ntag_56:\n    /* \"--CODEGEN--\":2492:2566   */\n  pop\n  jump\n    /* \"--CODEGEN--\":2573:2690   */\ntag_37:\n    /* \"--CODEGEN--\":2642:2666   */\n  tag_58\n    /* \"--CODEGEN--\":2660:2665   */\n  dup2\n    /* \"--CODEGEN--\":2642:2666   */\n  jump(tag_52)\ntag_58:\n    /* \"--CODEGEN--\":2635:2640   */\n  dup2\n    /* \"--CODEGEN--\":2632:2667   */\n  eq\n    /* \"--CODEGEN--\":2622:2624   */\n  tag_59\n  jumpi\n    /* \"--CODEGEN--\":2681:2682   */\n  0x00\n    /* \"--CODEGEN--\":2678:2679   */\n  dup1\n    /* \"--CODEGEN--\":2671:2683   */\n  revert\n    /* \"--CODEGEN--\":2622:2624   */\ntag_59:\n    /* \"--CODEGEN--\":2616:2690   */\n  pop\n  jump\n    /* \"blockchain_app/multisig_wallet/truffle_wallet/contracts/Wallet.sol\":144:2524  contract Wallet {\r... */\ntag_8:\n  dataSize(sub_0)\n  dup1\n  dataOffset(sub_0)\n  0x00\n  codecopy\n  0x00\n  return\nstop\n\nsub_0: assembly {\n        /* \"blockchain_app/multisig_wallet/truffle_wallet/contracts/Wallet.sol\":144:2524  contract Wallet {\r... */\n      mstore(0x40, 0x80)\n      jumpi(tag_1, lt(calldatasize, 0x04))\n      shr(0xe0, calldataload(0x00))\n      dup1\n      0x9377d711\n      gt\n      tag_10\n      jumpi\n      dup1\n      0x9377d711\n      eq\n      tag_6\n      jumpi\n      dup1\n      0xcacca4a0\n      eq\n      tag_7\n      jumpi\n      dup1\n      0xd3650fb8\n      eq\n      tag_8\n      jumpi\n      dup1\n      0xffabc673\n      eq\n      tag_9\n      jumpi\n      jump(tag_2)\n    tag_10:\n      dup1\n      0x1703a018\n      eq\n      tag_3\n      jumpi\n      dup1\n      0x2f65142c\n      eq\n      tag_4\n      jumpi\n      dup1\n      0x6cb3e8ef\n      eq\n      tag_5\n      jumpi\n      jump(tag_2)\n    tag_1:\n      jumpi(tag_2, calldatasize)\n      stop\n    tag_2:\n      0x00\n      dup1\n      revert\n        /* \"blockchain_app/multisig_wallet/truffle_wallet/contracts/Wallet.sol\":300:318  uint public quorum */\n    tag_3:\n      callvalue\n        /* \"--CODEGEN--\":8:17   */\n      dup1\n        /* \"--CODEGEN--\":5:7   */\n      iszero\n      tag_13\n      jumpi\n        /* \"--CODEGEN--\":30:31   */\n      0x00\n        /* \"--CODEGEN--\":27:28   */\n      dup1\n        /* \"--CODEGEN--\":20:32   */\n      revert\n        /* \"--CODEGEN--\":5:7   */\n    tag_13:\n        /* \"blockchain_app/multisig_wallet/truffle_wallet/contracts/Wallet.sol\":300:318  uint public quorum */\n      pop\n      tag_14\n      tag_15\n      jump\t// in\n    tag_14:\n      mload(0x40)\n      tag_16\n      swap2\n      swap1\n      jump(tag_17)\n    tag_16:\n      mload(0x40)\n      dup1\n      swap2\n      sub\n      swap1\n      return\n        /* \"blockchain_app/multisig_wallet/truffle_wallet/contracts/Wallet.sol\":1304:1404  function getTransfers() external view returns(Transfer[] memory) {\r... */\n    tag_4:\n      callvalue\n        /* \"--CODEGEN--\":8:17   */\n      dup1\n        /* \"--CODEGEN--\":5:7   */\n      iszero\n      tag_18\n      jumpi\n        /* \"--CODEGEN--\":30:31   */\n      0x00\n        /* \"--CODEGEN--\":27:28   */\n      dup1\n        /* \"--CODEGEN--\":20:32   */\n      revert\n        /* \"--CODEGEN--\":5:7   */\n    tag_18:\n        /* \"blockchain_app/multisig_wallet/truffle_wallet/contracts/Wallet.sol\":1304:1404  function getTransfers() external view returns(Transfer[] memory) {\r... */\n      pop\n      tag_19\n      tag_20\n      jump\t// in\n    tag_19:\n      mload(0x40)\n      tag_21\n      swap2\n      swap1\n      jump(tag_22)\n    tag_21:\n      mload(0x40)\n      dup1\n      swap2\n      sub\n      swap1\n      return\n        /* \"blockchain_app/multisig_wallet/truffle_wallet/contracts/Wallet.sol\":1197:1296  function getApprovers() external view returns(address[] memory) {\r... */\n    tag_5:\n      callvalue\n        /* \"--CODEGEN--\":8:17   */\n      dup1\n        /* \"--CODEGEN--\":5:7   */\n      iszero\n      tag_23\n      jumpi\n        /* \"--CODEGEN--\":30:31   */\n      0x00\n        /* \"--CODEGEN--\":27:28   */\n      dup1\n        /* \"--CODEGEN--\":20:32   */\n      revert\n        /* \"--CODEGEN--\":5:7   */\n    tag_23:\n        /* \"blockchain_app/multisig_wallet/truffle_wallet/contracts/Wallet.sol\":1197:1296  function getApprovers() external view returns(address[] memory) {\r... */\n      pop\n      tag_24\n      tag_25\n      jump\t// in\n    tag_24:\n      mload(0x40)\n      tag_26\n      swap2\n      swap1\n      jump(tag_27)\n    tag_26:\n      mload(0x40)\n      dup1\n      swap2\n      sub\n      swap1\n      return\n        /* \"blockchain_app/multisig_wallet/truffle_wallet/contracts/Wallet.sol\":519:546  Transfer[] public transfers */\n    tag_6:\n      callvalue\n        /* \"--CODEGEN--\":8:17   */\n      dup1\n        /* \"--CODEGEN--\":5:7   */\n      iszero\n      tag_28\n      jumpi\n        /* \"--CODEGEN--\":30:31   */\n      0x00\n        /* \"--CODEGEN--\":27:28   */\n      dup1\n        /* \"--CODEGEN--\":20:32   */\n      revert\n        /* \"--CODEGEN--\":5:7   */\n    tag_28:\n        /* \"blockchain_app/multisig_wallet/truffle_wallet/contracts/Wallet.sol\":519:546  Transfer[] public transfers */\n      pop\n      tag_29\n      0x04\n      dup1\n      calldatasize\n      sub\n      tag_30\n      swap2\n      swap1\n      dup2\n      add\n      swap1\n      jump(tag_31)\n    tag_30:\n      tag_32\n      jump\t// in\n    tag_29:\n      mload(0x40)\n      tag_33\n      swap6\n      swap5\n      swap4\n      swap3\n      swap2\n      swap1\n      jump(tag_34)\n    tag_33:\n      mload(0x40)\n      dup1\n      swap2\n      sub\n      swap1\n      return\n        /* \"blockchain_app/multisig_wallet/truffle_wallet/contracts/Wallet.sol\":1794:2397  function approveTransfer(uint _id) external onlyApprover {\r... */\n    tag_7:\n      callvalue\n        /* \"--CODEGEN--\":8:17   */\n      dup1\n        /* \"--CODEGEN--\":5:7   */\n      iszero\n      tag_35\n      jumpi\n        /* \"--CODEGEN--\":30:31   */\n      0x00\n        /* \"--CODEGEN--\":27:28   */\n      dup1\n        /* \"--CODEGEN--\":20:32   */\n      revert\n        /* \"--CODEGEN--\":5:7   */\n    tag_35:\n        /* \"blockchain_app/multisig_wallet/truffle_wallet/contracts/Wallet.sol\":1794:2397  function approveTransfer(uint _id) external onlyApprover {\r... */\n      pop\n      tag_36\n      0x04\n      dup1\n      calldatasize\n      sub\n      tag_37\n      swap2\n      swap1\n      dup2\n      add\n      swap1\n      jump(tag_31)\n    tag_37:\n      tag_38\n      jump\t// in\n    tag_36:\n      stop\n        /* \"blockchain_app/multisig_wallet/truffle_wallet/contracts/Wallet.sol\":204:230  address[] public approvers */\n    tag_8:\n      callvalue\n        /* \"--CODEGEN--\":8:17   */\n      dup1\n        /* \"--CODEGEN--\":5:7   */\n      iszero\n      tag_39\n      jumpi\n        /* \"--CODEGEN--\":30:31   */\n      0x00\n        /* \"--CODEGEN--\":27:28   */\n      dup1\n        /* \"--CODEGEN--\":20:32   */\n      revert\n        /* \"--CODEGEN--\":5:7   */\n    tag_39:\n        /* \"blockchain_app/multisig_wallet/truffle_wallet/contracts/Wallet.sol\":204:230  address[] public approvers */\n      pop\n      tag_40\n      0x04\n      dup1\n      calldatasize\n      sub\n      tag_41\n      swap2\n      swap1\n      dup2\n      add\n      swap1\n      jump(tag_31)\n    tag_41:\n      tag_42\n      jump\t// in\n    tag_40:\n      mload(0x40)\n      tag_43\n      swap2\n      swap1\n      jump(tag_44)\n    tag_43:\n      mload(0x40)\n      dup1\n      swap2\n      sub\n      swap1\n      return\n        /* \"blockchain_app/multisig_wallet/truffle_wallet/contracts/Wallet.sol\":596:654  mapping(address => mapping(uint => bool)) public approvals */\n    tag_9:\n      callvalue\n        /* \"--CODEGEN--\":8:17   */\n      dup1\n        /* \"--CODEGEN--\":5:7   */\n      iszero\n      tag_45\n      jumpi\n        /* \"--CODEGEN--\":30:31   */\n      0x00\n        /* \"--CODEGEN--\":27:28   */\n      dup1\n        /* \"--CODEGEN--\":20:32   */\n      revert\n        /* \"--CODEGEN--\":5:7   */\n    tag_45:\n        /* \"blockchain_app/multisig_wallet/truffle_wallet/contracts/Wallet.sol\":596:654  mapping(address => mapping(uint => bool)) public approvals */\n      pop\n      tag_46\n      0x04\n      dup1\n      calldatasize\n      sub\n      tag_47\n      swap2\n      swap1\n      dup2\n      add\n      swap1\n      jump(tag_48)\n    tag_47:\n      tag_49\n      jump\t// in\n    tag_46:\n      mload(0x40)\n      tag_50\n      swap2\n      swap1\n      jump(tag_51)\n    tag_50:\n      mload(0x40)\n      dup1\n      swap2\n      sub\n      swap1\n      return\n        /* \"blockchain_app/multisig_wallet/truffle_wallet/contracts/Wallet.sol\":300:318  uint public quorum */\n    tag_15:\n      sload(0x01)\n      dup2\n      jump\t// out\n        /* \"blockchain_app/multisig_wallet/truffle_wallet/contracts/Wallet.sol\":1304:1404  function getTransfers() external view returns(Transfer[] memory) {\r... */\n    tag_20:\n        /* \"blockchain_app/multisig_wallet/truffle_wallet/contracts/Wallet.sol\":1350:1367  Transfer[] memory */\n      0x60\n        /* \"blockchain_app/multisig_wallet/truffle_wallet/contracts/Wallet.sol\":1387:1396  transfers */\n      0x02\n        /* \"blockchain_app/multisig_wallet/truffle_wallet/contracts/Wallet.sol\":1380:1396  return transfers */\n      dup1\n      sload\n      dup1\n      0x20\n      mul\n      0x20\n      add\n      mload(0x40)\n      swap1\n      dup2\n      add\n      0x40\n      mstore\n      dup1\n      swap3\n      swap2\n      swap1\n      dup2\n      dup2\n      mstore\n      0x20\n      add\n      0x00\n      swap1\n    tag_53:\n      dup3\n      dup3\n      lt\n      iszero\n      tag_54\n      jumpi\n      dup4\n      dup3\n      swap1\n      0x00\n      mstore\n      keccak256(0x00, 0x20)\n      swap1\n      0x05\n      mul\n      add\n      mload(0x40)\n      dup1\n      0xa0\n      add\n      0x40\n      mstore\n      swap1\n      dup2\n      0x00\n      dup3\n      add\n      sload\n      dup2\n      mstore\n      0x20\n      add\n      0x01\n      dup3\n      add\n      sload\n      dup2\n      mstore\n      0x20\n      add\n      0x02\n      dup3\n      add\n      0x00\n      swap1\n      sload\n      swap1\n      0x0100\n      exp\n      swap1\n      div\n      0xffffffffffffffffffffffffffffffffffffffff\n      and\n      0xffffffffffffffffffffffffffffffffffffffff\n      and\n      0xffffffffffffffffffffffffffffffffffffffff\n      and\n      dup2\n      mstore\n      0x20\n      add\n      0x03\n      dup3\n      add\n      sload\n      dup2\n      mstore\n      0x20\n      add\n      0x04\n      dup3\n      add\n      0x00\n      swap1\n      sload\n      swap1\n      0x0100\n      exp\n      swap1\n      div\n      0xff\n      and\n      iszero\n      iszero\n      iszero\n      iszero\n      dup2\n      mstore\n      pop\n      pop\n      dup2\n      mstore\n      0x20\n      add\n      swap1\n      0x01\n      add\n      swap1\n      jump(tag_53)\n    tag_54:\n      pop\n      pop\n      pop\n      pop\n      swap1\n      pop\n        /* \"blockchain_app/multisig_wallet/truffle_wallet/contracts/Wallet.sol\":1304:1404  function getTransfers() external view returns(Transfer[] memory) {\r... */\n      swap1\n      jump\t// out\n        /* \"blockchain_app/multisig_wallet/truffle_wallet/contracts/Wallet.sol\":1197:1296  function getApprovers() external view returns(address[] memory) {\r... */\n    tag_25:\n        /* \"blockchain_app/multisig_wallet/truffle_wallet/contracts/Wallet.sol\":1243:1259  address[] memory */\n      0x60\n        /* \"blockchain_app/multisig_wallet/truffle_wallet/contracts/Wallet.sol\":1279:1288  approvers */\n      0x00\n        /* \"blockchain_app/multisig_wallet/truffle_wallet/contracts/Wallet.sol\":1272:1288  return approvers */\n      dup1\n      sload\n      dup1\n      0x20\n      mul\n      0x20\n      add\n      mload(0x40)\n      swap1\n      dup2\n      add\n      0x40\n      mstore\n      dup1\n      swap3\n      swap2\n      swap1\n      dup2\n      dup2\n      mstore\n      0x20\n      add\n      dup3\n      dup1\n      sload\n      dup1\n      iszero\n      tag_57\n      jumpi\n      0x20\n      mul\n      dup3\n      add\n      swap2\n      swap1\n      0x00\n      mstore\n      keccak256(0x00, 0x20)\n      swap1\n    tag_58:\n      dup2\n      0x00\n      swap1\n      sload\n      swap1\n      0x0100\n      exp\n      swap1\n      div\n      0xffffffffffffffffffffffffffffffffffffffff\n      and\n      0xffffffffffffffffffffffffffffffffffffffff\n      and\n      dup2\n      mstore\n      0x20\n      add\n      swap1\n      0x01\n      add\n      swap1\n      dup1\n      dup4\n      gt\n      tag_58\n      jumpi\n    tag_57:\n      pop\n      pop\n      pop\n      pop\n      pop\n      swap1\n      pop\n        /* \"blockchain_app/multisig_wallet/truffle_wallet/contracts/Wallet.sol\":1197:1296  function getApprovers() external view returns(address[] memory) {\r... */\n      swap1\n      jump\t// out\n        /* \"blockchain_app/multisig_wallet/truffle_wallet/contracts/Wallet.sol\":519:546  Transfer[] public transfers */\n    tag_32:\n      0x02\n      dup2\n      dup2\n      sload\n      dup2\n      lt\n      tag_59\n      jumpi\n      invalid\n    tag_59:\n      swap1\n      0x00\n      mstore\n      keccak256(0x00, 0x20)\n      swap1\n      0x05\n      mul\n      add\n      0x00\n      swap2\n      pop\n      swap1\n      pop\n      dup1\n      0x00\n      add\n      sload\n      swap1\n      dup1\n      0x01\n      add\n      sload\n      swap1\n      dup1\n      0x02\n      add\n      0x00\n      swap1\n      sload\n      swap1\n      0x0100\n      exp\n      swap1\n      div\n      0xffffffffffffffffffffffffffffffffffffffff\n      and\n      swap1\n      dup1\n      0x03\n      add\n      sload\n      swap1\n      dup1\n      0x04\n      add\n      0x00\n      swap1\n      sload\n      swap1\n      0x0100\n      exp\n      swap1\n      div\n      0xff\n      and\n      swap1\n      pop\n      dup6\n      jump\t// out\n        /* \"blockchain_app/multisig_wallet/truffle_wallet/contracts/Wallet.sol\":1794:2397  function approveTransfer(uint _id) external onlyApprover {\r... */\n    tag_38:\n        /* \"blockchain_app/multisig_wallet/truffle_wallet/contracts/Wallet.sol\":751:766  bool isApprover */\n      0x00\n        /* \"blockchain_app/multisig_wallet/truffle_wallet/contracts/Wallet.sol\":769:774  false */\n      dup1\n        /* \"blockchain_app/multisig_wallet/truffle_wallet/contracts/Wallet.sol\":751:774  bool isApprover = false */\n      swap1\n      pop\n        /* \"blockchain_app/multisig_wallet/truffle_wallet/contracts/Wallet.sol\":790:796  uint i */\n      0x00\n        /* \"blockchain_app/multisig_wallet/truffle_wallet/contracts/Wallet.sol\":799:800  0 */\n      dup1\n        /* \"blockchain_app/multisig_wallet/truffle_wallet/contracts/Wallet.sol\":790:800  uint i = 0 */\n      swap1\n      pop\n        /* \"blockchain_app/multisig_wallet/truffle_wallet/contracts/Wallet.sol\":785:939  for (uint i = 0; i < approvers.length; i++) {\r... */\n    tag_62:\n        /* \"blockchain_app/multisig_wallet/truffle_wallet/contracts/Wallet.sol\":806:815  approvers */\n      0x00\n        /* \"blockchain_app/multisig_wallet/truffle_wallet/contracts/Wallet.sol\":806:822  approvers.length */\n      dup1\n      sload\n      swap1\n      pop\n        /* \"blockchain_app/multisig_wallet/truffle_wallet/contracts/Wallet.sol\":802:803  i */\n      dup2\n        /* \"blockchain_app/multisig_wallet/truffle_wallet/contracts/Wallet.sol\":802:822  i < approvers.length */\n      lt\n        /* \"blockchain_app/multisig_wallet/truffle_wallet/contracts/Wallet.sol\":785:939  for (uint i = 0; i < approvers.length; i++) {\r... */\n      iszero\n      tag_63\n      jumpi\n        /* \"blockchain_app/multisig_wallet/truffle_wallet/contracts/Wallet.sol\":862:871  approvers */\n      0x00\n        /* \"blockchain_app/multisig_wallet/truffle_wallet/contracts/Wallet.sol\":872:873  i */\n      dup2\n        /* \"blockchain_app/multisig_wallet/truffle_wallet/contracts/Wallet.sol\":862:874  approvers[i] */\n      dup2\n      sload\n      dup2\n      lt\n      tag_65\n      jumpi\n      invalid\n    tag_65:\n      swap1\n      0x00\n      mstore\n      keccak256(0x00, 0x20)\n      add\n      0x00\n      swap1\n      sload\n      swap1\n      0x0100\n      exp\n      swap1\n      div\n      0xffffffffffffffffffffffffffffffffffffffff\n      and\n        /* \"blockchain_app/multisig_wallet/truffle_wallet/contracts/Wallet.sol\":848:874  msg.sender == approvers[i] */\n      0xffffffffffffffffffffffffffffffffffffffff\n      and\n        /* \"blockchain_app/multisig_wallet/truffle_wallet/contracts/Wallet.sol\":848:858  msg.sender */\n      caller\n        /* \"blockchain_app/multisig_wallet/truffle_wallet/contracts/Wallet.sol\":848:874  msg.sender == approvers[i] */\n      0xffffffffffffffffffffffffffffffffffffffff\n      and\n      eq\n        /* \"blockchain_app/multisig_wallet/truffle_wallet/contracts/Wallet.sol\":844:928  if (msg.sender == approvers[i]) {\r... */\n      iszero\n      tag_67\n      jumpi\n        /* \"blockchain_app/multisig_wallet/truffle_wallet/contracts/Wallet.sol\":908:912  true */\n      0x01\n        /* \"blockchain_app/multisig_wallet/truffle_wallet/contracts/Wallet.sol\":895:912  isApprover = true */\n      swap2\n      pop\n        /* \"blockchain_app/multisig_wallet/truffle_wallet/contracts/Wallet.sol\":844:928  if (msg.sender == approvers[i]) {\r... */\n    tag_67:\n        /* \"blockchain_app/multisig_wallet/truffle_wallet/contracts/Wallet.sol\":824:827  i++ */\n      dup1\n      dup1\n      0x01\n      add\n      swap2\n      pop\n      pop\n        /* \"blockchain_app/multisig_wallet/truffle_wallet/contracts/Wallet.sol\":785:939  for (uint i = 0; i < approvers.length; i++) {\r... */\n      jump(tag_62)\n    tag_63:\n      pop\n        /* \"blockchain_app/multisig_wallet/truffle_wallet/contracts/Wallet.sol\":971:975  true */\n      0x01\n        /* \"blockchain_app/multisig_wallet/truffle_wallet/contracts/Wallet.sol\":957:975  isApprover == true */\n      iszero\n      iszero\n        /* \"blockchain_app/multisig_wallet/truffle_wallet/contracts/Wallet.sol\":957:967  isApprover */\n      dup2\n        /* \"blockchain_app/multisig_wallet/truffle_wallet/contracts/Wallet.sol\":957:975  isApprover == true */\n      iszero\n      iszero\n      eq\n        /* \"blockchain_app/multisig_wallet/truffle_wallet/contracts/Wallet.sol\":949:1002  require(isApprover == true, \"Only approver allowed.\") */\n      tag_68\n      jumpi\n      mload(0x40)\n      0x08c379a000000000000000000000000000000000000000000000000000000000\n      dup2\n      mstore\n      0x04\n      add\n      tag_69\n      swap1\n      jump(tag_70)\n    tag_69:\n      mload(0x40)\n      dup1\n      swap2\n      sub\n      swap1\n      revert\n    tag_68:\n        /* \"blockchain_app/multisig_wallet/truffle_wallet/contracts/Wallet.sol\":1934:1939  false */\n      0x00\n        /* \"blockchain_app/multisig_wallet/truffle_wallet/contracts/Wallet.sol\":1911:1939  transfers[_id].sent == false */\n      iszero\n      iszero\n        /* \"blockchain_app/multisig_wallet/truffle_wallet/contracts/Wallet.sol\":1911:1920  transfers */\n      0x02\n        /* \"blockchain_app/multisig_wallet/truffle_wallet/contracts/Wallet.sol\":1921:1924  _id */\n      dup4\n        /* \"blockchain_app/multisig_wallet/truffle_wallet/contracts/Wallet.sol\":1911:1925  transfers[_id] */\n      dup2\n      sload\n      dup2\n      lt\n      tag_72\n      jumpi\n      invalid\n    tag_72:\n      swap1\n      0x00\n      mstore\n      keccak256(0x00, 0x20)\n      swap1\n      0x05\n      mul\n      add\n        /* \"blockchain_app/multisig_wallet/truffle_wallet/contracts/Wallet.sol\":1911:1930  transfers[_id].sent */\n      0x04\n      add\n      0x00\n      swap1\n      sload\n      swap1\n      0x0100\n      exp\n      swap1\n      div\n      0xff\n      and\n        /* \"blockchain_app/multisig_wallet/truffle_wallet/contracts/Wallet.sol\":1911:1939  transfers[_id].sent == false */\n      iszero\n      iszero\n      eq\n        /* \"blockchain_app/multisig_wallet/truffle_wallet/contracts/Wallet.sol\":1903:1975  require(transfers[_id].sent == false, \"Transfer has already been sent.\") */\n      tag_74\n      jumpi\n      mload(0x40)\n      0x08c379a000000000000000000000000000000000000000000000000000000000\n      dup2\n      mstore\n      0x04\n      add\n      tag_75\n      swap1\n      jump(tag_76)\n    tag_75:\n      mload(0x40)\n      dup1\n      swap2\n      sub\n      swap1\n      revert\n    tag_74:\n        /* \"blockchain_app/multisig_wallet/truffle_wallet/contracts/Wallet.sol\":2024:2029  false */\n      0x00\n        /* \"blockchain_app/multisig_wallet/truffle_wallet/contracts/Wallet.sol\":1994:2029  approvals[msg.sender][_id] == false */\n      iszero\n      iszero\n        /* \"blockchain_app/multisig_wallet/truffle_wallet/contracts/Wallet.sol\":1994:2003  approvals */\n      0x03\n        /* \"blockchain_app/multisig_wallet/truffle_wallet/contracts/Wallet.sol\":1994:2015  approvals[msg.sender] */\n      0x00\n        /* \"blockchain_app/multisig_wallet/truffle_wallet/contracts/Wallet.sol\":2004:2014  msg.sender */\n      caller\n        /* \"blockchain_app/multisig_wallet/truffle_wallet/contracts/Wallet.sol\":1994:2015  approvals[msg.sender] */\n      0xffffffffffffffffffffffffffffffffffffffff\n      and\n      0xffffffffffffffffffffffffffffffffffffffff\n      and\n      dup2\n      mstore\n      0x20\n      add\n      swap1\n      dup2\n      mstore\n      0x20\n      add\n      0x00\n      keccak256\n        /* \"blockchain_app/multisig_wallet/truffle_wallet/contracts/Wallet.sol\":1994:2020  approvals[msg.sender][_id] */\n      0x00\n        /* \"blockchain_app/multisig_wallet/truffle_wallet/contracts/Wallet.sol\":2016:2019  _id */\n      dup5\n        /* \"blockchain_app/multisig_wallet/truffle_wallet/contracts/Wallet.sol\":1994:2020  approvals[msg.sender][_id] */\n      dup2\n      mstore\n      0x20\n      add\n      swap1\n      dup2\n      mstore\n      0x20\n      add\n      0x00\n      keccak256\n      0x00\n      swap1\n      sload\n      swap1\n      0x0100\n      exp\n      swap1\n      div\n      0xff\n      and\n        /* \"blockchain_app/multisig_wallet/truffle_wallet/contracts/Wallet.sol\":1994:2029  approvals[msg.sender][_id] == false */\n      iszero\n      iszero\n      eq\n        /* \"blockchain_app/multisig_wallet/truffle_wallet/contracts/Wallet.sol\":1986:2064  require(approvals[msg.sender][_id] == false, \"Cannot approve transfer again.\") */\n      tag_77\n      jumpi\n      mload(0x40)\n      0x08c379a000000000000000000000000000000000000000000000000000000000\n      dup2\n      mstore\n      0x04\n      add\n      tag_78\n      swap1\n      jump(tag_79)\n    tag_78:\n      mload(0x40)\n      dup1\n      swap2\n      sub\n      swap1\n      revert\n    tag_77:\n        /* \"blockchain_app/multisig_wallet/truffle_wallet/contracts/Wallet.sol\":2106:2110  true */\n      0x01\n        /* \"blockchain_app/multisig_wallet/truffle_wallet/contracts/Wallet.sol\":2077:2086  approvals */\n      0x03\n        /* \"blockchain_app/multisig_wallet/truffle_wallet/contracts/Wallet.sol\":2077:2098  approvals[msg.sender] */\n      0x00\n        /* \"blockchain_app/multisig_wallet/truffle_wallet/contracts/Wallet.sol\":2087:2097  msg.sender */\n      caller\n        /* \"blockchain_app/multisig_wallet/truffle_wallet/contracts/Wallet.sol\":2077:2098  approvals[msg.sender] */\n      0xffffffffffffffffffffffffffffffffffffffff\n      and\n      0xffffffffffffffffffffffffffffffffffffffff\n      and\n      dup2\n      mstore\n      0x20\n      add\n      swap1\n      dup2\n      mstore\n      0x20\n      add\n      0x00\n      keccak256\n        /* \"blockchain_app/multisig_wallet/truffle_wallet/contracts/Wallet.sol\":2077:2103  approvals[msg.sender][_id] */\n      0x00\n        /* \"blockchain_app/multisig_wallet/truffle_wallet/contracts/Wallet.sol\":2099:2102  _id */\n      dup5\n        /* \"blockchain_app/multisig_wallet/truffle_wallet/contracts/Wallet.sol\":2077:2103  approvals[msg.sender][_id] */\n      dup2\n      mstore\n      0x20\n      add\n      swap1\n      dup2\n      mstore\n      0x20\n      add\n      0x00\n      keccak256\n      0x00\n        /* \"blockchain_app/multisig_wallet/truffle_wallet/contracts/Wallet.sol\":2077:2110  approvals[msg.sender][_id] = true */\n      0x0100\n      exp\n      dup2\n      sload\n      dup2\n      0xff\n      mul\n      not\n      and\n      swap1\n      dup4\n      iszero\n      iszero\n      mul\n      or\n      swap1\n      sstore\n      pop\n        /* \"blockchain_app/multisig_wallet/truffle_wallet/contracts/Wallet.sol\":2121:2130  transfers */\n      0x02\n        /* \"blockchain_app/multisig_wallet/truffle_wallet/contracts/Wallet.sol\":2131:2134  _id */\n      dup3\n        /* \"blockchain_app/multisig_wallet/truffle_wallet/contracts/Wallet.sol\":2121:2135  transfers[_id] */\n      dup2\n      sload\n      dup2\n      lt\n      tag_80\n      jumpi\n      invalid\n    tag_80:\n      swap1\n      0x00\n      mstore\n      keccak256(0x00, 0x20)\n      swap1\n      0x05\n      mul\n      add\n        /* \"blockchain_app/multisig_wallet/truffle_wallet/contracts/Wallet.sol\":2121:2145  transfers[_id].approvals */\n      0x03\n      add\n      0x00\n        /* \"blockchain_app/multisig_wallet/truffle_wallet/contracts/Wallet.sol\":2121:2147  transfers[_id].approvals++ */\n      dup2\n      sload\n      dup1\n      swap3\n      swap2\n      swap1\n      0x01\n      add\n      swap2\n      swap1\n      pop\n      sstore\n      pop\n        /* \"blockchain_app/multisig_wallet/truffle_wallet/contracts/Wallet.sol\":2192:2198  quorum */\n      sload(0x01)\n        /* \"blockchain_app/multisig_wallet/truffle_wallet/contracts/Wallet.sol\":2164:2173  transfers */\n      0x02\n        /* \"blockchain_app/multisig_wallet/truffle_wallet/contracts/Wallet.sol\":2174:2177  _id */\n      dup4\n        /* \"blockchain_app/multisig_wallet/truffle_wallet/contracts/Wallet.sol\":2164:2178  transfers[_id] */\n      dup2\n      sload\n      dup2\n      lt\n      tag_82\n      jumpi\n      invalid\n    tag_82:\n      swap1\n      0x00\n      mstore\n      keccak256(0x00, 0x20)\n      swap1\n      0x05\n      mul\n      add\n        /* \"blockchain_app/multisig_wallet/truffle_wallet/contracts/Wallet.sol\":2164:2188  transfers[_id].approvals */\n      0x03\n      add\n      sload\n        /* \"blockchain_app/multisig_wallet/truffle_wallet/contracts/Wallet.sol\":2164:2198  transfers[_id].approvals >= quorum */\n      lt\n        /* \"blockchain_app/multisig_wallet/truffle_wallet/contracts/Wallet.sol\":2160:2390  if (transfers[_id].approvals >= quorum) {\r... */\n      tag_84\n      jumpi\n        /* \"blockchain_app/multisig_wallet/truffle_wallet/contracts/Wallet.sol\":2237:2241  true */\n      0x01\n        /* \"blockchain_app/multisig_wallet/truffle_wallet/contracts/Wallet.sol\":2215:2224  transfers */\n      0x02\n        /* \"blockchain_app/multisig_wallet/truffle_wallet/contracts/Wallet.sol\":2225:2228  _id */\n      dup4\n        /* \"blockchain_app/multisig_wallet/truffle_wallet/contracts/Wallet.sol\":2215:2229  transfers[_id] */\n      dup2\n      sload\n      dup2\n      lt\n      tag_85\n      jumpi\n      invalid\n    tag_85:\n      swap1\n      0x00\n      mstore\n      keccak256(0x00, 0x20)\n      swap1\n      0x05\n      mul\n      add\n        /* \"blockchain_app/multisig_wallet/truffle_wallet/contracts/Wallet.sol\":2215:2234  transfers[_id].sent */\n      0x04\n      add\n      0x00\n        /* \"blockchain_app/multisig_wallet/truffle_wallet/contracts/Wallet.sol\":2215:2241  transfers[_id].sent = true */\n      0x0100\n      exp\n      dup2\n      sload\n      dup2\n      0xff\n      mul\n      not\n      and\n      swap1\n      dup4\n      iszero\n      iszero\n      mul\n      or\n      swap1\n      sstore\n      pop\n        /* \"blockchain_app/multisig_wallet/truffle_wallet/contracts/Wallet.sol\":2256:2274  address payable to */\n      0x00\n        /* \"blockchain_app/multisig_wallet/truffle_wallet/contracts/Wallet.sol\":2277:2286  transfers */\n      0x02\n        /* \"blockchain_app/multisig_wallet/truffle_wallet/contracts/Wallet.sol\":2287:2290  _id */\n      dup4\n        /* \"blockchain_app/multisig_wallet/truffle_wallet/contracts/Wallet.sol\":2277:2291  transfers[_id] */\n      dup2\n      sload\n      dup2\n      lt\n      tag_87\n      jumpi\n      invalid\n    tag_87:\n      swap1\n      0x00\n      mstore\n      keccak256(0x00, 0x20)\n      swap1\n      0x05\n      mul\n      add\n        /* \"blockchain_app/multisig_wallet/truffle_wallet/contracts/Wallet.sol\":2277:2294  transfers[_id].to */\n      0x02\n      add\n      0x00\n      swap1\n      sload\n      swap1\n      0x0100\n      exp\n      swap1\n      div\n      0xffffffffffffffffffffffffffffffffffffffff\n      and\n        /* \"blockchain_app/multisig_wallet/truffle_wallet/contracts/Wallet.sol\":2256:2294  address payable to = transfers[_id].to */\n      swap1\n      pop\n        /* \"blockchain_app/multisig_wallet/truffle_wallet/contracts/Wallet.sol\":2309:2320  uint amount */\n      0x00\n        /* \"blockchain_app/multisig_wallet/truffle_wallet/contracts/Wallet.sol\":2323:2332  transfers */\n      0x02\n        /* \"blockchain_app/multisig_wallet/truffle_wallet/contracts/Wallet.sol\":2333:2336  _id */\n      dup5\n        /* \"blockchain_app/multisig_wallet/truffle_wallet/contracts/Wallet.sol\":2323:2337  transfers[_id] */\n      dup2\n      sload\n      dup2\n      lt\n      tag_89\n      jumpi\n      invalid\n    tag_89:\n      swap1\n      0x00\n      mstore\n      keccak256(0x00, 0x20)\n      swap1\n      0x05\n      mul\n      add\n        /* \"blockchain_app/multisig_wallet/truffle_wallet/contracts/Wallet.sol\":2323:2344  transfers[_id].amount */\n      0x01\n      add\n      sload\n        /* \"blockchain_app/multisig_wallet/truffle_wallet/contracts/Wallet.sol\":2309:2344  uint amount = transfers[_id].amount */\n      swap1\n      pop\n        /* \"blockchain_app/multisig_wallet/truffle_wallet/contracts/Wallet.sol\":2359:2361  to */\n      dup2\n        /* \"blockchain_app/multisig_wallet/truffle_wallet/contracts/Wallet.sol\":2359:2370  to.transfer */\n      0xffffffffffffffffffffffffffffffffffffffff\n      and\n        /* \"blockchain_app/multisig_wallet/truffle_wallet/contracts/Wallet.sol\":2359:2378  to.transfer(amount) */\n      0x08fc\n        /* \"blockchain_app/multisig_wallet/truffle_wallet/contracts/Wallet.sol\":2371:2377  amount */\n      dup3\n        /* \"blockchain_app/multisig_wallet/truffle_wallet/contracts/Wallet.sol\":2359:2378  to.transfer(amount) */\n      swap1\n      dup2\n      iszero\n      mul\n      swap1\n      mload(0x40)\n      0x00\n      mload(0x40)\n      dup1\n      dup4\n      sub\n      dup2\n      dup6\n      dup9\n      dup9\n      call\n      swap4\n      pop\n      pop\n      pop\n      pop\n      iszero\n        /* \"--CODEGEN--\":8:17   */\n      dup1\n        /* \"--CODEGEN--\":5:7   */\n      iszero\n      tag_92\n      jumpi\n        /* \"--CODEGEN--\":45:61   */\n      returndatasize\n        /* \"--CODEGEN--\":42:43   */\n      0x00\n        /* \"--CODEGEN--\":39:40   */\n      dup1\n        /* \"--CODEGEN--\":24:62   */\n      returndatacopy\n        /* \"--CODEGEN--\":77:93   */\n      returndatasize\n        /* \"--CODEGEN--\":74:75   */\n      0x00\n        /* \"--CODEGEN--\":67:94   */\n      revert\n        /* \"--CODEGEN--\":5:7   */\n    tag_92:\n        /* \"blockchain_app/multisig_wallet/truffle_wallet/contracts/Wallet.sol\":2359:2378  to.transfer(amount) */\n      pop\n        /* \"blockchain_app/multisig_wallet/truffle_wallet/contracts/Wallet.sol\":2160:2390  if (transfers[_id].approvals >= quorum) {\r... */\n      pop\n      pop\n    tag_84:\n        /* \"blockchain_app/multisig_wallet/truffle_wallet/contracts/Wallet.sol\":1794:2397  function approveTransfer(uint _id) external onlyApprover {\r... */\n      pop\n      pop\n      jump\t// out\n        /* \"blockchain_app/multisig_wallet/truffle_wallet/contracts/Wallet.sol\":204:230  address[] public approvers */\n    tag_42:\n      0x00\n      dup2\n      dup2\n      sload\n      dup2\n      lt\n      tag_93\n      jumpi\n      invalid\n    tag_93:\n      swap1\n      0x00\n      mstore\n      keccak256(0x00, 0x20)\n      add\n      0x00\n      swap2\n      pop\n      sload\n      swap1\n      0x0100\n      exp\n      swap1\n      div\n      0xffffffffffffffffffffffffffffffffffffffff\n      and\n      dup2\n      jump\t// out\n        /* \"blockchain_app/multisig_wallet/truffle_wallet/contracts/Wallet.sol\":596:654  mapping(address => mapping(uint => bool)) public approvals */\n    tag_49:\n      mstore(0x20, 0x03)\n      dup2\n      0x00\n      mstore\n      mstore(0x20, keccak256(0x00, 0x40))\n      dup1\n      0x00\n      mstore\n      keccak256(0x00, 0x40)\n      0x00\n      swap2\n      pop\n      swap2\n      pop\n      swap1\n      sload\n      swap1\n      0x0100\n      exp\n      swap1\n      div\n      0xff\n      and\n      dup2\n      jump\t// out\n        /* \"--CODEGEN--\":5:135   */\n    tag_96:\n      0x00\n        /* \"--CODEGEN--\":85:91   */\n      dup2\n        /* \"--CODEGEN--\":72:92   */\n      calldataload\n        /* \"--CODEGEN--\":63:92   */\n      swap1\n      pop\n        /* \"--CODEGEN--\":97:130   */\n      tag_98\n        /* \"--CODEGEN--\":124:129   */\n      dup2\n        /* \"--CODEGEN--\":97:130   */\n      jump(tag_99)\n    tag_98:\n        /* \"--CODEGEN--\":57:135   */\n      swap3\n      swap2\n      pop\n      pop\n      jump\n        /* \"--CODEGEN--\":142:272   */\n    tag_100:\n      0x00\n        /* \"--CODEGEN--\":222:228   */\n      dup2\n        /* \"--CODEGEN--\":209:229   */\n      calldataload\n        /* \"--CODEGEN--\":200:229   */\n      swap1\n      pop\n        /* \"--CODEGEN--\":234:267   */\n      tag_102\n        /* \"--CODEGEN--\":261:266   */\n      dup2\n        /* \"--CODEGEN--\":234:267   */\n      jump(tag_103)\n    tag_102:\n        /* \"--CODEGEN--\":194:272   */\n      swap3\n      swap2\n      pop\n      pop\n      jump\n        /* \"--CODEGEN--\":279:645   */\n    tag_48:\n      0x00\n      dup1\n        /* \"--CODEGEN--\":400:402   */\n      0x40\n        /* \"--CODEGEN--\":388:397   */\n      dup4\n        /* \"--CODEGEN--\":379:386   */\n      dup6\n        /* \"--CODEGEN--\":375:398   */\n      sub\n        /* \"--CODEGEN--\":371:403   */\n      slt\n        /* \"--CODEGEN--\":368:370   */\n      iszero\n      tag_105\n      jumpi\n        /* \"--CODEGEN--\":416:417   */\n      0x00\n        /* \"--CODEGEN--\":413:414   */\n      dup1\n        /* \"--CODEGEN--\":406:418   */\n      revert\n        /* \"--CODEGEN--\":368:370   */\n    tag_105:\n        /* \"--CODEGEN--\":451:452   */\n      0x00\n        /* \"--CODEGEN--\":468:521   */\n      tag_106\n        /* \"--CODEGEN--\":513:520   */\n      dup6\n        /* \"--CODEGEN--\":504:510   */\n      dup3\n        /* \"--CODEGEN--\":493:502   */\n      dup7\n        /* \"--CODEGEN--\":489:511   */\n      add\n        /* \"--CODEGEN--\":468:521   */\n      jump(tag_96)\n    tag_106:\n        /* \"--CODEGEN--\":458:521   */\n      swap3\n      pop\n        /* \"--CODEGEN--\":430:527   */\n      pop\n        /* \"--CODEGEN--\":558:560   */\n      0x20\n        /* \"--CODEGEN--\":576:629   */\n      tag_107\n        /* \"--CODEGEN--\":621:628   */\n      dup6\n        /* \"--CODEGEN--\":612:618   */\n      dup3\n        /* \"--CODEGEN--\":601:610   */\n      dup7\n        /* \"--CODEGEN--\":597:619   */\n      add\n        /* \"--CODEGEN--\":576:629   */\n      jump(tag_100)\n    tag_107:\n        /* \"--CODEGEN--\":566:629   */\n      swap2\n      pop\n        /* \"--CODEGEN--\":537:635   */\n      pop\n        /* \"--CODEGEN--\":362:645   */\n      swap3\n      pop\n      swap3\n      swap1\n      pop\n      jump\n        /* \"--CODEGEN--\":652:893   */\n    tag_31:\n      0x00\n        /* \"--CODEGEN--\":756:758   */\n      0x20\n        /* \"--CODEGEN--\":744:753   */\n      dup3\n        /* \"--CODEGEN--\":735:742   */\n      dup5\n        /* \"--CODEGEN--\":731:754   */\n      sub\n        /* \"--CODEGEN--\":727:759   */\n      slt\n        /* \"--CODEGEN--\":724:726   */\n      iszero\n      tag_109\n      jumpi\n        /* \"--CODEGEN--\":772:773   */\n      0x00\n        /* \"--CODEGEN--\":769:770   */\n      dup1\n        /* \"--CODEGEN--\":762:774   */\n      revert\n        /* \"--CODEGEN--\":724:726   */\n    tag_109:\n        /* \"--CODEGEN--\":807:808   */\n      0x00\n        /* \"--CODEGEN--\":824:877   */\n      tag_110\n        /* \"--CODEGEN--\":869:876   */\n      dup5\n        /* \"--CODEGEN--\":860:866   */\n      dup3\n        /* \"--CODEGEN--\":849:858   */\n      dup6\n        /* \"--CODEGEN--\":845:867   */\n      add\n        /* \"--CODEGEN--\":824:877   */\n      jump(tag_100)\n    tag_110:\n        /* \"--CODEGEN--\":814:877   */\n      swap2\n      pop\n        /* \"--CODEGEN--\":786:883   */\n      pop\n        /* \"--CODEGEN--\":718:893   */\n      swap3\n      swap2\n      pop\n      pop\n      jump\n        /* \"--CODEGEN--\":901:1074   */\n    tag_111:\n      0x00\n        /* \"--CODEGEN--\":988:1034   */\n      tag_113\n        /* \"--CODEGEN--\":1030:1033   */\n      dup4\n        /* \"--CODEGEN--\":1022:1028   */\n      dup4\n        /* \"--CODEGEN--\":988:1034   */\n      jump(tag_114)\n    tag_113:\n        /* \"--CODEGEN--\":1063:1067   */\n      0x20\n        /* \"--CODEGEN--\":1058:1061   */\n      dup4\n        /* \"--CODEGEN--\":1054:1068   */\n      add\n        /* \"--CODEGEN--\":1040:1068   */\n      swap1\n      pop\n        /* \"--CODEGEN--\":981:1074   */\n      swap3\n      swap2\n      pop\n      pop\n      jump\n        /* \"--CODEGEN--\":1083:1340   */\n    tag_115:\n      0x00\n        /* \"--CODEGEN--\":1210:1300   */\n      tag_117\n        /* \"--CODEGEN--\":1296:1299   */\n      dup4\n        /* \"--CODEGEN--\":1288:1294   */\n      dup4\n        /* \"--CODEGEN--\":1210:1300   */\n      jump(tag_118)\n    tag_117:\n        /* \"--CODEGEN--\":1329:1333   */\n      0xa0\n        /* \"--CODEGEN--\":1324:1327   */\n      dup4\n        /* \"--CODEGEN--\":1320:1334   */\n      add\n        /* \"--CODEGEN--\":1306:1334   */\n      swap1\n      pop\n        /* \"--CODEGEN--\":1203:1340   */\n      swap3\n      swap2\n      pop\n      pop\n      jump\n        /* \"--CODEGEN--\":1348:1475   */\n    tag_119:\n        /* \"--CODEGEN--\":1437:1469   */\n      tag_121\n        /* \"--CODEGEN--\":1463:1468   */\n      dup2\n        /* \"--CODEGEN--\":1437:1469   */\n      jump(tag_122)\n    tag_121:\n        /* \"--CODEGEN--\":1432:1435   */\n      dup3\n        /* \"--CODEGEN--\":1425:1470   */\n      mstore\n        /* \"--CODEGEN--\":1419:1475   */\n      pop\n      pop\n      jump\n        /* \"--CODEGEN--\":1482:1619   */\n    tag_123:\n        /* \"--CODEGEN--\":1581:1613   */\n      tag_125\n        /* \"--CODEGEN--\":1607:1612   */\n      dup2\n        /* \"--CODEGEN--\":1581:1613   */\n      jump(tag_122)\n    tag_125:\n        /* \"--CODEGEN--\":1576:1579   */\n      dup3\n        /* \"--CODEGEN--\":1569:1614   */\n      mstore\n        /* \"--CODEGEN--\":1563:1619   */\n      pop\n      pop\n      jump\n        /* \"--CODEGEN--\":1626:1729   */\n    tag_114:\n        /* \"--CODEGEN--\":1699:1723   */\n      tag_127\n        /* \"--CODEGEN--\":1717:1722   */\n      dup2\n        /* \"--CODEGEN--\":1699:1723   */\n      jump(tag_128)\n    tag_127:\n        /* \"--CODEGEN--\":1694:1697   */\n      dup3\n        /* \"--CODEGEN--\":1687:1724   */\n      mstore\n        /* \"--CODEGEN--\":1681:1729   */\n      pop\n      pop\n      jump\n        /* \"--CODEGEN--\":1736:1849   */\n    tag_129:\n        /* \"--CODEGEN--\":1819:1843   */\n      tag_131\n        /* \"--CODEGEN--\":1837:1842   */\n      dup2\n        /* \"--CODEGEN--\":1819:1843   */\n      jump(tag_128)\n    tag_131:\n        /* \"--CODEGEN--\":1814:1817   */\n      dup3\n        /* \"--CODEGEN--\":1807:1844   */\n      mstore\n        /* \"--CODEGEN--\":1801:1849   */\n      pop\n      pop\n      jump\n        /* \"--CODEGEN--\":1887:2577   */\n    tag_132:\n      0x00\n        /* \"--CODEGEN--\":2032:2086   */\n      tag_134\n        /* \"--CODEGEN--\":2080:2085   */\n      dup3\n        /* \"--CODEGEN--\":2032:2086   */\n      jump(tag_135)\n    tag_134:\n        /* \"--CODEGEN--\":2099:2185   */\n      tag_136\n        /* \"--CODEGEN--\":2178:2184   */\n      dup2\n        /* \"--CODEGEN--\":2173:2176   */\n      dup6\n        /* \"--CODEGEN--\":2099:2185   */\n      jump(tag_137)\n    tag_136:\n        /* \"--CODEGEN--\":2092:2185   */\n      swap4\n      pop\n        /* \"--CODEGEN--\":2206:2262   */\n      tag_138\n        /* \"--CODEGEN--\":2256:2261   */\n      dup4\n        /* \"--CODEGEN--\":2206:2262   */\n      jump(tag_139)\n    tag_138:\n        /* \"--CODEGEN--\":2282:2289   */\n      dup1\n        /* \"--CODEGEN--\":2310:2311   */\n      0x00\n        /* \"--CODEGEN--\":2295:2555   */\n    tag_140:\n        /* \"--CODEGEN--\":2320:2326   */\n      dup4\n        /* \"--CODEGEN--\":2317:2318   */\n      dup2\n        /* \"--CODEGEN--\":2314:2327   */\n      lt\n        /* \"--CODEGEN--\":2295:2555   */\n      iszero\n      tag_142\n      jumpi\n        /* \"--CODEGEN--\":2387:2393   */\n      dup2\n        /* \"--CODEGEN--\":2381:2394   */\n      mload\n        /* \"--CODEGEN--\":2408:2471   */\n      tag_143\n        /* \"--CODEGEN--\":2467:2470   */\n      dup9\n        /* \"--CODEGEN--\":2452:2465   */\n      dup3\n        /* \"--CODEGEN--\":2408:2471   */\n      jump(tag_111)\n    tag_143:\n        /* \"--CODEGEN--\":2401:2471   */\n      swap8\n      pop\n        /* \"--CODEGEN--\":2488:2548   */\n      tag_144\n        /* \"--CODEGEN--\":2541:2547   */\n      dup4\n        /* \"--CODEGEN--\":2488:2548   */\n      jump(tag_145)\n    tag_144:\n        /* \"--CODEGEN--\":2478:2548   */\n      swap3\n      pop\n        /* \"--CODEGEN--\":2352:2555   */\n      pop\n        /* \"--CODEGEN--\":2342:2343   */\n      0x01\n        /* \"--CODEGEN--\":2339:2340   */\n      dup2\n        /* \"--CODEGEN--\":2335:2344   */\n      add\n        /* \"--CODEGEN--\":2330:2344   */\n      swap1\n      pop\n        /* \"--CODEGEN--\":2295:2555   */\n      jump(tag_140)\n    tag_142:\n        /* \"--CODEGEN--\":2299:2313   */\n      pop\n        /* \"--CODEGEN--\":2568:2571   */\n      dup6\n        /* \"--CODEGEN--\":2561:2571   */\n      swap4\n      pop\n        /* \"--CODEGEN--\":2011:2577   */\n      pop\n      pop\n      pop\n      swap3\n      swap2\n      pop\n      pop\n      jump\n        /* \"--CODEGEN--\":2646:3496   */\n    tag_146:\n      0x00\n        /* \"--CODEGEN--\":2831:2905   */\n      tag_148\n        /* \"--CODEGEN--\":2899:2904   */\n      dup3\n        /* \"--CODEGEN--\":2831:2905   */\n      jump(tag_149)\n    tag_148:\n        /* \"--CODEGEN--\":2918:3024   */\n      tag_150\n        /* \"--CODEGEN--\":3017:3023   */\n      dup2\n        /* \"--CODEGEN--\":3012:3015   */\n      dup6\n        /* \"--CODEGEN--\":2918:3024   */\n      jump(tag_151)\n    tag_150:\n        /* \"--CODEGEN--\":2911:3024   */\n      swap4\n      pop\n        /* \"--CODEGEN--\":3045:3121   */\n      tag_152\n        /* \"--CODEGEN--\":3115:3120   */\n      dup4\n        /* \"--CODEGEN--\":3045:3121   */\n      jump(tag_153)\n    tag_152:\n        /* \"--CODEGEN--\":3141:3148   */\n      dup1\n        /* \"--CODEGEN--\":3169:3170   */\n      0x00\n        /* \"--CODEGEN--\":3154:3474   */\n    tag_154:\n        /* \"--CODEGEN--\":3179:3185   */\n      dup4\n        /* \"--CODEGEN--\":3176:3177   */\n      dup2\n        /* \"--CODEGEN--\":3173:3186   */\n      lt\n        /* \"--CODEGEN--\":3154:3474   */\n      iszero\n      tag_156\n      jumpi\n        /* \"--CODEGEN--\":3246:3252   */\n      dup2\n        /* \"--CODEGEN--\":3240:3253   */\n      mload\n        /* \"--CODEGEN--\":3267:3370   */\n      tag_157\n        /* \"--CODEGEN--\":3366:3369   */\n      dup9\n        /* \"--CODEGEN--\":3351:3364   */\n      dup3\n        /* \"--CODEGEN--\":3267:3370   */\n      jump(tag_115)\n    tag_157:\n        /* \"--CODEGEN--\":3260:3370   */\n      swap8\n      pop\n        /* \"--CODEGEN--\":3387:3467   */\n      tag_158\n        /* \"--CODEGEN--\":3460:3466   */\n      dup4\n        /* \"--CODEGEN--\":3387:3467   */\n      jump(tag_159)\n    tag_158:\n        /* \"--CODEGEN--\":3377:3467   */\n      swap3\n      pop\n        /* \"--CODEGEN--\":3211:3474   */\n      pop\n        /* \"--CODEGEN--\":3201:3202   */\n      0x01\n        /* \"--CODEGEN--\":3198:3199   */\n      dup2\n        /* \"--CODEGEN--\":3194:3203   */\n      add\n        /* \"--CODEGEN--\":3189:3203   */\n      swap1\n      pop\n        /* \"--CODEGEN--\":3154:3474   */\n      jump(tag_154)\n    tag_156:\n        /* \"--CODEGEN--\":3158:3172   */\n      pop\n        /* \"--CODEGEN--\":3487:3490   */\n      dup6\n        /* \"--CODEGEN--\":3480:3490   */\n      swap4\n      pop\n        /* \"--CODEGEN--\":2810:3496   */\n      pop\n      pop\n      pop\n      swap3\n      swap2\n      pop\n      pop\n      jump\n        /* \"--CODEGEN--\":3504:3598   */\n    tag_160:\n        /* \"--CODEGEN--\":3571:3592   */\n      tag_162\n        /* \"--CODEGEN--\":3586:3591   */\n      dup2\n        /* \"--CODEGEN--\":3571:3592   */\n      jump(tag_163)\n    tag_162:\n        /* \"--CODEGEN--\":3566:3569   */\n      dup3\n        /* \"--CODEGEN--\":3559:3593   */\n      mstore\n        /* \"--CODEGEN--\":3553:3598   */\n      pop\n      pop\n      jump\n        /* \"--CODEGEN--\":3605:3709   */\n    tag_164:\n        /* \"--CODEGEN--\":3682:3703   */\n      tag_166\n        /* \"--CODEGEN--\":3697:3702   */\n      dup2\n        /* \"--CODEGEN--\":3682:3703   */\n      jump(tag_163)\n    tag_166:\n        /* \"--CODEGEN--\":3677:3680   */\n      dup3\n        /* \"--CODEGEN--\":3670:3704   */\n      mstore\n        /* \"--CODEGEN--\":3664:3709   */\n      pop\n      pop\n      jump\n        /* \"--CODEGEN--\":3717:4048   */\n    tag_167:\n      0x00\n        /* \"--CODEGEN--\":3877:3944   */\n      tag_169\n        /* \"--CODEGEN--\":3941:3943   */\n      0x1f\n        /* \"--CODEGEN--\":3936:3939   */\n      dup4\n        /* \"--CODEGEN--\":3877:3944   */\n      jump(tag_170)\n    tag_169:\n        /* \"--CODEGEN--\":3870:3944   */\n      swap2\n      pop\n        /* \"--CODEGEN--\":3977:4010   */\n      0x5472616e736665722068617320616c7265616479206265656e2073656e742e00\n        /* \"--CODEGEN--\":3973:3974   */\n      0x00\n        /* \"--CODEGEN--\":3968:3971   */\n      dup4\n        /* \"--CODEGEN--\":3964:3975   */\n      add\n        /* \"--CODEGEN--\":3957:4011   */\n      mstore\n        /* \"--CODEGEN--\":4039:4041   */\n      0x20\n        /* \"--CODEGEN--\":4034:4037   */\n      dup3\n        /* \"--CODEGEN--\":4030:4042   */\n      add\n        /* \"--CODEGEN--\":4023:4042   */\n      swap1\n      pop\n        /* \"--CODEGEN--\":3863:4048   */\n      swap2\n      swap1\n      pop\n      jump\n        /* \"--CODEGEN--\":4057:4387   */\n    tag_171:\n      0x00\n        /* \"--CODEGEN--\":4217:4284   */\n      tag_173\n        /* \"--CODEGEN--\":4281:4283   */\n      0x1e\n        /* \"--CODEGEN--\":4276:4279   */\n      dup4\n        /* \"--CODEGEN--\":4217:4284   */\n      jump(tag_170)\n    tag_173:\n        /* \"--CODEGEN--\":4210:4284   */\n      swap2\n      pop\n        /* \"--CODEGEN--\":4317:4349   */\n      0x43616e6e6f7420617070726f7665207472616e7366657220616761696e2e0000\n        /* \"--CODEGEN--\":4313:4314   */\n      0x00\n        /* \"--CODEGEN--\":4308:4311   */\n      dup4\n        /* \"--CODEGEN--\":4304:4315   */\n      add\n        /* \"--CODEGEN--\":4297:4350   */\n      mstore\n        /* \"--CODEGEN--\":4378:4380   */\n      0x20\n        /* \"--CODEGEN--\":4373:4376   */\n      dup3\n        /* \"--CODEGEN--\":4369:4381   */\n      add\n        /* \"--CODEGEN--\":4362:4381   */\n      swap1\n      pop\n        /* \"--CODEGEN--\":4203:4387   */\n      swap2\n      swap1\n      pop\n      jump\n        /* \"--CODEGEN--\":4396:4718   */\n    tag_174:\n      0x00\n        /* \"--CODEGEN--\":4556:4623   */\n      tag_176\n        /* \"--CODEGEN--\":4620:4622   */\n      0x16\n        /* \"--CODEGEN--\":4615:4618   */\n      dup4\n        /* \"--CODEGEN--\":4556:4623   */\n      jump(tag_170)\n    tag_176:\n        /* \"--CODEGEN--\":4549:4623   */\n      swap2\n      pop\n        /* \"--CODEGEN--\":4656:4680   */\n      0x4f6e6c7920617070726f76657220616c6c6f7765642e00000000000000000000\n        /* \"--CODEGEN--\":4652:4653   */\n      0x00\n        /* \"--CODEGEN--\":4647:4650   */\n      dup4\n        /* \"--CODEGEN--\":4643:4654   */\n      add\n        /* \"--CODEGEN--\":4636:4681   */\n      mstore\n        /* \"--CODEGEN--\":4709:4711   */\n      0x20\n        /* \"--CODEGEN--\":4704:4707   */\n      dup3\n        /* \"--CODEGEN--\":4700:4712   */\n      add\n        /* \"--CODEGEN--\":4693:4712   */\n      swap1\n      pop\n        /* \"--CODEGEN--\":4542:4718   */\n      swap2\n      swap1\n      pop\n      jump\n        /* \"--CODEGEN--\":4781:5716   */\n    tag_118:\n        /* \"--CODEGEN--\":4908:4912   */\n      0xa0\n        /* \"--CODEGEN--\":4903:4906   */\n      dup3\n        /* \"--CODEGEN--\":4899:4913   */\n      add\n        /* \"--CODEGEN--\":4989:4993   */\n      0x00\n        /* \"--CODEGEN--\":4982:4987   */\n      dup3\n        /* \"--CODEGEN--\":4978:4994   */\n      add\n        /* \"--CODEGEN--\":4972:4995   */\n      mload\n        /* \"--CODEGEN--\":5001:5064   */\n      tag_178\n        /* \"--CODEGEN--\":5058:5062   */\n      0x00\n        /* \"--CODEGEN--\":5053:5056   */\n      dup6\n        /* \"--CODEGEN--\":5049:5063   */\n      add\n        /* \"--CODEGEN--\":5035:5047   */\n      dup3\n        /* \"--CODEGEN--\":5001:5064   */\n      jump(tag_179)\n    tag_178:\n        /* \"--CODEGEN--\":4928:5070   */\n      pop\n        /* \"--CODEGEN--\":5145:5149   */\n      0x20\n        /* \"--CODEGEN--\":5138:5143   */\n      dup3\n        /* \"--CODEGEN--\":5134:5150   */\n      add\n        /* \"--CODEGEN--\":5128:5151   */\n      mload\n        /* \"--CODEGEN--\":5157:5220   */\n      tag_180\n        /* \"--CODEGEN--\":5214:5218   */\n      0x20\n        /* \"--CODEGEN--\":5209:5212   */\n      dup6\n        /* \"--CODEGEN--\":5205:5219   */\n      add\n        /* \"--CODEGEN--\":5191:5203   */\n      dup3\n        /* \"--CODEGEN--\":5157:5220   */\n      jump(tag_179)\n    tag_180:\n        /* \"--CODEGEN--\":5080:5226   */\n      pop\n        /* \"--CODEGEN--\":5297:5301   */\n      0x40\n        /* \"--CODEGEN--\":5290:5295   */\n      dup3\n        /* \"--CODEGEN--\":5286:5302   */\n      add\n        /* \"--CODEGEN--\":5280:5303   */\n      mload\n        /* \"--CODEGEN--\":5309:5388   */\n      tag_181\n        /* \"--CODEGEN--\":5382:5386   */\n      0x40\n        /* \"--CODEGEN--\":5377:5380   */\n      dup6\n        /* \"--CODEGEN--\":5373:5387   */\n      add\n        /* \"--CODEGEN--\":5359:5371   */\n      dup3\n        /* \"--CODEGEN--\":5309:5388   */\n      jump(tag_119)\n    tag_181:\n        /* \"--CODEGEN--\":5236:5394   */\n      pop\n        /* \"--CODEGEN--\":5472:5476   */\n      0x60\n        /* \"--CODEGEN--\":5465:5470   */\n      dup3\n        /* \"--CODEGEN--\":5461:5477   */\n      add\n        /* \"--CODEGEN--\":5455:5478   */\n      mload\n        /* \"--CODEGEN--\":5484:5547   */\n      tag_182\n        /* \"--CODEGEN--\":5541:5545   */\n      0x60\n        /* \"--CODEGEN--\":5536:5539   */\n      dup6\n        /* \"--CODEGEN--\":5532:5546   */\n      add\n        /* \"--CODEGEN--\":5518:5530   */\n      dup3\n        /* \"--CODEGEN--\":5484:5547   */\n      jump(tag_179)\n    tag_182:\n        /* \"--CODEGEN--\":5404:5553   */\n      pop\n        /* \"--CODEGEN--\":5626:5630   */\n      0x80\n        /* \"--CODEGEN--\":5619:5624   */\n      dup3\n        /* \"--CODEGEN--\":5615:5631   */\n      add\n        /* \"--CODEGEN--\":5609:5632   */\n      mload\n        /* \"--CODEGEN--\":5638:5695   */\n      tag_183\n        /* \"--CODEGEN--\":5689:5693   */\n      0x80\n        /* \"--CODEGEN--\":5684:5687   */\n      dup6\n        /* \"--CODEGEN--\":5680:5694   */\n      add\n        /* \"--CODEGEN--\":5666:5678   */\n      dup3\n        /* \"--CODEGEN--\":5638:5695   */\n      jump(tag_160)\n    tag_183:\n        /* \"--CODEGEN--\":5563:5701   */\n      pop\n        /* \"--CODEGEN--\":4881:5716   */\n      pop\n      pop\n      pop\n      jump\n        /* \"--CODEGEN--\":5723:5826   */\n    tag_179:\n        /* \"--CODEGEN--\":5796:5820   */\n      tag_185\n        /* \"--CODEGEN--\":5814:5819   */\n      dup2\n        /* \"--CODEGEN--\":5796:5820   */\n      jump(tag_186)\n    tag_185:\n        /* \"--CODEGEN--\":5791:5794   */\n      dup3\n        /* \"--CODEGEN--\":5784:5821   */\n      mstore\n        /* \"--CODEGEN--\":5778:5826   */\n      pop\n      pop\n      jump\n        /* \"--CODEGEN--\":5833:5946   */\n    tag_187:\n        /* \"--CODEGEN--\":5916:5940   */\n      tag_189\n        /* \"--CODEGEN--\":5934:5939   */\n      dup2\n        /* \"--CODEGEN--\":5916:5940   */\n      jump(tag_186)\n    tag_189:\n        /* \"--CODEGEN--\":5911:5914   */\n      dup3\n        /* \"--CODEGEN--\":5904:5941   */\n      mstore\n        /* \"--CODEGEN--\":5898:5946   */\n      pop\n      pop\n      jump\n        /* \"--CODEGEN--\":5953:6166   */\n    tag_44:\n      0x00\n        /* \"--CODEGEN--\":6071:6073   */\n      0x20\n        /* \"--CODEGEN--\":6060:6069   */\n      dup3\n        /* \"--CODEGEN--\":6056:6074   */\n      add\n        /* \"--CODEGEN--\":6048:6074   */\n      swap1\n      pop\n        /* \"--CODEGEN--\":6085:6156   */\n      tag_191\n        /* \"--CODEGEN--\":6153:6154   */\n      0x00\n        /* \"--CODEGEN--\":6142:6151   */\n      dup4\n        /* \"--CODEGEN--\":6138:6155   */\n      add\n        /* \"--CODEGEN--\":6129:6135   */\n      dup5\n        /* \"--CODEGEN--\":6085:6156   */\n      jump(tag_129)\n    tag_191:\n        /* \"--CODEGEN--\":6042:6166   */\n      swap3\n      swap2\n      pop\n      pop\n      jump\n        /* \"--CODEGEN--\":6173:6534   */\n    tag_27:\n      0x00\n        /* \"--CODEGEN--\":6341:6343   */\n      0x20\n        /* \"--CODEGEN--\":6330:6339   */\n      dup3\n        /* \"--CODEGEN--\":6326:6344   */\n      add\n        /* \"--CODEGEN--\":6318:6344   */\n      swap1\n      pop\n        /* \"--CODEGEN--\":6391:6400   */\n      dup2\n        /* \"--CODEGEN--\":6385:6389   */\n      dup2\n        /* \"--CODEGEN--\":6381:6401   */\n      sub\n        /* \"--CODEGEN--\":6377:6378   */\n      0x00\n        /* \"--CODEGEN--\":6366:6375   */\n      dup4\n        /* \"--CODEGEN--\":6362:6379   */\n      add\n        /* \"--CODEGEN--\":6355:6402   */\n      mstore\n        /* \"--CODEGEN--\":6416:6524   */\n      tag_193\n        /* \"--CODEGEN--\":6519:6523   */\n      dup2\n        /* \"--CODEGEN--\":6510:6516   */\n      dup5\n        /* \"--CODEGEN--\":6416:6524   */\n      jump(tag_132)\n    tag_193:\n        /* \"--CODEGEN--\":6408:6524   */\n      swap1\n      pop\n        /* \"--CODEGEN--\":6312:6534   */\n      swap3\n      swap2\n      pop\n      pop\n      jump\n        /* \"--CODEGEN--\":6541:6982   */\n    tag_22:\n      0x00\n        /* \"--CODEGEN--\":6749:6751   */\n      0x20\n        /* \"--CODEGEN--\":6738:6747   */\n      dup3\n        /* \"--CODEGEN--\":6734:6752   */\n      add\n        /* \"--CODEGEN--\":6726:6752   */\n      swap1\n      pop\n        /* \"--CODEGEN--\":6799:6808   */\n      dup2\n        /* \"--CODEGEN--\":6793:6797   */\n      dup2\n        /* \"--CODEGEN--\":6789:6809   */\n      sub\n        /* \"--CODEGEN--\":6785:6786   */\n      0x00\n        /* \"--CODEGEN--\":6774:6783   */\n      dup4\n        /* \"--CODEGEN--\":6770:6787   */\n      add\n        /* \"--CODEGEN--\":6763:6810   */\n      mstore\n        /* \"--CODEGEN--\":6824:6972   */\n      tag_195\n        /* \"--CODEGEN--\":6967:6971   */\n      dup2\n        /* \"--CODEGEN--\":6958:6964   */\n      dup5\n        /* \"--CODEGEN--\":6824:6972   */\n      jump(tag_146)\n    tag_195:\n        /* \"--CODEGEN--\":6816:6972   */\n      swap1\n      pop\n        /* \"--CODEGEN--\":6720:6982   */\n      swap3\n      swap2\n      pop\n      pop\n      jump\n        /* \"--CODEGEN--\":6989:7190   */\n    tag_51:\n      0x00\n        /* \"--CODEGEN--\":7101:7103   */\n      0x20\n        /* \"--CODEGEN--\":7090:7099   */\n      dup3\n        /* \"--CODEGEN--\":7086:7104   */\n      add\n        /* \"--CODEGEN--\":7078:7104   */\n      swap1\n      pop\n        /* \"--CODEGEN--\":7115:7180   */\n      tag_197\n        /* \"--CODEGEN--\":7177:7178   */\n      0x00\n        /* \"--CODEGEN--\":7166:7175   */\n      dup4\n        /* \"--CODEGEN--\":7162:7179   */\n      add\n        /* \"--CODEGEN--\":7153:7159   */\n      dup5\n        /* \"--CODEGEN--\":7115:7180   */\n      jump(tag_164)\n    tag_197:\n        /* \"--CODEGEN--\":7072:7190   */\n      swap3\n      swap2\n      pop\n      pop\n      jump\n        /* \"--CODEGEN--\":7197:7604   */\n    tag_76:\n      0x00\n        /* \"--CODEGEN--\":7388:7390   */\n      0x20\n        /* \"--CODEGEN--\":7377:7386   */\n      dup3\n        /* \"--CODEGEN--\":7373:7391   */\n      add\n        /* \"--CODEGEN--\":7365:7391   */\n      swap1\n      pop\n        /* \"--CODEGEN--\":7438:7447   */\n      dup2\n        /* \"--CODEGEN--\":7432:7436   */\n      dup2\n        /* \"--CODEGEN--\":7428:7448   */\n      sub\n        /* \"--CODEGEN--\":7424:7425   */\n      0x00\n        /* \"--CODEGEN--\":7413:7422   */\n      dup4\n        /* \"--CODEGEN--\":7409:7426   */\n      add\n        /* \"--CODEGEN--\":7402:7449   */\n      mstore\n        /* \"--CODEGEN--\":7463:7594   */\n      tag_199\n        /* \"--CODEGEN--\":7589:7593   */\n      dup2\n        /* \"--CODEGEN--\":7463:7594   */\n      jump(tag_167)\n    tag_199:\n        /* \"--CODEGEN--\":7455:7594   */\n      swap1\n      pop\n        /* \"--CODEGEN--\":7359:7604   */\n      swap2\n      swap1\n      pop\n      jump\n        /* \"--CODEGEN--\":7611:8018   */\n    tag_79:\n      0x00\n        /* \"--CODEGEN--\":7802:7804   */\n      0x20\n        /* \"--CODEGEN--\":7791:7800   */\n      dup3\n        /* \"--CODEGEN--\":7787:7805   */\n      add\n        /* \"--CODEGEN--\":7779:7805   */\n      swap1\n      pop\n        /* \"--CODEGEN--\":7852:7861   */\n      dup2\n        /* \"--CODEGEN--\":7846:7850   */\n      dup2\n        /* \"--CODEGEN--\":7842:7862   */\n      sub\n        /* \"--CODEGEN--\":7838:7839   */\n      0x00\n        /* \"--CODEGEN--\":7827:7836   */\n      dup4\n        /* \"--CODEGEN--\":7823:7840   */\n      add\n        /* \"--CODEGEN--\":7816:7863   */\n      mstore\n        /* \"--CODEGEN--\":7877:8008   */\n      tag_201\n        /* \"--CODEGEN--\":8003:8007   */\n      dup2\n        /* \"--CODEGEN--\":7877:8008   */\n      jump(tag_171)\n    tag_201:\n        /* \"--CODEGEN--\":7869:8008   */\n      swap1\n      pop\n        /* \"--CODEGEN--\":7773:8018   */\n      swap2\n      swap1\n      pop\n      jump\n        /* \"--CODEGEN--\":8025:8432   */\n    tag_70:\n      0x00\n        /* \"--CODEGEN--\":8216:8218   */\n      0x20\n        /* \"--CODEGEN--\":8205:8214   */\n      dup3\n        /* \"--CODEGEN--\":8201:8219   */\n      add\n        /* \"--CODEGEN--\":8193:8219   */\n      swap1\n      pop\n        /* \"--CODEGEN--\":8266:8275   */\n      dup2\n        /* \"--CODEGEN--\":8260:8264   */\n      dup2\n        /* \"--CODEGEN--\":8256:8276   */\n      sub\n        /* \"--CODEGEN--\":8252:8253   */\n      0x00\n        /* \"--CODEGEN--\":8241:8250   */\n      dup4\n        /* \"--CODEGEN--\":8237:8254   */\n      add\n        /* \"--CODEGEN--\":8230:8277   */\n      mstore\n        /* \"--CODEGEN--\":8291:8422   */\n      tag_203\n        /* \"--CODEGEN--\":8417:8421   */\n      dup2\n        /* \"--CODEGEN--\":8291:8422   */\n      jump(tag_174)\n    tag_203:\n        /* \"--CODEGEN--\":8283:8422   */\n      swap1\n      pop\n        /* \"--CODEGEN--\":8187:8432   */\n      swap2\n      swap1\n      pop\n      jump\n        /* \"--CODEGEN--\":8439:8652   */\n    tag_17:\n      0x00\n        /* \"--CODEGEN--\":8557:8559   */\n      0x20\n        /* \"--CODEGEN--\":8546:8555   */\n      dup3\n        /* \"--CODEGEN--\":8542:8560   */\n      add\n        /* \"--CODEGEN--\":8534:8560   */\n      swap1\n      pop\n        /* \"--CODEGEN--\":8571:8642   */\n      tag_205\n        /* \"--CODEGEN--\":8639:8640   */\n      0x00\n        /* \"--CODEGEN--\":8628:8637   */\n      dup4\n        /* \"--CODEGEN--\":8624:8641   */\n      add\n        /* \"--CODEGEN--\":8615:8621   */\n      dup5\n        /* \"--CODEGEN--\":8571:8642   */\n      jump(tag_187)\n    tag_205:\n        /* \"--CODEGEN--\":8528:8652   */\n      swap3\n      swap2\n      pop\n      pop\n      jump\n        /* \"--CODEGEN--\":8659:9338   */\n    tag_34:\n      0x00\n        /* \"--CODEGEN--\":8899:8902   */\n      0xa0\n        /* \"--CODEGEN--\":8888:8897   */\n      dup3\n        /* \"--CODEGEN--\":8884:8903   */\n      add\n        /* \"--CODEGEN--\":8876:8903   */\n      swap1\n      pop\n        /* \"--CODEGEN--\":8914:8985   */\n      tag_207\n        /* \"--CODEGEN--\":8982:8983   */\n      0x00\n        /* \"--CODEGEN--\":8971:8980   */\n      dup4\n        /* \"--CODEGEN--\":8967:8984   */\n      add\n        /* \"--CODEGEN--\":8958:8964   */\n      dup9\n        /* \"--CODEGEN--\":8914:8985   */\n      jump(tag_187)\n    tag_207:\n        /* \"--CODEGEN--\":8996:9068   */\n      tag_208\n        /* \"--CODEGEN--\":9064:9066   */\n      0x20\n        /* \"--CODEGEN--\":9053:9062   */\n      dup4\n        /* \"--CODEGEN--\":9049:9067   */\n      add\n        /* \"--CODEGEN--\":9040:9046   */\n      dup8\n        /* \"--CODEGEN--\":8996:9068   */\n      jump(tag_187)\n    tag_208:\n        /* \"--CODEGEN--\":9079:9167   */\n      tag_209\n        /* \"--CODEGEN--\":9163:9165   */\n      0x40\n        /* \"--CODEGEN--\":9152:9161   */\n      dup4\n        /* \"--CODEGEN--\":9148:9166   */\n      add\n        /* \"--CODEGEN--\":9139:9145   */\n      dup7\n        /* \"--CODEGEN--\":9079:9167   */\n      jump(tag_123)\n    tag_209:\n        /* \"--CODEGEN--\":9178:9250   */\n      tag_210\n        /* \"--CODEGEN--\":9246:9248   */\n      0x60\n        /* \"--CODEGEN--\":9235:9244   */\n      dup4\n        /* \"--CODEGEN--\":9231:9249   */\n      add\n        /* \"--CODEGEN--\":9222:9228   */\n      dup6\n        /* \"--CODEGEN--\":9178:9250   */\n      jump(tag_187)\n    tag_210:\n        /* \"--CODEGEN--\":9261:9328   */\n      tag_211\n        /* \"--CODEGEN--\":9323:9326   */\n      0x80\n        /* \"--CODEGEN--\":9312:9321   */\n      dup4\n        /* \"--CODEGEN--\":9308:9327   */\n      add\n        /* \"--CODEGEN--\":9299:9305   */\n      dup5\n        /* \"--CODEGEN--\":9261:9328   */\n      jump(tag_164)\n    tag_211:\n        /* \"--CODEGEN--\":8870:9338   */\n      swap7\n      swap6\n      pop\n      pop\n      pop\n      pop\n      pop\n      pop\n      jump\n        /* \"--CODEGEN--\":9345:9496   */\n    tag_139:\n      0x00\n        /* \"--CODEGEN--\":9431:9434   */\n      dup2\n        /* \"--CODEGEN--\":9423:9434   */\n      swap1\n      pop\n        /* \"--CODEGEN--\":9469:9473   */\n      0x20\n        /* \"--CODEGEN--\":9464:9467   */\n      dup3\n        /* \"--CODEGEN--\":9460:9474   */\n      add\n        /* \"--CODEGEN--\":9452:9474   */\n      swap1\n      pop\n        /* \"--CODEGEN--\":9417:9496   */\n      swap2\n      swap1\n      pop\n      jump\n        /* \"--CODEGEN--\":9503:9674   */\n    tag_153:\n      0x00\n        /* \"--CODEGEN--\":9609:9612   */\n      dup2\n        /* \"--CODEGEN--\":9601:9612   */\n      swap1\n      pop\n        /* \"--CODEGEN--\":9647:9651   */\n      0x20\n        /* \"--CODEGEN--\":9642:9645   */\n      dup3\n        /* \"--CODEGEN--\":9638:9652   */\n      add\n        /* \"--CODEGEN--\":9630:9652   */\n      swap1\n      pop\n        /* \"--CODEGEN--\":9595:9674   */\n      swap2\n      swap1\n      pop\n      jump\n        /* \"--CODEGEN--\":9681:9818   */\n    tag_135:\n      0x00\n        /* \"--CODEGEN--\":9790:9795   */\n      dup2\n        /* \"--CODEGEN--\":9784:9796   */\n      mload\n        /* \"--CODEGEN--\":9774:9796   */\n      swap1\n      pop\n        /* \"--CODEGEN--\":9755:9818   */\n      swap2\n      swap1\n      pop\n      jump\n        /* \"--CODEGEN--\":9825:9982   */\n    tag_149:\n      0x00\n        /* \"--CODEGEN--\":9954:9959   */\n      dup2\n        /* \"--CODEGEN--\":9948:9960   */\n      mload\n        /* \"--CODEGEN--\":9938:9960   */\n      swap1\n      pop\n        /* \"--CODEGEN--\":9919:9982   */\n      swap2\n      swap1\n      pop\n      jump\n        /* \"--CODEGEN--\":9989:10097   */\n    tag_145:\n      0x00\n        /* \"--CODEGEN--\":10087:10091   */\n      0x20\n        /* \"--CODEGEN--\":10082:10085   */\n      dup3\n        /* \"--CODEGEN--\":10078:10092   */\n      add\n        /* \"--CODEGEN--\":10070:10092   */\n      swap1\n      pop\n        /* \"--CODEGEN--\":10064:10097   */\n      swap2\n      swap1\n      pop\n      jump\n        /* \"--CODEGEN--\":10104:10232   */\n    tag_159:\n      0x00\n        /* \"--CODEGEN--\":10222:10226   */\n      0x20\n        /* \"--CODEGEN--\":10217:10220   */\n      dup3\n        /* \"--CODEGEN--\":10213:10227   */\n      add\n        /* \"--CODEGEN--\":10205:10227   */\n      swap1\n      pop\n        /* \"--CODEGEN--\":10199:10232   */\n      swap2\n      swap1\n      pop\n      jump\n        /* \"--CODEGEN--\":10240:10418   */\n    tag_137:\n      0x00\n        /* \"--CODEGEN--\":10370:10376   */\n      dup3\n        /* \"--CODEGEN--\":10365:10368   */\n      dup3\n        /* \"--CODEGEN--\":10358:10377   */\n      mstore\n        /* \"--CODEGEN--\":10407:10411   */\n      0x20\n        /* \"--CODEGEN--\":10402:10405   */\n      dup3\n        /* \"--CODEGEN--\":10398:10412   */\n      add\n        /* \"--CODEGEN--\":10383:10412   */\n      swap1\n      pop\n        /* \"--CODEGEN--\":10351:10418   */\n      swap3\n      swap2\n      pop\n      pop\n      jump\n        /* \"--CODEGEN--\":10427:10625   */\n    tag_151:\n      0x00\n        /* \"--CODEGEN--\":10577:10583   */\n      dup3\n        /* \"--CODEGEN--\":10572:10575   */\n      dup3\n        /* \"--CODEGEN--\":10565:10584   */\n      mstore\n        /* \"--CODEGEN--\":10614:10618   */\n      0x20\n        /* \"--CODEGEN--\":10609:10612   */\n      dup3\n        /* \"--CODEGEN--\":10605:10619   */\n      add\n        /* \"--CODEGEN--\":10590:10619   */\n      swap1\n      pop\n        /* \"--CODEGEN--\":10558:10625   */\n      swap3\n      swap2\n      pop\n      pop\n      jump\n        /* \"--CODEGEN--\":10634:10797   */\n    tag_170:\n      0x00\n        /* \"--CODEGEN--\":10749:10755   */\n      dup3\n        /* \"--CODEGEN--\":10744:10747   */\n      dup3\n        /* \"--CODEGEN--\":10737:10756   */\n      mstore\n        /* \"--CODEGEN--\":10786:10790   */\n      0x20\n        /* \"--CODEGEN--\":10781:10784   */\n      dup3\n        /* \"--CODEGEN--\":10777:10791   */\n      add\n        /* \"--CODEGEN--\":10762:10791   */\n      swap1\n      pop\n        /* \"--CODEGEN--\":10730:10797   */\n      swap3\n      swap2\n      pop\n      pop\n      jump\n        /* \"--CODEGEN--\":10805:10896   */\n    tag_128:\n      0x00\n        /* \"--CODEGEN--\":10867:10891   */\n      tag_222\n        /* \"--CODEGEN--\":10885:10890   */\n      dup3\n        /* \"--CODEGEN--\":10867:10891   */\n      jump(tag_223)\n    tag_222:\n        /* \"--CODEGEN--\":10856:10891   */\n      swap1\n      pop\n        /* \"--CODEGEN--\":10850:10896   */\n      swap2\n      swap1\n      pop\n      jump\n        /* \"--CODEGEN--\":10903:11002   */\n    tag_122:\n      0x00\n        /* \"--CODEGEN--\":10973:10997   */\n      tag_225\n        /* \"--CODEGEN--\":10991:10996   */\n      dup3\n        /* \"--CODEGEN--\":10973:10997   */\n      jump(tag_223)\n    tag_225:\n        /* \"--CODEGEN--\":10962:10997   */\n      swap1\n      pop\n        /* \"--CODEGEN--\":10956:11002   */\n      swap2\n      swap1\n      pop\n      jump\n        /* \"--CODEGEN--\":11009:11094   */\n    tag_163:\n      0x00\n        /* \"--CODEGEN--\":11082:11087   */\n      dup2\n        /* \"--CODEGEN--\":11075:11088   */\n      iszero\n        /* \"--CODEGEN--\":11068:11089   */\n      iszero\n        /* \"--CODEGEN--\":11057:11089   */\n      swap1\n      pop\n        /* \"--CODEGEN--\":11051:11094   */\n      swap2\n      swap1\n      pop\n      jump\n        /* \"--CODEGEN--\":11101:11222   */\n    tag_223:\n      0x00\n        /* \"--CODEGEN--\":11174:11216   */\n      0xffffffffffffffffffffffffffffffffffffffff\n        /* \"--CODEGEN--\":11167:11172   */\n      dup3\n        /* \"--CODEGEN--\":11163:11217   */\n      and\n        /* \"--CODEGEN--\":11152:11217   */\n      swap1\n      pop\n        /* \"--CODEGEN--\":11146:11222   */\n      swap2\n      swap1\n      pop\n      jump\n        /* \"--CODEGEN--\":11229:11301   */\n    tag_186:\n      0x00\n        /* \"--CODEGEN--\":11291:11296   */\n      dup2\n        /* \"--CODEGEN--\":11280:11296   */\n      swap1\n      pop\n        /* \"--CODEGEN--\":11274:11301   */\n      swap2\n      swap1\n      pop\n      jump\n        /* \"--CODEGEN--\":11308:11425   */\n    tag_99:\n        /* \"--CODEGEN--\":11377:11401   */\n      tag_230\n        /* \"--CODEGEN--\":11395:11400   */\n      dup2\n        /* \"--CODEGEN--\":11377:11401   */\n      jump(tag_128)\n    tag_230:\n        /* \"--CODEGEN--\":11370:11375   */\n      dup2\n        /* \"--CODEGEN--\":11367:11402   */\n      eq\n        /* \"--CODEGEN--\":11357:11359   */\n      tag_231\n      jumpi\n        /* \"--CODEGEN--\":11416:11417   */\n      0x00\n        /* \"--CODEGEN--\":11413:11414   */\n      dup1\n        /* \"--CODEGEN--\":11406:11418   */\n      revert\n        /* \"--CODEGEN--\":11357:11359   */\n    tag_231:\n        /* \"--CODEGEN--\":11351:11425   */\n      pop\n      jump\n        /* \"--CODEGEN--\":11432:11549   */\n    tag_103:\n        /* \"--CODEGEN--\":11501:11525   */\n      tag_233\n        /* \"--CODEGEN--\":11519:11524   */\n      dup2\n        /* \"--CODEGEN--\":11501:11525   */\n      jump(tag_186)\n    tag_233:\n        /* \"--CODEGEN--\":11494:11499   */\n      dup2\n        /* \"--CODEGEN--\":11491:11526   */\n      eq\n        /* \"--CODEGEN--\":11481:11483   */\n      tag_234\n      jumpi\n        /* \"--CODEGEN--\":11540:11541   */\n      0x00\n        /* \"--CODEGEN--\":11537:11538   */\n      dup1\n        /* \"--CODEGEN--\":11530:11542   */\n      revert\n        /* \"--CODEGEN--\":11481:11483   */\n    tag_234:\n        /* \"--CODEGEN--\":11475:11549   */\n      pop\n      jump\n\n    auxdata: 0xa2646970667358221220400251983ab3fda99da25697841cf8a62564e201b6a6d5bcc3e80d495e7c321964736f6c63430006000033\n}\n",
				"bytecode": {
					"linkReferences": {},
					"object": "60806040523480156200001157600080fd5b50604051620010a4380380620010a48339818101604052620000379190810190620001ef565b81600090805190602001906200004f9291906200005f565b5080600181905550505062000312565b828054828255906000526020600020908101928215620000db579160200282015b82811115620000da5782518260006101000a81548173ffffffffffffffffffffffffffffffffffffffff021916908373ffffffffffffffffffffffffffffffffffffffff1602179055509160200191906001019062000080565b5b509050620000ea9190620000ee565b5090565b6200013191905b808211156200012d57600081816101000a81549073ffffffffffffffffffffffffffffffffffffffff021916905550600101620000f5565b5090565b90565b6000815190506200014581620002de565b92915050565b600082601f8301126200015d57600080fd5b8151620001746200016e8262000277565b62000249565b915081818352602084019350602081019050838560208402820111156200019a57600080fd5b60005b83811015620001ce5781620001b3888262000134565b8452602084019350602083019250506001810190506200019d565b5050505092915050565b600081519050620001e981620002f8565b92915050565b600080604083850312156200020357600080fd5b600083015167ffffffffffffffff8111156200021e57600080fd5b6200022c858286016200014b565b92505060206200023f85828601620001d8565b9150509250929050565b6000604051905081810181811067ffffffffffffffff821117156200026d57600080fd5b8060405250919050565b600067ffffffffffffffff8211156200028f57600080fd5b602082029050602081019050919050565b6000620002ad82620002b4565b9050919050565b600073ffffffffffffffffffffffffffffffffffffffff82169050919050565b6000819050919050565b620002e981620002a0565b8114620002f557600080fd5b50565b6200030381620002d4565b81146200030f57600080fd5b50565b610d8280620003226000396000f3fe6080604052600436106100745760003560e01c80639377d7111161004e5780639377d71114610101578063cacca4a014610142578063d3650fb81461016b578063ffabc673146101a85761007b565b80631703a018146100805780632f65142c146100ab5780636cb3e8ef146100d65761007b565b3661007b57005b600080fd5b34801561008c57600080fd5b506100956101e5565b6040516100a29190610bd3565b60405180910390f35b3480156100b757600080fd5b506100c06101eb565b6040516100cd9190610b36565b60405180910390f35b3480156100e257600080fd5b506100eb6102d9565b6040516100f89190610b14565b60405180910390f35b34801561010d57600080fd5b5061012860048036036101239190810190610844565b610367565b604051610139959493929190610bee565b60405180910390f35b34801561014e57600080fd5b5061016960048036036101649190810190610844565b6103d7565b005b34801561017757600080fd5b50610192600480360361018d9190810190610844565b610773565b60405161019f9190610af9565b60405180910390f35b3480156101b457600080fd5b506101cf60048036036101ca9190810190610808565b6107af565b6040516101dc9190610b58565b60405180910390f35b60015481565b60606002805480602002602001604051908101604052809291908181526020016000905b828210156102d057838290600052602060002090600502016040518060a001604052908160008201548152602001600182015481526020016002820160009054906101000a900473ffffffffffffffffffffffffffffffffffffffff1673ffffffffffffffffffffffffffffffffffffffff1673ffffffffffffffffffffffffffffffffffffffff168152602001600382015481526020016004820160009054906101000a900460ff1615151515815250508152602001906001019061020f565b50505050905090565b6060600080548060200260200160405190810160405280929190818152602001828054801561035d57602002820191906000526020600020905b8160009054906101000a900473ffffffffffffffffffffffffffffffffffffffff1673ffffffffffffffffffffffffffffffffffffffff1681526020019060010190808311610313575b5050505050905090565b6002818154811061037457fe5b90600052602060002090600502016000915090508060000154908060010154908060020160009054906101000a900473ffffffffffffffffffffffffffffffffffffffff16908060030154908060040160009054906101000a900460ff16905085565b600080905060008090505b60008054905081101561046c57600081815481106103fc57fe5b9060005260206000200160009054906101000a900473ffffffffffffffffffffffffffffffffffffffff1673ffffffffffffffffffffffffffffffffffffffff163373ffffffffffffffffffffffffffffffffffffffff16141561045f57600191505b80806001019150506103e2565b5060011515811515146104b4576040517f08c379a00000000000000000000000000000000000000000000000000000000081526004016104ab90610bb3565b60405180910390fd5b60001515600283815481106104c557fe5b906000526020600020906005020160040160009054906101000a900460ff16151514610526576040517f08c379a000000000000000000000000000000000000000000000000000000000815260040161051d90610b73565b60405180910390fd5b60001515600360003373ffffffffffffffffffffffffffffffffffffffff1673ffffffffffffffffffffffffffffffffffffffff168152602001908152602001600020600084815260200190815260200160002060009054906101000a900460ff161515146105ca576040517f08c379a00000000000000000000000000000000000000000000000000000000081526004016105c190610b93565b60405180910390fd5b6001600360003373ffffffffffffffffffffffffffffffffffffffff1673ffffffffffffffffffffffffffffffffffffffff168152602001908152602001600020600084815260200190815260200160002060006101000a81548160ff0219169083151502179055506002828154811061064057fe5b9060005260206000209060050201600301600081548092919060010191905055506001546002838154811061067157fe5b9060005260206000209060050201600301541061076f5760016002838154811061069757fe5b906000526020600020906005020160040160006101000a81548160ff0219169083151502179055506000600283815481106106ce57fe5b906000526020600020906005020160020160009054906101000a900473ffffffffffffffffffffffffffffffffffffffff16905060006002848154811061071157fe5b90600052602060002090600502016001015490508173ffffffffffffffffffffffffffffffffffffffff166108fc829081150290604051600060405180830381858888f1935050505015801561076b573d6000803e3d6000fd5b5050505b5050565b6000818154811061078057fe5b906000526020600020016000915054906101000a900473ffffffffffffffffffffffffffffffffffffffff1681565b60036020528160005260406000206020528060005260406000206000915091509054906101000a900460ff1681565b6000813590506107ed81610d1e565b92915050565b60008135905061080281610d35565b92915050565b6000806040838503121561081b57600080fd5b6000610829858286016107de565b925050602061083a858286016107f3565b9150509250929050565b60006020828403121561085657600080fd5b6000610864848285016107f3565b91505092915050565b600061087983836108bb565b60208301905092915050565b60006108918383610a73565b60a08301905092915050565b6108a681610cd6565b82525050565b6108b581610cd6565b82525050565b6108c481610cc4565b82525050565b6108d381610cc4565b82525050565b60006108e482610c61565b6108ee8185610c91565b93506108f983610c41565b8060005b8381101561092a578151610911888261086d565b975061091c83610c77565b9250506001810190506108fd565b5085935050505092915050565b600061094282610c6c565b61094c8185610ca2565b935061095783610c51565b8060005b8381101561098857815161096f8882610885565b975061097a83610c84565b92505060018101905061095b565b5085935050505092915050565b61099e81610ce8565b82525050565b6109ad81610ce8565b82525050565b60006109c0601f83610cb3565b91507f5472616e736665722068617320616c7265616479206265656e2073656e742e006000830152602082019050919050565b6000610a00601e83610cb3565b91507f43616e6e6f7420617070726f7665207472616e7366657220616761696e2e00006000830152602082019050919050565b6000610a40601683610cb3565b91507f4f6e6c7920617070726f76657220616c6c6f7765642e000000000000000000006000830152602082019050919050565b60a082016000820151610a896000850182610adb565b506020820151610a9c6020850182610adb565b506040820151610aaf604085018261089d565b506060820151610ac26060850182610adb565b506080820151610ad56080850182610995565b50505050565b610ae481610d14565b82525050565b610af381610d14565b82525050565b6000602082019050610b0e60008301846108ca565b92915050565b60006020820190508181036000830152610b2e81846108d9565b905092915050565b60006020820190508181036000830152610b508184610937565b905092915050565b6000602082019050610b6d60008301846109a4565b92915050565b60006020820190508181036000830152610b8c816109b3565b9050919050565b60006020820190508181036000830152610bac816109f3565b9050919050565b60006020820190508181036000830152610bcc81610a33565b9050919050565b6000602082019050610be86000830184610aea565b92915050565b600060a082019050610c036000830188610aea565b610c106020830187610aea565b610c1d60408301866108ac565b610c2a6060830185610aea565b610c3760808301846109a4565b9695505050505050565b6000819050602082019050919050565b6000819050602082019050919050565b600081519050919050565b600081519050919050565b6000602082019050919050565b6000602082019050919050565b600082825260208201905092915050565b600082825260208201905092915050565b600082825260208201905092915050565b6000610ccf82610cf4565b9050919050565b6000610ce182610cf4565b9050919050565b60008115159050919050565b600073ffffffffffffffffffffffffffffffffffffffff82169050919050565b6000819050919050565b610d2781610cc4565b8114610d3257600080fd5b50565b610d3e81610d14565b8114610d4957600080fd5b5056fea2646970667358221220400251983ab3fda99da25697841cf8a62564e201b6a6d5bcc3e80d495e7c321964736f6c63430006000033",
					"opcodes": "PUSH1 0x80 PUSH1 0x40 MSTORE CALLVALUE DUP1 ISZERO PUSH3 0x11 JUMPI PUSH1 0x0 DUP1 REVERT JUMPDEST POP PUSH1 0x40 MLOAD PUSH3 0x10A4 CODESIZE SUB DUP1 PUSH3 0x10A4 DUP4 CODECOPY DUP2 DUP2 ADD PUSH1 0x40 MSTORE PUSH3 0x37 SWAP2 SWAP1 DUP2 ADD SWAP1 PUSH3 0x1EF JUMP JUMPDEST DUP2 PUSH1 0x0 SWAP1 DUP1 MLOAD SWAP1 PUSH1 0x20 ADD SWAP1 PUSH3 0x4F SWAP3 SWAP2 SWAP1 PUSH3 0x5F JUMP JUMPDEST POP DUP1 PUSH1 0x1 DUP2 SWAP1 SSTORE POP POP POP PUSH3 0x312 JUMP JUMPDEST DUP3 DUP1 SLOAD DUP3 DUP3 SSTORE SWAP1 PUSH1 0x0 MSTORE PUSH1 0x20 PUSH1 0x0 KECCAK256 SWAP1 DUP2 ADD SWAP3 DUP3 ISZERO PUSH3 0xDB JUMPI SWAP2 PUSH1 0x20 MUL DUP3 ADD JUMPDEST DUP3 DUP2 GT ISZERO PUSH3 0xDA JUMPI DUP3 MLOAD DUP3 PUSH1 0x0 PUSH2 0x100 EXP DUP2 SLOAD DUP2 PUSH20 0xFFFFFFFFFFFFFFFFFFFFFFFFFFFFFFFFFFFFFFFF MUL NOT AND SWAP1 DUP4 PUSH20 0xFFFFFFFFFFFFFFFFFFFFFFFFFFFFFFFFFFFFFFFF AND MUL OR SWAP1 SSTORE POP SWAP2 PUSH1 0x20 ADD SWAP2 SWAP1 PUSH1 0x1 ADD SWAP1 PUSH3 0x80 JUMP JUMPDEST JUMPDEST POP SWAP1 POP PUSH3 0xEA SWAP2 SWAP1 PUSH3 0xEE JUMP JUMPDEST POP SWAP1 JUMP JUMPDEST PUSH3 0x131 SWAP2 SWAP1 JUMPDEST DUP1 DUP3 GT ISZERO PUSH3 0x12D JUMPI PUSH1 0x0 DUP2 DUP2 PUSH2 0x100 EXP DUP2 SLOAD SWAP1 PUSH20 0xFFFFFFFFFFFFFFFFFFFFFFFFFFFFFFFFFFFFFFFF MUL NOT AND SWAP1 SSTORE POP PUSH1 0x1 ADD PUSH3 0xF5 JUMP JUMPDEST POP SWAP1 JUMP JUMPDEST SWAP1 JUMP JUMPDEST PUSH1 0x0 DUP2 MLOAD SWAP1 POP PUSH3 0x145 DUP2 PUSH3 0x2DE JUMP JUMPDEST SWAP3 SWAP2 POP POP JUMP JUMPDEST PUSH1 0x0 DUP3 PUSH1 0x1F DUP4 ADD SLT PUSH3 0x15D JUMPI PUSH1 0x0 DUP1 REVERT JUMPDEST DUP2 MLOAD PUSH3 0x174 PUSH3 0x16E DUP3 PUSH3 0x277 JUMP JUMPDEST PUSH3 0x249 JUMP JUMPDEST SWAP2 POP DUP2 DUP2 DUP4 MSTORE PUSH1 0x20 DUP5 ADD SWAP4 POP PUSH1 0x20 DUP2 ADD SWAP1 POP DUP4 DUP6 PUSH1 0x20 DUP5 MUL DUP3 ADD GT ISZERO PUSH3 0x19A JUMPI PUSH1 0x0 DUP1 REVERT JUMPDEST PUSH1 0x0 JUMPDEST DUP4 DUP2 LT ISZERO PUSH3 0x1CE JUMPI DUP2 PUSH3 0x1B3 DUP9 DUP3 PUSH3 0x134 JUMP JUMPDEST DUP5 MSTORE PUSH1 0x20 DUP5 ADD SWAP4 POP PUSH1 0x20 DUP4 ADD SWAP3 POP POP PUSH1 0x1 DUP2 ADD SWAP1 POP PUSH3 0x19D JUMP JUMPDEST POP POP POP POP SWAP3 SWAP2 POP POP JUMP JUMPDEST PUSH1 0x0 DUP2 MLOAD SWAP1 POP PUSH3 0x1E9 DUP2 PUSH3 0x2F8 JUMP JUMPDEST SWAP3 SWAP2 POP POP JUMP JUMPDEST PUSH1 0x0 DUP1 PUSH1 0x40 DUP4 DUP6 SUB SLT ISZERO PUSH3 0x203 JUMPI PUSH1 0x0 DUP1 REVERT JUMPDEST PUSH1 0x0 DUP4 ADD MLOAD PUSH8 0xFFFFFFFFFFFFFFFF DUP2 GT ISZERO PUSH3 0x21E JUMPI PUSH1 0x0 DUP1 REVERT JUMPDEST PUSH3 0x22C DUP6 DUP3 DUP7 ADD PUSH3 0x14B JUMP JUMPDEST SWAP3 POP POP PUSH1 0x20 PUSH3 0x23F DUP6 DUP3 DUP7 ADD PUSH3 0x1D8 JUMP JUMPDEST SWAP2 POP POP SWAP3 POP SWAP3 SWAP1 POP JUMP JUMPDEST PUSH1 0x0 PUSH1 0x40 MLOAD SWAP1 POP DUP2 DUP2 ADD DUP2 DUP2 LT PUSH8 0xFFFFFFFFFFFFFFFF DUP3 GT OR ISZERO PUSH3 0x26D JUMPI PUSH1 0x0 DUP1 REVERT JUMPDEST DUP1 PUSH1 0x40 MSTORE POP SWAP2 SWAP1 POP JUMP JUMPDEST PUSH1 0x0 PUSH8 0xFFFFFFFFFFFFFFFF DUP3 GT ISZERO PUSH3 0x28F JUMPI PUSH1 0x0 DUP1 REVERT JUMPDEST PUSH1 0x20 DUP3 MUL SWAP1 POP PUSH1 0x20 DUP2 ADD SWAP1 POP SWAP2 SWAP1 POP JUMP JUMPDEST PUSH1 0x0 PUSH3 0x2AD DUP3 PUSH3 0x2B4 JUMP JUMPDEST SWAP1 POP SWAP2 SWAP1 POP JUMP JUMPDEST PUSH1 0x0 PUSH20 0xFFFFFFFFFFFFFFFFFFFFFFFFFFFFFFFFFFFFFFFF DUP3 AND SWAP1 POP SWAP2 SWAP1 POP JUMP JUMPDEST PUSH1 0x0 DUP2 SWAP1 POP SWAP2 SWAP1 POP JUMP JUMPDEST PUSH3 0x2E9 DUP2 PUSH3 0x2A0 JUMP JUMPDEST DUP2 EQ PUSH3 0x2F5 JUMPI PUSH1 0x0 DUP1 REVERT JUMPDEST POP JUMP JUMPDEST PUSH3 0x303 DUP2 PUSH3 0x2D4 JUMP JUMPDEST DUP2 EQ PUSH3 0x30F JUMPI PUSH1 0x0 DUP1 REVERT JUMPDEST POP JUMP JUMPDEST PUSH2 0xD82 DUP1 PUSH3 0x322 PUSH1 0x0 CODECOPY PUSH1 0x0 RETURN INVALID PUSH1 0x80 PUSH1 0x40 MSTORE PUSH1 0x4 CALLDATASIZE LT PUSH2 0x74 JUMPI PUSH1 0x0 CALLDATALOAD PUSH1 0xE0 SHR DUP1 PUSH4 0x9377D711 GT PUSH2 0x4E JUMPI DUP1 PUSH4 0x9377D711 EQ PUSH2 0x101 JUMPI DUP1 PUSH4 0xCACCA4A0 EQ PUSH2 0x142 JUMPI DUP1 PUSH4 0xD3650FB8 EQ PUSH2 0x16B JUMPI DUP1 PUSH4 0xFFABC673 EQ PUSH2 0x1A8 JUMPI PUSH2 0x7B JUMP JUMPDEST DUP1 PUSH4 0x1703A018 EQ PUSH2 0x80 JUMPI DUP1 PUSH4 0x2F65142C EQ PUSH2 0xAB JUMPI DUP1 PUSH4 0x6CB3E8EF EQ PUSH2 0xD6 JUMPI PUSH2 0x7B JUMP JUMPDEST CALLDATASIZE PUSH2 0x7B JUMPI STOP JUMPDEST PUSH1 0x0 DUP1 REVERT JUMPDEST CALLVALUE DUP1 ISZERO PUSH2 0x8C JUMPI PUSH1 0x0 DUP1 REVERT JUMPDEST POP PUSH2 0x95 PUSH2 0x1E5 JUMP JUMPDEST PUSH1 0x40 MLOAD PUSH2 0xA2 SWAP2 SWAP1 PUSH2 0xBD3 JUMP JUMPDEST PUSH1 0x40 MLOAD DUP1 SWAP2 SUB SWAP1 RETURN JUMPDEST CALLVALUE DUP1 ISZERO PUSH2 0xB7 JUMPI PUSH1 0x0 DUP1 REVERT JUMPDEST POP PUSH2 0xC0 PUSH2 0x1EB JUMP JUMPDEST PUSH1 0x40 MLOAD PUSH2 0xCD SWAP2 SWAP1 PUSH2 0xB36 JUMP JUMPDEST PUSH1 0x40 MLOAD DUP1 SWAP2 SUB SWAP1 RETURN JUMPDEST CALLVALUE DUP1 ISZERO PUSH2 0xE2 JUMPI PUSH1 0x0 DUP1 REVERT JUMPDEST POP PUSH2 0xEB PUSH2 0x2D9 JUMP JUMPDEST PUSH1 0x40 MLOAD PUSH2 0xF8 SWAP2 SWAP1 PUSH2 0xB14 JUMP JUMPDEST PUSH1 0x40 MLOAD DUP1 SWAP2 SUB SWAP1 RETURN JUMPDEST CALLVALUE DUP1 ISZERO PUSH2 0x10D JUMPI PUSH1 0x0 DUP1 REVERT JUMPDEST POP PUSH2 0x128 PUSH1 0x4 DUP1 CALLDATASIZE SUB PUSH2 0x123 SWAP2 SWAP1 DUP2 ADD SWAP1 PUSH2 0x844 JUMP JUMPDEST PUSH2 0x367 JUMP JUMPDEST PUSH1 0x40 MLOAD PUSH2 0x139 SWAP6 SWAP5 SWAP4 SWAP3 SWAP2 SWAP1 PUSH2 0xBEE JUMP JUMPDEST PUSH1 0x40 MLOAD DUP1 SWAP2 SUB SWAP1 RETURN JUMPDEST CALLVALUE DUP1 ISZERO PUSH2 0x14E JUMPI PUSH1 0x0 DUP1 REVERT JUMPDEST POP PUSH2 0x169 PUSH1 0x4 DUP1 CALLDATASIZE SUB PUSH2 0x164 SWAP2 SWAP1 DUP2 ADD SWAP1 PUSH2 0x844 JUMP JUMPDEST PUSH2 0x3D7 JUMP JUMPDEST STOP JUMPDEST CALLVALUE DUP1 ISZERO PUSH2 0x177 JUMPI PUSH1 0x0 DUP1 REVERT JUMPDEST POP PUSH2 0x192 PUSH1 0x4 DUP1 CALLDATASIZE SUB PUSH2 0x18D SWAP2 SWAP1 DUP2 ADD SWAP1 PUSH2 0x844 JUMP JUMPDEST PUSH2 0x773 JUMP JUMPDEST PUSH1 0x40 MLOAD PUSH2 0x19F SWAP2 SWAP1 PUSH2 0xAF9 JUMP JUMPDEST PUSH1 0x40 MLOAD DUP1 SWAP2 SUB SWAP1 RETURN JUMPDEST CALLVALUE DUP1 ISZERO PUSH2 0x1B4 JUMPI PUSH1 0x0 DUP1 REVERT JUMPDEST POP PUSH2 0x1CF PUSH1 0x4 DUP1 CALLDATASIZE SUB PUSH2 0x1CA SWAP2 SWAP1 DUP2 ADD SWAP1 PUSH2 0x808 JUMP JUMPDEST PUSH2 0x7AF JUMP JUMPDEST PUSH1 0x40 MLOAD PUSH2 0x1DC SWAP2 SWAP1 PUSH2 0xB58 JUMP JUMPDEST PUSH1 0x40 MLOAD DUP1 SWAP2 SUB SWAP1 RETURN JUMPDEST PUSH1 0x1 SLOAD DUP2 JUMP JUMPDEST PUSH1 0x60 PUSH1 0x2 DUP1 SLOAD DUP1 PUSH1 0x20 MUL PUSH1 0x20 ADD PUSH1 0x40 MLOAD SWAP1 DUP2 ADD PUSH1 0x40 MSTORE DUP1 SWAP3 SWAP2 SWAP1 DUP2 DUP2 MSTORE PUSH1 0x20 ADD PUSH1 0x0 SWAP1 JUMPDEST DUP3 DUP3 LT ISZERO PUSH2 0x2D0 JUMPI DUP4 DUP3 SWAP1 PUSH1 0x0 MSTORE PUSH1 0x20 PUSH1 0x0 KECCAK256 SWAP1 PUSH1 0x5 MUL ADD PUSH1 0x40 MLOAD DUP1 PUSH1 0xA0 ADD PUSH1 0x40 MSTORE SWAP1 DUP2 PUSH1 0x0 DUP3 ADD SLOAD DUP2 MSTORE PUSH1 0x20 ADD PUSH1 0x1 DUP3 ADD SLOAD DUP2 MSTORE PUSH1 0x20 ADD PUSH1 0x2 DUP3 ADD PUSH1 0x0 SWAP1 SLOAD SWAP1 PUSH2 0x100 EXP SWAP1 DIV PUSH20 0xFFFFFFFFFFFFFFFFFFFFFFFFFFFFFFFFFFFFFFFF AND PUSH20 0xFFFFFFFFFFFFFFFFFFFFFFFFFFFFFFFFFFFFFFFF AND PUSH20 0xFFFFFFFFFFFFFFFFFFFFFFFFFFFFFFFFFFFFFFFF AND DUP2 MSTORE PUSH1 0x20 ADD PUSH1 0x3 DUP3 ADD SLOAD DUP2 MSTORE PUSH1 0x20 ADD PUSH1 0x4 DUP3 ADD PUSH1 0x0 SWAP1 SLOAD SWAP1 PUSH2 0x100 EXP SWAP1 DIV PUSH1 0xFF AND ISZERO ISZERO ISZERO ISZERO DUP2 MSTORE POP POP DUP2 MSTORE PUSH1 0x20 ADD SWAP1 PUSH1 0x1 ADD SWAP1 PUSH2 0x20F JUMP JUMPDEST POP POP POP POP SWAP1 POP SWAP1 JUMP JUMPDEST PUSH1 0x60 PUSH1 0x0 DUP1 SLOAD DUP1 PUSH1 0x20 MUL PUSH1 0x20 ADD PUSH1 0x40 MLOAD SWAP1 DUP2 ADD PUSH1 0x40 MSTORE DUP1 SWAP3 SWAP2 SWAP1 DUP2 DUP2 MSTORE PUSH1 0x20 ADD DUP3 DUP1 SLOAD DUP1 ISZERO PUSH2 0x35D JUMPI PUSH1 0x20 MUL DUP3 ADD SWAP2 SWAP1 PUSH1 0x0 MSTORE PUSH1 0x20 PUSH1 0x0 KECCAK256 SWAP1 JUMPDEST DUP2 PUSH1 0x0 SWAP1 SLOAD SWAP1 PUSH2 0x100 EXP SWAP1 DIV PUSH20 0xFFFFFFFFFFFFFFFFFFFFFFFFFFFFFFFFFFFFFFFF AND PUSH20 0xFFFFFFFFFFFFFFFFFFFFFFFFFFFFFFFFFFFFFFFF AND DUP2 MSTORE PUSH1 0x20 ADD SWAP1 PUSH1 0x1 ADD SWAP1 DUP1 DUP4 GT PUSH2 0x313 JUMPI JUMPDEST POP POP POP POP POP SWAP1 POP SWAP1 JUMP JUMPDEST PUSH1 0x2 DUP2 DUP2 SLOAD DUP2 LT PUSH2 0x374 JUMPI INVALID JUMPDEST SWAP1 PUSH1 0x0 MSTORE PUSH1 0x20 PUSH1 0x0 KECCAK256 SWAP1 PUSH1 0x5 MUL ADD PUSH1 0x0 SWAP2 POP SWAP1 POP DUP1 PUSH1 0x0 ADD SLOAD SWAP1 DUP1 PUSH1 0x1 ADD SLOAD SWAP1 DUP1 PUSH1 0x2 ADD PUSH1 0x0 SWAP1 SLOAD SWAP1 PUSH2 0x100 EXP SWAP1 DIV PUSH20 0xFFFFFFFFFFFFFFFFFFFFFFFFFFFFFFFFFFFFFFFF AND SWAP1 DUP1 PUSH1 0x3 ADD SLOAD SWAP1 DUP1 PUSH1 0x4 ADD PUSH1 0x0 SWAP1 SLOAD SWAP1 PUSH2 0x100 EXP SWAP1 DIV PUSH1 0xFF AND SWAP1 POP DUP6 JUMP JUMPDEST PUSH1 0x0 DUP1 SWAP1 POP PUSH1 0x0 DUP1 SWAP1 POP JUMPDEST PUSH1 0x0 DUP1 SLOAD SWAP1 POP DUP2 LT ISZERO PUSH2 0x46C JUMPI PUSH1 0x0 DUP2 DUP2 SLOAD DUP2 LT PUSH2 0x3FC JUMPI INVALID JUMPDEST SWAP1 PUSH1 0x0 MSTORE PUSH1 0x20 PUSH1 0x0 KECCAK256 ADD PUSH1 0x0 SWAP1 SLOAD SWAP1 PUSH2 0x100 EXP SWAP1 DIV PUSH20 0xFFFFFFFFFFFFFFFFFFFFFFFFFFFFFFFFFFFFFFFF AND PUSH20 0xFFFFFFFFFFFFFFFFFFFFFFFFFFFFFFFFFFFFFFFF AND CALLER PUSH20 0xFFFFFFFFFFFFFFFFFFFFFFFFFFFFFFFFFFFFFFFF AND EQ ISZERO PUSH2 0x45F JUMPI PUSH1 0x1 SWAP2 POP JUMPDEST DUP1 DUP1 PUSH1 0x1 ADD SWAP2 POP POP PUSH2 0x3E2 JUMP JUMPDEST POP PUSH1 0x1 ISZERO ISZERO DUP2 ISZERO ISZERO EQ PUSH2 0x4B4 JUMPI PUSH1 0x40 MLOAD PUSH32 0x8C379A000000000000000000000000000000000000000000000000000000000 DUP2 MSTORE PUSH1 0x4 ADD PUSH2 0x4AB SWAP1 PUSH2 0xBB3 JUMP JUMPDEST PUSH1 0x40 MLOAD DUP1 SWAP2 SUB SWAP1 REVERT JUMPDEST PUSH1 0x0 ISZERO ISZERO PUSH1 0x2 DUP4 DUP2 SLOAD DUP2 LT PUSH2 0x4C5 JUMPI INVALID JUMPDEST SWAP1 PUSH1 0x0 MSTORE PUSH1 0x20 PUSH1 0x0 KECCAK256 SWAP1 PUSH1 0x5 MUL ADD PUSH1 0x4 ADD PUSH1 0x0 SWAP1 SLOAD SWAP1 PUSH2 0x100 EXP SWAP1 DIV PUSH1 0xFF AND ISZERO ISZERO EQ PUSH2 0x526 JUMPI PUSH1 0x40 MLOAD PUSH32 0x8C379A000000000000000000000000000000000000000000000000000000000 DUP2 MSTORE PUSH1 0x4 ADD PUSH2 0x51D SWAP1 PUSH2 0xB73 JUMP JUMPDEST PUSH1 0x40 MLOAD DUP1 SWAP2 SUB SWAP1 REVERT JUMPDEST PUSH1 0x0 ISZERO ISZERO PUSH1 0x3 PUSH1 0x0 CALLER PUSH20 0xFFFFFFFFFFFFFFFFFFFFFFFFFFFFFFFFFFFFFFFF AND PUSH20 0xFFFFFFFFFFFFFFFFFFFFFFFFFFFFFFFFFFFFFFFF AND DUP2 MSTORE PUSH1 0x20 ADD SWAP1 DUP2 MSTORE PUSH1 0x20 ADD PUSH1 0x0 KECCAK256 PUSH1 0x0 DUP5 DUP2 MSTORE PUSH1 0x20 ADD SWAP1 DUP2 MSTORE PUSH1 0x20 ADD PUSH1 0x0 KECCAK256 PUSH1 0x0 SWAP1 SLOAD SWAP1 PUSH2 0x100 EXP SWAP1 DIV PUSH1 0xFF AND ISZERO ISZERO EQ PUSH2 0x5CA JUMPI PUSH1 0x40 MLOAD PUSH32 0x8C379A000000000000000000000000000000000000000000000000000000000 DUP2 MSTORE PUSH1 0x4 ADD PUSH2 0x5C1 SWAP1 PUSH2 0xB93 JUMP JUMPDEST PUSH1 0x40 MLOAD DUP1 SWAP2 SUB SWAP1 REVERT JUMPDEST PUSH1 0x1 PUSH1 0x3 PUSH1 0x0 CALLER PUSH20 0xFFFFFFFFFFFFFFFFFFFFFFFFFFFFFFFFFFFFFFFF AND PUSH20 0xFFFFFFFFFFFFFFFFFFFFFFFFFFFFFFFFFFFFFFFF AND DUP2 MSTORE PUSH1 0x20 ADD SWAP1 DUP2 MSTORE PUSH1 0x20 ADD PUSH1 0x0 KECCAK256 PUSH1 0x0 DUP5 DUP2 MSTORE PUSH1 0x20 ADD SWAP1 DUP2 MSTORE PUSH1 0x20 ADD PUSH1 0x0 KECCAK256 PUSH1 0x0 PUSH2 0x100 EXP DUP2 SLOAD DUP2 PUSH1 0xFF MUL NOT AND SWAP1 DUP4 ISZERO ISZERO MUL OR SWAP1 SSTORE POP PUSH1 0x2 DUP3 DUP2 SLOAD DUP2 LT PUSH2 0x640 JUMPI INVALID JUMPDEST SWAP1 PUSH1 0x0 MSTORE PUSH1 0x20 PUSH1 0x0 KECCAK256 SWAP1 PUSH1 0x5 MUL ADD PUSH1 0x3 ADD PUSH1 0x0 DUP2 SLOAD DUP1 SWAP3 SWAP2 SWAP1 PUSH1 0x1 ADD SWAP2 SWAP1 POP SSTORE POP PUSH1 0x1 SLOAD PUSH1 0x2 DUP4 DUP2 SLOAD DUP2 LT PUSH2 0x671 JUMPI INVALID JUMPDEST SWAP1 PUSH1 0x0 MSTORE PUSH1 0x20 PUSH1 0x0 KECCAK256 SWAP1 PUSH1 0x5 MUL ADD PUSH1 0x3 ADD SLOAD LT PUSH2 0x76F JUMPI PUSH1 0x1 PUSH1 0x2 DUP4 DUP2 SLOAD DUP2 LT PUSH2 0x697 JUMPI INVALID JUMPDEST SWAP1 PUSH1 0x0 MSTORE PUSH1 0x20 PUSH1 0x0 KECCAK256 SWAP1 PUSH1 0x5 MUL ADD PUSH1 0x4 ADD PUSH1 0x0 PUSH2 0x100 EXP DUP2 SLOAD DUP2 PUSH1 0xFF MUL NOT AND SWAP1 DUP4 ISZERO ISZERO MUL OR SWAP1 SSTORE POP PUSH1 0x0 PUSH1 0x2 DUP4 DUP2 SLOAD DUP2 LT PUSH2 0x6CE JUMPI INVALID JUMPDEST SWAP1 PUSH1 0x0 MSTORE PUSH1 0x20 PUSH1 0x0 KECCAK256 SWAP1 PUSH1 0x5 MUL ADD PUSH1 0x2 ADD PUSH1 0x0 SWAP1 SLOAD SWAP1 PUSH2 0x100 EXP SWAP1 DIV PUSH20 0xFFFFFFFFFFFFFFFFFFFFFFFFFFFFFFFFFFFFFFFF AND SWAP1 POP PUSH1 0x0 PUSH1 0x2 DUP5 DUP2 SLOAD DUP2 LT PUSH2 0x711 JUMPI INVALID JUMPDEST SWAP1 PUSH1 0x0 MSTORE PUSH1 0x20 PUSH1 0x0 KECCAK256 SWAP1 PUSH1 0x5 MUL ADD PUSH1 0x1 ADD SLOAD SWAP1 POP DUP2 PUSH20 0xFFFFFFFFFFFFFFFFFFFFFFFFFFFFFFFFFFFFFFFF AND PUSH2 0x8FC DUP3 SWAP1 DUP2 ISZERO MUL SWAP1 PUSH1 0x40 MLOAD PUSH1 0x0 PUSH1 0x40 MLOAD DUP1 DUP4 SUB DUP2 DUP6 DUP9 DUP9 CALL SWAP4 POP POP POP POP ISZERO DUP1 ISZERO PUSH2 0x76B JUMPI RETURNDATASIZE PUSH1 0x0 DUP1 RETURNDATACOPY RETURNDATASIZE PUSH1 0x0 REVERT JUMPDEST POP POP POP JUMPDEST POP POP JUMP JUMPDEST PUSH1 0x0 DUP2 DUP2 SLOAD DUP2 LT PUSH2 0x780 JUMPI INVALID JUMPDEST SWAP1 PUSH1 0x0 MSTORE PUSH1 0x20 PUSH1 0x0 KECCAK256 ADD PUSH1 0x0 SWAP2 POP SLOAD SWAP1 PUSH2 0x100 EXP SWAP1 DIV PUSH20 0xFFFFFFFFFFFFFFFFFFFFFFFFFFFFFFFFFFFFFFFF AND DUP2 JUMP JUMPDEST PUSH1 0x3 PUSH1 0x20 MSTORE DUP2 PUSH1 0x0 MSTORE PUSH1 0x40 PUSH1 0x0 KECCAK256 PUSH1 0x20 MSTORE DUP1 PUSH1 0x0 MSTORE PUSH1 0x40 PUSH1 0x0 KECCAK256 PUSH1 0x0 SWAP2 POP SWAP2 POP SWAP1 SLOAD SWAP1 PUSH2 0x100 EXP SWAP1 DIV PUSH1 0xFF AND DUP2 JUMP JUMPDEST PUSH1 0x0 DUP2 CALLDATALOAD SWAP1 POP PUSH2 0x7ED DUP2 PUSH2 0xD1E JUMP JUMPDEST SWAP3 SWAP2 POP POP JUMP JUMPDEST PUSH1 0x0 DUP2 CALLDATALOAD SWAP1 POP PUSH2 0x802 DUP2 PUSH2 0xD35 JUMP JUMPDEST SWAP3 SWAP2 POP POP JUMP JUMPDEST PUSH1 0x0 DUP1 PUSH1 0x40 DUP4 DUP6 SUB SLT ISZERO PUSH2 0x81B JUMPI PUSH1 0x0 DUP1 REVERT JUMPDEST PUSH1 0x0 PUSH2 0x829 DUP6 DUP3 DUP7 ADD PUSH2 0x7DE JUMP JUMPDEST SWAP3 POP POP PUSH1 0x20 PUSH2 0x83A DUP6 DUP3 DUP7 ADD PUSH2 0x7F3 JUMP JUMPDEST SWAP2 POP POP SWAP3 POP SWAP3 SWAP1 POP JUMP JUMPDEST PUSH1 0x0 PUSH1 0x20 DUP3 DUP5 SUB SLT ISZERO PUSH2 0x856 JUMPI PUSH1 0x0 DUP1 REVERT JUMPDEST PUSH1 0x0 PUSH2 0x864 DUP5 DUP3 DUP6 ADD PUSH2 0x7F3 JUMP JUMPDEST SWAP2 POP POP SWAP3 SWAP2 POP POP JUMP JUMPDEST PUSH1 0x0 PUSH2 0x879 DUP4 DUP4 PUSH2 0x8BB JUMP JUMPDEST PUSH1 0x20 DUP4 ADD SWAP1 POP SWAP3 SWAP2 POP POP JUMP JUMPDEST PUSH1 0x0 PUSH2 0x891 DUP4 DUP4 PUSH2 0xA73 JUMP JUMPDEST PUSH1 0xA0 DUP4 ADD SWAP1 POP SWAP3 SWAP2 POP POP JUMP JUMPDEST PUSH2 0x8A6 DUP2 PUSH2 0xCD6 JUMP JUMPDEST DUP3 MSTORE POP POP JUMP JUMPDEST PUSH2 0x8B5 DUP2 PUSH2 0xCD6 JUMP JUMPDEST DUP3 MSTORE POP POP JUMP JUMPDEST PUSH2 0x8C4 DUP2 PUSH2 0xCC4 JUMP JUMPDEST DUP3 MSTORE POP POP JUMP JUMPDEST PUSH2 0x8D3 DUP2 PUSH2 0xCC4 JUMP JUMPDEST DUP3 MSTORE POP POP JUMP JUMPDEST PUSH1 0x0 PUSH2 0x8E4 DUP3 PUSH2 0xC61 JUMP JUMPDEST PUSH2 0x8EE DUP2 DUP6 PUSH2 0xC91 JUMP JUMPDEST SWAP4 POP PUSH2 0x8F9 DUP4 PUSH2 0xC41 JUMP JUMPDEST DUP1 PUSH1 0x0 JUMPDEST DUP4 DUP2 LT ISZERO PUSH2 0x92A JUMPI DUP2 MLOAD PUSH2 0x911 DUP9 DUP3 PUSH2 0x86D JUMP JUMPDEST SWAP8 POP PUSH2 0x91C DUP4 PUSH2 0xC77 JUMP JUMPDEST SWAP3 POP POP PUSH1 0x1 DUP2 ADD SWAP1 POP PUSH2 0x8FD JUMP JUMPDEST POP DUP6 SWAP4 POP POP POP POP SWAP3 SWAP2 POP POP JUMP JUMPDEST PUSH1 0x0 PUSH2 0x942 DUP3 PUSH2 0xC6C JUMP JUMPDEST PUSH2 0x94C DUP2 DUP6 PUSH2 0xCA2 JUMP JUMPDEST SWAP4 POP PUSH2 0x957 DUP4 PUSH2 0xC51 JUMP JUMPDEST DUP1 PUSH1 0x0 JUMPDEST DUP4 DUP2 LT ISZERO PUSH2 0x988 JUMPI DUP2 MLOAD PUSH2 0x96F DUP9 DUP3 PUSH2 0x885 JUMP JUMPDEST SWAP8 POP PUSH2 0x97A DUP4 PUSH2 0xC84 JUMP JUMPDEST SWAP3 POP POP PUSH1 0x1 DUP2 ADD SWAP1 POP PUSH2 0x95B JUMP JUMPDEST POP DUP6 SWAP4 POP POP POP POP SWAP3 SWAP2 POP POP JUMP JUMPDEST PUSH2 0x99E DUP2 PUSH2 0xCE8 JUMP JUMPDEST DUP3 MSTORE POP POP JUMP JUMPDEST PUSH2 0x9AD DUP2 PUSH2 0xCE8 JUMP JUMPDEST DUP3 MSTORE POP POP JUMP JUMPDEST PUSH1 0x0 PUSH2 0x9C0 PUSH1 0x1F DUP4 PUSH2 0xCB3 JUMP JUMPDEST SWAP2 POP PUSH32 0x5472616E736665722068617320616C7265616479206265656E2073656E742E00 PUSH1 0x0 DUP4 ADD MSTORE PUSH1 0x20 DUP3 ADD SWAP1 POP SWAP2 SWAP1 POP JUMP JUMPDEST PUSH1 0x0 PUSH2 0xA00 PUSH1 0x1E DUP4 PUSH2 0xCB3 JUMP JUMPDEST SWAP2 POP PUSH32 0x43616E6E6F7420617070726F7665207472616E7366657220616761696E2E0000 PUSH1 0x0 DUP4 ADD MSTORE PUSH1 0x20 DUP3 ADD SWAP1 POP SWAP2 SWAP1 POP JUMP JUMPDEST PUSH1 0x0 PUSH2 0xA40 PUSH1 0x16 DUP4 PUSH2 0xCB3 JUMP JUMPDEST SWAP2 POP PUSH32 0x4F6E6C7920617070726F76657220616C6C6F7765642E00000000000000000000 PUSH1 0x0 DUP4 ADD MSTORE PUSH1 0x20 DUP3 ADD SWAP1 POP SWAP2 SWAP1 POP JUMP JUMPDEST PUSH1 0xA0 DUP3 ADD PUSH1 0x0 DUP3 ADD MLOAD PUSH2 0xA89 PUSH1 0x0 DUP6 ADD DUP3 PUSH2 0xADB JUMP JUMPDEST POP PUSH1 0x20 DUP3 ADD MLOAD PUSH2 0xA9C PUSH1 0x20 DUP6 ADD DUP3 PUSH2 0xADB JUMP JUMPDEST POP PUSH1 0x40 DUP3 ADD MLOAD PUSH2 0xAAF PUSH1 0x40 DUP6 ADD DUP3 PUSH2 0x89D JUMP JUMPDEST POP PUSH1 0x60 DUP3 ADD MLOAD PUSH2 0xAC2 PUSH1 0x60 DUP6 ADD DUP3 PUSH2 0xADB JUMP JUMPDEST POP PUSH1 0x80 DUP3 ADD MLOAD PUSH2 0xAD5 PUSH1 0x80 DUP6 ADD DUP3 PUSH2 0x995 JUMP JUMPDEST POP POP POP POP JUMP JUMPDEST PUSH2 0xAE4 DUP2 PUSH2 0xD14 JUMP JUMPDEST DUP3 MSTORE POP POP JUMP JUMPDEST PUSH2 0xAF3 DUP2 PUSH2 0xD14 JUMP JUMPDEST DUP3 MSTORE POP POP JUMP JUMPDEST PUSH1 0x0 PUSH1 0x20 DUP3 ADD SWAP1 POP PUSH2 0xB0E PUSH1 0x0 DUP4 ADD DUP5 PUSH2 0x8CA JUMP JUMPDEST SWAP3 SWAP2 POP POP JUMP JUMPDEST PUSH1 0x0 PUSH1 0x20 DUP3 ADD SWAP1 POP DUP2 DUP2 SUB PUSH1 0x0 DUP4 ADD MSTORE PUSH2 0xB2E DUP2 DUP5 PUSH2 0x8D9 JUMP JUMPDEST SWAP1 POP SWAP3 SWAP2 POP POP JUMP JUMPDEST PUSH1 0x0 PUSH1 0x20 DUP3 ADD SWAP1 POP DUP2 DUP2 SUB PUSH1 0x0 DUP4 ADD MSTORE PUSH2 0xB50 DUP2 DUP5 PUSH2 0x937 JUMP JUMPDEST SWAP1 POP SWAP3 SWAP2 POP POP JUMP JUMPDEST PUSH1 0x0 PUSH1 0x20 DUP3 ADD SWAP1 POP PUSH2 0xB6D PUSH1 0x0 DUP4 ADD DUP5 PUSH2 0x9A4 JUMP JUMPDEST SWAP3 SWAP2 POP POP JUMP JUMPDEST PUSH1 0x0 PUSH1 0x20 DUP3 ADD SWAP1 POP DUP2 DUP2 SUB PUSH1 0x0 DUP4 ADD MSTORE PUSH2 0xB8C DUP2 PUSH2 0x9B3 JUMP JUMPDEST SWAP1 POP SWAP2 SWAP1 POP JUMP JUMPDEST PUSH1 0x0 PUSH1 0x20 DUP3 ADD SWAP1 POP DUP2 DUP2 SUB PUSH1 0x0 DUP4 ADD MSTORE PUSH2 0xBAC DUP2 PUSH2 0x9F3 JUMP JUMPDEST SWAP1 POP SWAP2 SWAP1 POP JUMP JUMPDEST PUSH1 0x0 PUSH1 0x20 DUP3 ADD SWAP1 POP DUP2 DUP2 SUB PUSH1 0x0 DUP4 ADD MSTORE PUSH2 0xBCC DUP2 PUSH2 0xA33 JUMP JUMPDEST SWAP1 POP SWAP2 SWAP1 POP JUMP JUMPDEST PUSH1 0x0 PUSH1 0x20 DUP3 ADD SWAP1 POP PUSH2 0xBE8 PUSH1 0x0 DUP4 ADD DUP5 PUSH2 0xAEA JUMP JUMPDEST SWAP3 SWAP2 POP POP JUMP JUMPDEST PUSH1 0x0 PUSH1 0xA0 DUP3 ADD SWAP1 POP PUSH2 0xC03 PUSH1 0x0 DUP4 ADD DUP9 PUSH2 0xAEA JUMP JUMPDEST PUSH2 0xC10 PUSH1 0x20 DUP4 ADD DUP8 PUSH2 0xAEA JUMP JUMPDEST PUSH2 0xC1D PUSH1 0x40 DUP4 ADD DUP7 PUSH2 0x8AC JUMP JUMPDEST PUSH2 0xC2A PUSH1 0x60 DUP4 ADD DUP6 PUSH2 0xAEA JUMP JUMPDEST PUSH2 0xC37 PUSH1 0x80 DUP4 ADD DUP5 PUSH2 0x9A4 JUMP JUMPDEST SWAP7 SWAP6 POP POP POP POP POP POP JUMP JUMPDEST PUSH1 0x0 DUP2 SWAP1 POP PUSH1 0x20 DUP3 ADD SWAP1 POP SWAP2 SWAP1 POP JUMP JUMPDEST PUSH1 0x0 DUP2 SWAP1 POP PUSH1 0x20 DUP3 ADD SWAP1 POP SWAP2 SWAP1 POP JUMP JUMPDEST PUSH1 0x0 DUP2 MLOAD SWAP1 POP SWAP2 SWAP1 POP JUMP JUMPDEST PUSH1 0x0 DUP2 MLOAD SWAP1 POP SWAP2 SWAP1 POP JUMP JUMPDEST PUSH1 0x0 PUSH1 0x20 DUP3 ADD SWAP1 POP SWAP2 SWAP1 POP JUMP JUMPDEST PUSH1 0x0 PUSH1 0x20 DUP3 ADD SWAP1 POP SWAP2 SWAP1 POP JUMP JUMPDEST PUSH1 0x0 DUP3 DUP3 MSTORE PUSH1 0x20 DUP3 ADD SWAP1 POP SWAP3 SWAP2 POP POP JUMP JUMPDEST PUSH1 0x0 DUP3 DUP3 MSTORE PUSH1 0x20 DUP3 ADD SWAP1 POP SWAP3 SWAP2 POP POP JUMP JUMPDEST PUSH1 0x0 DUP3 DUP3 MSTORE PUSH1 0x20 DUP3 ADD SWAP1 POP SWAP3 SWAP2 POP POP JUMP JUMPDEST PUSH1 0x0 PUSH2 0xCCF DUP3 PUSH2 0xCF4 JUMP JUMPDEST SWAP1 POP SWAP2 SWAP1 POP JUMP JUMPDEST PUSH1 0x0 PUSH2 0xCE1 DUP3 PUSH2 0xCF4 JUMP JUMPDEST SWAP1 POP SWAP2 SWAP1 POP JUMP JUMPDEST PUSH1 0x0 DUP2 ISZERO ISZERO SWAP1 POP SWAP2 SWAP1 POP JUMP JUMPDEST PUSH1 0x0 PUSH20 0xFFFFFFFFFFFFFFFFFFFFFFFFFFFFFFFFFFFFFFFF DUP3 AND SWAP1 POP SWAP2 SWAP1 POP JUMP JUMPDEST PUSH1 0x0 DUP2 SWAP1 POP SWAP2 SWAP1 POP JUMP JUMPDEST PUSH2 0xD27 DUP2 PUSH2 0xCC4 JUMP JUMPDEST DUP2 EQ PUSH2 0xD32 JUMPI PUSH1 0x0 DUP1 REVERT JUMPDEST POP JUMP JUMPDEST PUSH2 0xD3E DUP2 PUSH2 0xD14 JUMP JUMPDEST DUP2 EQ PUSH2 0xD49 JUMPI PUSH1 0x0 DUP1 REVERT JUMPDEST POP JUMP INVALID LOG2 PUSH5 0x6970667358 0x22 SLT KECCAK256 BLOCKHASH MUL MLOAD SWAP9 GASPRICE 0xB3 REVERT 0xA9 SWAP14 LOG2 JUMP SWAP8 DUP5 SHR 0xF8 0xA6 0x25 PUSH5 0xE201B6A6D5 0xBC 0xC3 0xE8 0xD 0x49 0x5E PUSH29 0x321964736F6C6343000600003300000000000000000000000000000000 "
				},
				"gasEstimates": {
					"creation": {
						"codeDepositCost": "691600",
						"executionCost": "infinite",
						"totalCost": "infinite"
					},
					"external": {
						"approvals(address,uint256)": "1853",
						"approveTransfer(uint256)": "infinite",
						"approvers(uint256)": "2400",
						"getApprovers()": "infinite",
						"getTransfers()": "infinite",
						"quorum()": "1130",
						"transfers(uint256)": "infinite"
					}
				},
				"methodIdentifiers": {
					"approvals(address,uint256)": "ffabc673",
					"approveTransfer(uint256)": "cacca4a0",
					"approvers(uint256)": "d3650fb8",
					"getApprovers()": "6cb3e8ef",
					"getTransfers()": "2f65142c",
					"quorum()": "1703a018",
					"transfers(uint256)": "9377d711"
				}
			},
			"userdoc": {
				"methods": {}
			}
		}
	}
}